:020000040000FA
:100000000C9487140C94562A0C942F2A0C94AF1439
:100010000C94AF140C94AF140C94AF140C94AF1454
:100020000C94AF140C94AF140C94AF140C94AF1444
:100030000C94AF140C94AF140C94AF140C94AF1434
:100040000C94E5290C94AF140C94AF140C94AF14D9
:100050000C94AF140C94AF140C94AF140C94AF1414
:100060000C947D2A0C94AF1400000000230026009D
:10007000290000000000003E5B4F5B3E3E6B4F6B73
:100080003E1C3E7C3E1C183C7E3C181C577D571C79
:100090001C5E7F5E1C00183C1800FFE7C3E7FF00F2
:1000A00018241800FFE7DBE7FF30483A060E262940
:1000B000792926407F050507407F05253F5A3CE703
:1000C0003C5A7F3E1C1C08081C1C3E7F14227F22C9
:1000D000145F5F005F5F06097F017F006689956A94
:1000E000606060606094A2FFA29408047E0408101F
:1000F000207E201008082A1C08081C2A08081E1048
:100100001010100C1E0C1E0C30383E3830060E3EFF
:100110000E06000000000000005F0000000700075E
:1001200000147F147F14242A7F2A12231308646288
:1001300036495620500008070300001C22410000E9
:1001400041221C002A1C7F1C2A08083E0808008047
:1001500070300008080808080000606000201008DF
:1001600004023E5149453E00427F400072494949E0
:10017000462141494D331814127F10274545453912
:100180003C4A494931412111090736494949364616
:100190004949291E000014000000403400000008F6
:1001A0001422411414141414004122140802015999
:1001B00009063E415D594E7C1211127C7F49494926
:1001C000363E414141227F4141413E7F49494941BB
:1001D0007F090909013E414151737F0808087F00EA
:1001E000417F41002040413F017F081422417F4070
:1001F0004040407F021C027F7F0408107F3E414147
:10020000413E7F090909063E4151215E7F091929B6
:1002100046264949493203017F01033F4040403FA0
:100220001F2040201F3F4038403F631408146303E1
:10023000047804036159494D43007F414141020460
:10024000081020004141417F040201020440404067
:100250004040000307080020545478407F2844445D
:10026000383844444428384444287F385454541877
:1002700000087E090218A4A49C787F080404780072
:10028000447D40002040403D007F10284400004154
:100290007F40007C047804787C0804047838444467
:1002A0004438FC1824241818242418FC7C0804045E
:1002B00008485454542404043F44243C4040207CC7
:1002C0001C2040201C3C4030403C44281028444C1A
:1002D0009090907C4464544C4400083641000000E7
:1002E000770000004136080002010204023C262388
:1002F000263C1EA1A161123A4040207A3854545540
:100300005921555579412254547842215554784009
:1003100020545579400C1E52721239555555593991
:100320005454545939555454580000457C410002E6
:10033000457D420001457C407D1211127DF028254B
:1003400028F07C545545002054547C547C0A097F85
:100350004932494949323A4444443A324A48483099
:100360003A4141217A3A42402078009DA0A07D3D4B
:100370004242423D3D4040403D3C24FF2424487ED3
:100380004943662B2FFC2F2BFF0929F620C0887EBE
:10039000090320545479410000447D413048484AC3
:1003A00032384040227A007A0A0A727D0D19317D76
:1003B0002629292F28262929292630484D4020384A
:1003C0000808080808080808382F10C8ACBA2F1009
:1003D0002834FA00007B000008142A142222142A70
:1003E00014085500550055AA55AA55AAFF55FF55A2
:1003F000FF000000FF00101010FF00141414FF0095
:100400001010FF00FF1010F010F0141414FC001472
:1004100014F700FF0000FF00FF1414F404FC141490
:1004200017101F10101F101F1414141F001010108D
:10043000F0000000001F101010101F10101010F01E
:1004400010000000FF101010101010101010FF10FE
:10045000000000FF140000FF00FF00001F10170045
:1004600000FC04F414141710171414F404F400001E
:10047000FF00F714141414141414F700F7141414D0
:10048000171410101F101F141414F4141010F0106F
:10049000F000001F101F0000001F14000000FC14DB
:1004A0000000F010F01010FF10FF141414FF1410CF
:1004B00010101F00000000F010FFFFFFFFFFF0F022
:1004C000F0F0F0FFFFFF0000000000FFFF0F0F0F34
:1004D0000F0F3844443844FC4A4A4A347E0202062C
:1004E00006027E027E0263554941633844443C045F
:1004F000407E201E2006027E020299A5E7A5991CD7
:100500002A492A1C4C7201724C304A4D4D303048F9
:10051000784830BC625A463D3E494949007E010157
:10052000017E2A2A2A2A2A44445F444440514A44EC
:100530004040444A51400000FF0103E080FF0000BA
:1005400008086B6B083612362436060F090F0600B2
:100550000018180000001010003040FF0101001FBB
:1005600001011E00191D1712003C3C3C3C0000001C
:100570000000000103070F1F3F7F0080C0E0F0F87C
:10058000FCFE00000000240027002A0000000000FC
:10059000250028002B0004040404040404040202BF
:1005A00002020202030303030303010204081020F2
:1005B00040800102040810200102040810200000FD
:1005C0000008000201000003040700000000000012
:1005D0000000130003030505040506101000FE0AC1
:1005E000FE0BFF019D03370F18200600A0470121D5
:1005F000074131447111220885284611D316230D75
:1006000046254495A74B28CB294F00241247254463
:1006100017AC8442A2E0781812A51463002516478F
:10062000254423134592222149341C8D8822A14858
:10063000924C022614472544354B8AA50485919097
:100640002C228CC444A300270681304641280D8308
:10065000ED4315094542790BC502290E83E9431183
:100660000BC54279094542002A0EE76444979492EB
:100670006D16C99416032B0BE76444174EBB85D344
:10068000002C0982AC43218948002D0624284541CD
:100690002E06422C44412F0D4625449B981A8C0669
:1006A00053A3003014462544250B4582B251441211
:1006B0009A0923A1980800310B4529441513458256
:1006C000F954320E46254443090AA3315930356A9C
:1006D000331046254443090AA3A17154288C5000C5
:1006E00034114625441994454229B1482C628CA600
:1006F00000350E462544714D2D47A3C2080500362E
:100700000F462544350A46A395A0C6080500370CB8
:10071000462544614D8C26463301380F4625444317
:10072000092A4628418D110A00390E4625444309FD
:100730002A46AA194323003A07E26C4441263B0AA1
:1007400022ED4341964424003C0925294419CB3528
:10075000073D08A6A4446147343E0A25254411CD2F
:100760002D47003F0F46254443090AA3C1D4383022
:100770001A024014462544358A892292C824240945
:100780004942A2499800410E462544250B65090AB5
:100790000F418D01420D46254451092A5A821A2DD6
:1007A00000430D4625444309AAE6288C5000440D19
:1007B000462544418A4582FA162101450B462544C7
:1007C000714DAD44B31A460B462544714DAD44738B
:1007D00005470E4625444309AA2611D5249300480F
:1007E0000B46254411D47808EA18490A4529445192
:1007F0000AE6A7024A0E472544550CE729168AC582
:1008000066004B13462544119445422931A130120C
:100810000BA54582014C0946254411CD5F0D4D0DB8
:1008200046254411148E48131D35064E12462544A4
:10083000119CCD24214948141145648B014F0C466D
:1008400025444309EAC7080500500C4625445109D0
:100850002A5AA2B902511767E543430A46829160BA
:1008600024180946829188242212D1055210462567
:100870004451092A5A4269915824280C530D46259F
:100880004443092A6B14462800540A472544710B37
:10089000E76F00550B46254411D41F23140056134F
:1008A00047254411558DC442B1502C2518898663C3
:1008B00000570D46254411D445CB883414065811F1
:1008C00046254411144642D984B25096A0300059AE
:1008D0001047254411954662A1584A349C1B005A82
:1008E0000B462544614DCC6BD4005B0983F1434139
:1008F000CA3F0D5C0D462544110DA786A3E1D40027
:100900005D0983E54331CA3F115E0A666446250BE3
:100910004582015F0627E44371600763A846114BD7
:10092000610E062544430946234635C92400620F5B
:1009300066254411CD32910935CE241300630C068F
:10094000254443094A738C5000640D6625449B6519
:10095000221BEA269904650E06254443090A0FD195
:10096000C4080500660C652544270A26958279028D
:10097000671466A5431B99C822B1482C348B528258
:10098000C2080500680C66254411CD329109F5189E
:10099000690B652944158C4384F9546A0DA5A54358
:1009A000990E11E6A32824026B1266254411CD1678
:1009B00009A5C4849158282D120C6C09652944237B
:1009C000CC3F156D1407254431918442A290282410
:1009D0000A8942A29028016E0B0625441199C88409
:1009E0007A0C6F0B0625444309EA314201700F4629
:1009F000A5431199C8841A679249340A710D46A516
:100A00004333910D75934CA209720C06254411993C
:100A1000C884D25C01730C06254443098A354628F4
:100A200000740B452544154C2A057315750B0625D6
:100A30004411D437C92400760D06254411548C8402
:100A4000F2261401771307254411158544215148D6
:100A500014128544292A00781006254411144642B0
:100A600031A12C14090A03790E46A54311D4311281
:100A70005289A650007A0A062544610DE6D5007B0E
:100A80000FA4A94325890563A1C4B4502C287C0771
:100A9000C1B143F1007D10A4A943218C8562C1A49A
:100AA000B4602C22027E0B67244623138564120057
:100AB0007F2510A28311C9EF48729CE448234A6C39
:100AC00014094643114A6C14094647143B4E729C64
:100AD000E44891FC00802710A28311C9EF48729C62
:100AE000E44833D16414094542A11125440C454220
:100AF00089A1C8448E931C273952243F812810A213
:100B00008311C9EF48729CE44849A2C928128A841B
:100B10004294506429128A444321514C8E931C27DD
:100B20003952243F822510A28311C9EF48729CE4F8
:100B3000484B215224140985964E916028340A8628
:100B4000E638C971922345F203832610A28311C9A6
:100B5000EF48729CE44829A3502529124A918C4EF3
:100B60009150249465149AE324C7498E14C90F84C4
:100B70002A10A28311C9EF48729CE4489350642460
:100B800009499282A188241491845242B1492832A1
:100B900092E324C7498E14C90F852510A28311C979
:100BA000EF48729CE44829941825311A915062A3A9
:100BB00048301A8A50EC38C971922345F2038622D4
:100BC00010A28311C9EF48729CE468A39164981441
:100BD00053B20523A1D052688E931C273952243F6B
:100BE000872310A28311C9EF48729CE448A4916442
:100BF00098142289EE915088320ACD7192E32447ED
:100C00008AE407882310A28311C9EF48729CE44844
:100C100029A3C9283329261AA5C6424923394E7269
:100C20009CE44891FC00892410A28311C9EF48720A
:100C30009CE468A1C88A2494182405239250625227
:100C4000923A4E729CE44891FC008A2510A28311CE
:100C5000C9EF48729CE448B1C848320BA5C642B1FE
:100C600090242D180D86D47192E324478AE4078BD3
:100C70002410A28311C9EF48729CE448A3E06414D5
:100C8000098642A3608898944899C87192E32447E2
:100C90008AE4078C2410A28311C9EF48729CE448AF
:100CA000A3608814098642A3608898944892C8710A
:100CB00092E324478AE4078D2210A28311C9EF48EA
:100CC000729CE4A8B3A02C940E9A056591581C94CC
:100CD000518E931C273952243F8E2110A28311C9B3
:100CE000EF48729CE468A3C9623CA645168C444751
:100CF000233B4E729CE44891FC008F1F10A283118D
:100D0000C9EF48729CE468A3C9623CA645164CDA58
:100D100022C7498E931C29921F902510A28311C9C6
:100D2000EF48729CE448B39129128C862251C9285D
:100D3000120FCD2613394E729CE44891FC00912489
:100D400010A28311C9EF48729CE448A3B4C82812CA
:100D50000AC94669916128962AABE324C7498E14D3
:100D6000C90F922410A28311C9EF48729CE448A3D2
:100D700094A54828181A254986A148342AB2E324A4
:100D8000C7498E14C90F932410A28311C9EF48726A
:100D90009CE46893D1641A8ACB622259281A9B85F5
:100DA00046729CE438C99122F901942110A2831162
:100DB000C9EF48729CE468A349889894183C26C5FA
:100DC0004693D01C27394E72A4487E952510A283E5
:100DD00011C9EF48729CE46829B1904425168DE44E
:100DE00049128BA8C622B1901C27394E72A4487EA6
:100DF000962510A28311C9EF48729CE46893996408
:100E0000188A8462A2912D120C8546C1D01C273904
:100E10004E72A4487E972410A28311C9EF48729C99
:100E2000E448949964188A844294D131294409860B
:100E3000E638C971922345F203982510A28311C99F
:100E4000EF48729CE46823993114098B9224B248CC
:100E500028189A8926729CE438C99122F9019926AA
:100E600010A28311C9EF48729CE468A29184168C89
:100E7000254524B151241489856423C91C27394E82
:100E800072A4487E9A2310A28311C9EF48729CE491
:100E900068A3C962342A8A86649168703699C871D9
:100EA00092E324478AE4079B2210A28311C9EF48EA
:100EB000729CE468A3C96234189585E6A1E864349D
:100EC00091E324C7498E14C90F9C2210A28311C933
:100ED000EF48729CE4A89392281C070983D2581CFF
:100EE000320CCA7192E324478AE4079D2410A2833E
:100EF00011C9EF48729CE468B29129128C8642A213
:100F0000D82818098B66759CE438C99122F9019E8E
:100F10002410A28311C9EF48729CE488A358489416
:100F2000A23C8A248982B170301692E324C7498E8C
:100F300014C90F9F2510A28311C9EF48729CE46861
:100F4000A29929128A4429A3D828128C8622D13A40
:100F50004E729CE44891FC00A00600A04701A10746
:100F60004131442139A213472544170E56422151DD
:100F70002C140BA514C33100A30E472544370B27AF
:100F800016C3A9156100A410066544118C90528205
:100F9000C24828440906A510472544118DC452A211
:100FA000B15BEC164E03A6074131444122A710461F
:100FB000254443098A294161842C8C5000A80844A7
:100FC0002847111205A918482144450B46422AA179
:100FD000882428094A42119128128C9100AA0BE515
:100FE0006845338DD422D402AB0F262544954B2877
:100FF0004B2816CA16CA00AC0886244461CD00AD41
:101000002510A28311C9EF4872B44948460C451215
:1010100045A4902C124A1C6592E32447A7CA7192FA
:101020002345F203AE19482144450B4622234928A3
:10103000220945242349922414498C9100AF0626A5
:10104000E44661B00B84A845230989221200B10C43
:10105000276544174EBB85D36107B20DE5244533A0
:10106000890543A258B000B30DE524453389052313
:1010700053596402B40863AC46154902B51648A139
:1010800043130C0543C15030140C05434A1151243D
:101090001C07B61967E54373984428114A68128CF7
:1010A0000423C14830128C04231100B706422C459A
:1010B00041B80743A8433501B90BE524451513454D
:1010C00082990ABA0BE568453389A945C605BB1064
:1010D00026254411CA16CA168A84B2843201BC136A
:1010E000462544139B454229B148309422491111A9
:1010F00003BD14462544139B454229B14830129341
:10110000A4C922A101BE13462544210BA584622255
:101110004930942249111103BF0F462544158D0310
:10112000A3C1D4A0304201C011C625442396A3C850
:10113000425982C243506300C111C625442792A37D
:10114000C9425982C243506300C212C62544250BCE
:10115000C55164A12C41E121A83100C311C6254429
:101160002352479185B2048587A0C600C411C625C5
:101170004413CA8E220B65090A0F418D01C512C6A0
:101180002544250BC5E43059284B5078086A0CC615
:101190001547254455490BC542B14328168A856237
:1011A000A1588800C70F86A5434309AAE6288C10DA
:1011B000633200C80EC62544239683AFA9956856AE
:1011C00003C90EC625442792A35C532BD1AC06CA93
:1011D0000FC62544250BC5C1D7D44A34AB01CB0E6D
:1011E000C6254413CA0EBEA656A2590DCC0CC5295D
:1011F000442395C34AC1FC54CD0CC5294425918391
:101200004BC1FC54CE0DC52944234A079682F9A947
:1012100000CF0EC52944118A84E2C052303F15D058
:1012200015472144434B0A4682A54830128C0423BB
:10123000B1100900D115C625442352070767334969
:10124000481212454411D96200D20EC62544239695
:10125000C32941FD18A100D30EC62544279223516E
:1012600082FA314201D40FC62544250BC5E194A072
:101270007E8C5000D50EC625442352875382FA3106
:101280004201D60EC6254413CA0EA704F563840294
:10129000D70DA6A444118C8462B2502418D81786A6
:1012A000E5431B99C822B1514414918424A15924C7
:1012B00026994401D90DC6254423968383FA638475
:1012C00002DA0EC625442792A304F5C7080500DB01
:1012D0000EC62544250BC5C141FD314201DC0EC6B9
:1012E000254413CA0E0EEA8F110A00DD12C72544E9
:1012F000A78E18954662A1584A349C1B00DE1066E2
:101300002544118D926291A05A84144D05DF134635
:101310002544338A456291508A281609AA845400CC
:10132000E0108625442396C329C168C4A8269904E1
:10133000E1108625442792235182D188514D3209EC
:10134000E211862544250BC5E19460346254934C28
:1013500002E3108625442352875382D188514D32AF
:1013600009E41086254413CA0EA704A311A39A64A6
:1013700012E512A62544250BC5E428946034625476
:10138000934C02E6110725445309A58522A7582846
:10139000164AA900E70E46A54343094A738C106319
:1013A0003200E8108625442396C32941E1219A188A
:1013B000A100E9108625442792235182C24334318B
:1013C0004201EA11862544250BC5E194A0F0104D99
:1013D0008C5000EB1086254413CA0EA7048587683D
:1013E000628402EC0B85294421954385F954ED0B69
:1013F0008529442591C385F954EE0C852944234A57
:10140000870AF3A900EF0D852944118A84E250610F
:101410003E15F011862544238AC922A1583462D48E
:10142000314201F10E862544235207472632A11E80
:1014300003F20E8625442396C329413D462800F336
:101440000E86254427922351827A8C5000F40F8611
:101450002544250BC5E194A01E231400F50E862516
:101460004423528753827A8C5000F60E862544130B
:10147000CA0EA704F518A100F70BE664442587DB24
:10148000E12200F81446E5431BA1C4461151441261
:10149000928466114A1400F90D86254423968383AD
:1014A000FA269904FA0D8625442792A304F54D32B5
:1014B00009FB0E862544250BC5C1417D934C02FCDA
:1014C0000D86254413CA0E0EEA9B6412FD11C6A5B3
:1014D000432792A304758C8454A2291400FE11A6FC
:1014E000A54311CD32910935CE2493681400FF1124
:1014F000C6A54313CA0E0EEA1809A94453280000D2
:1015000000000C23F0071125DA0545FFFF20A0108D
:101510004625444389A6546291202D1A2520A11402
:101520004625441789982292BC484292D048328B73
:101530000120A215462544358A09A591C84414897D
:101540004582A2D0040020A30F482144658AA7D772
:10155000E251633C0A20A410472544370B076D4134
:101560005B385A110620A5164725441DA64842128D
:10157000914414128524A24968120A20A61747250F
:1015800044130BC542A2C825CB25240A8962A15861
:10159000040020A7174725442189456411CB482220
:1015A0004A490A8942A290680220A8194725443175
:1015B0000CC542919168128A2445429150481412F8
:1015C0004D0020A916472544130BC542B1C825CBB1
:1015D0004549228A8562110020AA150721444192BB
:1015E0004524299214498A24451293500020AB19AE
:1015F000A7A5431BA48626699260241809468291F8
:1016000098681287580020AC12462544270B458263
:10161000A560291A0EC5240020AD14472144138C5F
:10162000C4426991A0F092188A25050320AE0F47A5
:101630002544710B8747E3D1381B0020AF1987A5DC
:1016400043310CC542B1502C140B4D42129144341D
:101650009984930020B01786A543338A4562915838
:10166000281214455244119930130020B1148821D6
:1016700044530B460E9160E41009866AF19C0120E8
:10168000B21CC6A543150D52922421492C128B443D
:101690002621494812914C42D1180020B318482104
:1016A00044270D0543A1432418394482A16028181A
:1016B0000A460020B413482144450BC6530E21E1CD
:1016C00021120FC6480020B51BC6A543150D529226
:1016D0002421492C128BC422B14848128AD0A2314D
:1016E0000020B6184725449318094662A6483012D0
:1016F0008C0423C1482812920020B71887A14345C3
:101700000A4682A1B83C140949522429974C9124D5
:101710000020B80B07214471BF85730320B91888D6
:10172000F1837188C921A143341CA3C62171481CCF
:101730001287840020BA13672144154E092A4612E5
:10174000D524B150DA080020BB14472144138D047E
:101750006D29C14896492C1C8B8D0020BC10E524B6
:1017600044158C4D5224114944920020BD11462548
:1017700044438A4562919829588A260220BE1287DE
:101780002144158955B248522429E2EC890720BF2B
:101790001CC7A14315094642A660241809464AC140
:1017A0004830128C046F91602404210317C7214430
:1017B000138D0423D13829180946C2394682210ADB
:1017C00000210912C72144138D0423D1B0259C5C4C
:1017D0000AE70A2126114725445389EA1A89A504F4
:1017E00023A1C90021900CA7A444158D5EE24100FD
:1017F00021910DC5A943159B640AE63F0121920B77
:10180000A7A044198F5C930021930EC5294415CCE1
:101810007F8AA4CC420021940FA8A04495168C1C6A
:1018200022C1582804219510852944159B640AE695
:101830002992320B0121960DC6E44441124662A161
:10184000700221970EC6E4444594454229C1280000
:1018500021980DC6E444114E8A4582220221990E38
:10186000C6A4441B8C845262421200219A1227257E
:1018700044190E4662A1D025148C849300219B113B
:10188000272144154E098622A7B448301C04219C08
:1018900012AEE8843107CA4791682C188B06E7001E
:1018A000219D12AEE0840F1CCD25B168441A8BC374
:1018B0008600219E0FA8A04495168A1D22A16828A3
:1018C00004219F10C5A943159B648A4D3205F3136B
:1018D0000021A00FA8A044951A8A1C62A1582804D0
:1018E00021A111E5E94315CC9F2229B350246516A7
:1018F0000221A20CA7A444158BC422B51C21A30E5F
:10190000A7A04411CB56894562210021A40CA6A4AE
:10191000449512BBC4420921A50D852944159B6439
:101920000AE6A70221A60EA6A444114A8BDC22A136
:10193000100021A70E852944510AE6A748CA2C04A5
:1019400021A810852944159B640AE6144999850A43
:1019500021A90DC7A4441B4B099EE2410021AA0EF8
:10196000C7A444138D8582216B120021AB0FC7A43D
:10197000441B8B648A9C1223210021AC10C7A44411
:10198000138D24454221535A240421AD10A8A044AC
:10199000951691444693602C140221AE15282144DB
:1019A000198F4664A148E41009456211713C062173
:1019B000AF1386254411CD9422928452D32249C379
:1019C000100021B00C25A543158B91B2047321B1F1
:1019D0000E25A943150D952249C18C0021B20E8513
:1019E000A544999F2249A568080021B30E85A94402
:1019F00011CC2FA1245A120021B40DA82044618FCC
:101A00004612C7210021B50E85A544999F2249960B
:101A100068080021B60FA8E044470B4A9222B35051
:101A2000140021B70FA8E044430B865222B271087C
:101A30000021B80E06E54461260923B15038012182
:101A4000B9146625441189090FC1481C1A091E8260
:101A5000B2480021BA0FC664441321494211A13093
:101A6000420121BB0FC664443109A98484C2080520
:101A70000021D00BA6A444153497620021D11A8509
:101A80002944158B44549222A14828128A8422A109
:101A90004828128A440021D20BA6A444172A1B43CB
:101AA0000021D319852944931409454291502414E7
:101AB000094542915024A292160221D40EA8A044B6
:101AC000956609476CA1100021D518852944158B0E
:101AD00044549222A14828128A84221195B41000FD
:101AE00021D610C6E444418AC424A14862241801C6
:101AF00021D70FC6E444458B842292144930082133
:101B0000D80FC6E444138C0423491159244421D925
:101B10000FC6E44499224991842231120021E60F34
:101B2000E86044179646CC9148491E0421E719877E
:101B30002544178DC4529622C14830128C0423C10B
:101B40004830121C0121E80FE86044191755922D06
:101B500051710C0021E91A872544358C0423C148B2
:101B600030128C0423C148683289A544630023E9FC
:101B7000152B2984110DAA2DB1540E22CA6C249460
:101B800045830023EA162B2984198D0945B309E9F9
:101B900020A99048B39950180D23EB1269ED8319D1
:101BA0009FD62E0739383EAD5D0E0223EC1369ED4A
:101BB000837190DCAAF338F820B955E7410023ED92
:101BC000132D2584118D0E85B459896469625B5487
:101BD0004D23EE162D2584118D0A85B3198954A93C
:101BE0009848B51951384D23EF172A2D84110D0D42
:101BF00043B4502964099542B4D030240D0523F034
:101C000020CBE9831B16852492CA241A494B090666
:101C10008541615016158523F15834785B0123F115
:101C20001EAB29842907C921155174124B09068559
:101C30004161500E928322F158345A0323F2196BFA
:101C40002984574D8B4742615954189483E4A04826
:101C50003C168DD60023F322ADE5837130C583F1A8
:101C60006028128A4A2272891C14898324F2685AD5
:101C7000A2244518C9E96023F41066F1831B948DF2
:101C800028074A8936940623F51166F1831115CE8B
:101C9000489503853413460123F60ECBA8841B0711
:101CA000CDABB783E44023F70FCBA88471A01C64AD
:101CB000D7FA1C140523F80A66358421E27F122323
:101CC000F90A4A2D84F1FF0F0223FA104A2D846588
:101CD0003B440EFF817288990025800908A145F1D7
:101CE0007F0825810848A043F12025820988A04368
:101CF000F10301258309C8A043F10F0625840908D3
:101D0000A143F17F0825850A48A143F1FF61002521
:101D1000860A88A143F1FF8702258709C8A143F1FC
:101D2000FF3F25880A08A243F1FFFF202589090704
:101D3000A243F1FF3F258A0A06A243F1FF8702254D
:101D40008B0A05A243F1FF6100258C0904A243F12F
:101D50007F08258D0903A243F10F06258E0902A2F3
:101D600043F10301258F0801A243F12025900904C6
:101D7000B243F17F0825911C07A243110BC664C131
:101D8000982C18930563B2604C168CC98231593077
:101D90001625922608A24311C9144991648AA448C1
:101DA00032455224992229924C911449A6488A24FA
:101DB0005324459229920125932308A24331994443
:101DC000269549645299442695496452994426952A
:101DD000496452994426954964222594084820472D
:101DE000F12025950801BE43F12025960904A14361
:101DF000F1030125970904B143F103012598090472
:101E0000A145F1030125990D08A24341E48F87FF05
:101E10002100259A0C08A24341E4EF10227F259B64
:101E20000C08A243F17F28F24700259C0B08A2432F
:101E3000F17F08F20F259D0904B145F10301259EAC
:101E40000C08A243C91F0F41FE08259F0C08A2439E
:101E5000C91F0FFF430125A008E72444F11F25A156
:101E60000BE764447188EA7A0825A20CE7644453BE
:101E700089EA1AA90025A310E7644471884A2692CA
:101E80008964223D0425A40EE7644471881EA407DA
:101E9000E9210025A513E764447188A44852242948
:101EA000921449CA210025A611E764447188A41C34
:101EB00024290749CA210025A712E76444718884B0
:101EC00046A15144121A850E0125A812E7644471F7
:101ED0001045442149881411850E0125A912E76493
:101EE000447188A44C229394496492720825AA08EC
:101EF00084A844F12025AB0984284551121525AC4E
:101F000008872445F10325AD0B87244571884A0FC6
:101F10000125AE08E4A844F10325AF0AE4A8445122
:101F2000D2A90025B00968204565710225B10B686A
:101F300020456509464C0025B20CC6E44425949121
:101F400028870225B30CC6E444259485B2040F25E6
:101F5000B40966E44425A31825B50A66E444250BB4
:101F6000450C25B60DC6A44421241D0E22210025B2
:101F7000B70EC6A444218C88622B22210025B80A02
:101F800084E844213A8C0025B90B84E844218A4C2A
:101F9000480025BA0CA6A44421241D46420025BBB6
:101FA0000EA6A444218C88621391100025BC0DC696
:101FB000E44471A8906842110025BD0DC6E4447147
:101FC0008C84B209450025BE0A66E44461A18900FB
:101FD00025BF0B66E4446109C5440025C00CC6A4B6
:101FE00044293A1C44440125C10EC6A4442992CC7C
:101FF000662149500025C20984E84475180925C3A3
:102000000A84E8444599840425C40BA6A444293ACB
:102010008C880225C50DA6A4442992CC4292A0002A
:1020200025C60EE7A444179D552EB5690C0025C79B
:1020300010E7A444178DC452A291584A340625C80B
:1020400011E7A444178DC4225926B945A2310025B1
:10205000C911E7A444354B8988241391242D3602F5
:1020600025CA12466544259485B20485915036A14F
:10207000080025CB0FE7A444354B89AA4662B1116D
:102080000025CC10E7A444158983A2F1681C14092B
:102090000125CD11E7A444359348B248522459D4C0
:1020A000460025CE11E7A444354B09852429A29486
:1020B000586C0425CF0DE7A44435AB1C5E6A2300A1
:1020C00025D00FE7A444351345666C11516C0425E7
:1020D000D10FE7A444350B49626C93906C0425D270
:1020E0000FE7A444354B894A0F91DA080025D30F36
:1020F000E7A44435AB1CA2D2482C360225D40FE706
:10210000A444358B4C42AD91586C0425D50FE7A4FF
:1021100044350B4962B4C3A4360225D60CE4A4446A
:1021200025391C22230125D70DE4B044219A1C0E29
:1021300011110025D80F08A243F11F444562E9F0B0
:102140000F0225D91408A243F10FA18A64429150CD
:102150002692D2E10F0125DA0D08A145F10FA18ADF
:1021600064420925DB0E08A14311A14C24A5C31F1D
:102170000225DC0B8464452509C5620025DD098440
:102180007045214C0B25DE0A84B0449714110125BB
:10219000DF0A84A444110B060525E00B876445354E
:1021A0004B894A0325E10D87A44411954662B1117C
:1021B0000025E20F08A2439F597591ADC9E5E110D2
:1021C00025E31408A243114F178BA75322B15633AE
:1021D000992E0F0125E41508A243F110B9984CB5CA
:1021E0001A91389D8AC5F1740025E50F08A2437144
:1021F000883CB935B22EAB6725E60CA5A4443389DB
:10220000A945260025E70AC6E4447110713A25E87D
:102210000AC6E44471E2741025E90CC6E4447198DE
:102220009066C20325EA0CC6E44471948D288701A8
:1022300025EB10C7E44471088544215148143A0441
:1022400025EC10E7A444178D0423B1A448D643001D
:1022500025ED0EC6A4442594494292C8E80025EE17
:102260000FE6A44425944544114988741025EF21B4
:10227000ADE9833B87C8A4F1581C940E8AC48172CF
:10228000A01C188983D241B1785426874C0125F0CF
:102290000CC6244471099184C20325F10CC6244460
:1022A00071149224A10325F20BC6244471542245D3
:1022B0000E25F30CC62444718A8888C20325F413C2
:1022C000082144458B8422A1584D2C8E04632400A0
:1022D00025F512082144450B46C2E29A2816498A80
:1022E000910025F612082144450B46C26AB55024D8
:1022F0001489910025F712082144450B45D242B2BA
:10230000B238128C910025F81B08A2437110AB461D
:10231000A2916028188AE5140C0523D148542C8E0C
:102320000325F91B08A24371108B23D14834140CE8
:102330000563398682A168241A09AB0725FA1C08AF
:10234000A24311178B23D14834140C0563398682BC
:10235000A168241A098B0F0225FB09C6E44371D436
:102360007825FC09C62444F1870025FD098428440A
:1023700051121525FE09A56444F1810025FF1A08B4
:10238000A2431F568D4423C1503014CB29180A464E
:10239000A291A8587C102600148725449794128B8C
:1023A000C366A5DA1C96124A8B0126010D88A0454A
:1023B000159E480E110B0026020D07A54435ABDC17
:1023C000C259830026033310A283118B90E2203A76
:1023D0002472884583A1B44828128E8443D14828AA
:1023E000120D854491783025660785E3C158904CDD
:1023F0004C8B87E3202B00260418672544130BC55C
:102400004269A1582418094543C2502C14140226CD
:10241000051ECEE5831D07C7A173E01C563D5C0E6B
:10242000C483F80EA943CE14AA621C140226062403
:10243000CDE5831D87C68191382C1207C582544A89
:102440001C148B47D363F1506A44252895C541116C
:102450000026070C25294419CB3525261A260810F5
:102460000625447194454229B15044361A26091173
:10247000082144450B46C2229D23C1180900260AA3
:1024800011C8A044270D0543319124299218012633
:102490000B12C8A044138C244522225928188ACA3A
:1024A00000260C0EC5A444190B89524221110026A6
:1024B0000D13272544290CC542416150188A858295
:1024C0004200260E0EC764445391C9215964070186
:1024D000260F10E7644453894A26914A28243D0474
:1024E00026101B8B298471A883E42039480E92831F
:1024F000E42039480E9283E4A0430126111D8B2964
:102500008471A883E42039252891C44492904C1208
:10251000114AA612B11C742826121A8C298471B093
:10252000C3E430895022D24613AAD1445A841239C6
:10253000EC602613134529441193459222B1602C77
:10254000128AA4C90226141387A5441991C421A193
:10255000686856B985B3060126151EAC29849531E5
:10256000941A4A0EA5861243E968A7C86122B144AD
:10257000E490887C740426161DAB29841B0745E271
:10258000B1685A3C1207C94172901C2407C94172B4
:10259000D0A100261711AB29841B07CDABB783E46C
:1025A000F0FF8100261822ADE5831B8983EA90AAFB
:1025B0006824218528070A294491C5C471681C1A1A
:1025C00007C68171100026191F8D25840F0D8FD22B
:1025D0002A6996A44BE420111D22B353D0142D85F3
:1025E0006771600400261A0B87A444612BD526006E
:1025F000261B0B87A4447320D56600261C0C87A4D9
:1026000044614B12C52600261D0DE4A844975211C3
:1026100089221200261E0C87A444730B85643300A4
:10262000261F0DE4284423098926915902265414B3
:10263000672544179DC626948928244AC972881E96
:1026400002265514472544178E85523245B24C72E6
:102650002AC542150026561327254411493948A595
:1026600091582816894A0F01265714472544178D7B
:10267000C49262A1582896129A500F0126581266E9
:1026800025441BA2C484C2C8249412130A0F2659DD
:102690000E062544250B659385B2040F265A126752
:1026A0002544179DC626948928244AC97278265B3A
:1026B00011472544178E85523245B24C72EA0226E4
:1026C0005C0F2725441149393C444A95C303265DD4
:1026D00011472544179D4944B19044541B1D1E26A3
:1026E0005E0F6625441BA2480E9712E5F020265F78
:1026F0000E0625442523D16424CAA10026600F4775
:102700002544178ECE2A87976274042661112725E7
:1027100044A3120A495523B194683806266213452A
:102720002944158C45429134592429120B860026E0
:102730006311472544355C8D1D0E92882C1C1D01AC
:10274000266411472544178E46622951D548313AEF
:102750000226650E272544A372F8529B8663002645
:102760006610452944158C8D2687C968160C0126EC
:102770006713472544358C04A7B1096525220B470B
:10278000470026800E296D8471986B8BC9D50F0385
:10279000268110296D847198AB44E5D2885C7E183F
:1027A000268212296D8471984BA272594C2E8DC8C5
:1027B0000F03268311296D8471984B6211B99658C5
:1027C000447E18268414296D8471984B6211B92CAB
:1027D0002697C422F2C300268515296D8471984B73
:1027E0006211B92416914B6211F9610027131C4D37
:1027F000E5830F8D03E3C0501C128B479383714810
:10280000280E8AC48171100027141C6FE1830F8E7B
:10281000832771D0643E1A0F5767F3C91C6287D1B2
:10282000A17210002715176B6984138F4C27B3957D
:10283000697D5E9DCC56A69378040027161CEFE1B7
:1028400083178FAEB57CB01DA807F983F4403B58C1
:102850005E6AB5E9341E0327171FAC25842187A8BB
:10286000CA6453891C3207CD21EA22A95055249706
:10287000C82192380C0027181FCCE58321875447C4
:1028800032DA645C87CC2175C97434148EA613794E
:102890001D128AC300274F1D8C6D847118C521A19C
:1028A00038840EA143E8103A840EA1430E87D0610C
:1028B000741827501C8C6D8475181D1EE4103A8402
:1028C0000EA143E8103A840EA1434287110027511C
:1028D0001D8C6D847118C5219238840EA143E810B7
:1028E0003A840EA1430E87C881741827521C8C6D40
:1028F0008475981C1EE6103A840EA143E8103A84B1
:102900000EA143248711000000009C2B2F2E1124C0
:102910001FBECFEFD8E0DEBFCDBF11E0A0E0B1E039
:10292000ECE7FFE502C005900D92AC3CB107D9F78A
:1029300027E0ACECB1E001C01D92A03AB207E1F78C
:1029400014E1C6E8D4E104C02197FE010E947A2E6A
:10295000C538D107C9F70E94D62C0C94B12F0C941E
:102960000000662329F06A3019F0862F90E0089560
:102970008FEF9FEF0895AF92BF92CF92DF92EF92C9
:10298000FF920F93CF93DF93EC01DA017901942F3B
:102990009770E1E0F0E09F01092E01C0220F0A9438
:1029A000EAF7522F6E018AE8C80ED11CF601808129
:1029B00040E0823018F4422F813049F15D01F8EF98
:1029C000AF22E8ADF9AD28813981D90150968C91BB
:1029D0008A9D90018B9D300D1124620F731FDF01C2
:1029E000A60FB71F01111AC0EA0EFB1E8C91842B93
:1029F00085278D93AE15BF05C9F7DF91CF910F9154
:102A0000FF90EF90DF90CF90BF90AF90089550E08F
:102A1000D5CF440F550FE114F10479F33C91342BD9
:102A200035273C939F5F9770E1E0EE1AF108911112
:102A3000F0CF2CAD3DADA20FB31FF60180818230E7
:102A400028F4813009F051E041E0E5CF51E0E3CFD7
:102A500080E0089590E080E008959B01DC011896E5
:102A6000ED91FC9141E067E10994833081F028F415
:102A7000813099F08230A9F008958730A9F088302C
:102A8000C9F08430B1F4809180008F7D03C08091C3
:102A900080008F7780938000089584B58F7784BD00
:102AA000089584B58F7DFBCF8091B0008F778093A0
:102AB000B00008958091B0008F7DF9CF1F93CF9320
:102AC000DF93282F30E0F901E254FA4F8491F901A5
:102AD000E655FA4FD491F901EA56FA4FC491CC2346
:102AE000A9F0162F81110E943515EC2FF0E0EE0FA2
:102AF000FF1FE457FA4FA591B4918FB7F894EC916A
:102B0000111108C0D095DE23DC938FBFDF91CF91E8
:102B10001F910895DE2BF8CFCF93DF9390E0FC0157
:102B2000E655FA4F24918A569A4FFC0184918823E6
:102B3000D1F090E0880F991FFC01EE57FA4FA59154
:102B4000B491FC01E457FA4FC591D491623071F40D
:102B50009FB7F8943C91822F809583238C93E881D2
:102B60002E2B28839FBFDF91CF9108958FB7F894C4
:102B7000EC912E2B2C938FBFF6CF3FB7F89480911A
:102B8000B6029091B702A091B802B091B90226B5F1
:102B9000A89B05C02F3F19F00196A11DB11D3FBF95
:102BA000BA2FA92F982F8827BC01CD01620F711D64
:102BB000811D911D42E0660F771F881F991F4A955E
:102BC000D1F708958F929F92AF92BF92CF92DF92EA
:102BD000EF92FF926B017C010E94BD154B015C01DD
:102BE000C114D104E104F104B9F00E94BD156819C3
:102BF00079098A099B09683E73408105910580F334
:102C000021E0C21AD108E108F10888EE880E83E0BD
:102C1000981EA11CB11CE4CFFF90EF90DF90CF90E5
:102C2000BF90AF909F908F9008950895AF92BF92FC
:102C3000CF92DF92EF92FF920F931F93CF93DF9388
:102C40006C017B018B01040F151FEB015E01AE18B7
:102C5000BF08C017D10759F06991D601ED91FC91D9
:102C60000190F081E02DC6010995892B79F7C50106
:102C7000DF91CF911F910F91FF90EF90DF90CF9058
:102C8000BF90AF900895EF92FF920F931F93CF9351
:102C9000DF93EC01EC80FD806E157F050CF070C0B9
:102CA00057FF04C0240F351F50E040E08E819F8104
:102CB000FA01E20FF31F8E179F071CF49C01241BDF
:102CC000350B121613060CF05BC0922F842F8695DD
:102CD000869586958E9DD0018F9DB00D11246A0F2B
:102CE0007B1FAF8DB8A1A60FB71F477049F188E0D1
:102CF000841B482F682F70E0FB01E658FA4FE491DF
:102D0000281708F063C0621B71092FEF30E002C082
:102D1000359527956A95E2F7E2230130110539F0E0
:102D2000B0F10230110561F58C91E82702C08C9159
:102D3000E82BEC93941720F12C813D81A20FB31F57
:102D4000E92FE41BE83078F00230110521F58E2FD1
:102D50009C9190959C932C813D81A20FB31F88502C
:102D60008830B0F7E770EE2359F0F0E0EE58FA4FF4
:102D7000E49101301105F9F010F10230110519F15B
:102D8000DF91CF911F910F91FF90EF900895E09503
:102D90008C91E823CECF81E00115110509F480E084
:102DA00081959E2F8C932C813D81A20FB31F98504B
:102DB0009830C0F7D7CF8C91E82BEC93E1CFE0951A
:102DC0008C91E823FACF8C91E827F7CF01301105D9
:102DD00009F4ADCFE0F20230110509F4A5CFAE0D34
:102DE000BF1DAECF0F931F93CF93DF9377FF04C028
:102DF000260F371F70E060E0DC011496CD91DC9166
:102E0000FB01E20FF31FCE17DF071CF49E01261B08
:102E1000370B121613064CF5FA0157FD3796A3E04F
:102E2000F595E795AA95E1F7EC9FD001ED9FB00DE0
:102E3000FC9FB00D11246A0F7B1FDC015F96ED91A2
:102E4000FC91E60FF71F4770552781E090E001C025
:102E5000880F4A95EAF7482F0130110559F0A8F07C
:102E60002E0F3F1F02301105E1F0DF91CF911F912E
:102E70000F9108952E0F3F1FE217F307B1F38191D1
:102E8000DF011197842B8C93F7CF80952E0F3F1F76
:102E9000E217F30751F39191DF01119798239C9367
:102EA000F7CFE217F30709F38191DF011197842728
:102EB0008C93F7CF0F931F93FA01DC0156964C9138
:102EC00056974230E9F04330A1F1413061F5149654
:102ED0004D915C91DA01AE1BBF0BFD01E21BF30BC0
:102EE00077FD0BC0DC0116964D915C916417750758
:102EF00024F4AB01BF010E94F2161F910F910895B7
:102F000014964D915C91DA01A61BB70BBD0161507F
:102F10007109DC0116964D915C91DA01AE1BBF0B75
:102F2000FD01E21BF30B77FDE8CFAF010E944316D2
:102F3000E4CF16964D915C91DA01A61BB70BBD014B
:102F400061507109CDCF0F931F93FA01DC015696A2
:102F50004C9156974230A9F0433091F1413019F528
:102F600014964D915C91DA01AE1BBF0BFD013197B8
:102F7000F7FD04C0AB01BF010E9443161F910F91E2
:102F8000089514964D915C91DA01A61BB70BBD0113
:102F9000DC0116964D915C91DA01AE1BBF0BFD0171
:102FA0003197621B730BF7FDE9CFDC0116964D914B
:102FB0005C91E417F50714F7AF010E94F216DECF1B
:102FC00016964D915C91DA01A61BB70BBD01621BF1
:102FD000730BCECFFC0177FD64C0808591856817A7
:102FE00079070CF05EC057FD5CC082859385481759
:102FF00059070CF056C086898230B1F0833029F130
:10300000813041F484819581841B950BAB01BC0117
:10301000615071092130310509F108F443C02230B3
:10302000310509F463C0089584819581DC01A61BF4
:10303000B70BBD016150710986819781DC01A41B2A
:10304000B50BAD0141505109E5CF86819781861BB3
:10305000970BBA01AC0141505109DCCFCA0157FDB1
:103060000796A3E095958795AA95E1F7A481B58188
:103070008A9F90018B9F300D9A9F300D1124620F13
:10308000731F078CF0A1E02DE60FF71F477055273F
:1030900021E030E001C0220F4A95EAF78081822BBF
:1030A00080830895CA0157FD079633E0959587956B
:1030B0003A95E1F7A481B5818A9F90018B9F300DED
:1030C0009A9F300D1124620F731F078CF0A1E02D21
:1030D000E60FF71F4770552781E090E001C0880F89
:1030E0004A95EAF7809590818923DACFCA0157FD86
:1030F000079623E0959587952A95E1F7A481B581F8
:103100008A9F90018B9F300D9A9F300D1124620F82
:10311000731F078CF0A1E02DE60FF71F47705527AE
:1031200021E030E001C0220F4A95EAF78081822732
:10313000B7CF0895FC016370668B848195812681E9
:103140003781613039F0633029F091878087338788
:1031500022870895318720879387828708952F9249
:103160003F924F925F926F927F928F929F92AF9217
:10317000BF92CF92DF92EF92FF920F931F93CF9364
:10318000DF93CDB7DEB76A970FB6F894DEBF0FBEF8
:10319000CDBF9A8F898F7A8369834A01D22E18878F
:1031A0000F833701BC2CDC0159962D913C915A9725
:1031B0002115310509F015C118968D919C9119972B
:1031C000681779070CF0D7C11A968D919C91481712
:1031D00059070CF0D0C14C2C512CB6E0CB9E600DA1
:1031E000711D11247C876B87161617060CF0C3C15E
:1031F000EA2DF0E0FA87E98793E0EE0FFF1F9A953A
:10320000E1F7F88BEF87CF01840F951F1816190689
:103210000CF0B1C1A98DBA8D58968C91811104C062
:10322000BFEABD1508F4D394A98DBA8DED91FC9138
:1032300011970284F385E02DCD010995B5E0DB9E61
:10324000C0011124E981FA81FC83EB83312C212C0C
:103250009C012E583F4F388F2F8B4A2D50E05E8BAC
:103260004D8BEF89F88DE20DF31D44919E828D8286
:10327000D12CC12C69817A81620D731D7A8B698B87
:10328000842F90E09C8B8B8BE98DFA8DA081B1818E
:1032900040FF82C0F1E0BF126FC0AF126DC01C963C
:1032A000ED91FC912F813885A4014C0D5D1D69893C
:1032B0007A89898D9A8D0995EB89FC89F595E79531
:1032C0004E2F5FEFC51AD50A6D817E818D899E894B
:1032D000680F791F7E836D8398E0C916D10481F64B
:1032E000AFEF2A1A3A0AEB81FC81E40DF51DFC834D
:1032F000EB83F5E02F16310409F0B3CF2F81388529
:1033000026153705B9F0A98DBA8DED91FC91B1E084
:10331000BB1257C0AB1255C069817A816B5F7F4F7A
:103320000088F189E02D830128E030E0A401898D37
:103330009A8D0995A98DBA8DED91FC91119706880A
:10334000F789E02DCD016A960FB6F894DEBF0FBE67
:10335000CDBFDF91CF911F910F91FF90EF90DF9044
:10336000CF90BF90AF909F908F907F906F905F9025
:103370004F903F902F9009941E96ED91FC91EF8015
:10338000F88409851A8592014D815E816B817C816B
:10339000898D9A8D099590CF2F813885261537050F
:1033A00009F48ACF31E0B31207C0A31205C01C96FE
:1033B000ED91FC91930178CF1E96ED91FC917301F4
:1033C000E0CF6B857C85641975090684F785E02D4F
:1033D00073010F8518899201A401898D9A8D099531
:1033E000A9CFF90134969491329745915491D91A05
:1033F000B7E0DB9E400D511D1124F9012591349158
:103400003C8B2B8BFA0125903490FA013296749004
:1034100031963491398B329664903196449041E0E4
:103420004C1518F04A1508F07FC0662D062C000CCC
:10343000770B7C836B83842D042C000C990B9E836B
:103440008D83A98DBA8DED91FC9111970284F3853E
:10345000E02DCD010995512CD12CC12CEA2DF0E0A5
:10346000FA87E9872B2D30E03C872B87A401440D98
:10347000511D47FC5A95588F4F8B69817A81660D93
:10348000711D67FC7A957E876D877989C71608F06C
:1034900051CF2C2D30E04D815E81420F531FA98505
:1034A000BA854A9FC0014B9F900D5A9F900D1124E1
:1034B000FC01E80DF91DF88BEF87852D612C4F89F4
:1034C000588D420F531F5E8B4D8B671408F050C010
:1034D00044244394480E877041F4C1010196EB895E
:1034E000FC89E20DF31DD4901C01D7FE19C0A98DF3
:1034F000BA8DED91FC91662D70E0B1E0BB1219C060
:10350000AB1217C02D853E85620F731F0484F585AD
:10351000E02D2F8138854D895E89898D9A8D099599
:10352000DD0C6394842DD1CF1E821D821C821B82F0
:1035300088CF4B815C81640F751FAB85BC856A9F0A
:10354000C0016B9F900D7A9F900D112469817A8143
:10355000680F791F0684F785E02DEF80F8840985D0
:103560001A859D014F855889898D9A8D0995D8CFE7
:10357000570CC3948ACF6A960FB6F894DEBF0FBE7D
:10358000CDBFDF91CF911F910F91FF90EF90DF9012
:10359000CF90BF90AF909F908F907F906F905F90F3
:1035A0004F903F902F9008958F929F92AF92CF921D
:1035B000EF92FF920F931F93CF93DF93EC01262F8F
:1035C000898D9A8D009709F051C06A30D1F41D861B
:1035D0001C868D8948E0849F900111248E859F85EB
:1035E000820F931F9F878E8781E090E0DF91CF91BC
:1035F0001F910F91FF90EF90CF90AF909F908F9081
:1036000008956D3089F3CC88AD888F898823C1F007
:103610008C859D8536E0C39E800D911D11244885C3
:1036200059854817590764F44E855F851D861C86A9
:1036300038E0A39EC0011124840F951F9F878E87B9
:10364000EA88FB88088919894E855F856C857D85A8
:10365000CE010E94AF182C898C859D8546E0249F61
:10366000800D911D11249D878C87BECF6A3069F42F
:103670001D861C86FC013896E4912D898E859F85D8
:10368000E29F800D911D1124ADCF6D3009F4ACCFB8
:10369000FC0134963491631708F4A6CF3296E49176
:1036A000E61708F4A1CFFC01329685909490462F3E
:1036B000431B342F47E0349F800C911C1124F401EC
:1036C000329634913196E4913323A9F1EE2399F1A6
:1036D000CC88F4013596E491AD884F89442301F1FB
:1036E0000E2E000CFF0BE30FF11DCE9EA001CF9E0E
:1036F000500D11246C857D85460F571F688579858F
:10370000641775076CF44E855F851D861C86FC0169
:103710003896E491AE9E400D511D11245F874E876F
:10372000EA88FB88088919894E855F856C857D85C7
:10373000CE010E94AF18F4013496E4912C898C8557
:103740009D85E29F800D911D11248DCF6F927F92F8
:103750008F929F92AF92BF92CF92DF92EF92FF92A1
:103760000F931F93CF93DF93EC016B015A01390143
:103770004801E881F9810284F385E02D0995E8810B
:10378000F9810288F389E02D87019301A501B60133
:10379000CE010995A501480D591D41505109E881F7
:1037A000F9810288F389E02D9301B601CE010995D4
:1037B000E881F9810088F189E02D9401A501B60125
:1037C000CE010995C60CD71CB60161507109E8817C
:1037D000F9810088F189E02D9401A501CE010995B8
:1037E000E881F9810688F789E02DCE01DF91CF913C
:1037F0001F910F91FF90EF90DF90CF90BF90AF900F
:103800009F908F907F906F9009946F927F928F928C
:103810009F92AF92BF92CF92DF92EF92FF920F935F
:103820001F93CF93DF935C01EB016A0149013801DB
:103830008701DC01ED91FC916217730719F564169D
:1038400075062CF0962D872D3A01C92ED82E96019B
:10385000261937092F5F3F4F048CF58DE02DA3010A
:10386000BE01C5010995DF91CF911F910F91FF9086
:10387000EF90DF90CF90BF90AF909F908F907F9010
:103880006F9008954615570591F42617370724F0D1
:10389000892D4B01C22FD82F9E01281939092F5F7E
:1038A0003F4F068CF78DE02DA601B401DACF0284DC
:1038B000F385E02D0995D501ED91FC910488F589FA
:1038C000E02D83019401A601BE01C5010995D50132
:1038D000ED91FC910688F789E02DC501DF91CF912C
:1038E0001F910F91FF90EF90DF90CF90BF90AF901E
:1038F0009F908F907F906F900994EF92FF920F931B
:103900001F93DC011A960D911C911B9718962D910F
:103910003C911997ED91FC9100A0F1A1E02D7B0164
:1039200050E040E070E060E009951F910F91FF903A
:10393000EF9008954F925F926F927F928F929F9235
:10394000AF92BF92CF92DF92EF92FF920F931F93AD
:10395000CF93DF936C012B015A0139014801DC013F
:10396000ED91FC910284F385E02D0995E201640C50
:10397000751CD601ED91FC91C615D7055CF4008845
:10398000F189E02D87019401A501BE01C6010995C9
:103990002196EFCF0688F789E02DC601DF91CF9100
:1039A0001F910F91FF90EF90DF90CF90BF90AF905D
:1039B0009F908F907F906F905F904F9009948F921F
:1039C0009F92AF92BF92CF92DF92EF92FF920F93AE
:1039D0001F93CF93DF93EC015B014A016901E881FA
:1039E000F9810284F385E02D099595012C0D3D1D8B
:1039F00021503109E881F9810488F589E02D7801A9
:103A00008401A401B501CE010995E881F9810688F8
:103A1000F789E02DCE01DF91CF911F910F91FF909B
:103A2000EF90DF90CF90BF90AF909F908F900994D0
:103A30008F929F92AF92BF92CF92DF92EF92FF92BE
:103A40000F931F93CF93DF93EC015B014A01690150
:103A50007801E881F9810284F385E02D0995C80C8D
:103A6000D91C860101501109E881F9810488F58982
:103A7000E02D9501A401B501CE010995E881F981F8
:103A80000688F789E02DCE01DF91CF911F910F912C
:103A9000FF90EF90DF90CF90BF90AF909F908F906E
:103AA00009940895EF92FF920F931F93DC01ED911B
:103AB000FC9100A0F1A1E02D09951F910F91FF90BD
:103AC000EF9008950F931F93DC01ED91FC91068C0C
:103AD000F78DE02D09951F910F9108950F931F9376
:103AE000DC01ED91FC91048CF58DE02D09951F9181
:103AF0000F910895DC01ED91FC910084F185E02D9A
:103B000009942F923F924F925F926F927F928F9281
:103B10009F92AF92BF92CF92DF92EF92FF920F935C
:103B20001F93CF93DF9300D000D000D0CDB7DEB786
:103B30003C016A013E832D83FC82EB825801A41A6A
:103B4000B50AB7FE03C0B194A194B1088D809E80E0
:103B5000861A970A97FE03C09194819491088A145B
:103B60009B045CF0902F812F0D811E819D838E839D
:103B70009C2D8D2D6B01692F782F0C151D055CF088
:103B80009D818E817E836D83692F782F902F812F69
:103B90008601C92ED82E1601201A310A2B012D813B
:103BA0003E81421A530A57FE03C051944194510872
:103BB000710137FE03C03FEFE31AF30AF594E7946F
:103BC0008D819E81861797075CF5A1E0B0E0BA83EE
:103BD000A983C016D1064CF1D301ED91FC91048468
:103BE000F585E02D2B813C81A8016D817E818A14B1
:103BF0009B041CF04D815E81B801C3010995E41856
:103C0000F508F7FE0AC02D813E8189819A81280F2F
:103C1000391F3E832D83E20CF31C0F5F1F4FD9CF5A
:103C20002FEF3FEF3A832983D4CF26960FB6F8942F
:103C3000DEBF0FBECDBFDF91CF911F910F91FF90DF
:103C4000EF90DF90CF90BF90AF909F908F907F903C
:103C50006F905F904F903F902F9008952091610258
:103C6000260F3327331F21323105ECF420918702D0
:103C7000FC0190E080E0243069F082E00895A0919A
:103C800061022191AC01415C5D4FA40FB52FB11DC4
:103C90002C930196861798F380916102680F6093C8
:103CA000610280E0089581E008951092870281E02A
:103CB000809389021092880261E082E10E945E1581
:103CC00061E083E10E945E15E9EBF0E080818E7F88
:103CD000808380818D7F808388E48093B80085E431
:103CE0008093BC000895CF93DF9391E090933E02C0
:103CF0008823B9F0C091B800D091BA008091BC007F
:103D00008A7B8093BC0060E082E10E945E1560E0E7
:103D100083E10E945E150E94551ED093BA00C093A5
:103D2000B800DF91CF91089508950895E091380289
:103D300080913702E81730F4F0E0E95EFD4F8081B2
:103D400090E008958FEF9FEF089590913802809151
:103D500037022FEF3FEF981748F4E92FF0E0E95EC4
:103D6000FD4F208130E09F5F90933802C901089594
:103D70008091370290913802891B990B0895CF9258
:103D8000DF92EF92FF920F931F93CF93DF937C010B
:103D9000CB018A012091B002222389F0EB016B0153
:103DA000C40ED51ECC15DD0569F06991D701ED91E2
:103DB000FC910190F081E02DC7010995F3CF642FAC
:103DC0000E942E1EC801DF91CF911F910F91FF908D
:103DD000EF90DF90CF900895CF93DF931F92CDB7F0
:103DE000DEB769832091B0022223F9F02091AD0261
:103DF000203258F021E030E0FC013383228390E050
:103E000080E00F90DF91CF9108958091AE02E82F6E
:103E1000F0E0E950FE4F998190838F5F8093AE026E
:103E20008093AD0281E090E0ECCF61E0CE0101969D
:103E30000E942E1EF7CFCF92DF92EF92FF920F9348
:103E40001F93CF93DF93D091AD0281E0D13208F080
:103E50009CC0C091AF020E94BD156B017C01809196
:103E6000870281116CC082E08093870281E0809399
:103E700089028FEF809386021092AB02D093AA0240
:103E8000A7EFB1E0EAE8F2E080E0D8138DC010922D
:103E9000AC028091AC02CC0FC82BC093AC028091D5
:103EA0008802813009F084C0109288020E94BD15FA
:103EB0006B017C018091AC028093BB0080913A023F
:103EC00090913B02A0913C02B0913D02892B8A2B3C
:103ED0008B2BA1F00E94BD1500913A0210913B027C
:103EE00020913C0230913D026C197D098E099F0999
:103EF000061717072807390708F442C08091BC004D
:103F000083FDD8CF85EC8093BC000E94BD156B016A
:103F10007C0180918702823009F44CC08091860236
:103F20008F3F09F469C080918602803209F466C02F
:103F300080918602803309F463C084E026C08091BA
:103F40003A0290913B02A0913C02B0913D02892B34
:103F50008A2B8B2B09F483CF0E94BD1500913A0266
:103F600010913B0220913C0230913D026C197D0979
:103F70008E099F09061717072807390708F06FCF22
:103F8000809139020E94731E85E01092AE02109259
:103F9000AD021092B002DF91CF911F910F91FF906F
:103FA000EF90DF90CF9008959D9191938F5F6DCFAB
:103FB00085EEA9CF80913A0290913B02A0913C02FC
:103FC000B0913D02892B8A2B8B2B09F4A2CF0E9442
:103FD000BD1500913A0210913B0220913C023091B4
:103FE0003D026C197D098E099F09061717072807DE
:103FF000390708F08ECFC4CF80E0C7CF82E0C5CFAD
:1040000083E0C3CF1F93CF93DF93EC01162F8D8DE9
:104010009E8D892B09F45AC02DA93EA94FA958ADF0
:1040200060E074E284EF90E00E94492E2051310953
:104030004109510956954795379527952093B80022
:10404000112309F453C017EA8D8D9E8D009709F452
:104050004FC029A131E03093B0022093AF021092FB
:10406000AE021092AD02DC01ED91FC910190F08165
:10407000E02D60E009958D8D9E8DDC01ED91FC9128
:104080000190F081E02D612F09958D8D9E8D0E940C
:104090001B1F8D8D9E8D892B09F45EC029AD3AAD15
:1040A0004BAD5CAD60E074E284EF90E00E94492E7D
:1040B0002051310941095109569547953795279562
:1040C0002093B800DF91CF911F9108958B8D9C8D27
:1040D000892B21F09EAD8FAD9CBD8DBDEFA5F8A9BC
:1040E00090818CA9809589238083AACF16EAACCFD2
:1040F000EDA5FEA590818BA98095892380838B8D6A
:104100009C8D892B39F01EBD00000DB407FEFDCF3C
:104110008EB5BFCF28E030E090E8E9A5FAA589A9DF
:10412000412F4923A9F04081842B8083EBA5FCA576
:1041300080814AA9842B8083EBA5FCA540818AA9B4
:1041400080958423808396952150310931F7A1CF42
:10415000408180958423E9CFEFA5F8A980819CA9AF
:10416000892B8083AFCFDC011A96ED91FC9130E072
:1041700020E00994DC011696ED91FC9130E020E0FE
:1041800040E069E10994DC011696ED91FC9130E084
:1041900020E040E068E109949A01DC011696ED9177
:1041A000FC91462F67E10994EF92FF920F931F93C2
:1041B000CF93DF931F92CDB7DEB77C018B01D8017F
:1041C0006C91673129F150F46531A0F40F90DF91C3
:1041D000CF911F910F91FF90EF9008956A3118F1E0
:1041E0006E3FA1F7F8014181498369E2C7010E944E
:1041F000B3200BC0F80141814983D7011696ED9198
:10420000FC9130E020E0C70109950E5F1F4FD7CF2A
:10421000F80181818983AE014F5F5F4F61E0C70183
:104220000E94CC20F2CF0F5F1F4FD7011696ED9161
:10423000FC9130E020E040E0C7010995C0CF462F57
:10424000DC011696ED91FC9130E020E066E10994E6
:10425000462FDC011696ED91FC9130E020E065E1FF
:104260000994EF92FF920F931F93CF93DF93EC018A
:10427000042F79016D3009F446C050F46B30C9F158
:10428000693009F49FC06A3009F465C080E046C017
:104290006E3009F452C06F3099F70E94C320F701C5
:1042A0001381110F110F110F6C89160F60E4CE01ED
:1042B0000E942821612F62956F706061CE010E947B
:1042C0002821612F6F70CE010E941F21F7016481A8
:1042D000606BCE010E941F21F701408151816281F4
:1042E000660F660F660FCE010E94CC200150A1F729
:1042F0002EC06DE171E0442311F068E171E0CE0160
:104300000E94D4200AC0411110C061E171E00E94F6
:10431000D420E881F98182898C8B81E0DF91CF9173
:104320001F910F91FF90EF9008956AE071E00E9455
:10433000D420E881F9818389EFCF0E94C32061E80E
:10434000CE010E942821602FCE010E941F21CE01A4
:104350000E94BA20E2CFEA85FB8530E020E040E011
:1043600068E2CE010995EE81FF8130E020E040E077
:1043700064E1CE01099541E06BE4CE010E94B320D7
:10438000E881F981448169E2CE010E94B32040E0D6
:104390006BE4CE010E94B320E881F981448169E297
:1043A000CE010E94B32041E06BE4CE010E94B32015
:1043B000E881F981458169E2CE010E94B32062E281
:1043C00071E09DCF87E591E0998388831C8AA5CF12
:1043D000DC011896ED91FC9130E020E040E069E1CD
:1043E0000994DC011896ED91FC9130E020E040E06A
:1043F00068E10994CF93DF931F92CDB7DEB769834D
:10440000BE016F5F7F4F0E942D150F90DF91CF91FE
:104410000895EF92FF921F93CF93DF93EC01162F35
:104420007A010E94F12160E4CE010E94FA21E88520
:10443000F9859701412F67E1CE010995CE01DF9102
:10444000CF911F91FF90EF900C94E821EF92FF9293
:104450001F93CF93DF93EC01142F7901663181F123
:1044600038F4643109F44BC0653179F080E022C042
:104470006831C9F150F16931C9F78091F60188239B
:1044800091F1CE010E94E8212EC08091F60188238F
:1044900019F0CE010E94E821CE010E94F12160E0D6
:1044A000CE010E94FA21612FCE010E94FA2181E003
:1044B0008093F601DF91CF911F91FF90EF900895C7
:1044C000642F0E94FA2181E0F5CF8091F6018823C4
:1044D00019F0CE010E94E821A701193138F4612FAB
:1044E000CE010E9409221092F601EDCF68E1CE01C3
:1044F0000E940922185188E1E80EF11CEDCF8E8947
:104500008F3F11F488E78E8BE885F9859701412F5D
:1045100064E1CE01DF91CF911F91FF90EF9009945C
:104520000F93FC01E05CFF4F0190F081E02D4E1BEA
:104530005F0BDC01D496ED91FC9109950F910895E4
:10454000CF93DF93FC01A081B18182AD90E09C010B
:1045500043E0220F331F4A95E1F737AF26AF50965D
:104560002C91509748E0249F9001112435AF24AF3F
:1045700023AD30E0B90153E0660F771F5A95E1F79C
:10458000EF01C05CDF4F7983688351964C9151975E
:10459000E901C80FD91F50E04C175D0718F4CA0194
:1045A000821B930BEF01CE5BDF4F798368832296EA
:1045B00023E0880F991F2A95E1F7860F971F9983AB
:1045C0008883229654968D919C91559799838883E0
:1045D000E85BFF4F56968D919C9191838083DF918C
:1045E000CF9108950F931F93FC01E25BFF4F019061
:1045F000F081E02DDC01A05BBF4F0D90BC91A02DA0
:104600004A175B0740F4E017F10748F00417150755
:1046100030F080E019C0E017F107C0F3FACFFC01D9
:10462000E65BFF4F40815181845B9F4FFC0180819D
:1046300091816817790758F481E04217530720F0F9
:1046400081E02617370728F71F910F910895421729
:104650005307B0F3DECF2F923F924F925F926F924B
:104660007F928F929F92AF92BF92CF92DF92EF9202
:10467000FF920F931F93CF93DF93CDB7DEB72A97A7
:104680000FB6F894DEBF0FBECDBF9A878987865BD1
:104690009F4F9A838983FC0111821082E985FA85F4
:1046A000EA5BFF4F4080518029853A85245B3F4F6C
:1046B0003C832B83F90151824082E985FA85EE5BC8
:1046C000FF4F2080318029853A85225B3F4F3E8312
:1046D0002D83F90131822082E985FA85EC5BFF4F59
:1046E0006080718029853A85205B3F4F38872F8312
:1046F000F90171826082E985FA85E85AFF4FE0800E
:10470000F180E985FA85EC5AFF4FA080B180E985F8
:10471000FA85EA5AFF4FC080D180E985FA85EE5AC2
:10472000FF4F8080918087019501A601B4018985A2
:104730009A850E94F22229853A852C573F4F3A8765
:10474000298781111BC0F90110822A960FB6F894AF
:10475000DEBF0FBECDBFDF91CF911F910F91FF90B4
:10476000EF90DF90CF90BF90AF909F908F907F9011
:104770006F905F904F903F902F90089581E0E98572
:10478000FA8580838114910421F0E981FA81918274
:104790008082A414B50420F4EB81FC81B182A08254
:1047A0002C143D0420F4ED81FE81D182C082E614F8
:1047B000F70458F6EF81F885F182E082C6CF0F93B7
:1047C000CF93DF93E02FDC01AC57BF4FFC91FF2369
:1047D00009F460C02115310509F45CC022303105AF
:1047E00038F0023009F04AC06F5F7F4F621B730BD5
:1047F0000E2F0170E0FD52C0FC01E25BFF4F019003
:10480000F081E02D4E175F0708F444C0FC01E05B27
:10481000FF4F0190F081E02D4E175F07D8F5FC01A6
:10482000E45BFF4F0190F081E02DDC01A65BBF4F00
:104830000D90BC91A02D260F371F2617370738F58E
:104840006E177F0718F59F0121503109A217B30792
:1048500008F56A177B0708F4BD012E173F0708F417
:10486000F901E61BF70BEC01AEA9BFA914960D9058
:10487000BC91A02D9F01FD0109950CC0033009F0EA
:10488000B7CF4F5F5F4F421B530BB2CFBD016E17C7
:104890007F07E0F2DF91CF910F910895FC01E65B75
:1048A000FF4F0190F081E02D6E177F0798F3FC0118
:1048B000E45BFF4F0190F081E02D6E177F0750F70A
:1048C000FC01E05BFF4F0190F081E02DDC01A25B79
:1048D000BF4F0D90BC91A02D240F351F2417350715
:1048E000A8F44E175F0788F49F0121503109A217E1
:1048F000B30780F64A175B0708F4AD012E173F0790
:1049000008F4F901E41BF50BAECFAD014E175F07BC
:1049100008F6EDCF213069F038F0223079F0840FBD
:10492000911D47FD9A950895860F911D67FD9A95F3
:104930000895841B910947FD93950895861B91095D
:1049400067FD93950895213069F038F0223079F0B1
:10495000861B910967FD93950895840F911D47FD6E
:104960009A950895860F911D67FD9A950895841B69
:10497000910947FD939508953F924F925F926F92F0
:104980007F928F929F92AF92BF92CF92DF92EF92DF
:10499000FF920F931F93CF93DF937C01162F442E2A
:1049A000EC01C25ADF4F5E806F806C018AE8C80E4E
:1049B000D11C78847518312E711608F4372C8C8030
:1049C0009D800E85202F462D652D8A819B810E941A
:1049D0008A245C01202F462D652DC4010E94A3244A
:1049E000AC01442079F08C85F6018083232D30E0E2
:1049F000B501C7010E94DF23171548F0171963940A
:104A0000512CD7CF8B858111F7CF8D85EDCF150D2B
:104A10001E836F82DF91CF911F910F91FF90EF90D6
:104A2000DF90CF90BF90AF909F908F907F906F90CE
:104A30005F904F903F900895DC011A964C911A9721
:104A4000ED91FC911197249130E0042E02C0359530
:104A500027950A94E2F7842F860F883068F0319604
:104A60001196FC93EE93E49198E0941B01C0EE0F35
:104A70009A95EAF72E2B88501A968C938FEF9FEF1A
:104A800001C0880F6A95EAF7809582230895FC019A
:104A9000E60FF11D849190E0982F88273196E491DC
:104AA0008E0F911D08954F925F926F927F928F9219
:104AB0009F92AF92BF92CF92DF92EF92FF920F93AD
:104AC0001F93CF93DF93EC016B018A017901FC0105
:104AD000E459FF4F8081813009F44BC008F43EC097
:104AE000823009F451C0833009F459C0FE01E05A04
:104AF000FF4FD182C0823296118300833897808124
:104B0000918147962FEFE216F10411F008F0F2C000
:104B1000E1E6EE16F10408F44DC0FE01E058FF4F47
:104B200020813181820F931F9C012F5F3F4FF9013C
:104B30004491411148C090E080E0DF91CF911F91F6
:104B40000F91FF90EF90DF90CF90BF90AF909F902C
:104B50008F907F906F905F904F900895FE01E45A80
:104B6000FF4F0190F081E02DCE010995080F191F2C
:104B7000BDCFFE01E45AFF4F0190F081E02DCE0140
:104B80000995C81AD90AB2CFFE01E45AFF4F019025
:104B9000F081E02DCE010995081B190BA7CFFE016E
:104BA000E45AFF4F0190F081E02DCE010995C80E27
:104BB000D91E9CCFF1E4EF16F10408F4B5CFFE0145
:104BC000E258FF4FADCFFC0144914E151F0409F090
:104BD0008CC00296009709F4AECF7E01FEE5EF0E81
:104BE000F11CF70191838083128673966081C7015F
:104BF0000E941C25F701808774966081C7010E947E
:104C00001C25982EF70181875E01FAE8AF0EB11CD2
:104C1000F5019081F701948781E0911180E0F7011F
:104C20008587FE01ED58FF4FC0806C2DC7010E94A3
:104C30001C25582EFE01EC58FF4FD0806D2DC7016A
:104C40000E941C25482EFE01EB58FF4F1081612F5A
:104C5000C7010E941C259FEF910F01E010E0980111
:104C600001C0220F9A95EAF7882E821AF701608414
:104C700016140CF0ADC0CA94C80101C0880FCA94C4
:104C8000EAF7581A7684490CDA94A80101C0440F57
:104C9000DA94EAF7F42FF4194F2E272D4F2F652DB4
:104CA000F701828193810E948A246C01F70193832A
:104CB0008283272D442D652D848195810E94A32414
:104CC000F70195838483F1E07F1609F485C07F1690
:104CD00008F43FC022E0721609F48DC0E3E07E16AE
:104CE00009F49DC0BC0196013EC0F9012491820FD8
:104CF000911D1ACFFE01EE57FF4F00811181080F61
:104D0000191F680160E0C6010E944725080F191F9E
:104D100062E0C6010E944725F4E0CF0ED11C8E153B
:104D20009F0580F3F801849190E0982F88273196B1
:104D3000E4918E2B009709F4FECEE816F90619F4DB
:104D4000C801039647CFF8013296E4910E0F111D6A
:104D5000E9CF9601260D311D67FC3A95BC01690D1E
:104D6000711D97FC7A958B01AC01B601CE010E94B2
:104D7000F222882369F1F701168217828E01015908
:104D80001F4F6E01F0E7CF0ED11CF8016081C70103
:104D90000E941C25682EF6016081C7010E941C2517
:104DA000782E40E0662DCE010E94BC2441E0672DA4
:104DB000CE010E94BC2461E0C7010E941C25811124
:104DC000F0CFF7018781891504F38485F50180838D
:104DD000882D880C990BB1CE0919110997FC1395F0
:104DE00096012F5F3F4FBC01660D711D67FC7A95E0
:104DF000C00ED11EB8CFA8014619510967FC5395C2
:104E000096012F5F3F4F0919110997FC1395BC01BB
:104E10006F5F7F4F800F911FC40ED51EA4CF9601E8
:104E2000290D311D97FC3A950619110967FC139558
:104E3000BC016F5F7F4F800F911F95CFCF92DF92A4
:104E4000EF92FF920F931F93CF93DF931092D606AA
:104E50008FEBC82E81E0D82EF12CE12C04E110E07C
:104E6000D0E0C0E0F60161916F01E091C006F091E1
:104E7000C1068EEB96E009958F3F980719F18E3F9A
:104E80002FEF920779F39C01A801BE018EEB96E00B
:104E90000E94532520912A07213059F038F0223002
:104EA00059F0233061F0E80EF91EDCCFC80FD91F8E
:104EB000FACF080F191FF7CFC81BD90BF4CF081B67
:104EC000190BF1CFC701DF91CF911F910F91FF9087
:104ED000EF90DF90CF900895CF93DF93EC016BAF0D
:104EE000EEA9FFA90190F081E02D0995EEA9FFA997
:104EF0000280F381E02DCE01DF91CF910994AF9232
:104F0000BF92CF92DF92EF92FF920F931F93CF93B6
:104F1000DF9300D000D01F92CDB7DEB78C01DC014B
:104F2000DA96AC90DA97DB96EC90DB97ED91FC91FA
:104F3000B188FE2CD12CC12CD801ED91FC91119798
:104F40008089D8962D913C911C82FD828B83B8E09C
:104F50008B9FC00111248C9DA0018D9D500D9C9DA7
:104F6000500D1124240F351F3A832983D80114963C
:104F7000ED91FC919E012F5F3F4F41E06FE0C80132
:104F80000995F3948F2D8E198A1528F4BFEFCB1A4B
:104F9000DB0AFB1488F20F900F900F900F900F9088
:104FA000DF91CF911F910F91FF90EF90DF90CF9005
:104FB000BF90AF900895CF93DF93EC01962F6831A7
:104FC00009F445C0B901993130F4943199F0973121
:104FD00059F080E006C0993109F45BC09032C9F7FE
:104FE00081E0DF91CF91089550E080E597E00E9445
:104FF000BF1EF6CF8C859D85AE85BF85892B8A2BFC
:105000008B2B71F4E881F981A585B0E020EA36E8C0
:1050100041E050E00E943E2E6C877D878E879F87FF
:1050200010923802109237021092AE021092AD0226
:105030000E94551E84E99EE19093600280935F0276
:1050400085E99EE19093640280936302C9CF2C8529
:105050003D854E855F8560E074E284EF90E00E94BC
:10506000492E2051310941095109569547953795E7
:1050700027952093B8008E8990E09595879591E0CB
:105080009093B0028093AF021092AE021092AD02E4
:10509000A7CF80E597E00E941B1FA2CF0F931F931D
:1050A000CF93DF93EC01862F642F8C3208F03AC047
:1050B0008A3208F060C0883209F44BC0893209F4A2
:1050C00060C0803408F475C0982F9F73FE01E90F0B
:1050D000F11D868D8F3F09F44EC0903108F436C023
:1050E000282F30E0F901E254FA4F8491F901E65596
:1050F000FA4F0491F901EA56FA4F1491112379F00D
:1051000081110E943515E12FF0E0EE0FFF1FE859E5
:10511000FF4FA591B491EC910E2381E009F480E05A
:10512000898F29C08D3299F108F4CBCF94EB980F79
:10513000923008F0C6CF8F73C80FD11D8E8D4111EC
:1051400034C061E00E948C1560E08E8D0E945E1577
:1051500012C08E01025E1F4FD0E0F80181918F01D5
:105160008F3F31F061E0D03108F062E00E948C1591
:10517000DF5FD63191F781E0DF91CF911F910F91E1
:10518000089570E090E080E00E94E215F4CF85E0A1
:1051900090E0433010F082E090E0880F991F880F74
:1051A000991F05970197F1F7E6CF62E00E948C15F1
:1051B000E2CF80E0E1CFCF92DF92EF92FF920F93A8
:1051C0001F93CF93DF936C01EB017B01E40EF51E7F
:1051D00010E000E0CE15DF0561F06991D601ED9198
:1051E000FC910190F081E02DC6010995080F191F6F
:1051F000F1CFC801DF91CF911F910F91FF90EF90F8
:10520000DF90CF900895CF92DF92EF92FF920F93AD
:105210001F93CF93DF93EC016C0124E0C20ED11CED
:10522000FC01E057FF4F0190F081E02DC601099588
:105230008E3FEFEF9E07D8F48E010C561F4FF801FA
:10524000408151817E01F2E9EF0EF11CF70160818E
:1052500071819C01C6010E945325C059DF4F2881EE
:105260002130C1F078F02230B9F02330E9F081E04C
:1052700090E0DF91CF911F910F91FF90EF90DF9021
:10528000CF900895F70120813181820F931F918380
:105290008083EDCFF801F7CFF70120813181281B02
:1052A000390B31832083E3CFF801F7CF089590E0E5
:1052B00080E008950E94A52F85ED8093BC00809129
:1052C0003A0290913B02A0913C02B0913D020796B8
:1052D000A11DB11D23E0B695A795979587952A95B1
:1052E000D1F72091BC0024FD03C0109287020895DD
:1052F00040913A0250913B0260913C0270913D0214
:10530000452B462B472B69F30097A105B10541F0CA
:105310002AE22A95F1F700C00197A109B109E1CF6E
:10532000809139020C94731EFC01A081B1815096CA
:105330002C9182AD38E0839FC0011124289FA001E9
:10534000299F500D112470E060E080AD91AD0C9468
:10535000AA2F1F93CF93DF93EC010E947F271BADF1
:105360008AAD180FE881F9818189181768F0EC81FE
:10537000FD8130E020E040E060E1CE01099580E071
:10538000DF91CF911F910895FE01E557FF4F808176
:10539000882319F0CE010E949429612FCE010E942A
:1053A0006C2781E0EDCFCF93DF93EC01FC01E55753
:1053B000FF4F8081882319F0CE010E94942960E07C
:1053C000CE01DF91CF910C946C271F920F920FB6F4
:1053D0000F9211242F933F938F939F93AF93BF937B
:1053E0008091B2029091B302A091B402B091B50243
:1053F0003091B10223E0230F2D3758F50196A11DFE
:10540000B11D2093B1028093B2029093B302A09396
:10541000B402B093B5028091B6029091B702A09108
:10542000B802B091B9020196A11DB11D8093B602D8
:105430009093B702A093B802B093B902BF91AF9115
:105440009F918F913F912F910F900FBE0F901F90C2
:10545000189526E8230F0296A11DB11DD2CF1F92E9
:105460000F920FB60F9211242F933F934F935F9398
:105470006F937F938F939F93AF93BF93EF93FF931C
:10548000E0910201F09103010995FF91EF91BF9125
:10549000AF919F918F917F916F915F914F913F91CC
:1054A0002F910F900FBE0F901F9018951F920F9283
:1054B0000FB60F9211242F933F934F935F936F93E7
:1054C0007F938F939F93AF93BF93EF93FF93E0915D
:1054D0000001F09101010995FF91EF91BF91AF910A
:1054E0009F918F917F916F915F914F913F912F91FC
:1054F0000F900FBE0F901F9018951F920F920FB62E
:105500000F9211242F933F934F935F936F937F9349
:105510008F939F93AF93BF93EF93FF938091B900C5
:10552000887F803609F44AC0F0F5883209F4A7C0B4
:1055300018F5803109F49BC0B8F4882309F4F9C048
:10554000883009F494C0FF91EF91BF91AF919F9182
:105550008F917F916F915F914F913F912F910F901C
:105560000FBE0F901F901895883109F488C08032C3
:1055700051F78093860214C0803409F49DC040F432
:105580008033B9F38833F9F68093860285ECB0C096
:10559000803509F485C0883509F496C0883499F6B9
:1055A0000E945C29D0CF883909F48CC038F588373F
:1055B00029F050F4883611F0803729F683E0809383
:1055C00087021092850257C0883809F47BC0803961
:1055D00019F0803809F0B7CF80918502803208F049
:1055E00071C0E091850281E08E0F809385028091E9
:1055F000BB00F0E0EB59FD4F80833DC0803B39F0AC
:10560000E0F4803A09F479C0883A09F09CCF84E04C
:10561000809387021092620210926102E0915F0211
:10562000F091600209958091610281110FC081E0C3
:105630008093610210923F0209C0803C09F4A6CF1A
:10564000883C09F4A3CF883B09F07DCFE09162024A
:1056500081E08E0F80936202F0E0E15CFD4F80817B
:105660008093BB00909162028091610229C0809179
:10567000AC028093BB0085EC8093BC0064CF90911A
:10568000AB028091AA02981758F5E091AB0281E035
:105690008E0F8093AB02F0E0E657FD4F8081E9CF9B
:1056A000E091AB0281E08E0F8093AB028091BB0052
:1056B000F0E0E657FD4F80839091AB028091AA0203
:1056C0009817C8F285E8D8CFE091AB0281E08E0F41
:1056D0008093AB028091BB00F0E0E657FD4F8083E2
:1056E0008091890281115CCF81E08093880284EAF5
:1056F0008093BC001092870226CF85EC8093BC007B
:105700001092870280918502803230F4E091850208
:10571000F0E0EB59FD4F10826091850270E0E0915E
:105720006302F091640285E692E009951092850289
:105730000ACF1092860234CF0F931F93CF93DF933B
:10574000109253071092520788EE93E0A0E0B0E069
:105750008093540790935507A0935607B09357072B
:1057600083E791E090935107809350071092BD0614
:105770001092BC0681EB94E190934B0780934A070B
:1057800010924D0710924C0710924F0710924E073F
:105790001092D60685E891E09093BB068093BA06F6
:1057A0001092BF061092BE061092D3061092CA063F
:1057B0001092CB061092CC061092CD068FEF8093FC
:1057C000D4068093D806ECEDF6E082EF96E0CFEFBA
:1057D000C1938E179F07E1F781E391E29093C3068F
:1057E0008093C20686E292E29093C5068093C40637
:1057F0008BED97E29093C7068093C6068EE498E2FD
:105800009093C9068093C80630E020E040E069E04C
:105810008EEB96E00E943121109219071092180722
:105820008BEB94E19093F3068093F2068AEB92E07F
:105830009093F7068093F60688E08093F80610921E
:10584000F906109227071092470710924307D1E0FC
:10585000D0934807D09349078DE891E09093F506DF
:105860008093F4068EEB96E00E94A022109211071E
:105870001092100710921507109214070FEF1FEFE8
:10588000109313070093120710931707009316073E
:10589000E091F406F091F5060280F381E02D8EEBA5
:1058A00096E009958AE295E190931B0780931A0789
:1058B00010922A07C093E706C093E806C093E90652
:1058C00010925F0710925E0720E830E03093610786
:1058D0002093600780E490E09093630780936207D1
:1058E000309365072093640790936707809366075A
:1058F00010927207109269071092680710926B0756
:1059000010926A07D0937107D093700710936F07B6
:1059100000936E0710936D0700936C07D093730785
:1059200010927407109276071092750787E991E03C
:1059300090935D0780935C07109278071092770729
:1059400080E597E090937A078093790710927C071F
:1059500010927B07C0938007C0938107C093820792
:10596000C0938307C093840780E89AE1A6E0B0E083
:105970008093910790939207A0939307B093940715
:1059800080EA96E8A1E0B0E08093950790939607AF
:10599000A0939707B093980780E580939A07109299
:1059A0009B07DF91CF911F910F910895789484B553
:1059B000826084BD84B5816084BD85B5826085BD0B
:1059C00085B5816085BD80916E00816080936E0099
:1059D000109281008091810082608093810080918B
:1059E000810081608093810080918000816080933C
:1059F00080008091B10084608093B1008091B000FC
:105A000081608093B00080917A00846080937A00F6
:105A100080917A00826080937A0080917A00816020
:105A200080937A0080917A00806880937A00109247
:105A3000C1008AE78093D406E091C206F091C306C4
:105A400030E020E040E06AE08EEB96E009958EEBD6
:105A500096E00E94D3298EEB96E00E94A92981113D
:105A6000FACF60E08EEB96E00E946C27E091C206D0
:105A7000F091C30630E020E040E06BE08EEB96E072
:105A8000099567ED262E65E0362EC2EDD5E058ED7E
:105A9000452E55E0552E8EEB96E00E94D32989EDD8
:105AA000682E85E0782E0AED15E09BEDE92E95E055
:105AB000F92E2CEDC22E25E0D22E3DEDA32E35E0A1
:105AC000B32E4EED842E45E0942E809118079091D0
:105AD0001907825D954009F48CC0D0931907C093D3
