S01200004D4D5F696E697469616C2E737265632F
S11300000C9473000C9490000C9490000C94900049
S11300100C9490000C9490000C9490000C9490001C
S11300200C9490000C9490000C9490000C9490000C
S11300300C9490000C9490000C9490000C949000FC
S11300400C9490000C9490000C9490000C949000EC
S11300500C9490005015541559155E1563156815C8
S11300606D15721507634236B79BD8A71A396856BF
S113007018AEBAAB558C1D3CB7CC5763BD6DEDFDC6
S1130080753EF6177231BF000000803F0800000083
S1130090BE922449123EABAAAA2ABECDCCCC4C3E79
S11300A000000080BEABAAAAAA3E00000000BF0068
S11300B00000803F0000000000084178D3BB438764
S11300C0D1133D190E3CC3BD4282AD2B3E68EC8278
S11300D076BED98FE1A93E4C80EFFFBE01C4FF7FFD
S11300E03F000000000011241FBECFE5D8E0DEBFB2
S11300F0CDBF12E0A0E6B0E0E6EEF5E302C0059065
S11301000D92AE39B107D9F722E0AEE9B2E001C0F1
S11301101D92A43AB207E1F70E946A130C94F11AF3
S11301200C9400008F929F92AF92BF92CF92DF9275
S1130130EF92FF92FC01EF5CF109EC3133E0F3073D
S113014008F0E5C0E753F140379708F4E5C04233BF
S1130150A1F020F4413309F44FC004C0433311F13A
S11301604433A9F10F2E812C912CF0E8AF2EFFEB34
S1130170BF2EF02D7501640153C00F2EFAED8F2EA2
S1130180FCEA9F2EF2E2AF2EF0E4BF2EF02D0F2EEC
S1130190F4E9CF2EFDE4DF2EF9E1EF2EFFE3FF2E8D
S11301A0F02D3EC00F2EF6E78F2EFCEE9F2EF0E2D0
S11301B0AF2EF0E4BF2EF02D0F2EFDE7CF2EF1E988
S11301C0DF2EF0E7EF2EFDE3FF2EF02D29C00F2EDA
S11301D0FFE48F2EF5EE9F2EF2E2AF2EF0E4BF2E59
S11301E0F02D0F2EF1E4CF2EFFE3DF2EFDE9EF2EED
S11301F0FBE3FF2EF02D14C00F2EF8E38F2EF1EA4F
S11302009F2EFEE1AF2EF0E4BF2EF02D0F2EFEEE5A
S1130210CF2EFCE7DF2EFFEBEF2EF0E4FF2EF02DC8
S1130220213339F1223309F071C0BC0180E090E040
S11302300E94101820E030E040EA50E40E94D718F1
S113024020E030E040E85AE30E94D718A501940169
S11302500E94C116A70196010E943317EFE0F7E24E
S11302603197F1F700C00000562F472F382F292F60
S11302705CC09C012E5F3F4F2617370708F051C022
S1130280423379F018F4413331F01CC0433379F030
S1130290443399F017C0681B790BCB0186509E4FED
S11302A011C0681B790BCB01885F9D4F0BC0681B85
S11302B0790BCB018C5F9D4F05C0681B790BCB017B
S11302C0865F9D4FBC0180E090E00E94101820E002
S11302D030E040EA50E40E94D71820E030E040E8E3
S11302E05AE30E94D718A50194010E94C116A701E0
S11302F096010E943317EFE0F7E23197F1F700C05F
S11303000000562F472F382F292F0FC00EC05CE551
S11303104FEF39E724E409C050E040E030E020E04A
S113032004C050E040E030E020E0652F742F832FBC
S1130330922FFF90EF90DF90CF90BF90AF909F905F
S11303408F9008958F929F92AF92BF92CF92DF9237
S1130350EF92FF92CF93BC01695C7109613632E080
S1130360730708F086C06D5C71096930710508F483
S113037085C0C42F21532230A0F4BC0180E090E05A
S11303800E94101820E030E040EA50E40E94D718A0
S113039020E030E040E85AE30E94D7186B017C016A
S11303A003C0C12CD12C7601C23309F441C018F426
S11303B0C13331F032C0C33391F0C433F9F02DC0EE
S11303C02EEF34ED40E150E40F2EFBE98F2EFAE5D9
S11303D09F2EFEE5AF2EFFE3BF2EF02D37C027ED95
S11303E033EA40E050E40F2EFFE58F2EF9E29F2E12
S11303F0FBE4AF2EFCE3BF2EF02D28C02CE934EC37
S113040040E050E40F2EF7E88F2EF6E19F2EF1E244
S1130410AF2EF0E4BF2EF02D19C080E690E00E94CC
S1130420231120E030E040E85FEB49015A010EC09F
S11304302AE037ED43E150E40F2EFCEE8F2EF1E578
S11304409F2EF8EBAF2EFDE3BF2EF02DC701B601B2
S11304500E94C116A50194010E943317EFE0F7E250
S11304603197F1F700C00000562F472F382F292F5E
S113047009C05CE54FEF39E724E404C050E040E0F4
S113048030E020E0652F742F832F922FCF91FF90BF
S1130490EF90DF90CF90BF90AF909F908F90089592
S11304A04F925F926F927F928F929F92AF92BF9280
S11304B0CF92DF92EF92FF920F931F93CF93DF932C
S11304C0082F7B018FEC800F853048F00E948E103E
S11304D00E947C1087E890E00E94231135C50E9499
S11304E08E100E947C1086E990E00E94231121E086
S11304F030E040E050E060E070E0CB010E94201367
S113050087EA90E00E942311C0E0D0E010E00DC023
S11305100E94EE0F182F8FE097E20197F1F700C0C9
S113052000002196C83CD10510F41A3289F71A321A
S113053009F40AC5E70105C50E948E100E947C10CB
S1130540023309F465C1033309F4E0C2013309F04D
S1130550F8C4C73F93E0D907D8F08DEA90E00E9431
S1130560231121E030E040E050E060E070E0CB0196
S11305700E9420138DEB90E00E9423112FEF89E657
S113058098E1215080409040E1F700C00000DCC4B5
S1130590C33C22E0D20708F09EC0BE0180E090E098
S11305A00E9410184B015C0120E030E041EE53E45E
S11305B00E94D7182B013C01A501940160E070E072
S11305C080E894E40E94C1169B01AC01C301B2010E
S11305D00E9433174B015C018EEC90E00E942311C2
S11305E021E030E040E050E060E070E0CB010E94A8
S11305F0201343E0C501B4010E94D1128FEF99E6A4
S113060028E1815090402040E1F700C0000021E043
S113061030E040E050E06BE070E080E090E00E9469
S113062020138DED90E00E9423114CC0CE15DF0500
S113063009F441C021E030E040E050E060E070E0C7
S1130640CB010E94201384E491E00E942311BE0197
S113065080E090E00E9410186B017C0120E030E003
S113066041EE53E40E94D7184B015C01A7019601A7
S113067060E070E080E894E40E94C1169B01AC0144
S1130680C501B4010E9433176B017C0121E030E005
S113069040E050E060E070E0CB010E94201343E0B2
S11306A0C701B6010E94D1128FEC97E00197F1F7D0
S11306B000C000007E0187E00E944315EC010E9407
S11306C0EE0F182FC33C92E0D90708F03AC41A324F
S11306D009F0ACCF36C4BE0180E090E00E9410184F
S11306E04B015C0126E636E646EE5EE30E94D7182F
S11306F02B013C01A501940160E070E080E894E4E2
S11307000E94C1169B01AC01C301B2010E943317C0
S11307104B015C0183EE90E00E94231121E030E064
S113072040E050E060E070E0CB010E94201343E021
S1130730C501B4010E94D1128FEC97E00197F1F743
S113074000C0000021E030E040E050E06BE070E0E9
S113075080E090E00E9420138DED90E00E94231130
S11307604CC0CE15DF0509F441C021E030E040E083
S113077050E060E070E0CB010E94201386E491E039
S11307800E942311BE0180E090E00E9410186B01CA
S11307907C0126E636E646EE5EE30E94D7184B015E
S11307A05C01A701960160E070E080E894E40E9497
S11307B0C1169B01AC01C501B4010E9433176B0142
S11307C07C0121E030E040E050E060E070E0CB01EB
S11307D00E94201343E0C701B6010E94D1128FEC9E
S11307E097E00197F1F700C000007E0187E00E94C6
S11307F04315EC010E94EE0F182FCE01835C92404A
S11308008433914008F09DC31A3209F0AACF99C3EA
S1130810C73F83E0D807D8F08DEA90E00E94231107
S113082021E030E040E050E060E070E0CB010E9465
S113083020138DEB90E00E9423119FEF29E688E1BD
S1130840915020408040E1F700C000007DC3C33ACE
S113085093E0D907F0F483EF90E00E94231121E0A4
S113086030E040E050E060E070E0CB010E942013F3
S113087083E091E00E9423112FEF89E698E1215053
S113088080409040E1F700C000000E948E100E945A
S11308907C10C43B21E0D20708F49DC0BE0180E077
S11308A090E00E9410184B015C012DEC3CEC4CEAEA
S11308B05FE30E94D7182B013C01A501940160E07D
S11308C070E080E894E40E94C1169B01AC01C3016E
S11308D0B2010E9433174B015C0183EE90E00E9449
S11308E0231121E030E040E050E060E070E0CB0113
S11308F00E94201343E0C501B4010E94D1128FEC81
S113090097E00197F1F700C0000021E030E040E0FB
S113091050E06BE070E080E090E00E9420138DEDE9
S113092090E00E9423114CC0CE15DF0509F441C0AC
S113093021E030E040E050E060E070E0CB010E9454
S1130940201384E491E00E942311BE0180E090E032
S11309500E9410186B017C012DEC3CEC4CEA5FE327
S11309600E94D7184B015C01A701960160E070E07A
S113097080E894E40E94C1169B01AC01C501B40156
S11309800E9433176B017C0121E030E040E050E02D
S113099060E070E0CB010E94201343E0C701B60180
S11309A00E94D1128FEC97E00197F1F700C000008C
S11309B07E0187E00E944315EC010E94EE0F182F80
S11309C0CE01845B91408334924008F0BAC21A325B
S11309D009F0AACFB6C2BE0180E090E00E941018D0
S11309E04B015C0120E030EC48EA54E40E94D71843
S11309F02B013C01A501940160E070E080E894E4DF
S1130A000E94C1169B01AC01C301B2010E943317BD
S1130A104B015C018EEC90E00E94231121E030E058
S1130A2040E050E060E070E0CB010E94201343E01E
S1130A30C501B4010E94D1128FEC97E00197F1F740
S1130A4000C0000021E030E040E050E06BE070E0E6
S1130A5080E090E00E9420138DED90E00E9423112D
S1130A604CC0CE15DF0509F441C021E030E040E080
S1130A7050E060E070E0CB010E94201386E491E036
S1130A800E942311BE0180E090E00E9410186B01C7
S1130A907C0120E030EC48EA54E40E94D7184B0172
S1130AA05C01A701960160E070E080E894E40E9494
S1130AB0C1169B01AC01C501B4010E9433176B013F
S1130AC07C0121E030E040E050E060E070E0CB01E8
S1130AD00E94201343E0C701B6010E94D1128FEC9B
S1130AE097E00197F1F700C000007E0187E00E94C3
S1130AF04315EC010E94EE0F182FC43B91E0D90777
S1130B0008F01FC21A3209F0ACCF1BC2CC3F23E05D
S1130B10D207D8F08DEA90E00E94231121E030E062
S1130B2040E050E060E070E0CB010E9420138DEBC8
S1130B3090E00E9423118FEF99E628E181509040C4
S1130B402040E1F700C00000FFC1C23A83E0D807AB
S1130B50F0F483EF90E00E94231121E030E040E0C4
S1130B6050E060E070E0CB010E94201383E091E04C
S1130B700E9423119FEF29E688E191502040804094
S1130B80E1F700C000000E948E100E947C10C63F56
S1130B9093E0D90708F49CC0BE0180E090E00E9475
S1130BA010184B015C012AE037ED43E25CE30E943C
S1130BB0D7182B013C01A501940160E070E080E8A6
S1130BC094E40E94C1169B01AC01C301B2010E94CE
S1130BD033174B015C0184E191E00E94231121E071
S1130BE030E040E050E060E070E0CB010E94201370
S1130BF043E0C501B4010E94D1128FEC97E0019744
S1130C00F1F700C0000021E030E040E050E06BE08C
S1130C1070E080E090E00E9420138DED90E00E944F
S1130C2023114CC0CE15DF0509F441C021E030E0AA
S1130C3040E050E060E070E0CB010E94201388E4C3
S1130C4091E00E942311BE0180E090E00E94101800
S1130C506B017C012AE037ED43E25CE30E94D71884
S1130C604B015C01A701960160E070E080E894E428
S1130C700E94C1169B01AC01C501B4010E94331747
S1130C806B017C0121E030E040E050E060E070E086
S1130C90CB010E94201343E0C701B6010E94D11288
S1130CA08FEC97E00197F1F700C000007E0187E028
S1130CB00E944315EC010E94EE0F182FCE01865FAF
S1130CC09340069708F03DC11A3209F0ABCF39C101
S1130CD0CA35D10508F49DC0BE0180E090E00E94B1
S1130CE010184B015C0120E030E040E251E40E9426
S1130CF0D7182B013C01A501940160E070E080E865
S1130D0094E40E94C1169B01AC01C301B2010E948C
S1130D1033174B015C0183EE90E00E94231121E024
S1130D2030E040E050E060E070E0CB010E9420132E
S1130D3043E0C501B4010E94D1128FEC97E0019702
S1130D40F1F700C0000021E030E040E050E06BE04B
S1130D5070E080E090E00E9420138DED90E00E940E
S1130D6023114CC0CE15DF0509F441C021E030E069
S1130D7040E050E060E070E0CB010E94201384E486
S1130D8091E00E942311BE0180E090E00E941018BF
S1130D906B017C0120E030E040E251E40E94D7186E
S1130DA04B015C01A701960160E070E080E894E4E7
S1130DB00E94C1169B01AC01C501B4010E94331706
S1130DC06B017C0121E030E040E050E060E070E045
S1130DD0CB010E94201343E0C701B6010E94D11247
S1130DE08FEC97E00197F1F700C000007E0187E0E7
S1130DF00E944315EC010E94EE0F182FCE018A5574
S1130E0091098C39934008F09CC01A3209F0AACF9A
S1130E1098C0BE0180E090E00E9410184B015C0174
S1130E2020E030E44CE156E40E94D7182B013C0149
S1130E30A501940160E070E080E894E40E94C1168A
S1130E409B01AC01C301B2010E9433174B015C0149
S1130E508EEC90E00E94231121E030E040E050E06D
S1130E6060E070E0CB010E94201343E0C501B401AF
S1130E700E94D1128FEC97E00197F1F700C00000B7
S1130E8021E030E040E050E06BE070E080E090E092
S1130E900E9420138DED90E00E9423114CC0CE15CA
S1130EA0DF0509F441C021E030E040E050E060E0BB
S1130EB070E0CB010E94201384E491E00E9423118E
S1130EC0BE0180E090E00E9410186B017C0120E0DC
S1130ED030E44CE156E40E94D7184B015C01A701B1
S1130EE0960160E070E080E894E40E94C1169B01E2
S1130EF0AC01C501B4010E9433176B017C0121E0F0
S1130F0030E040E050E060E070E0CB010E9420134C
S1130F1043E0C701B6010E94D1128FEC97E001971C
S1130F20F1F700C000007E0187E00E944315EC0148
S1130F300E94EE0F182FCA35D10518F41A3209F0A1
S1130F40AECF1A3209F0F8CADF91CF911F910F91F9
S1130F50FF90EF90DF90CF90BF90AF909F908F90D5
S1130F607F906F905F904F9008954F925F926F9231
S1130F707F92BF92CF92DF92EF92FF920F931F93D3
S1130F80CF93DF93D82EEB01042F8FEC8D0D85309A
S1130F9048F00E948E100E947C1087E890E00E9426
S1130FA02311F3C26B3E7340F8F00E948E100E942E
S1130FB07C1084E291E00E94231121E030E040E0C3
S1130FC050E060E070E0CB010E9420138DEB90E0D4
S1130FD00E9423118FEF99E628E181509040204030
S1130FE0E1F700C00000D1C20E948E100E947C1064
S1130FF086E990E00E94231121E030E040E050E0D7
S113100060E070E0CB010E94201387EA90E00E9428
S11310102311E12CF12C10E010C00E94EE0F182FC8
S11310208FE097E20197F1F700C000009FEFE91A03
S1131030F90A28ECE216F10410F41A3271F71A32A4
S113104009F4A3C27E019EC20E948E100E947C10ED
S1131050013309F44CC1023309F094C284E3D81279
S1131060A3C0202F4D2D60E070E0CE010E94A201AC
S11310702B013C0184E391E00E94231121E030E044
S113108040E050E060E070E0CB010E94201343E0B8
S1131090C301B2010E94D1129FEF29E688E1915069
S11310A020408040E1F700C0000021E030E040E053
S11310B050E06BE070E080E090E00E9420138DED42
S11310C090E00E9423116CC0CE15DF0559F121E098
S11310D030E040E050E060E070E0CB010E9420137B
S11310E080E491E00E942311202F4D2D60E070E0F8
S11310F0CE010E94A2012B013C0121E030E040E03E
S113110050E060E070E0CB010E94201343E0C30193
S1131110B2010E94D1128FEC97E00197F1F700C061
S113112000007E01CE01895C91098136924068F00D
S11311308FEF90E722E0815090402040E1F700C01B
S1131140000086E00E944315EC01C95CD109C13658
S1131150D240F8F00E948E100E947C1084E291E04C
S11311600E94231121E030E040E050E060E070E0B4
S1131170CB010E9420138DEB90E00E9423119FEF7E
S113118029E688E1915020408040E1F700C000004A
S1131190FCC186E00E944315EC010E94EE0F182F5B
S11311A01A3209F091CFEEC1202F4D2D60E070E08E
S11311B0CE010E94A2012B013C018CE491E00E942B
S11311C0231121E030E040E050E060E070E0CB012A
S11311D00E94201343E0C301B2010E94D1129FEF89
S11311E029E688E1915020408040E1F700C00000EA
S11311F021E030E040E050E06BE070E080E090E01F
S11312000E9420138DED90E00E9423116CC0CE1536
S1131210DF0559F121E030E040E050E060E070E0AB
S1131220CB010E94201380E491E00E942311202F1F
S11312304D2D60E070E0CE010E94A2012B013C0123
S113124021E030E040E050E060E070E0CB010E943B
S1131250201343E0C301B2010E94D1128FEC97E046
S11312600197F1F700C000007E01CE01895C91096D
S11312708136924068F08FEF90E722E081509040F1
S11312802040E1F700C0000086E00E944315EC0115
S1131290C95CD109C136D240F8F00E948E100E9478
S11312A07C1084E291E00E94231121E030E040E0D0
S11312B050E060E070E0CB010E9420138DEB90E0E1
S11312C00E9423119FEF29E688E19150204080403D
S11312D0E1F700C0000059C186E00E944315EC010B
S11312E00E94EE0F182F1A3209F091CF4BC184E0FF
S11312F00E944315B82EC92E202F4D2D682F792F0B
S11313000E94A2012B013C0194E3D9129EC084E304
S113131091E00E94231121E030E040E050E060E0E1
S113132070E0CB010E94201343E0C301B2010E948C
S1131330D1122FEF89E698E1215080409040E1F7E7
S113134000C0000021E030E040E050E06BE070E0DD
S113135080E090E00E9420138DED90E00E94231124
S1131360EB2CFC2CCB2DDC2D6CC0CE15DF0559F1FC
S113137021E030E040E050E060E070E0CB010E940A
S1131380201380E491E00E942311202F4D2D6B2D1A
S11313907C2DCE010E94A2012B013C0121E030E012
S11313A040E050E060E070E0CB010E94201343E095
S11313B0C301B2010E94D1128FEC97E00197F1F7BB
S11313C000C000007E01CE01895C91098136924003
S11313D068F08FEF90E722E0815090402040E1F7E1
S11313E000C0000084E00E944315EC01C95CD109EF
S11313F0C136D240F8F00E948E100E947C1084E224
S113140091E00E94231121E030E040E050E060E0F0
S113141070E0CB010E9420138DEB90E00E94231119
S11314209FEF29E688E1915020408040E1F700C019
S11314300000ABC084E00E944315EC010E94EE0F53
S1131440182F1A3209F091CF9DC08CE491E00E94CC
S1131450231121E030E040E050E060E070E0CB0197
S11314600E94201343E0C301B2010E94D1129FEFF6
S113147029E688E1915020408040E1F700C0000057
S113148021E030E040E050E06BE070E080E090E08C
S11314900E9420138DED90E00E942311EB2CFC2C74
S11314A0CB2DDC2D6CC0CE15DF0559F121E030E0E9
S11314B040E050E060E070E0CB010E94201380E443
S11314C091E00E942311202F4D2D6B2D7C2DCE01F8
S11314D00E94A2012B013C0121E030E040E050E0F9
S11314E060E070E0CB010E94201343E0C301B2012D
S11314F00E94D1128FEC97E00197F1F700C0000031
S11315007E01CE01895C91098136924068F08FEFAB
S113151090E722E0815090402040E1F700C00000B5
S113152084E00E944315EC01C95CD109C136D24064
S1131530F8F00E948E100E947C1084E291E00E94D8
S1131540231121E030E040E050E060E070E0CB01A6
S11315500E9420138DEB90E00E9423119FEF29E657
S113156088E1915020408040E1F700C000000DC0A8
S113157084E00E944315EC010E94EE0F182F1A32EA
S113158009F091CF1A3209F05FCDDF91CF911F910D
S11315900F91FF90EF90DF90CF90BF907F906F906E
S11315A05F904F9008954F925F926F927F928F92C7
S11315B09F92AF92BF92DF92EF92FF920F931F938D
S11315C0CF93DF93D82E5B01EA01022F8FEC8D0DB0
S11315D0853048F00E948E100E947C1087E890E0CD
S11315E00E942311ECC24B3E5340F8F00E948E102F
S11315F00E947C1089E591E00E94231121E030E0F3
S113160040E050E060E070E0CB010E9420138DEBDD
S113161090E00E9423118FEF99E628E181509040D9
S11316202040E1F700C00000CAC20E948E100E9450
S11316307C1086E990E00E94231121E030E040E034
S113164050E060E070E0CB010E94201387EA90E054
S11316500E942311E12CF12C10E010C00E94EE0F27
S1131660182F8FE097E20197F1F700C000009FEF79
S1131670E91AF90A28ECE216F10410F41A3271F7A7
S11316801A3209F49CC27E0197C20E948E100E94F5
S11316907C10013309F454C1023309F08DC281E393
S11316A0D812ADC0202F4D2DB501CE010E9492005D
S11316B020E030E04AE754E40E94D7182B013C01B3
S11316C089E691E00E94231121E030E040E050E0FF
S11316D060E070E0CB010E94201343E0C301B2013B
S11316E00E94D1129FEF29E688E19150204080406A
S11316F0E1F700C0000021E030E040E050E06BE0A2
S113170070E080E090E00E9420138DED90E00E9454
S1131710231171C0CE15DF0581F121E030E040E0F6
S113172050E060E070E0CB010E94201380E491E07F
S11317300E942311202F4D2DB501CE010E9492004D
S113174020E030E04AE754E40E94D7182B013C0122
S113175021E030E040E050E060E070E0CB010E9426
S1131760201343E0C301B2010E94D1128FEC97E031
S11317700197F1F700C000007E01CE018F5C910952
S11317808C31934068F08FEF90E722E081509040D5
S11317902040E1F700C0000086E00E944315EC0100
S11317A0CF5CD109CC31D340F8F00E948E100E9456
S11317B07C1089E591E00E94231121E030E040E0B3
S11317C050E060E070E0CB010E9420138DEB90E0CC
S11317D00E9423119FEF29E688E191502040804028
S11317E0E1F700C00000EBC186E00E944315EC0164
S11317F00E94EE0F182F1A3209F08CCFDDC1202F72
S11318004D2DB501CE010E9492002B013C0183E7CE
S113181091E00E94231121E030E040E050E060E0DC
S113182070E0CB010E94201343E0C301B2010E9487
S1131830D1129FEF29E688E1915020408040E1F7E2
S113184000C0000021E030E040E050E06BE070E0D8
S113185080E090E00E9420138DED90E00E9423111F
S11318606BC0CE15DF0551F121E030E040E050E0DF
S113187060E070E0CB010E94201380E491E00E94BC
S11318802311202F4D2DB501CE010E9492002B0172
S11318903C0121E030E040E050E060E070E0CB014A
S11318A00E94201343E0C301B2010E94D1128FECC5
S11318B097E00197F1F700C000007E01CE018F5C34
S11318C091098C31934068F08FEF90E722E08150CA
S11318D090402040E1F700C0000086E00E944315DC
S11318E0EC01CF5CD109CC31D340F8F00E948E10CA
S11318F00E947C1089E591E00E94231121E030E0F0
S113190040E050E060E070E0CB010E9420138DEBDA
S113191090E00E9423119FEF29E688E19150204036
S11319208040E1F700C000004AC186E00E944315F0
S1131930EC010E94EE0F182F1A3209F092CF3CC12D
S113194091E3D912A3C084E00E9443157C01202FA7
S11319504D2DB501CE010E94920020E030E04AE70F
S113196054E40E94D7182B013C018CE791E00E94BB
S1131970231121E030E040E050E060E070E0CB0172
S11319800E94201343E0C301B2010E94D1122FEF41
S113199089E698E1215080409040E1F700C00000C2
S11319A021E030E040E050E06BE070E080E090E067
S11319B00E9420138DED90E00E942311470162C024
S11319C0E814F90409F457C0CF5CD109CC31D340F1
S11319D0F8F00E948E100E947C1089E591E00E942C
S11319E0231121E030E040E050E060E070E0CB0102
S11319F00E9420138DEB90E00E9423118FEF99E653
S1131A0028E1815090402040E1F700C00000D7C099
S1131A1021E030E040E050E060E070E0CB010E9463
S1131A20201380E491E00E94231186E00E94431574
S1131A30EC01202F4D2DB5010E94920020E030E0F2
S1131A404AE754E40E94D7182B013C0121E030E01E
S1131A5040E050E060E070E0CB010E94201343E0DE
S1131A60C301B2010E94D1128FEC97E00197F1F704
S1131A7000C00000740184E00E9443154C010E94E0
S1131A80EE0F182F1A3209F09BCF96C084E00E9403
S1131A9043157C01202F4D2DB501CE010E949200EB
S1131AA02B013C0189E891E00E94231121E030E000
S1131AB040E050E060E070E0CB010E94201343E07E
S1131AC0C301B2010E94D1129FEF23E284EF91502F
S1131AD020408040E1F700C0000021E030E040E019
S1131AE050E06BE070E080E090E00E9420138DED08
S1131AF090E00E94231147015CC0E814F90409F442
S1131B0051C0CF5CD109CC31D340F8F00E948E1083
S1131B100E947C1089E591E00E94231121E030E0CD
S1131B2040E050E060E070E0CB010E9420138DEBB8
S1131B3090E00E9423112FEF89E698E12150804024
S1131B409040E1F700C000003AC021E030E040E0FE
S1131B5050E060E070E0CB010E94201380E491E04B
S1131B600E94231186E00E944315EC01202F4D2D85
S1131B70B5010E9492002B013C0121E030E040E0DD
S1131B8050E060E070E0CB010E94201343E0C30109
S1131B90B2010E94D1128FEC97E00197F1F700C0D7
S1131BA00000740184E00E9443154C010E94EE0F72
S1131BB0182F1A3209F0A1CF1A3209F066CDDF913D
S1131BC0CF911F910F91FF90EF90DF90BF90AF9056
S1131BD09F908F907F906F905F904F9008951F9388
S1131BE0CF93DF93182F0E948E100E947C1086E9F9
S1131BF090E00E94231121E030E040E050E060E0FA
S1131C0070E0CB010E942013812F0E94E21088EA29
S1131C1090E00E942311C0E0D0E080E00DC00E945B
S1131C20EE0FEFE0F7E23197F1F700C000002196E4
S1131C30CC32F1E0DF0710F48113F1CF811302C03D
S1131C4081E001C080E0DF91CF911F910895CF938F
S1131C50C62F2FEF30E792E0215030409040E1F75B
S1131C6000C00000823371F1833309F475C08133FD
S1131C7009F0B6C0623381F06333C9F0613309F00F
S1131C80AFC040E064E081E00E94EE1540E065E012
S1131C9081E00E94EE15A4C041E064E081E00E946E
S1131CA0EE1540E065E081E00E94EE1599C040E049
S1131CB064E081E00E94EE1541E065E081E00E946D
S1131CC0EE158EC040E064E081E00E94EE152FEF37
S1131CD030E782E0215030408040E1F700C000004E
S1131CE0C233A1F018F4C13331F031C0C333C9F0A9
S1131CF0C43311F12CC041E066E081E00E94EE158E
S1131D0041E067E081E00E94EE156AC040E066E0D1
S1131D1081E00E94EE1541E067E081E00E94EE154B
S1131D205FC041E066E081E00E94EE1540E067E0BC
S1131D3081E00E94EE1554C040E066E081E00E941C
S1131D40EE1540E067E081E00E94EE1549C085E9A8
S1131D5091E00E94231144C041E064E081E00E94CC
S1131D60EE159FEF20E732E0915020403040E1F73C
S1131D7000C00000C233A1F018F4C13331F030C008
S1131D80C333C9F0C43311F12BC041E066E081E0F4
S1131D900E94EE1541E067E081E00E94EE1520C04C
S1131DA040E066E081E00E94EE1541E067E081E0FA
S1131DB00E94EE1515C041E066E081E00E94EE1538
S1131DC040E067E081E00E94EE150AC040E066E072
S1131DD081E00E94EE1540E067E081E00E94EE158C
S1131DE0CF9108958F929F92AF92CF92DF92EF920C
S1131DF0FF921F93CF93DF937C014B01C42EA22E3D
S1131E000E948E100E947C10C7010E94231121E0C1
S1131E1030E040E050E060E070E0CB010E9420132D
S1131E20C4010E9423110E94EE0FD82E10E079C045
S1131E304D2D50E0282F30E02F5C3F4F42175307C1
S1131E4031F08F5F01C080E08C1590F301C011E088
S1131E50113009F46AC00E94EE0FD82E8FE097E289
S1131E600197F1F700C000002196C43F91E0D90723
S1131E7008F459C00E948E100E947C108AEB91E0F5
S1131E800E94231121E030E040E050E060E070E087
S1131E90CB010E9420138BEC91E00E942311C0E03F
S1131EA0D0E022C00E94EE0FD82E8FE097E2019777
S1131EB0F1F700C0000080E00AC04D2D50E0282F4B
S1131EC030E02F5C3F4F4217530721F08F5F8C1592
S1131ED0A0F301C011E0113069F08FE097E201979F
S1131EE0F1F700C000002196DA1421F0C43F91E01C
S1131EF0D907C0F20E948E100E947C10DA1489F077
S1131F00113079F0C7010E94231121E030E040E054
S1131F1050E060E070E0CB010E942013C4010E94F5
S1131F202311C0E0D0E0DA108ECF8D2DDF91CF9158
S1131F301F91FF90EF90DF90CF90AF909F908F9084
S1131F40089541E060E082E00E947D1541E061E097
S1131F5082E00E947D1541E062E082E00E947D15EE
S1131F6041E063E082E00E947D1541E060E082E0B0
S1131F700E94EE1541E061E082E00E94EE1541E02E
S1131F8062E082E00E94EE1541E063E082E00E949C
S1131F90EE1540E064E082E00E947D1540E065E0DB
S1131FA082E00E947D1540E066E082E00E947D159B
S1131FB040E067E082E00E947D1564E082E00E94D8
S1131FC08D1665E082E00E948D1666E082E00E9434
S1131FD08D1667E082E00E948D1608951F93CF93BB
S1131FE0DF9316E4D0E02FC040E06D2F82E00E9422
S1131FF0EE15C4E020C06C2F82E00E945F168111B0
S113200019C0EC2FF0E03497EE0FFF1FEE0FFF1F07
S1132010E952FE4FED0FF11D108104C06C2F82E0D8
S11320200E945F168823D1F38FEC97E00197F1F7B4
S113203000C00000CF5FC830F0F241E06D2F82E0B5
S11320400E94EE15DF5FD43078F2812FDF91CF91BB
S11320501F91089541E063E081E00E94EE158FEC4A
S113206097E00197F1F700C0000040E063E081E0F1
S11320700E94EE150895CF93C82F40E061E081E0FF
S11320800E94EE1540E062E081E00E94EE1540E01F
S113209063E081E00E94EE158C2F807F82BB41E0DB
S11320A063E081E00E94EE158FEC97E00197F1F771
S11320B000C0000040E063E081E00E94EE1520E1F2
S11320C0C29FC001112482BB41E063E081E00E9411
S11320D0EE158FEC97E00197F1F700C0000040E0A7
S11320E063E081E00E94EE158FE99FE00197F1F72C
S11320F000C00000CF91089582E00E943B1087ED5C
S11321009EE00197F1F700C000001092A002109227
S1132110A1021092A2021092A302089581E00E94EB
S11321203B100E947C1087ED9EE00197F1F700C000
S11321300000089580919E02811143C041E061E056
S113214081E00E947D1541E062E081E00E947D15FE
S113215041E061E081E00E947D1541E063E081E0BF
S11321600E947D1541E064E081E00E947D1541E01C
S113217065E081E00E947D1541E066E081E00E9417
S11321807D158FE295E70197F1F700C0000083E326
S11321900E943B1082E30E943B1088E20E943B10A5
S11321A081E00E943B1082E00E943B108CE00E9480
S11321B03B1086E00E943B100E948E1081E08093C9
S11321C09E020895CF93C82F41E061E081E00E9410
S11321D0EE1540E062E081E00E94EE1540E063E02D
S11321E081E00E94EE158C2F807F82BB41E063E08A
S11321F081E00E94EE158FEC97E00197F1F700C0A3
S1132200000040E063E081E00E94EE1520E1C29FFF
S1132210C001112482BB41E063E081E00E94EE151D
S11322208FEC97E00197F1F700C0000040E063E015
S113223081E00E94EE158FE99FE00197F1F700C05D
S11322400000CF910895CF93DF93EC0109C00E9461
S1132250E2108FE097E20197F1F700C000002196A9
S113226088818111F4CFDF91CF9108959C01615051
S113227090E00CC0D901A90FB11D8C919F5FF901A9
S1132280E60FF11D40814C9361508083961790F3C3
S11322900895EF92FF920F931F93CF93DF938A01D8
S11322A0D22F6115710581059105C1F480E3FA010E
S11322B08083118281E02AC07801EC0EF11C2AE0AF
S11322C030E040E050E00E94C91A605DF70160838D
S11322D0622F732F842F952FCF5F01C0C0E061154B
S11322E071058105910541F706C0F801EC0FF11D58
S11322F080E38083CF5FCD17C0F36C2FC8010E94A9
S11323003611F801EC0FF11D10828C2FDF91CF9163
S11323101F910F91FF90EF900895CF93DF93CDB766
S1132320DEB7A1970FB6F894DEBF0FBECDBF20E095
S1132330AE014F5F5F4F0E944911CE0101960E948A
S11323402311A1960FB6F894DEBF0FBECDBFDF9167
S1132350CF9108954F925F926F927F928F929F9246
S1132360AF92BF92CF92DF92EF92FF921F93CF93DF
S1132370DF936B017C01EA01122F20E030E040E89A
S11323805FE30E94D21888230CF444C0C701B6014D
S11323900E94E1174B015C010E9410189B01AC01E3
S11323A0C701B6010E94C1162B013C0120E0AE0119
S11323B0C501B4010E944911E82EF12CFE01EE0D75
S11323C0FF1D8EE28083612F70E080E090E00E9428
S11323D010189B01AC0160E070E080E291E40E947F
S11323E044199B01AC01C301B2010E94D7182FEF1D
S11323F0E21AF20A0E94AA17A22FF42FE52FAE01C7
S11324004E0D5F1D212F6A2F732F8F2F9E2F0E9439
S11324104911B7C020E030E0A901C701B6010E940C
S1132420D218882344F180E388838EE28983612F64
S113243070E080E090E00E9410189B01AC0160E025
S113244070E080E291E40E9444199B01AC01C70151
S1132450B6010E94D7180E94AA17A22FF42FE52FC5
S1132460AE014E5F5F4F212F6A2F732F8F2F9E2F48
S11324700E94491186C020E030E040E85FEBC701CC
S1132480B6010E942E1718160CF44EC08DE28883F4
S113249087EE91E00E942311F7FAF094F7F8F09494
S11324A0C701B6010E94E1174B015C010E9410189C
S11324B09B01AC01C701B6010E94C1162B013C016E
S11324C020E0AE01C501B4010E944911E82EF12CAF
S11324D0FE01EE0DFF1D8EE28083612F70E080E02F
S11324E090E00E9410189B01AC0160E070E080E273
S11324F091E40E9444199B01AC01C301B2010E9402
S1132500D7182FEFE21AF20A0E94AA17A22FF42F6B
S1132510E52FAE014E0D5F1D212F6A2F732F8F2FD4
S11325209E2F0E9449112DC08DE2888380E3898308
S11325308EE28A83F7FAF094F7F8F094612F70E052
S113254080E090E00E9410189B01AC0160E070E014
S113255080E291E40E9444199B01AC01C701B601D9
S11325600E94D7180E94AA17A22FF42FE52FAE01BC
S11325704D5F5F4F212F6A2F732F8F2F9E2F0E9445
S11325804911DF91CF911F91FF90EF90DF90CF9091
S1132590BF90AF909F908F907F906F905F904F907F
S11325A00895CF93DF93CDB7DEB7A1970FB6F89414
S11325B0DEBF0FBECDBF242FAE014F5F5F4F0E9421
S11325C0AA11CE0101960E942311A1960FB6F89488
S11325D0DEBF0FBECDBFDF91CF910895CF93C82F3B
S11325E040E061E081E00E94EE1540E062E081E0BD
S11325F00E94EE1540E063E081E00E94EE158C2F0E
S1132600807F82BB0E942A1020E1C29FC001112456
S113261082BB0E942A1087EC90E00197F1F700C07A
S11326200000C63011F0C83111F410929F02C4307A
S113263011F0CC3119F481E080939F02CF91089579
S11326408F929F92AF92BF92CF92DF92EF92FF92BE
S1132650CF93DF9300D0CDB7DEB74B015C016901A6
S11326607A010E949A1080E8898380EC8A83E1E0F1
S1132670F0E0EC0FFD1FEC0DFD1D8081880D0E9424
S1132680EE12CC0CDD1CEE1CFF1CCC0CDD1CEE1C75
S1132690FF1CCC0CDD1CEE1CFF1CCC0CDD1CEE1C4A
S11326A0FF1CC80CD91CEA1CFB1CC092A002D092CF
S11326B0A102E092A202F092A3020F900F90DF9188
S11326C0CF91FF90EF90DF90CF90BF90AF909F900D
S11326D08F90089541E064E081E00E947D1541E01F
S11326E065E081E00E947D152FEF80E792E02150A4
S11326F080409040E1F700C0000041E066E081E0E6
S11327000E947D1541E067E081E00E947D1540E074
S113271066E080E00E947D1540E064E080E00E9475
S11327207D1540E066E080E00E947D1540E067E0B2
S113273080E00E947D150E949A108FE097E2019735
S1132740F1F700C000000E94A10F8FE097E201970B
S1132750F1F700C0000060E085E00E943C158FE0C6
S113276097E20197F1F700C000008FE097E201972C
S1132770F1F700C000009FEF20E782E09150204075
S11327808040E1F700C0000026E643E069EE71E016
S113279089EF91E00E94F20EC82F9FEF20E782E0BC
S11327A0915020408040E1F700C000000E948E104C
S11327B00E947C10C23309F452C0C33309F4D3C05D
S11327C0C133C9F647C063E38C2F0E94270E83E20E
S11327D00E94EF0D182F813071F223E243E06AE08A
S11327E072E086E192E00E94F20ED82F8FEC97E01F
S11327F00197F1F700C00000D33209F4BCCF8FEC8D
S113280097E00197F1F700C000006D2F8C2F0E9414
S1132810270E8FE19EE40197F1F700C0000087E0E6
S11328200E9443157C010E948E100E947C10B70107
S113283080E090E00E948D119FEF29E688E191509D
S113284020408040E1F700C00000B7018D2F0E94B6
S1132850500201C010E0112309F4B5CF8CCF64E31A
S11328608C2F0E94270E10E07AC083E20E94EF0DA5
S1132870182F813009F47FCF0E948E100E947C10A3
S113288083E292E00E94231121E030E040E050E036
S113289060E070E0CB010E94201383E392E00E9489
S11328A023119FEF23ED80E3915020408040E1F716
S11328B000C0000023E244E062E472E082E592E0BA
S11328C00E94F20ED82F8FEC97E00197F1F700C029
S11328D00000D33209F44FCF8FEC97E00197F1F762
S11328E000C0000023E242E063E672E08FE692E07B
S11328F00E94F20E082F8FEC97E00197F1F700C0C9
S11329000000033209F437CF8FEC97E00197F1F719
S113291000C000006D2F8C2F0E94270E8FE19EE4D3
S11329200197F1F700C0000086E00E9443157C0186
S11329300E948E100E947C10B70180E090E00E94FB
S11329408D119FEF29E688E1915020408040E1F706
S113295000C00000402FB7018D2F0E94B50711233E
S113296009F483CF08CF64E38C2F0E94270E10E074
S11329707FC083E20E94EF0D182F813009F4FBCE53
S11329800E948E100E947C1083E292E00E94231128
S113299021E030E040E050E060E070E0CB010E94D4
S11329A0201383E392E00E9423119FEF23ED80E341
S11329B0915020408040E1F700C0000023E244E051
S11329C06FE772E080E992E00E94F20ED82F8FEC5C
S11329D097E00197F1F700C00000D33209F4CBCEA1
S11329E08FEC97E00197F1F700C0000023E242E08A
S11329F063E672E08FE692E00E94F20E082F8FECFD
S1132A0097E00197F1F700C00000033209F4B3CE58
S1132A108FEC97E00197F1F700C000006D2F8C2F29
S1132A200E94270E8FE19EE40197F1F700C0000099
S1132A3084E00E9443156C0186E00E9443157C01EA
S1132A400E948E100E947C10B70180E090E00E94EA
S1132A508D119FEF29E688E1915020408040E1F7F5
S1132A6000C00000202FA701B6018D2F0E94D30AB9
S1132A70112309F47ECF7FCE87B1806487B986B1F4
S1132A80876A86B90895E82F84B195B18E2F90E0B6
S1132A908830910550F5FC01E65DFF4F0C94EB1A6C
S1132AA087B1887F87B921C087B1887F816087B962
S1132AB01CC087B1887F826087B917C087B1887FBF
S1132AC0836087B912C087B1887F846087B90DC0DD
S1132AD087B1887F856087B908C087B1887F8660A1
S1132AE087B903C087B1876087B986B1806486B926
S1132AF03699FECF84B195B10895442319F041303D
S1132B00C9F10895813091F028F08230D9F08330F2
S1132B1029F108952AB381E090E002C0880F991F3B
S1132B206A95E2F7809582238ABB089527B381E0F2
S1132B3090E002C0880F991F6A95E2F7809582237E
S1132B4087BB089524B381E090E002C0880F991FE9
S1132B506A95E2F78095822384BB089521B381E0CE
S1132B6090E002C0880F991F6A95E2F7809582234E
S1132B7081BB0895813089F028F08230C9F0833018
S1132B8011F108952AB381E090E002C0880F991FE3
S1132B906A95E2F7822B8ABB089527B381E090E01F
S1132BA002C0880F991F6A95E2F7822B87BB0895AC
S1132BB024B381E090E002C0880F991F6A95E2F780
S1132BC0822B84BB089521B381E090E002C0880F7A
S1132BD0991F6A95E2F7822B81BB0895442319F06B
S1132BE04130C9F10895813091F028F08230D9F054
S1132BF0833029F108952BB381E090E002C0880F5F
S1132C00991F6A95E2F7809582238BBB089528B3B8
S1132C1081E090E002C0880F991F6A95E2F78095E1
S1132C20822388BB089525B381E090E002C0880F19
S1132C30991F6A95E2F78095822385BB089522B394
S1132C4081E090E002C0880F991F6A95E2F78095B1
S1132C50822382BB0895813089F028F08230C9F044
S1132C60833011F108952BB381E090E002C0880F06
S1132C70991F6A95E2F7822B8BBB089528B381E0F4
S1132C8090E002C0880F991F6A95E2F7822B88BBF7
S1132C90089525B381E090E002C0880F991F6A95DA
S1132CA0E2F7822B85BB089522B381E090E002C055
S1132CB0880F991F6A95E2F7822B82BB08958130B1
S1132CC079F028F08230A9F08330E1F024C089B390
S1132CD090E002C0959587956A95E2F78170089512
S1132CE086B390E002C0959587956A95E2F7817066
S1132CF0089583B390E002C0959587956A95E2F7AD
S1132D008170089580B390E002C0959587956A9587
S1132D10E2F78170089580E00895813089F028F009
S1132D208230C9F0833011F108952BB381E090E033
S1132D3002C0880F991F6A95E2F7822B8BBB089516
S1132D4028B381E090E002C0880F991F6A95E2F7EA
S1132D50822B88BB089525B381E090E002C0880FE0
S1132D60991F6A95E2F7822B85BB089522B381E00F
S1132D7090E002C0880F991F6A95E2F7822B82BB0C
S1132D8008955058BB27AA270E94D9160C94981866
S1132D900E948A1838F00E94911820F039F49F3F5D
S1132DA019F426F40C9477180EF4E095E7FB0C94D0
S1132DB07118E92F0E94A91858F3BA17620773070C
S1132DC08407950720F079F4A6F50C94CB180EF43B
S1132DD0E0950B2EBA2FA02D0B01B90190010C0127
S1132DE0CA01A0011124FF27591B99F0593F50F43F
S1132DF0503E68F11A16F040A22F232F342F442797
S1132E00585FF3CF469537952795A795F04053958E
S1132E10C9F77EF41F16BA0B620B730B840BBAF05E
S1132E209150A1F0FF0FBB1F661F771F881FC2F7C9
S1132E300EC0BA0F621F731F841F48F487957795DD
S1132E406795B795F7959E3F08F0B0CF9395880F97
S1132E5008F09927EE0F9795879508950E944D18CD
S1132E6008F481E008950E9447170C9498180E9472
S1132E70911858F00E948A1840F029F45F3F29F015
S1132E800C94711851110C94CC180C9477180E945E
S1132E90A91868F39923B1F3552391F3951B550BA6
S1132EA0BB27AA2762177307840738F09F5F5F4F19
S1132EB0220F331F441FAA1FA9F335D00E2E3AF058
S1132EC0E0E832D091505040E695001CCAF72BD070
S1132ED0FE2F29D0660F771F881FBB1F26173707C1
S1132EE04807AB07B0E809F0BB0B802DBF01FF27F3
S1132EF093585F4F3AF09E3F510578F00C94711847
S1132F000C94CC185F3FE4F3983ED4F38695779500
S1132F106795B795F7959F5FC9F7880F911D9695AB
S1132F20879597F90895E1E0660F771F881FBB1F07
S1132F30621773078407BA0720F0621B730B840BB4
S1132F40BA0BEE1F88F7E0950895BEE304D008F4A9
S1132F5090E80895BFE322273327A9010E94B118FE
S1132F6060F19F5748F1B91740F1BFE3B91B9927A6
S1132F70B8503AF4660F771F881F991FB395D2F3A0
S1132F8016C0B8504AF0232F342F452F562F672FE1
S1132F90782F8827B850BAF7B85F49F086957795A7
S1132FA067955795479537952795BA95B9F716F4C8
S1132FB00E947A1888940895889460E070E0CB01A8
S1132FC008950E94B11888F09F5798F0B92F992757
S1132FD0B751B0F0E1F0660F771F881F991F1AF000
S1132FE0BA95C9F714C0B13091F00E94CB18B1E082
S1132FF008950C94CB18672F782F8827B85F39F081
S1133000B93FCCF3869577956795B395D9F73EF498
S113301090958095709561957F4F8F4F9F4F089540
S1133020E89409C097FB3EF490958095709561955E
S11330307F4F8F4F9F4F9923A9F0F92F96E9BB2714
S11330409395F695879577956795B795F111F8CF90
S1133050FAF4BB0F11F460FF1BC06F5F7F4F8F4FFB
S11330609F4F16C0882311F096E911C0772321F0F1
S11330709EE8872F762F05C0662371F096E8862F89
S113308070E060E02AF09A95660F771F881FDAF7E0
S1133090880F9695879597F90895990F0008550F0D
S11330A0AA0BE0E8FEEF16161706E807F907C0F0CA
S11330B012161306E407F50798F0621B730B840BD2
S11330C0950B39F40A2661F0232B242B252B21F4AC
S11330D008950A2609F4A140A6958FEF811D811D4C
S11330E0089597F99F6780E870E060E008959FEF86
S11330F080EC0895909580957095609550954095D5
S1133100309521953F4F4F4F5F4F6F4F7F4F8F4FFC
S11331109F4F089500240A941616170618060906E8
S1133120089500240A941216130614060506089539
S1133130092E0394000C11F4882352F0BB0F40F4C1
S1133140BF2B11F460FF04C06F5F7F4F8F4F9F4F01
S1133150089557FD9058440F551F59F05F3F71F083
S11331604795880F97FB991F61F09F3F79F08795EA
S11331700895121613061406551FF2CF4695F1DF73
S113318008C0161617061806991FF1CF8695710503
S1133190610508940895E894BB2766277727CB0137
S11331A097F908950E944D1808F48FEF08950E942E
S11331B0EA180C9498180E948A1838F00E94911802
S11331C020F0952311F00C9471180C9477181124A5
S11331D00C94CC180E94A91870F3959FC1F3950F15
S11331E050E0551F629FF001729FBB27F00DB11D87
S11331F0639FAA27F00DB11DAA1F649F6627B00D17
S1133200A11D661F829F2227B00DA11D621F739FFF
S1133210B00DA11D621F839FA00D611D221F749F0D
S11332203327A00D611D231F849F600D211D822F54
S1133230762F6A2F11249F5750409AF0F1F088237B
S11332404AF0EE0FFF1FBB1F661F771F881F9150A8
S11332505040A9F79E3F510580F00C9471180C94CE
S1133260CC185F3FE4F3983ED4F386957795679541
S1133270B795F795E7959F5FC1F7FE2B880F911DD2
S11332809695879597F90895FA01EE0FFF1F3096EA
S113329021053105A1F16115710561F48038BFE3A1
S11332A09B0749F168949038810561F08038BFEF3D
S11332B09B0741F099234AF5FF3FE10531052105BC
S11332C019F1E8940894E795D901AA2329F4AB2FBE
S11332D0BE2FF85FD0F310C0FF5F70F4A695E0F73F
S11332E0F73950F019F0FF3A38F49F779F930DD0D7
S11332F00F9007FC9058089546F00C94771860E0FE
S113330070E080E89FE308954FE79F775F934F93C2
S11333103F932F930E943F1A2F913F914F915F91BA
S11333200E94D7180C949C1929F416F00C94711867
S11333300C94CB180C9477180E94B118A8F3963803
S1133340A0F707F80F92E8942BE33AEA48EB5FE71B
S11333500E94ED180F920F920F924DB75EB70F9225
S11333600E94871AE4E6F0E00E94CE194F915F9123
S1133370EF91FF91E595EE1FFF1F49F0FE57E068BE
S11333804427EE0F441FFA95E1F74195550B0E942F
S1133390011A0F9007FE0C94F5190895DF93CF934B
S11333A01F930F93FF92EF92DF927B018C0168943D
S11333B006C0DA2EEF010E94EA18FE01E894A591F6
S11333C02591359145915591A6F3EF010E94D916A7
S11333D0FE019701A801DA9469F7DF90EF90FF905E
S11333E00F911F91CF91DF9108959B01AC0160E093
S11333F070E080E89FE30C9433170C9471180C94DC
S1133400BB1A0E94B118D8F39923C9F3940F511D24
S1133410A3F39150504094F059F0882332F0660F92
S1133420771F881F91505040C1F79E3F51052CF7DC
S1133430880F911D9695879597F908955F3FACF095
S1133440983E9CF0BB27869577956795B79508F4C9
S1133450B1609395C1F7BB0F58F711F460FFE8CF43
S11334606F5F7F4F8F4F9F4FE3CF0C94CC1816F0B4
S11334700C94BB1A0C94771868940C9471180E94DD
S1133480B118A8F39923C1F3AEF3DF93CF931F933D
S11334900F93FF92C92FDD2788232AF02197660F07
S11334A0771F881FDAF720E030E040E85FEB9FE306
S11334B0883920F0803E38F021968F770E94C2161A
S11334C0ECE8F0E004C00E94C216E9EBF0E00E94D0
S11334D0CE198B01BE01EC01FB2E6F577109759556
S11334E0771F880B990B0E94121828E132E741E3F9
S11334F05FE30E94EA18AF2D9801AE01FF900F918F
S11335001F91CF91DF910E94D9160C949818FA015B
S1133510DC01AA0FBB1F9B01AC01BF5728F4222773
S113352033274427507820C0B75190F4AB2F0024A0
S1133530469537952795011CA395D2F3002071F089
S1133540220F331F441FB395DAF30ED00C94C11627
S113355061307105A0E88A07B94630F49B01AC01DB
S11335606627772788279078309621F02083318347
S11335704283538308959F3F31F0915020F48795FF
S113358077956795B795880F911D9695879597F9C7
S11335900895A1E21A2EAA1BBB1BFD010DC0AA1F90
S11335A0BB1FEE1FFF1FA217B307E407F50720F0A8
S11335B0A21BB30BE40BF50B661F771F881F991F23
S11335C01A9469F760957095809590959B01AC016C
S11335D0BD01CF010895EE0FFF1F0590F491E02D7A
S10935E00994F894FFCFEA
S11335E657726F6E672C2073656C65637420612057
S11335F670726F7065722072616E676520796120E2
S113360637617977616E0057726F6E672052616E0B
S11336166765203A2800546F2052657475726E20CF
S113362670726573733A002A20203B290065727212
S11336366F7228626967205229203A28006E6565F0
S113364664206269672072616E67653B2900526572
S1133656736973746F7220284F686D29002A3A655E
S11336667874005265736973746F7220286B4F689F
S11336766D290063617574696F6E28736D616C20C2
S11336865229006E656420736D616C2072616E67E9
S1133696653B29005265736973746F7220284D4F18
S11336A6686D29006572726F7228626967204929FC
S11336B6203A280043757272656E742028412900E9
S11336C620202020202020202020200043757272F4
S11336D6656E7420286D4129006572726F722862C6
S11336E66967205629203A2800566F6C7420286D85
S11336F6562900566F6C742028562900566F6C7430
S113370620414320286D562900566F6C742041438E
S1133716202856290057726F6E672C2073656C65D6
S1133726637420612070726F7065722063757272A3
S1133736656E742072616E6765004F6B2049206365
S1133746616E20646F207468697300616C6C206418
S1133756617921203A29003134372A323538303319
S1133766363923414243442D00314F686D2032419E
S11337766D742033566F6C7400576869636820440F
S113378665766963653F203B2900323A3130306BF8
S113379620333A314D0072616E67653F20313A310C
S11337A6306B0043686F73652072616E67657320C2
S11337B63A290046726F6D2073776974636865737E
S11337C62100323A32306D20333A3230306D203AAD
S11337D6300072616E67653F20313A326D20343AAB
S11337E63141004265206361726566756C21006D26
S11337F66F64653F20313A414320323A44430032F4
S11338063A335620333A33305620343A3430300083
S111381672616E67653F20313A3330306D00C9
S9030000FC
