:100000000C94E2040C948F160C9468160C940A0558
:100010000C940A050C940A050C940A050C940A0524
:100020000C940A050C940A050C940A050C940A0514
:100030000C940A050C940A050C940A050C940A0504
:100040000C941E160C940A050C94DC160C94B6162F
:100050000C940A050C940A050C940A050C940A05E4
:100060000C940E170C940A0500000000003E5B4F34
:100070005B3E3E6B4F6B3E1C3E7C3E1C183C7E3C08
:10008000181C577D571C1C5E7F5E1C00183C180016
:10009000FFE7C3E7FF0018241800FFE7DBE7FF30A6
:1000A000483A060E2629792926407F050507407F14
:1000B00005253F5A3CE73C5A7F3E1C1C08081C1C87
:1000C0003E7F14227F22145F5F005F5F06097F017D
:1000D0007F006689956A606060606094A2FFA29468
:1000E00008047E040810207E201008082A1C080836
:1000F0001C2A08081E101010100C1E0C1E0C303884
:100100003E3830060E3E0E06000000000000005F84
:1001100000000007000700147F147F14242A7F2AA0
:100120001223130864623649562050000807030062
:10013000001C2241000041221C002A1C7F1C2A08AE
:10014000083E080800807030000808080808000011
:1001500060600020100804023E5149453E00427F85
:10016000400072494949462141494D331814127FD4
:100170001027454545393C4A494931412111090774
:100180003649494936464949291E000014000000F5
:1001900040340000000814224114141414140041C7
:1001A00022140802015909063E415D594E7C121184
:1001B000127C7F494949363E414141227F414141BC
:1001C0003E7F494949417F090909013E4141517337
:1001D0007F0808087F00417F41002040413F017FA8
:1001E000081422417F404040407F021C027F7F0470
:1001F00008107F3E4141413E7F090909063E4151B9
:10020000215E7F09192946264949493203017F01A8
:10021000033F4040403F1F2040201F3F4038403FA9
:10022000631408146303047804036159494D4300BF
:100230007F4141410204081020004141417F0402F6
:10024000010204404040404000030708002054548D
:1002500078407F284444383844444428384444286B
:100260007F385454541800087E090218A4A49C78BE
:100270007F0804047800447D40002040403D007F1A
:100280001028440000417F40007C047804787C08FA
:100290000404783844444438FC18242418182424CE
:1002A00018FC7C08040408485454542404043F44B3
:1002B000243C4040207C1C2040201C3C4030403CE2
:1002C00044281028444C9090907C4464544C440042
:1002D00008364100000077000000413608000201A6
:1002E0000204023C2623263C1EA1A161123A404092
:1002F000207A38545455592155557941225454780F
:1003000042215554784020545579400C1E527212A7
:100310003955555559395454545939555454580030
:1003200000457C410002457D420001457C407D1234
:1003300011127DF0282528F07C5455450020545496
:100340007C547C0A097F4932494949323A44444441
:100350003A324A4848303A4141217A3A424020787C
:10036000009DA0A07D3D4242423D3D4040403D3C7D
:1003700024FF2424487E4943662B2FFC2F2BFF09A2
:1003800029F620C0887E0903205454794100004496
:100390007D413048484A32384040227A007A0A0A81
:1003A000727D0D19317D2629292F282629292926F4
:1003B00030484D4020380808080808080808382F39
:1003C00010C8ACBA2F102834FA00007B00000814C3
:1003D0002A142222142A14085500550055AA55AA99
:1003E00055AAFF55FF55FF000000FF00101010FF39
:1003F00000141414FF001010FF00FF1010F010F094
:10040000141414FC001414F700FF0000FF00FF1484
:1004100014F404FC141417101F10101F101F1414D0
:10042000141F00101010F0000000001F101010101A
:100430001F10101010F010000000FF10101010100E
:1004400010101010FF10000000FF140000FF00FF4C
:1004500000001F10170000FC04F4141417101714E8
:1004600014F404F40000FF00F7141414141414140A
:10047000F700F7141414171410101F101F1414147D
:10048000F4141010F010F000001F101F0000001FE7
:1004900014000000FC140000F010F01010FF10FF1A
:1004A000141414FF141010101F00000000F010FFAF
:1004B000FFFFFFFFF0F0F0F0F0FFFFFF0000000093
:1004C00000FFFF0F0F0F0F0F3844443844FC4A4A17
:1004D0004A347E02020606027E027E0263554941CC
:1004E000633844443C04407E201E2006027E020203
:1004F00099A5E7A5991C2A492A1C4C7201724C3017
:100500004A4D4D303048784830BC625A463D3E49ED
:100510004949007E0101017E2A2A2A2A2A44445F91
:10052000444440514A444040444A51400000FF0185
:1005300003E080FF000008086B6B08361236243693
:10054000060F090F060000181800000010100030F8
:1005500040FF0101001F01011E00191D1712003C80
:100560003C3C3C000000000000000000230026008E
:100570002900000000080002010000030407000039
:10058000000000000000000000000000000000006B
:10059000000000000000000000000000000000005B
:1005A0000000000000020000000000000000000049
:1005B0000000000000020000000000000000000039
:1005C0000000000000020000000000000000000029
:1005D0000000000000020000000000000000000019
:1005E0000000000000020000000000000000000009
:1005F00000000000000200000000000000000000F9
:1006000000000000000200000000000000000000E8
:1006100000000000000000000000000000000000DA
:1006200000000000000000000000000000000000CA
:1006300000000000000200000000000000000000B8
:1006400000000000000200000000000000000000A8
:100650000000000000020000000000000000000098
:100660000000000000020000000000000000000088
:100670000000000000020000000000000000000078
:100680000000000000020000000000000000000068
:100690000000000000020000000000000000000058
:1006A000000000000000000000000000000000004A
:1006B000000000000000000000000000000000003A
:1006C0000000000000020000000000000000000028
:1006D0000000000000020000000000000000000018
:1006E0000000000000023FFFFFFFFFFFFFFFFFFFD2
:1006F000FFFFFFFFFFC240000000000000000000FD
:100700000000000000228000000000000000000047
:100710000000000000128000000000000000000047
:100720000000000000128000000000000000000037
:100730000000000000108000000000000000000029
:100740000000000000108000000000000000000019
:100750000000000000128000000000000000000007
:1007600000000000001280000000000000000000F7
:1007700000000000001280000000000000000000E7
:1007800000000000001280000000000000000000D7
:1007900000000000001280000000000000000000C7
:1007A00000000000001280000000000000000000B7
:1007B00000000000001280000000000000000000A7
:1007C0000000000000108000000000000000000099
:1007D0000000000000108000000000000000000089
:1007E0000000000000128000000000000000000077
:1007F0000000000000128000000000000000000067
:100800000000000000124000000000000000000096
:100810000000000000223FFFFFFFFFFFFFFFFFFF80
:10082000FFFFFFFFFFC2000000000000000000000B
:1008300000000000000200000000000000000000B6
:1008400000000000000200000000000000000000A6
:100850000000000000000000000000000000000098
:100860000000000000000000000000000000000088
:100870000000000000020000000000000000000076
:100880000000000000020000000000000000000066
:100890000000000000020000000000000000000056
:1008A0000000000000020000000000000000000046
:1008B0000000000000020000000000000000000036
:1008C0000000000000020000000000000000000026
:1008D0000000000000020000000000000000000016
:1008E0000000000000000000000000000000000008
:1008F00000000000000000000000000000000000F8
:1009000000000000000200000000000000000000E5
:1009100000000000000200000000000000000000D5
:1009200000000000000200000000000000000000C5
:1009300000000000000200000000000000000000B5
:1009400000000000000200000000000000000000A5
:100950000000000000020000000000000000000095
:100960000000000000020000000000000000000085
:100970000000000000000000000000000000000077
:1009800000000000000000000000240027002A00F2
:100990000102040810204080010204081020010216
:1009A0000408102000000000250028002B0004048B
:1009B0000404040404040202020202020303030307
:1009C00003032D1811241FBECFEFD8E0DEBFCDBF2B
:1009D00015E0A0E0B1E0E6E7FCE302C005900D926F
:1009E000AE3FB107D9F727E0AEEFB5E001C01D92E9
:1009F000AA3AB207E1F714E0C2EED4E004C02197AE
:100A0000FE010E942E1EC13ED107C9F70E94921816
:100A10000C94391E0C94000028E030E040E8E0918E
:100A2000A007F091A10750819091A7079095952379
:100A30009083E0919E07F0919F079091A607582F11
:100A4000542389F05081952B9083E091A007F09179
:100A5000A10790815091A707952B9083469521502F
:100A60003109E9F60895508190959523EDCF0895C9
:100A700008950895833081F028F4813099F0823010
:100A8000A9F008958730A9F08830C9F08430B1F416
:100A9000809180008F7D03C0809180008F7780934C
:100AA0008000089584B58F7784BD089584B58F7DC7
:100AB000FBCF8091B0008F778093B0000895809134
:100AC000B0008F7DF9CFCF93DF93282F30E0F9016D
:100AD000EE58FA4F8491F901E057F64FD491F9019D
:100AE000E255F64FC491CC23A1F081110E943A0542
:100AF000EC2FF0E0EE0FFF1FE859FA4FA591B491EB
:100B0000EC91ED2381E090E009F480E0DF91CF915A
:100B1000089580E090E0FACF1F93CF93DF93282FC2
:100B200030E0F901EE58FA4F8491F901E057F64FA1
:100B3000D491F901E255F64FC491CC23A9F0162FB8
:100B400081110E943A05EC2FF0E0EE0FFF1FEC55EB
:100B5000F64FA591B4918FB7F894EC91111108C09C
:100B6000D095DE23DC938FBFDF91CF911F91089545
:100B7000DE2BF8CFCF93DF9390E0FC01E057F64FE8
:100B800024918255964FFC0184918823D1F090E006
:100B9000880F991FFC01EA57F64FA591B491FC010B
:100BA000EC55F64FC591D491623071F49FB7F8942B
:100BB0003C91822F809583238C93E8812E2B288370
:100BC0009FBFDF91CF9108958FB7F894EC912E2BB2
:100BD0002C938FBFF6CF20916A0190E4299F90015A
:100BE00011248E50822B80937C0080917A00806447
:100BF00080937A0080917A0086FDFCCF8091780006
:100C00009091790008953FB7F8948091770690917C
:100C10007806A0917906B0917A0626B5A89B05C002
:100C20002F3F19F00196A11DB11D3FBFBA2FA92F6B
:100C3000982F8827BC01CD01620F711D811D911D68
:100C400042E0660F771F881F991F4A95D1F70895D4
:100C50008F929F92AF92BF92CF92DF92EF92FF92CC
:100C60004B015C010E9403066B017C010E9403069C
:100C70006C197D098E099F09683E734081059105B5
:100C8000A8F321E0821A9108A108B10888EEC80EE5
:100C900083E0D81EE11CF11C81149104A104B1046D
:100CA00029F7FF90EF90DF90CF90BF90AF909F908B
:100CB0008F90089583B1982F9770973019F091E035
:100CC0009093650680FD06C09091620621E0922710
:100CD0009093620681FD20C09091620691110CC034
:100CE000909164069F5F909364069091640695309E
:100CF0001CF094E09093640690916206992361F051
:100D0000909163069F5F909363069091630696307F
:100D10001CF095E09093630682FD1CC090916206E2
:100D200091110AC09091640691509093640690913D
:100D3000640697FD1092640690916206992351F023
:100D4000909163069150909363069091630697FD8E
:100D50001092630683FD06C08091670691E08927A3
:100D60008093670608950895AF92BF92CF92DF9265
:100D7000EF92FF920F931F93CF93DF936C017B0150
:100D80008B01040F151FEB015E01AE18BF08C017E1
:100D9000D10759F06991D601ED91FC910190F08154
:100DA000E02DC6010995892B79F7C501DF91CF9117
:100DB0001F910F91FF90EF90DF90CF90BF90AF9079
:100DC0000895FC01538D448D252F30E0842F90E051
:100DD000821B930B541710F0CF9608950197089536
:100DE000FC01918D828D981761F0A28DAE0FBF2FFF
:100DF000B11D5D968C91928D9F5F9F73928F90E055
:100E000008958FEF9FEF0895FC01918D828D9817C3
:100E100031F0828DE80FF11D858D90E008958FEF00
:100E20009FEF0895FC01918D228D892F90E0805CC9
:100E30009F4F821B91098F739927089582ED96E049
:100E40000E94120721E0892B09F420E0822F0895E7
:100E500080E090E0892B29F00E941E0781110C94FC
:100E600000000895FC01A48DA80FB92FB11DA35A4D
:100E7000BF4F2C91848D90E001968F739927848FBA
:100E8000A689B7892C93A089B1898C9183708064DD
:100E90008C93938D848D981306C00288F389E02D7E
:100EA00080818F7D80830895EF92FF920F931F932F
:100EB000CF93DF93EC0181E0888F9B8D8C8D98130D
:100EC0001AC0E889F989808185FF15C09FB7F89419
:100ED000EE89FF896083E889F98980818370806465
:100EE00080839FBF81E090E0DF91CF911F910F91B0
:100EF000FF90EF900895F62E0B8D10E00F5F1F4FBF
:100F00000F731127E02E8C8D8E110CC00FB607FCCD
:100F1000FACFE889F989808185FFF5CFCE010E945B
:100F20003207F1CFEB8DEC0FFD2FF11DE35AFF4F90
:100F3000F0829FB7F8940B8FEA89FB8980818062E9
:100F4000CFCFCF93DF93EC01888D8823B9F0AA89A6
:100F5000BB89E889F9898C9185FD03C0808186FD74
:100F60000DC00FB607FCF7CF8C9185FFF2CF8081C3
:100F700085FFEDCFCE010E943207E9CFDF91CF91FF
:100F800008950895FC016370668B848195812681A4
:100F90003781613039F0633029F09187808733875A
:100FA00022870895318720879387828708952F921B
:100FB0003F924F925F926F927F928F929F92AF92E9
:100FC000BF92CF92DF92EF92FF920F931F93CF9336
:100FD000DF93CDB7DEB76A970FB6F894DEBF0FBECA
:100FE000CDBF9A8F898F7A8369834A01D22E188761
:100FF0000F833701BC2CDC0159962D913C915A97F7
:101000002115310509F015C118968D919C911997FC
:10101000681779070CF0D7C11A968D919C914817E3
:1010200059070CF0D0C14C2C512CB6E0CB9E600D72
:10103000711D11247C876B87161617060CF0C3C12F
:10104000EA2DF0E0FA87E98793E0EE0FFF1F9A950B
:10105000E1F7F88BEF87CF01840F951F181619065B
:101060000CF0B1C1A98DBA8D58968C91811104C034
:10107000BFEABD1508F4D394A98DBA8DED91FC910A
:1010800011970284F385E02DCD010995B5E0DB9E33
:10109000C0011124E981FA81FC83EB83312C212CDE
:1010A0009C0128593F4F388F2F8B4A2D50E05E8B83
:1010B0004D8BEF89F88DE20DF31D44919E828D8258
:1010C000D12CC12C69817A81620D731D7A8B698B59
:1010D000842F90E09C8B8B8BE98DFA8DA081B18160
:1010E00040FF82C0F1E0BF126FC0AF126DC01C960E
:1010F000ED91FC912F813885A4014C0D5D1D69890E
:101100007A89898D9A8D0995EB89FC89F595E79502
:101110004E2F5FEFC51AD50A6D817E818D899E891C
:10112000680F791F7E836D8398E0C916D10481F61C
:10113000AFEF2A1A3A0AEB81FC81E40DF51DFC831E
:10114000EB83F5E02F16310409F0B3CF2F813885FA
:1011500026153705B9F0A98DBA8DED91FC91B1E056
:10116000BB1257C0AB1255C069817A816B5F7F4F4C
:101170000088F189E02D830128E030E0A401898D09
:101180009A8D0995A98DBA8DED91FC9111970688DC
:10119000F789E02DCD016A960FB6F894DEBF0FBE39
:1011A000CDBFDF91CF911F910F91FF90EF90DF9016
:1011B000CF90BF90AF909F908F907F906F905F90F7
:1011C0004F903F902F9009941E96ED91FC91EF80E7
:1011D000F88409851A8592014D815E816B817C813D
:1011E000898D9A8D099590CF2F81388526153705E1
:1011F00009F48ACF31E0B31207C0A31205C01C96D0
:10120000ED91FC91930178CF1E96ED91FC917301C5
:10121000E0CF6B857C85641975090684F785E02D20
:1012200073010F8518899201A401898D9A8D099502
:10123000A9CFF90134969491329745915491D91AD6
:10124000B7E0DB9E400D511D1124F9012591349129
:101250003C8B2B8BFA0125903490FA0132967490D6
:1012600031963491398B329664903196449041E0B6
:101270004C1518F04A1508F07FC0662D062C000C9E
:10128000770B7C836B83842D042C000C990B9E833D
:101290008D83A98DBA8DED91FC9111970284F38510
:1012A000E02DCD010995512CD12CC12CEA2DF0E077
:1012B000FA87E9872B2D30E03C872B87A401440D6A
:1012C000511D47FC5A95588F4F8B69817A81660D65
:1012D000711D67FC7A957E876D877989C71608F03E
:1012E00051CF2C2D30E04D815E81420F531FA985D7
:1012F000BA854A9FC0014B9F900D5A9F900D1124B3
:10130000FC01E80DF91DF88BEF87852D612C4F89C5
:10131000588D420F531F5E8B4D8B671408F050C0E1
:1013200044244394480E877041F4C1010196EB892F
:10133000FC89E20DF31DD4901C01D7FE19C0A98DC4
:10134000BA8DED91FC91662D70E0B1E0BB1219C031
:10135000AB1217C02D853E85620F731F0484F5857F
:10136000E02D2F8138854D895E89898D9A8D09956B
:10137000DD0C6394842DD1CF1E821D821C821B82C2
:1013800088CF4B815C81640F751FAB85BC856A9FDC
:10139000C0016B9F900D7A9F900D112469817A8115
:1013A000680F791F0684F785E02DEF80F8840985A2
:1013B0001A859D014F855889898D9A8D0995D8CFB9
:1013C000570CC3948ACF6A960FB6F894DEBF0FBE4F
:1013D000CDBFDF91CF911F910F91FF90EF90DF90E4
:1013E000CF90BF90AF909F908F907F906F905F90C5
:1013F0004F903F902F9008958F929F92AF92CF92EF
:10140000EF92FF920F931F93CF93DF93EC01262F60
:10141000898D9A8D009709F051C06A30D1F41D86EC
:101420001C868D8948E0849F900111248E859F85BC
:10143000820F931F9F878E8781E090E0DF91CF918D
:101440001F910F91FF90EF90CF90AF909F908F9052
:1014500008956D3089F3CC88AD888F898823C1F0D9
:101460008C859D8536E0C39E800D911D1124488595
:1014700059854817590764F44E855F851D861C867B
:1014800038E0A39EC0011124840F951F9F878E878B
:10149000EA88FB88088919894E855F856C857D857A
:1014A000CE010E94D7072C898C859D8546E0249F1C
:1014B000800D911D11249D878C87BECF6A3069F401
:1014C0001D861C86FC013896E4912D898E859F85AA
:1014D000E29F800D911D1124ADCF6D3009F4ACCF8A
:1014E000FC0134963491631708F4A6CF3296E49148
:1014F000E61708F4A1CFFC01329685909490462F10
:10150000431B342F47E0349F800C911C1124F401BD
:10151000329634913196E4913323A9F1EE2399F177
:10152000CC88F4013596E491AD884F89442301F1CC
:101530000E2E000CFF0BE30FF11DCE9EA001CF9EDF
:10154000500D11246C857D85460F571F6885798560
:10155000641775076CF44E855F851D861C86FC013B
:101560003896E491AE9E400D511D11245F874E8741
:10157000EA88FB88088919894E855F856C857D8599
:10158000CE010E94D707F4013496E4912C898C8512
:101590009D85E29F800D911D11248DCF6F927F92CA
:1015A0008F929F92AF92BF92CF92DF92EF92FF9273
:1015B0000F931F93CF93DF93EC016B015A01390115
:1015C0004801E881F9810284F385E02D0995E881DD
:1015D000F9810288F389E02D87019301A501B60105
:1015E000CE010995A501480D591D41505109E881C9
:1015F000F9810288F389E02D9301B601CE010995A6
:10160000E881F9810088F189E02D9401A501B601F6
:10161000CE010995C60CD71CB60161507109E8814D
:10162000F9810088F189E02D9401A501CE01099589
:10163000E881F9810688F789E02DCE01DF91CF910D
:101640001F910F91FF90EF90DF90CF90BF90AF90E0
:101650009F908F907F906F9009946F927F928F925E
:101660009F92AF92BF92CF92DF92EF92FF920F9331
:101670001F93CF93DF935C01EB016A0149013801AD
:101680008701DC01ED91FC916217730719F564166F
:1016900075062CF0962D872D3A01C92ED82E96016D
:1016A000261937092F5F3F4F048CF58DE02DA301DC
:1016B000BE01C5010995DF91CF911F910F91FF9058
:1016C000EF90DF90CF90BF90AF909F908F907F90E2
:1016D0006F9008954615570591F42617370724F0A3
:1016E000892D4B01C22FD82F9E01281939092F5F50
:1016F0003F4F068CF78DE02DA601B401DACF0284AE
:10170000F385E02D0995D501ED91FC910488F589CB
:10171000E02D83019401A601BE01C5010995D50103
:10172000ED91FC910688F789E02DC501DF91CF91FD
:101730001F910F91FF90EF90DF90CF90BF90AF90EF
:101740009F908F907F906F900994EF92FF920F93EC
:101750001F93DC011A960D911C911B9718962D91E1
:101760003C911997ED91FC9100A0F1A1E02D7B0136
:1017700050E040E070E060E009951F910F91FF900C
:10178000EF9008954F925F926F927F928F929F9207
:10179000AF92BF92CF92DF92EF92FF920F931F937F
:1017A000CF93DF936C012B015A0139014801DC0111
:1017B000ED91FC910284F385E02D0995E201640C22
:1017C000751CD601ED91FC91C615D7055CF4008817
:1017D000F189E02D87019401A501BE01C60109959B
:1017E0002196EFCF0688F789E02DC601DF91CF91D2
:1017F0001F910F91FF90EF90DF90CF90BF90AF902F
:101800009F908F907F906F905F904F9009948F92F0
:101810009F92AF92BF92CF92DF92EF92FF920F937F
:101820001F93CF93DF93EC015B014A016901E881CB
:10183000F9810284F385E02D099595012C0D3D1D5C
:1018400021503109E881F9810488F589E02D78017A
:101850008401A401B501CE010995E881F9810688CA
:10186000F789E02DCE01DF91CF911F910F91FF906D
:10187000EF90DF90CF90BF90AF909F908F900994A2
:101880008F929F92AF92BF92CF92DF92EF92FF9290
:101890000F931F93CF93DF93EC015B014A01690122
:1018A0007801E881F9810284F385E02D0995C80C5F
:1018B000D91C860101501109E881F9810488F58954
:1018C000E02D9501A401B501CE010995E881F981CA
:1018D0000688F789E02DCE01DF91CF911F910F91FE
:1018E000FF90EF90DF90CF90BF90AF909F908F9040
:1018F0000994EF92FF920F931F93DC01ED91FC91FD
:1019000000A0F1A1E02D09951F910F91FF90EF909C
:1019100008950F931F93DC01ED91FC91068CF78DD8
:10192000E02D09951F910F9108950F931F93DC01EE
:10193000ED91FC91048CF58DE02D09951F910F918F
:101940000895DC01ED91FC910084F185E02D09946E
:10195000DF92EF92FF920F931F93CF93DF93F12CBF
:10196000E12CD12C10E000E0D0E0C0E0CE01877087
:101970009927DD0C892B59F4FE0183E0F595E79555
:101980008A95E1F7EE0DFF1DEA57FA4FD490D7FE86
:1019900008C021E030E0A801BE018BE797E00E947B
:1019A000A10C2196C038D10509F70F5F1F4F80E1C8
:1019B000E80EF11C00341105B9F6DF91CF911F91AB
:1019C0000F91FF90EF90DF9008952F923F924F92EA
:1019D0005F926F927F928F929F92AF92BF92CF92BF
:1019E000DF92EF92FF920F931F93CF93DF9300D07C
:1019F00000D000D0CDB7DEB73C016A013E832D8315
:101A0000FC82EB825801A41AB50AB7FE03C0B19458
:101A1000A194B1088D809E80861A970A97FE03C014
:101A20009194819491088A149B045CF0902F812FEB
:101A30000D811E819D838E839C2D8D2D6B01692FC1
:101A4000782F0C151D055CF09D818E817E836D8342
:101A5000692F782F902F812F8601C92ED82E16013D
:101A6000201A310A2B012D813E81421A530A57FE5A
:101A700003C0519441945108710137FE03C03FEFF8
:101A8000E31AF30AF594E7948D819E8186179707F0
:101A90005CF5A1E0B0E0BA83A983C016D1064CF191
:101AA000D301ED91FC910484F585E02D2B813C81DF
:101AB000A8016D817E818A149B041CF04D815E819A
:101AC000B801C3010995E418F508F7FE0AC02D8195
:101AD0003E8189819A81280F391F3E832D83E20C34
:101AE000F31C0F5F1F4FD9CF2FEF3FEF3A832983AE
:101AF000D4CF26960FB6F894DEBF0FBECDBFDF91D0
:101B0000CF911F910F91FF90EF90DF90CF90BF90FA
:101B1000AF909F908F907F906F905F904F903F908D
:101B20002F90089520913F06260F3327331F21322F
:101B30003105ECF42091A806FC0190E080E024300F
:101B400069F082E00895A0913F062191AC01415EC9
:101B5000594FA40FB52FB11D2C930196861798F3FA
:101B600080913F06680F60933F0680E0089581E012
:101B700008951092A80681E08093A706109282062D
:101B800061E082E10E948C0561E083E10E948C05A6
:101B9000E9EBF0E080818E7F808380818D7F808380
:101BA00088E48093B80085E48093BC000895CF93C7
:101BB000DF9391E090931E068823B9F0C091B8009E
:101BC000D091BA008091BC008A7B8093BC0060E019
:101BD00082E10E948C0560E083E10E948C050E94F6
:101BE000B90DD093BA00C093B800DF91CF9108959A
:101BF000CF92DF92EF92FF920F931F93CF93DF93D9
:101C0000D091D10681E0D13208F09CC0C091D006BD
:101C10000E9403066B017C018091A80681116CC0B3
:101C200082E08093A80681E08093A7068FEF8093DF
:101C3000A6061092A506D093A406A0EBB6E0E4E8B1
:101C4000F6E080E0D8138DC0109283068091830661
:101C5000CC0FC82BC093830680918206813009F097
:101C600084C0109282060E9403066B017C01809161
:101C700083068093BB008091AA069091AB06A09149
:101C8000AC06B091AD06892B8A2B8B2BA1F00E945C
:101C900003060091AA061091AB062091AC06309184
:101CA000AD066C197D098E099F09061717072807CD
:101CB000390708F442C08091BC0083FDD8CF85EC81
:101CC0008093BC000E9403066B017C018091A806F2
:101CD000823009F44CC08091A6068F3F09F469C098
:101CE0008091A606803209F466C08091A6068033F2
:101CF00009F463C084E026C08091AA069091AB06E7
:101D0000A091AC06B091AD06892B8A2B8B2B09F4E0
:101D100083CF0E9403060091AA061091AB06209182
:101D2000AC063091AD066C197D098E099F09061726
:101D300017072807390708F06FCF8091A9060E947E
:101D4000D70D85E01092AF061092D1061092AE0624
:101D5000DF91CF911F910F91FF90EF90DF90CF9087
:101D600008959D9191938F5F6DCF85EEA9CF80915E
:101D7000AA069091AB06A091AC06B091AD06892B56
:101D80008A2B8B2B09F4A2CF0E9403060091AA068E
:101D90001091AB062091AC063091AD066C197D090F
:101DA0008E099F09061717072807390708F08ECFF5
:101DB000C4CF80E0C7CF82E0C5CF83E0C3CFE0913E
:101DC000800680917F06E81730F4F0E0E250FA4F89
:101DD000808190E008958FEF9FEF089590918006A5
:101DE00080917F062FEF3FEF981748F4E92FF0E03E
:101DF000E250FA4F208130E09F5F90938006C90146
:101E0000089580917F0690918006891B990B089513
:101E1000CF92DF92EF92FF920F931F93CF93DF93B6
:101E20007C01CB018A012091AE06222389F0EB01CF
:101E30006B01C40ED51ECC15DD0569F06991D70183
:101E4000ED91FC910190F081E02DC7010995F3CF50
:101E5000642F0E94920DC801DF91CF911F910F91C5
:101E6000FF90EF90DF90CF900895CF93DF931F9274
:101E7000CDB7DEB769832091AE062223F9F0209119
:101E8000D106203258F021E030E0FC013383228378
:101E900090E080E00F90DF91CF9108958091AF06A0
:101EA000E82FF0E0E055F94F998190838F5F8093A0
:101EB000AF068093D10681E090E0ECCF61E0CE01E7
:101EC00001960E94920DF7CFCF93C82F809198076B
:101ED0008F3FB1F1E091A207F091A307808190912B
:101EE000A807892B8083E091A407F091A507908132
:101EF0008091A907809589238083E091A207F091C2
:101F0000A30790818091A807809589238083809181
:101F10009D07882389F0CEBD00000DB407FEFDCFDC
:101F20008EB5E091A207F091A30780819091A80758
:101F3000892B8083CF9108958C2F0E940C05F1CFBF
:101F40008091960791E09093AE068093D006109210
:101F5000AF061092D10660E08FE697E00E94350F41
:101F60006C2F8FE697E00E94350FCF910C94F80DFF
:101F70008F929F92AF92BF92CF92DF92EF92FF9299
:101F80000F931F93CF93DF9380E00E94640F80E153
:101F90000E94640F80E40E94640F809198078F3F35
:101FA00009F46BC030EBF32ED0E0C0E08F2D0E941F
:101FB000640F82E00E94640F80E10E94640F10E0D1
:101FC00000E0CE0185599E4F6C01E091A207F0918F
:101FD000A30780819091A807892B8083E091A407B3
:101FE000F091A50780819091A907892B8083E091CA
:101FF000A207F091A30790818091A807809589237B
:1020000080835601A00EB11E20E1E22EF5018191E0
:102010005F0190919D07992369F18EBD00000DB479
:1020200007FEFDCF8EB5EA94E110F0CFE091A20754
:10203000F091A30780819091A807892B8083005F8E
:102040001F4F0038110509F0C0CFC058DF4FF3947F
:10205000C115F4E0DF0709F0A9CFDF91CF911F91FF
:102060000F91FF90EF90DF90CF90BF90AF909F9037
:102070008F9008950E940C05D6CF9090B8008CE008
:102080008093B80090EBF92ED0E0C0E088248394D0
:102090008F2D0E94640F82E00E94640F80E10E94F5
:1020A000640F10E000E0CE0185599E4F5C018091E5
:1020B00096078092AE068093D0061092AF061092DB
:1020C000D10660E48FE697E00E94350F6501C00EEF
:1020D000D11E80E1E82EF60161916F018FE697E055
:1020E0000E94350FEA94E110F6CF0E94F80D005FD0
:1020F0001F4F00381105D9F6C058DF4FF394C115B2
:10210000F4E0DF0729F69092B800A7CF0F931F9352
:10211000CF93DF93EC018E89823009F453C0833072
:1021200009F4ACC0813009F05CC0EC81FD81E41B96
:10213000F50BAF01421B530B77FD3FC08E819F8192
:1021400068177907D4F557FF04C0240F351F50E0F6
:1021500040E08C819D81FA01E20FF31F8E179F07EB
:102160001CF49C01241B350B1216130634F5FB01DD
:1021700077FD3796A3E0F595E795AA95E1F7F695F3
:10218000FE2FEE27F795E795E40FF51FE559FE4F73
:102190006770772781E090E001C0880F6A95EAF7C1
:1021A000482F0130110509F472C008F47CC02E0FCD
:1021B0003F1F0230110509F483C0DF91CF911F91B9
:1021C0000F910895AC81BD81CD01861B970BBC0199
:1021D00061507109EE81FF81E41BF50BAF01421BD9
:1021E000530B77FDEACF8C819D81681779072CF717
:1021F00057FF04C0240F351F50E040E08E819F81BF
:10220000FA01E20FF31F8E179F071CF49C01241B99
:10221000350B121613068CF6922FA42FA695A695B1
:10222000A69580E8A89FD0011124A60FB71FA55935
:10223000BE4F477009F457C058E0541B452F652F17
:1022400070E0FB01ED58FA4F8081251708F0B0C00F
:10225000621B71092FEF30E002C0359527956A9512
:10226000E2F7822301301105A9F108F464C00230BD
:10227000110509F0A2CF2C9182272EC0AE81BF811B
:10228000CD01861B970BBC016150710955CF2E0FF4
:102290003F1FE217F30709F490CF8191DF011197F7
:1022A000842B8C93F6CF80952E0F3F1FE217F307F8
:1022B00009F483CF9191DF01119798239C93F6CF76
:1022C000E217F30709F479CF8191DF011197842791
:1022D0008C93F6CF2C91822B8C93941708F46DCFAE
:1022E000941BA058BF4F983008F447C00230110526
:1022F00031F5FD01892F208120952083E058FF4F83
:1023000088508830C0F728EF290F26952695269506
:1023100030E02F5F3F4F3695322F22273795279594
:10232000A20FB31F977009F448CFE92FF0E0E559E9
:10233000FA4F808132C080952C918223CDCF81E0ED
:102340000130110509F080E08195FD01292F80837E
:10235000E058FF4F28502830D0F728EF290F269556
:102360002695269530E02F5F3F4F3695322F222756
:1023700037952795A20FB31F9770992309F41DCFA6
:10238000E92FF0E0E559FA4F80810130110541F065
:1023900058F00230110509F010CF9C91892702C036
:1023A0009C91892B8C9309CF80959C918923FACF9E
:1023B0000130110509F48ECF08F4BDCF02301105AC
:1023C00009F459CF8DCF0F931F93CF93DF93EC0177
:1023D0008E89823009F45EC0833009F4B5C0813043
:1023E00009F067C0AC81BD81CD01841B950BAC01A8
:1023F0004150510957FD49C08C819D8148175907AB
:102400000CF043C077FF04C0260F371F70E060E078
:102410008E819F81FB01E20FF31F8E179F071CF433
:102420009C01261B370B121613067CF5922FA62F44
:10243000A695A695A69580E8A89FD0011124A40F83
:10244000B51FA559BE4F677009F48FC048E0461B01
:10245000642F70E0FB01ED58FA4F8081241708F0DB
:1024600002C1621B71092FEF30E002C0359527953C
:102470006A95E2F782230130110509F46DC008F472
:102480009CC00230110509F4F8C0DF91CF911F9173
:102490000F910895EC81FD81E61BF70BAE81BF81A2
:1024A000CD01841B950BAC0141505109BF01621B4A
:1024B000730B57FDEACF8E819F81481759072CF780
:1024C00077FF04C0260F371F70E060E08C819D818C
:1024D000FB01E20FF31F8E179F071CF49C01261BC4
:1024E000370B121613068CF6FA0157FD379693E058
:1024F000F595E7959A95E1F7F695FE2FEE27F79576
:10250000E795E60FF71FE559FE4F4770552781E025
:1025100090E001C0880F4A95EAF7482F0130110575
:1025200009F488C008F492C02E0F3F1F0230110535
:1025300009F0ABCFE217F30709F4A7CF8191DF01D0
:10254000119784278C93F6CFEE81FF81E61BF70B62
:10255000BF01621B730B4ECF2C91822B8C9394176F
:1025600008F493CF941BA058BF4F983008F447C08D
:102570000230110531F5FD01892F2081209520833E
:10258000E058FF4F88508830C0F728EF290F269574
:102590002695269530E02F5F3F4F3695322F222724
:1025A00037952795A20FB31F977009F46ECFE92FC7
:1025B000F0E0E559FA4F808132C080952C9182235A
:1025C000CDCF81E00130110509F080E08195FD015A
:1025D000292F8083E058FF4F28502830D0F728EF6C
:1025E000290F26952695269530E02F5F3F4F36958B
:1025F000322F222737952795A20FB31F9770992363
:1026000009F443CFE92FF0E0E559FA4F808101301A
:10261000110541F058F00230110509F036CF9C91B8
:10262000892702C09C91892B8C932FCF80959C91F8
:102630008923FACF2E0F3F1FE217F30709F425CFA6
:102640008191DF011197842B8C93F6CF80952E0F0B
:102650003F1F2E173F0709F418CF9191DF01119703
:1026600098239C93F6CF0130110509F475CF08F437
:10267000A4CF0230110509F075CF2C9182276ECFBF
:10268000DC0177FD67C018968D919C9119976817AA
:1026900079070CF05FC057FD5DC01A968D919C9133
:1026A0001B97481759070CF055C056968C915697B2
:1026B0008230B9F0833041F1813049F414968D9124
:1026C0009C91841B950BAB01BC01615071092130B9
:1026D000310521F108F43FC02230310509F458C01A
:1026E00008951496ED91FC911597E61BF70BBF0129
:1026F0006150710916968D919C91FC01E41BF50BBC
:10270000AF0141505109E3CF16968D919C91861BE4
:10271000970BBA01AC0141505109D9CFFA0157FDCD
:102720003796A3E0F595E795AA95E1F7F695FE2F84
:10273000EE27F795E795E60FF71FE559FE4F47702F
:10274000552721E030E001C0220F4A95EAF7808149
:10275000822B80830895FA0157FD379623E0F59583
:10276000E7952A95E1F7F695FE2FEE27F795E79581
:10277000E60FF71FE559FE4F4770552781E090E0BF
:1027800001C0880F4A95EAF7809590818923E1CFAF
:10279000FA0157FD379683E0F595E7958A95E1F7BD
:1027A000F695FE2FEE27F795E795E60FF71FE5590B
:1027B000FE4F4770552721E030E001C0220F4A95B7
:1027C000EAF780818227C5CF089590E080E00895E0
:1027D000CF9382E0809397078CE380939607809154
:1027E00098078F3F09F42AC161E080919A070E94FF
:1027F000BA0561E080919C070E94BA0580919C0710
:10280000082E000C990BFC01E255F64FE491F0E024
:10281000EE0FFF1FEC55F64F259134913093A3072F
:102820002093A207FC01E057F64FE491E093A8073C
:1028300080919A07082E000C990BFC01E255F64F87
:10284000E491F0E0EE0FFF1FEC55F64F2591349127
:102850003093A5072093A407FC01E057F64FE491BD
:10286000E093A90780919D0781113EC061E08091AE
:1028700098070E94BA0561E0809199070E94BA0505
:1028800080919907082E000C990BFC01E255F64F38
:10289000E491F0E0EE0FFF1FEC55F64F25913491D7
:1028A0003093A1072093A007FC01E057F64FE49175
:1028B000E093A70780919807082E000C990BFC0164
:1028C000E255F64FE491F0E0EE0FFF1FEC55F64FA6
:1028D0002591349130939F0720939E07FC01E05788
:1028E000F64FE491E093A60780919D07882309F4B1
:1028F00039C0CFB7F89480918106811127C0E8EBE9
:10290000F9E08491EAE9F9E09491E82FF0E0EE0F24
:10291000FF1FEA57F64FA591B491EC91E92321F4FA
:1029200061E08AE00E948C0561E08AE00E94BA05BD
:102930008CB580618CBD8CB580648CBD61E08DE010
:102940000E94BA0561E08BE00E94BA058091810681
:102950008F5F80938106CFBF8CB58C7F8CBD8DB58A
:1029600081608DBD61E080919B070E94BA0561E0A6
:1029700080919B070E948C0561E070E080E090E010
:102980000E94280660E080919B070E948C056AE007
:1029900070E080E090E00E94280661E080919B0753
:1029A0000E948C058EEA0E94640F85ED0E94640FE0
:1029B00080E80E94640F88EA0E94640F8FE30E94FF
:1029C000640F83ED0E94640F80E00E94640F80E436
:1029D0000E94640F8DE80E94640F84E10E94640FDE
:1029E00080E20E94640F80E00E94640F81EA0E94EE
:1029F000640F88EC0E94640F8AED0E94640F82E1EC
:102A00000E94640F81E80E94640F8FEC0E94640FA3
:102A100089ED0E94640F81EF0E94640F8BED0E948C
:102A2000640F80E40E94640F84EA0E94640F86EAC7
:102A30000E94640F8FEACF910C94640F109280066D
:102A400010927F061092AF061092D1060E94B90D27
:102A500087E395E090937E0680937D0688E395E07A
:102A600090937C0680937B067DCFFC010190002033
:102A7000E9F73197AF01481B590BBC018BE797E091
:102A80000C94B40685ED8093BC008091AA069091C9
:102A9000AB06A091AC06B091AD060796A11DB11D85
:102AA00023E0B695A795979587952A95D1F720911C
:102AB000BC0024FD03C01092A80608954091AA0608
:102AC0005091AB066091AC067091AD06452B462B3C
:102AD000472B69F30097A105B10541F02AE22A9539
:102AE000F1F700C00197A109B109E1CF8091A906D2
:102AF0000C94D70D0E94341E6F927F928F929F92FA
:102B0000AF92BF92CF92DF92EF92FF920F931F93FB
:102B1000CF93DF93CDB7DEB7A0970FB6F894DEBFA3
:102B20000FBECDBF8C017A0191E090938F079093F7
:102B3000900721E030E030938E0720938D0730938B
:102B40008C0720938B078AE190E09093880780930D
:102B50008707C801089790938A0780938907CB015C
:102B60000E94351595E0EE0CFF1C9A95E1F7CE0119
:102B700001965C014E0191E2890E911C6501EA18F3
:102B8000FB08C7018C0D9D1D0E94881CF6018193D6
:102B90006F018E169F06A9F74801FDE08F1A910874
:102BA000D12CC12C10E0F12CE12C35016C0C7D1CDA
:102BB000C70187709927110F892B49F4F70183E02A
:102BC000F595E7958A95E1F7E60DF71D108117FF5A
:102BD0000AC021E030E0A401B7016D5F7F4F8BE7B1
:102BE00097E00E94A10C8FEFE81AF80A90E1E9162D
:102BF000F104F1F6EFEF8E1A9E0AF2E0CF0ED11C2F
:102C000080E2C816D10479F661E070E080E090E0DF
:102C1000A0960FB6F894DEBF0FBECDBFDF91CF9167
:102C20001F910F91FF90EF90DF90CF90BF90AF90EA
:102C30009F908F907F906F900C9428061F920F9218
:102C40000FB60F9211242F933F938F939F93AF93BF
:102C5000BF938091730690917406A0917506B09110
:102C600076063091720623E0230F2D3758F5019632
:102C7000A11DB11D20937206809373069093740674
:102C8000A0937506B09376068091770690917806AA
:102C9000A0917906B0917A060196A11DB11D80938D
:102CA000770690937806A0937906B0937A06BF9141
:102CB000AF919F918F913F912F910F900FBE0F90E9
:102CC0001F90189526E8230F0296A11DB11DD2CFA3
:102CD0001F920F920FB60F9211242F933F934F9391
:102CE0005F936F937F938F939F93AF93BF93EF9374
:102CF000FF93E0910201F09103010995FF91EF919B
:102D0000BF91AF919F918F917F916F915F914F9103
:102D10003F912F910F900FBE0F901F9018951F920B
:102D20000F920FB60F9211242F933F934F935F93FF
:102D30006F937F938F939F93AF93BF93EF93FF9383
:102D4000E0910001F09101010995FF91EF91BF9190
:102D5000AF919F918F917F916F915F914F913F9133
:102D60002F910F900FBE0F901F9018951F920F92EA
:102D70000FB60F9211242F933F934F935F936F934E
:102D80007F938F939F93AF93BF93EF93FF9382EDC6
:102D900096E00E943207FF91EF91BF91AF919F9112
:102DA0008F917F916F915F914F913F912F910F90F4
:102DB0000FBE0F901F9018951F920F920FB60F9293
:102DC00011242F938F939F93EF93FF93E091E2064B
:102DD000F091E3068081E091E806F091E90682FD3A
:102DE0001BC090818091EB068F5F8F732091EC0662
:102DF000821741F0E091EB06F0E0EE52F94F958F2B
:102E00008093EB06FF91EF919F918F912F910F90FF
:102E10000FBE0F901F9018958081F4CF1F920F92D4
:102E20000FB60F9211242F933F934F935F936F939D
:102E30007F938F939F93AF93BF93EF93FF93809173
:102E4000B900887F803609F44AC0F0F5883209F469
:102E5000A7C018F5803109F49BC0B8F4882309F4A1
:102E6000F9C0883009F494C0FF91EF91BF91AF9100
:102E70009F918F917F916F915F914F913F912F9192
:102E80000F900FBE0F901F901895883109F488C0DD
:102E9000803251F78093A60614C0803409F49DC097
:102EA00040F48033B9F38833F9F68093A60685ECB5
:102EB000B0C0803509F485C0883509F496C08834DF
:102EC00099F60E944215D0CF883909F48CC038F5A4
:102ED000883729F050F4883611F0803729F683E0DE
:102EE0008093A8061092610657C0883809F47BC009
:102EF000803919F0803809F0B7CF809161068032AF
:102F000008F071C0E091610681E08E0F8093610648
:102F10008091BB00F0E0EF5BF94F80833DC0803BC8
:102F200039F0E0F4803A09F479C0883A09F09CCF8E
:102F300084E08093A8061092400610923F06E0912C
:102F40007D06F0917E06099580913F0681110FC0A4
:102F500081E080933F0610921F0609C0803C09F46F
:102F6000A6CF883C09F4A3CF883B09F07DCFE09140
:102F7000400681E08E0F80934006F0E0E15EF94F5D
:102F800080818093BB009091400680913F0629C0CC
:102F9000809183068093BB0085EC8093BC0064CF56
:102FA0009091A5068091A406981758F5E091A50682
:102FB00081E08E0F8093A506F0E0EC57F94F8081F9
:102FC000E9CFE091A50681E08E0F8093A506809160
:102FD000BB00F0E0EC57F94F80839091A5068091FB
:102FE000A4069817C8F285E8D8CFE091A50681E03D
:102FF0008E0F8093A5068091BB00F0E0EC57F94F4F
:1030000080838091A70681115CCF81E08093820646
:1030100084EA8093BC001092A80626CF85EC8093AA
:10302000BC001092A80680916106803230F4E091D5
:103030006106F0E0EF5BF94F10826091610670E08D
:10304000E0917B06F0917C0681E496E00995109270
:1030500061060ACF1092A60634CFE2EDF6E01382A5
:10306000128288EE93E0A0E0B0E084839583A6838B
:10307000B7832FE735E03183208325EC30E03587B7
:10308000248724EC30E03787268720EC30E0318B32
:10309000208B21EC30E0338B228B22EC30E0358B1F
:1030A000248B26EC30E0378B268B118E128E138EFC
:1030B000148EEFE6F7E01382128284839583A68351
:1030C000B78381E995E091838083EBE7F7E0138292
:1030D000128220E830E03583248380E490E09783F7
:1030E00086833187208793878287168A1586148680
:1030F0001786168681E0858B848B2FEF3FEF338B0D
:10310000228B318B208B878B108E128E118E83EA4F
:1031100095E0918380838FEF858F81A3878F868F42
:1031200080A30895CF93DF93CDB7DEB72A970FB66C
:10313000F894DEBF0FBECDBF789484B5826084BDA5
:1031400084B5816084BD85B5826085BD85B58160AB
:1031500085BD80916E00816080936E001092810029
:1031600080918100826080938100809181008160E4
:1031700080938100809180008160809380008091A5
:10318000B10084608093B1008091B0008160809331
:10319000B00080917A00846080937A0080917A00F8
:1031A000826080937A0080917A00816080937A00B7
:1031B00080917A00806880937A001092C10061E06B
:1031C0008CE00E94BA0561E08DE00E94BA0561E0E2
:1031D00087E00E94BA0561E084E00E94BA05E091B0
:1031E000E206F091E30682E08083E091DE06F09152
:1031F000DF061082E091E006F091E1068FEC80831B
:103200001092EA06E091E606F091E70686E08083F8
:10321000E091E406F091E506808180618083E09191
:10322000E406F091E506808188608083E091E40601
:10323000F091E506808180688083E091E406F0915A
:10324000E50680818F7D80830E94E813EBE6F1E044
:1032500080E094E0DF019C011D9221503040E1F7B5
:103260000E94B80F81E090E090938E0780938D07C5
:1032700090938C0780938B0762E086E00E94BA05EA
:1032800062E083E00E94BA0562E085E00E94BA0530
:1032900010926706109266061092650662E082E060
:1032A0000E94BA0562E085E00E94BA0562E086E00D
:1032B0000E94BA0562E08AE00E94BA0562E08BE0F3
:1032C0000E94BA0562E083E00E94BA0561E08DE0E9
:1032D0000E94BA050E94E81383E080936A018AE5A0
:1032E00096E09093010180930001809169008C7FAA
:1032F000826080936900E89A81E0809364068093FD
:1033000063061092620601E010E03AE1E32EF12C30
:1033100045E2242E312C5BE3C52ED12C8091700622
:1033200090917106892B09F053C036E03093690102
:1033300080916801833009F472C008F04DC081307B
:1033400009F457C0823009F461C08091680182306D
:1033500009F469C1833009F473C0813009F0A0C059
:1033600080E10E94EB05BC01990F880B990B0E942C
:10337000351D20E030E040EA50E40E94C11D20E00D
:1033800030E040E85AE30E94C11D4B015C012BEC88
:1033900033E14DEE50E40E94C11DA50194010E944D
:1033A000C11D2B013C012DE936E04BE652ECC50175
:1033B000B4010E94C11D9B01AC01C301B2010E9476
:1033C000911C2CE437EC4CEE52E40E94911C60C03E
:1033D00081E080936901ACCF853081F150F0863077
:1033E00009F0B3CF60E08CE00E948C0561E087E0DB
:1033F0000FC060E08CE00E948C0560E087E00E94D6
:103400008C058FE39FE10197F1F715C060E084E040
:103410000E948C05AFE3BFE11197F1F70CC061E0AA
:1034200084E00E948C0560E08DE00E948C05EFE353
:10343000FFE13197F1F700C0000087CF61E0DACFFC
:103440008FE00E94EB059C012F5C3109213A32404C
:1034500008F0F3C0BC01990F880B990B0E94351D31
:1034600020E030E040EA50E40E94C11D20E030E05E
:1034700040E85AE30E94C11D2DE73CEE4EE05EE3BA
:103480000E94C11D28E23BE942E95EE30E94901CD4
:1034900060936C0670936D0680936E0690936F0632
:1034A00060916C0670916D0680916E0690916F062A
:1034B0000E94FD1CCB014AE0BE016F5F7F4F0E945E
:1034C000531C86E00E946305892B09F0BBC06EE1A6
:1034D00070E080E090E00E94280686E00E9463058C
:1034E000892BA9F480916B0680FD11C080916A063A
:1034F000815080936A068F3F29F480916901815041
:1035000080936A0680916B06816080936B0685E0EC
:103510000E946305892B09F099C0B0906A066EE19C
:1035200070E080E090E00E94280685E00E9463053C
:10353000892B91F480916B0681FD0EC0B394B092FB
:103540006A0680916901B81610F010926A0680919F
:103550006B06826080936B0683E00E946305909007
:103560006A06892B09F0B1C0A0907006B090710670
:103570006EE170E080E090E00E94280683E00E9407
:103580006305892B91F480916B0682FD0EC0A11416
:10359000B10409F45FC0F5E0AF16B10408F490C0BF
:1035A00080916B06846080936B069FEF990D9093DA
:1035B0006906809169019F3F19F4980F90936906FD
:1035C0009394981608F085C090926806ABE6B1E037
:1035D000E0E0F4E01D923197E9F780917006909158
:1035E00071068230910509F42EC108F075C000976C
:1035F00009F4D7C08130910509F4FFC00E94B80FCB
:1036000062E370E080E090E00E94280680E090E0B5
:10361000892B09F483CE0E941E07882309F475CEF6
:103620000E94000072CE8FE00E94EB059C012F5C8F
:1036300031092931334008F40DCF62E578EB8EEF84
:103640009FEB26CF80916B068E7F5FCF80916B06BC
:103650008D7F80CF22E0921621F1291568F0992004
:10366000C1F031E093129CCFA2E0B0E0B0937106BC
:10367000A093700682E012C043E09416D1F084E07B
:1036800098128ECF85E090E090937106809370063B
:1036900087CF109371060093700683E080936801D2
:1036A0007FCFE3E0F0E0F0937106E093700681E0F5
:1036B000F5CF24E030E0309371062093700670CF90
:1036C00010927106109270066BCF80916B068B7F03
:1036D0006ACF109268067ACF8330910509F4CBC087
:1036E000049709F08BCF0E94A80CBB24B394B0922E
:1036F0008F07B092900710938E0700938D07109359
:103700008C0700938B07F0928807E09287078FE081
:1037100090E090938A0780938907809169069AE0E8
:10372000A92E8A9DC00111248C5F9E4F0E943515E1
:10373000B0928F07B092900710938E0700938D0779
:1037400010938C0700938B07F0928807E09287070D
:1037500030928A072092890780916A068A9DC0016B
:1037600011248C5F9E4F0E943515B0928F07B09246
:10377000900710938E0700938D0710938C0700938A
:103780008B07F0928807E0928707D0928A07C09251
:103790008907809168068A9DC00111248C5F9E4F25
:1037A0004FC00E94A80C60916906462F50E02AE0A5
:1037B000B22E6B9DB0011124645D7E4F8FE090E0CE
:1037C0000E947C1560916A06462F50E06B9DB00107
:1037D0001124645D7E4F85E290E00E947C1560912B
:1037E0006806462F50E06B9DB0011124645D7E4F4A
:1037F0008BE390E00E947C1501CF21E020938F079E
:103800002093900790938E0780938D0790938C0759
:1038100080938B07F0928807E092870730928A079F
:10382000209289078BEC95E00E943515F09288076D
:10383000E0928707D0928A07C0928907CE0101964D
:103840000E943515DBCE81E080938F07809390072F
:1038500010938E0700938D0710938C0700938B07AE
:10386000F0928807E092870730928A0720928907B2
:103870008DED95E0D9CF81E080938F0780939007FD
:1038800010938E0700938D0710938C0700938B077E
:10389000F0928807E092870730928A072092890782
:1038A0008DEE95E0C1CFBB274A3031F4992322F445
:1038B000BDE2909581959F4F0C945F1CBB27FB0147
:1038C0005527AA27880F991FAA1FA41710F0A41B19
:1038D00083955051B9F7A05DAA3308F0A95DA19373
:1038E000009779F7B111B1931192CB010C94781C28
:1038F000DC01FC01672F71917723E1F7329704C057
:103900007C916D9370836291AE17BF07C8F30895E1
:10391000F999FECF92BD81BDF89A992780B5089597
:103920005058BB27AA270E94A81C0C94871D0E94F0
:10393000791D38F00E94801D20F039F49F3F19F462
:1039400026F40C94761D0EF4E095E7FB0C94701DA4
:10395000E92F0E94981D58F3BA176207730784076E
:10396000950720F079F4A6F50C94BA1D0EF4E095B5
:103970000B2EBA2FA02D0B01B90190010C01CA0129
:10398000A0011124FF27591B99F0593F50F4503ED4
:1039900068F11A16F040A22F232F342F4427585FC6
:1039A000F3CF469537952795A795F0405395C9F7DE
:1039B0007EF41F16BA0B620B730B840BBAF0915096
:1039C000A1F0FF0FBB1F661F771F881FC2F70EC035
:1039D000BA0F621F731F841F48F487957795679508
:1039E000B795F7959E3F08F0B0CF9395880F08F0F4
:1039F0009927EE0F9795879508950E94041D689466
:103A0000B1110C94BB1D08950E94A01D88F09F5712
:103A100098F0B92F9927B751B0F0E1F0660F771FF2
:103A2000881F991F1AF0BA95C9F714C0B13091F0E8
:103A30000E94BA1DB1E008950C94BA1D672F782F2B
:103A40008827B85F39F0B93FCCF3869577956795AD
:103A5000B395D9F73EF490958095709561957F4F19
:103A60008F4F9F4F0895E89409C097FB3EF49095BF
:103A70008095709561957F4F8F4F9F4F9923A9F047
:103A8000F92F96E9BB279395F695879577956795D6
:103A9000B795F111F8CFFAF4BB0F11F460FF1BC01A
:103AA0006F5F7F4F8F4F9F4F16C0882311F096E9AD
:103AB00011C0772321F09EE8872F762F05C066235B
:103AC00071F096E8862F70E060E02AF09A95660F14
:103AD000771F881FDAF7880F9695879597F90895CD
:103AE00097F99F6780E870E060E008959FEF80ECB1
:103AF000089500240A941616170618060906089554
:103B000000240A9412161306140605060895092EB9
:103B10000394000C11F4882352F0BB0F40F4BF2B28
:103B200011F460FF04C06F5F7F4F8F4F9F4F089568
:103B300057FD9058440F551F59F05F3F71F047955E
:103B4000880F97FB991F61F09F3F79F08795089543
:103B5000121613061406551FF2CF4695F1DF08C062
:103B6000161617061806991FF1CF8695710561057F
:103B700008940895E894BB2766277727CB0197F927
:103B800008950E94D41D0C94871D0E94791D38F061
:103B90000E94801D20F0952311F00C94701D0C9450
:103BA000761D11240C94BB1D0E94981D70F3959FE7
:103BB000C1F3950F50E0551F629FF001729FBB2724
:103BC000F00DB11D639FAA27F00DB11DAA1F649FC0
:103BD0006627B00DA11D661F829F2227B00DA11D73
:103BE000621F739FB00DA11D621F839FA00D611DF9
:103BF000221F749F3327A00D611D231F849F600D1A
:103C0000211D822F762F6A2F11249F5750409AF042
:103C1000F1F088234AF0EE0FFF1FBB1F661F771FCE
:103C2000881F91505040A9F79E3F510580F00C9499
:103C3000701D0C94BB1D5F3FE4F3983ED4F3869552
:103C400077956795B795F795E7959F5FC1F7FE2B39
:103C5000880F911D9695879597F90895EE0FFF1F90
:103C60000590F491E02D099481E090E0F8940C9493
:063C7000391EF894FFCF9D
:103C7600B306B3064F6666000000000000005371ED
:103C86007561726500000000547269616E67756C3B
:103C9600617253696E65205761766500566F6C7464
:103CA6006D6574657200416D6D6574657200000026
:103CB6004F686D6D657465720000536967204765CE
:103CC6006E00000053636F70650000000000436FD4
:103CD6006E66696700000000030601000000000030
:103CE60000000000000000000000000000000000CE
:103CF60000000000000000000000000000000000BE
:103D060000000000000000000000000000000000AD
:103D1600000000000000000000008080800000001D
:103D26000000000000000000000000008080C0C00D
:103D3600000000000000000000000000000000007D
:103D4600000000000000000000000000000000006D
:103D5600000000000000000000000000000000005D
:103D660000000000000000000000000000000080CD
:103D7600C0E0F0F8FCF8E0000000000000000000E1
:103D860000000000000000008080808080008080AD
:103D960000000000808080808000FFFFFF000000A0
:103DA600008080808000008080000080FFFF80808F
:103DB60000808000808080800080800000000000FD
:103DC600808000008C8E84000080F8F8F880000067
:103DD6000000000000000000000000F0F0F0F0F02D
:103DE600F0F0F0F0F0F0F0E0E0C08000E0FCFEFF64
:103DF600FFFF7FFFFFFFFFFF000000000000000045
:103E0600000000000000FEFFC70101010183FFFF63
:103E160000007CFEC70101010183FFFFFF0038FEA1
:103E2600C78301010183C7FFFF000001FFFF0101F6
:103E360000FFFF0701010100007FFF80000000FF77
:103E4600FF7F0000FFFFFF000001FFFFFF010000F2
:103E56000000000000000000000000030F3F7F7F0D
:103E6600FFFFFFFFFFFFFFE7C7C78F8F9FBFFFFF64
:103E7600C3C0F0FFFFFFFFFFFCFCFCFCFCFCFCFCEE
:103E8600F8F8F0F0E0C000010303030303010303A5
:103E96000000000001030303030101030100000009
:103EA60001030303030101030300000003030000F1
:103EB60000030300000000000000010303030303E6
:103EC60001000000010301000000030301000000DF
:103ED600000000000000000000000000000080C09C
:103EE600E0F0F9FFFFFFFFFF3F1F0F87C7F7FFFF58
:103EF6001F1F3DFCF8F8F8F87C7DFFFFFFFFFFFF72
:103F0600FFFF7F3F0F070030300000000000000079
:103F1600000000000000000000000000000000FE9D
:103F2600FEFC000000000000000000000000000091
:103F36000000000000000000E0C0000000000000DB
:103F4600000000000030300000000000000000000B
:103F5600000000000000000000000000C0FEFFFF9F
:103F6600FFFFFFFFFFFFFF7F7F3F1F0F071F7FFF43
:103F7600FFF8F8FFFFFFFFFFFEF8E000000001007A
:103F860000000000000000FEFE000000FCFEFC0C2D
:103F960006060EFCF80000F0F81C0E0606060CFFDE
:103FA600FFFF0000FEFE00000000FCFEFC00183CC7
:103FB6007E66E6CE84000006FFFF0606FCFEFC0CCD
:103FC6000606060000FEFE0000C0F8FC4E46464609
:103FD6004E7C7840183C76E6CECC8000000000008F
:103FE60000000000000000000000000000000001CA
:103FF600070F1F1F3F3F3F3F1F0F0300000000003A
:10400600000000000000000F0F0000000F0F0F005F
:104016000000000F0F000003070E0C18180C060F07
:104026000F0F0000010F0E0C180C0F070100040EF5
:104036000C180C0F070000000F0F00000F0F0F00E9
:1040460000000000000F0F00000007070C0C181CF2
:104056000C060600040E0C180C0F070000000000EA
:10406600000000000000000000000000000000004A
:10407600000000000000000000000000000000003A
:10408600000000000000000000000000000000002A
:10409600000000000000000000000000000000001A
:1040A600000000000000000000000000000000000A
:1040B60000000000000000000000000000000000FA
:1040C60000000000000000000000000000000000EA
:1040D6000000000000000000000000000103070FC0
:1040E6001F3F7F0080C0E0F0F8FCFE000000005497
:1040F60007B406E106A1071207F006040700000050
:1041060000350F080FE5133905010FEE0EDF0E001F
:10411600000000FC09B406E513E41340133905A1B9
:104126000C790C950C890CE50C3905C207C107867C
:1041360010E311C20BA50B2D0BCE0A566F6C746DD6
:10414600657465722052656164696E6700416D6DC4
:10415600657465722052656164696E67004F686DAB
:0E4166006D657465722052656164696E670054
:00000001FF
