:100000000C945D000C9485000C9485000C94850084
:100010000C9485000C9485000C946F0D0C94850055
:100020000C9485000C9485000C9485000C9485003C
:100030000C9485000C9485000C9485000C9485002C
:100040000C94BF020C9485000C942F030C940903AC
:100050000C9485000C9485000C9485000C9485000C
:100060000C9485000C9485000000000024002700FB
:100070002A0000000000250028002B0004040404CE
:100080000404040402020202020203030303030342
:10009000010204081020408001020408102001021F
:1000A00004081020000000080002010000030407FB
:1000B0000000000000000000A90E11241FBECFEFB9
:1000C000D8E0DEBFCDBF11E0A0E0B1E0EAE6F0E2AB
:1000D00002C005900D92AA33B107D9F722E0AAE336
:1000E000B1E001C01D92A936B207E1F710E0CDE5FD
:1000F000D0E004C02197FE010E941D10CC35D1072D
:10010000C9F70E94720D0C9433100C940000E1EBBF
:10011000F0E02491EDE9F0E09491E9E8F0E0E49179
:10012000EE23C9F0222339F0233001F1A8F4213065
:1001300019F1223029F1F0E0EE0FFF1FEE58FF4FCA
:10014000A591B4912FB7F894EC91811126C09095A8
:100150009E239C932FBF08952730A9F02830C9F023
:10016000243049F7209180002F7D03C0209180002A
:100170002F7720938000DFCF24B52F7724BDDBCFEE
:1001800024B52F7DFBCF2091B0002F772093B000B6
:10019000D2CF2091B0002F7DF9CF9E2BDACFAF9236
:1001A000BF92CF92DF92EF92FF920F931F93CF9364
:1001B000DF936C017B018B01040F151FEB015E01C6
:1001C000AE18BF08C017D10759F06991D601ED915B
:1001D000FC910190F081E02DC6010995892B79F7FA
:1001E000C501DF91CF911F910F91FF90EF90DF90AC
:1001F000CF90BF90AF900895FC01538D448D252F73
:1002000030E0842F90E0821B930B541710F0CF96B0
:10021000089501970895FC01918D828D981761F0E2
:10022000A28DAE0FBF2FB11D5D968C91928D9F5FF9
:100230009F73928F90E008958FEF9FEF0895FC01D8
:10024000918D828D981731F0828DE80FF11D858D8B
:1002500090E008958FEF9FEF0895FC01918D228D1E
:10026000892F90E0805C9F4F821B91098F739927A3
:10027000089584E491E00E942D0121E0892B09F486
:1002800020E0822F08950E94390181110C94000012
:10029000089580E090E0892B11F00C9443010895BB
:1002A000FC01A48DA80FB92FB11DA35ABF4F2C91EB
:1002B000848D90E001968F739927848FA689B789E2
:1002C0002C93A089B1898C91837080648C93938DD9
:1002D000848D981306C00288F389E02D80818F7D7C
:1002E00080830895EF92FF920F931F93CF93DF9334
:1002F000EC0181E0888F9B8D8C8D98131AC0E88962
:10030000F989808185FF15C09FB7F894EE89FF8930
:100310006083E889F98980818370806480839FBFCE
:1003200081E090E0DF91CF911F910F91FF90EF90CE
:100330000895F62E0B8D10E00F5F1F4F0F731127DE
:10034000E02E8C8D8E110CC00FB607FCFACFE88919
:10035000F989808185FFF5CFCE010E945001F1CF50
:10036000EB8DEC0FFD2FF11DE35AFF4FF0829FB78D
:10037000F8940B8FEA89FB8980818062CFCFCF937D
:10038000DF93EC01888D8823B9F0AA89BB89E889BD
:10039000F9898C9185FD03C0808186FD0DC00FB663
:1003A00007FCF7CF8C9185FFF2CF808185FFEDCFE1
:1003B000CE010E945001E9CFDF91CF910895EDE980
:1003C000F0E02491E9E8F0E08491882399F090E04E
:1003D000880F991FFC01E859FF4FA591B491FC01CA
:1003E000EE58FF4F859194918FB7F894EC91E22BE2
:1003F000EC938FBF81E00E9487008EE390E00E9423
:10040000940880E00E9487008EE390E00E949408A8
:10041000F1CF0F931F93E4E4F1E0A089B18982E06A
:100420008C93A485B5851C92A685B7858FEC8C939B
:10043000108EA489B58986E08C93A289B3898C91AA
:1004400080618C93A289B3898C9188608C93A289F6
:10045000B3898C9180688C930288F389E02D808128
:100460008F7D808310E000E022E040E850E069E109
:1004700071E08FED91E00E94470C21E040E850E0F0
:100480006FE171E089E492E00E94470C1F910F91A7
:100490000895CF93DF93CDB7DEB7A1970FB6F89449
:1004A000DEBF0FBECDBF10E48AE0882E912CA12CB8
:1004B000B12C10937C0080917A00806480937A0044
:1004C00080917A0086FDFCCFC0907800D0907900B2
:1004D0000D2C000CEE08FF08F7FE3BC06DE284E433
:1004E00091E00E94720122273327A9012C193D09AE
:1004F0004E095F0919A2CE0181967C01CA01B9019A
:10050000A50194010E94FB0F605DF70162937F01DA
:10051000211531054105510589F7E114F10461F018
:1005200001900020E9F73197AF014E195F09B7013B
:1005300084E491E00E94CF0042E050E06AE271E082
:1005400084E491E00E94CF0081E090E00E94940852
:10055000B0CFA701960119A2CE0181967C01CA01F4
:10056000B901A50194010E94FB0F605DF701629340
:100570007F01211531054105510589F7CECF1F9225
:100580000F920FB60F9211242F933F938F939F9347
:10059000AF93BF938091060290910702A091080249
:1005A000B09109023091050223E0230F2D3758F551
:1005B0000196A11DB11D2093050280930602909320
:1005C0000702A0930802B093090280910102909162
:1005D0000202A0910302B09104020196A11DB11D77
:1005E0008093010290930202A0930302B09304024D
:1005F000BF91AF919F918F913F912F910F900FBE1F
:100600000F901F90189526E8230F0296A11DB11D8B
:10061000D2CF1F920F920FB60F9211242F933F93B8
:100620004F935F936F937F938F939F93AF93BF93FA
:10063000EF93FF9384E491E00E945001FF91EF91CA
:10064000BF91AF919F918F917F916F915F914F91EA
:100650003F912F910F900FBE0F901F9018951F92F2
:100660000F920FB60F9211242F938F939F93EF93B6
:10067000FF93E0915401F09155018081E0915A017E
:10068000F0915B0182FD1BC0908180915D018F5FC5
:100690008F7320915E01821741F0E0915D01F0E0DF
:1006A000EC5BFE4F958F80935D01FF91EF919F91E1
:1006B0008F912F910F900FBE0F901F9018958081F2
:1006C000F4CFE0910C02F0910D028081811107C0FE
:1006D0008FEF9FEF909300028093FF010895E091C8
:1006E0000C02F0910D020580F681E02D8081918150
:1006F000F1CFCF93DF93DC011596ED91FC9106804D
:10070000F781E02DA489B58986859785208931896F
:10071000EC013D832C83C089D1899B838A83CF01DF
:100720000C9611962D913C9112972817390721F4B8
:100730001296DC93CE931197158A148A2C9121502E
:100740002C9320913F01211157C0A285B38584814C
:10075000958126813781EC013D832C83C681D78129
:100760009B838A83CF01029611962D913C9112971B
:100770002817390721F41296DC93CE93119713862C
:1007800012862C9121502C93C68920915F022C1740
:1007900010F4C0935F0229E02C9FE0011124C55C96
:1007A000DD4F0980DA81C02DD583C4834C815D8102
:1007B00057834683AC81BD8113969C938E93129789
:1007C0009D838C83A689A29FD0011124A55CBD4F77
:1007D000B387A2878C918F5F8C93A0916202B091B6
:1007E0006302968956968C91891730F581E0809343
:1007F0003E01DF91CF910895A0912102B091220294
:10080000B787A68714962D913C911597318B208B35
:100810001496CD91DC9115979B838A8315969C93B2
:100820008E93149780E292E0958B848B80912002C6
:100830008F5F80932002D1CF80E0DBCF0FB6F8949A
:100840000F928091FD019091FE010F900FBE0895CF
:1008500080913F018F5F80933F0108950FB6F89418
:100860000F92FC01928D0F900FBE81E0911180E0FC
:100870000895EF92FF920F931F93CF93DF93EC01B4
:100880000FB6F8940F921E8D7C0181E1E80EF11CE9
:1008900001E01116D4F08FEF8E8F0F900FBE0FB6C0
:1008A000F8940F921D8D7E0188E0E80EF11C01E0A6
:1008B0001116B4F08FEF8D8F0F900FBEDF91CF9197
:1008C0001F910F91FF90EF9008958989882319F364
:1008D000C7010E947903811100933E011150D9CFC5
:1008E0008885882339F3C7010E9479038111009319
:1008F0003E011150DDCFCF93DF93FC01A085B18580
:100900008281938124813581EC013D832C83C481D4
:10091000D5819B838A8311968D919C9112978E1716
:100920009F0721F41296DC93CE93119711861086BF
:100930008C9181508C93DF91CF9108950F931F93E9
:10094000CF93DF938C01FB0180819181D8011396B5
:100950008F3F9807F1F4E801AF81B88512968D9129
:100960009C91139793838283EC01FD83EC83B58381
:10097000A4831396FC93EE93129711870087F801D6
:1009800080818F5F8083DF91CF911F910F910895B8
:10099000D90112962D913C911397E9014881598113
:1009A00084179507A8F7DACFFC01738362839187D8
:1009B00080874617570790F0421B530B8485958517
:1009C00048175907C8F4BF016E5F7F4F8091E3015C
:1009D0009091E4010E949E0480E00895421753071D
:1009E00018F46217730740F4BF016E5F7F4F809168
:1009F000E5019091E601EECF81E00895EF92FF923C
:100A00000F931F93CF93DF93EC018B017A016C85D9
:100A10007D85600F711F9801A701CE010E94D4044B
:100A2000811107C0DF91CF911F910F91FF90EF903F
:100A300008958C859D85080F191FE889F989CE01D5
:100A40000995E5CFEF92FF920F931F93CF93DF931A
:100A50008C017B01E091E501F091E6010580F681D2
:100A6000E02DC681D781CE0102960E947B048A893F
:100A700082FF0FC0A701B801CE010E94FE04E889E1
:100A8000F989CE01DF91CF911F910F91FF90EF90E7
:100A900009948E7F8A8BF3CFE091E501F091E60116
:100AA000808181110DC08091E3019091E4019093C8
:100AB000E6018093E501F093E401E093E3010895FA
:100AC0000580F681E02D6FEF7FEF808191810E949C
:100AD0002205E2CFBF92CF92DF92EF92FF920F9367
:100AE0001F93CF93DF93EC01B62EC090FD01D09001
:100AF000FE0100910C0210910D02E0900A02F090AC
:100B00000B02809162029091630202960E947B0424
:100B1000CF3FDC0709F042C0BB2009F43FC0E091A1
:100B20000F02F0911002A0916202B091630215963B
:100B3000FC93EE931497A0916202B09163028481BA
:100B4000958117969C938E9316978091620290914F
:100B50006302A481B581029613969C938E9312979B
:100B60008091620290916302029695838483E09162
:100B70006202F09163028EE092E093878287809117
:100B80000E028F5F80930E02DF91CF911F910F9124
:100B9000FF90EF90DF90CF90BF900895CC0DDD1DBA
:100BA000E0916202F0916302D383C283609162029A
:100BB000709163026E5F7F4FCC15DD0560F4C70155
:100BC000DF91CF911F910F91FF90EF90DF90CF9029
:100BD000BF900C949E04C8010E949E048091FF0166
:100BE00090910002C817D90778F6D0930002C093FD
:100BF000FF01CACFFC010396928381832FEF3FEF61
:100C00003483238396838583908787831082089516
:100C10000F920FB6F8940F921F9211242F923F92C9
:100C20004F925F926F927F928F929F92AF92BF92FC
:100C3000CF92DF92EF92FF920F931F932F933F93E8
:100C40004F935F936F937F938F939F93AF93BF93D4
:100C5000CF93DF93EF93FF93A0916202B091630271
:100C60000DB60D920EB60D9280913F01882321F0B2
:100C700081E080933E0161C010923E01A09162022A
:100C8000B0916302E0916202F09163022D913C9178
:100C90008789908D82179307A8F0809162029091C6
:100CA00063028091620290916302259A2D9A2FEF40
:100CB00087EA91E6215080409040E1F700C00000B3
:100CC0001D9AF5CF20915F0289E001C02150422F8B
:100CD00050E0849FF001859FF00D1124E55CFD4FED
:100CE0009081992399F3A181B28112966D917C91A3
:100CF00072836183289FC0011124825C9D4F681715
:100D0000790721F4858196819283818389E0849F8C
:100D1000F001859FF00D1124E55CFD4F0180F2810B
:100D2000E02D8681978190936302809362022093E5
:100D30005F028091620290916302A0916202B09181
:100D40006302CD91CDBFDD91DEBFFF91EF91DF91C9
:100D5000CF91BF91AF919F918F917F916F915F9153
:100D60004F913F912F911F910F91FF90EF90DF9046
:100D7000CF90BF90AF909F908F907F906F905F903B
:100D80004F903F902F901F900F900FBE0F9008959F
:100D90008F929F92BF92CF92DF92EF92FF920F932A
:100DA0001F93CF93DF930FB6F8940F9280913F017A
:100DB000815080933F0180913F01882379F080E04A
:100DC0000F900FBEDF91CF911F910F91FF90EF9089
:100DD000DF90CF90BF909F908F9008958091640294
:100DE000882369F3E0902502F0902602F0E0E0E02D
:100DF00039E041E08091200281115EC0EF2B11F0BB
:100E00000E946103E0903C01F0903D01E114F10487
:100E100009F47DC189E0D82ECC24C3940FEF1FEFD5
:100E200080913F01811161C1C091FD01D091FE010E
:100E30004E018FEF881A980A9092FE018092FD0170
:100E400081149104B9F480910C0290910D022091CB
:100E50000A0230910B0230930D0220930C02909302
:100E60000B0280930A02809143018F5F80934301BC
:100E70000E9461038091FF0190910002B12C8816BD
:100E8000990608F026C1E0916202F0916302E689BA
:100E9000DE9EF0011124E55CFD4F8081823010F070
:100EA000BB24B39480913E01811103C0BB2009F49F
:100EB00025C1C0923E0122C1D7011696ED91FC9149
:100EC000A489B5896685778580899189EB019D83A1
:100ED0008C8380899189EC017B836A83BF01645F85
:100EE0007F4F11960D911C9112970617170721F449
:100EF00012969C938E931197158A148A8C91815027
:100F00008C93A285B3858481958166817781EC017C
:100F10007D836C8366817781EB019B838A83CF011C
:100F2000029611960D911C9112970817190721F43A
:100F300012967C936E931197138612862C912150F2
:100F40002C93A68920915F022A1710F4A0935F02C8
:100F50003A9FD0011124A55CBD4F11960D90BC9114
:100F6000A02DB583A48314966D917C9115977783FA
:100F7000668314966D917C911597EB019B838A8310
:100F800015969C938E9314979689939FD001112464
:100F9000A55CBD4FB387A2878C918F5F8C93A09186
:100FA0006202B091630256968C91891708F022CFA5
:100FB00040933E011FCFE0910C02F0910D0205809D
:100FC000F681E02D0680F781E02D828193818816DD
:100FD000990628F4909300028093FF0154CFC285B4
:100FE000D3858481958126813781DC0115963C93D8
:100FF0002E93149726813781D90113969C938E9353
:101000001297CF01029649815A814817590711F466
:101010003A83298313861286288121502883A48944
:10102000B5891097F9F02685378540895189E901FE
:101030005D834C8340895189EA013B832A83119661
:101040006D917C9112979F01245F3F4F6217730748
:1010500021F412965C934E931197158A148A2C9161
:1010600021502C93A68920915F022A1710F4A09397
:101070005F02DA9ED0011124A55CBD4F11960D9040
:10108000BC91A02DB583A48314962D913C91159706
:101090003783268314962D913C911597E9019B8304
:1010A0008A8315969C938E93149796899D9DD00163
:1010B0001124A55CBD4FB387A2878C918F5F8C9361
:1010C000E0916202F09163028689891710F4BB24D3
:1010D000B394E0910C02F0910D02808181116BCFED
:1010E000109300020093FF01CECE80913C019091BD
:1010F0003D01019690933D0180933C01D1E0ED1AB2
:10110000F10809F08DCE10923D0110923C018091C2
:101110003E01882309F453CE8091620290916302CC
:101120000E94080681E04CCECF93DF93EC010E9431
:10113000280460E0CE010E946A050E94C806811161
:1011400002C00E940806DF91CF9108950F920FB65A
:10115000F8940F921F9211242F923F924F925F9218
:101160006F927F928F929F92AF92BF92CF92DF92B7
:10117000EF92FF920F931F932F933F934F935F93A1
:101180006F937F938F939F93AF93BF93CF93DF938F
:10119000EF93FF93A0916202B09163020DB60D929E
:1011A0000EB60D9213BE80913F018111F9C080915E
:1011B000FD019091FE0101969093FE018093FD0147
:1011C000009781F520910C0230910D0240910A02A6
:1011D00050910B0250930D0240930C0230930B027E
:1011E00020930A02209143012F5F20934301E09155
:1011F0000C02F0910D022081211107C02FEF3FEF6B
:10120000309300022093FF010DC0E0910C02F09199
:101210000D020580F681E02D20813181309300029E
:101220002093FF012091FF01309100028217930764
:1012300010F420E0A1C020E039E0D32EE0910C02B0
:10124000F0910D023081311107C08FEF9FEF909325
:1012500000028093FF0190C0E0910C02F0910D021A
:101260000580F681E02D0680F781E02D42815381D3
:101270008417950728F4509300024093FF017CC027
:10128000A285B3854481558166817781EA017D839A
:101290006C8366817781EB015B834A83AF014E5F8C
:1012A0005F4F11960D911C9112970417150721F4A9
:1012B00012967C936E931197138612863C9131504F
:1012C0003C93A489B5891097F9F0668577850089E4
:1012D0001189EB011D830C8300891189E8017B834F
:1012E0006A831196ED90FC901297BF01645F7F4F67
:1012F000E616F70621F412961C930E931197158AA1
:10130000148A3C9131503C93A68930915F023A1780
:1013100010F4A0935F02DA9ED0011124A55CBD4FAA
:1013200011960D90BC91A02DB583A48314966D9158
:101330007C9115977783668314966D917C911597B0
:10134000EB015B834A8315965C934E931497468911
:101350004D9DD0011124A55CBD4FB387A2873C9160
:101360003F5F3C93E0916202F0916302368934174B
:1013700008F064CF21E062CFE0916202F091630255
:10138000E689D9E0ED9FF0011124E55CFD4F8081F5
:10139000823008F021E080913E0181110EC00AC028
:1013A00080913C0190913D01019690933D01809385
:1013B0003C016CC0222309F469C080913F0188235D
:1013C00021F081E080933E0161C010923E01A09126
:1013D0006202B0916302E0916202F09163022D918A
:1013E0003C918789908D82179307A8F080916202C3
:1013F000909163028091620290916302259A2D9AE6
:101400002FEF87EA91E6215080409040E1F700C03D
:1014100000001D9AF5CF20915F0289E001C02150A4
:10142000422F50E0849FF001859FF00D1124E55C70
:10143000FD4F9081992399F3A181B28112966D910C
:101440007C9172836183289FC0011124825C9D4F2F
:101450006817790721F4858196819283818389E0D9
:10146000849FF001859FF00D1124E55CFD4F018004
:10147000F281E02D868197819093630280936202CE
:1014800020935F028091620290916302A0916202B8
:10149000B0916302CD91CDBFDD91DEBFFF91EF91A1
:1014A000DF91CF91BF91AF919F918F917F916F917C
:1014B0005F914F913F912F911F910F91FF90EF906E
:1014C000DF90CF90BF90AF909F908F907F906F9064
:1014D0005F904F903F902F901F900F900FBE0F90F6
:1014E0000895CF93DF93009751F0EC010E942804F8
:1014F000CE010E94720FDF91CF910C94C806DF914C
:10150000CF910895CF93DF9300D000D01F92CDB735
:10151000DEB785E0B82ECE0101967C01E091E501B1
:10152000F091E6011081D12CC12C112329F0058006
:10153000F681E02DC080D1800E9428040E941E0404
:101540004C0180914101909142018816990608F062
:1015500089C00E944C0590924201809241010E94F4
:10156000C806D701EB2D1D92EA95E9F70091FB0122
:101570001091FC010FB6F8940F92D8015A96DC90A6
:101580005A97DD2009F42FC15C964C915C97442357
:10159000F9F050E016968D919C911797840F951F46
:1015A00017969C938E93169714962D913C911597B0
:1015B0008217930738F08D919C91119717969C9301
:1015C0008E931697F80166817781C7010E942310D8
:1015D000DA94D8015A96DC925A9718968C918823FF
:1015E00039F0C80108960E94790381110E9408060B
:1015F0000F900FBEA980A7FCB9CF0C811D81D80127
:101600001A968D919C91892B21F0C80102960E9417
:101610007B040E941E046C01809141019091420163
:10162000C816D90610F40E944C05D0924201C0920F
:101630004101EFEFEA0DE93008F098CF0E2E000CD3
:10164000FF0BE75DF44FD80152968C9152970C94A2
:101650001D10AC0BAC0BEF0BD70BE90BAC0BAC0BB1
:10166000EF0BD70B9092420180924101112351F070
:101670008C149D0470F00E94C806B401C6010E943B
:1016800022056FCFE091E301F091E40161E08081F8
:10169000811160E00091FB011091FC010FB6F894FC
:1016A0000F92D8015D968C915D978F3F11F45D96F6
:1016B0001C92F801868D8F3F09F4168E0F900FBE95
:1016C000D8015A968C915A9781113CC05296ED914F
:1016D000FC91A0916202B09163021F96FC93EE937D
:1016E0001E97A0916202B091630284819581519608
:1016F0009C938E9350978091620290916302A48193
:10170000B5810C9613969C938E93129780916202EA
:10171000909163020C9695838483E0916202F0912C
:101720006302C8014196958B848BF80181898F5F94
:10173000818BC60188199909662311F08FEF9FEFFD
:101740000E946A05C8010E9439040E94C8068111DE
:1017500008CF0E94080605CF8160F801828B8A803D
:101760009B8064857585680D791D9401A601C8016B
:101770000E94D404882309F4F9CED80152968C91A2
:10178000529782FF10C01C966D917C91680D791D57
:10179000A601C8010E94FE04D8015096ED91FC916B
:1017A000C8010995E3CE8E7FF801828BF5CF816069
:1017B00052968C9352976A817B811D967C936E938F
:1017C0001C976C0D7D1D9601A601C8010E94D404D2
:1017D000CDCE81FD04C0C8010E94710AC7CE8E7FA4
:1017E000F801828BC3CE0F900FBE98CE00E010E0C0
:1017F0008091400181110CC080913B02823010F039
:101800000E9408060115110599F30E944301F0CFCB
:101810000FB6F8940F92E0911C02F0911D02C68160
:10182000D781CE0102960E947B0480916402815090
:1018300080936402809140018150809340010F9019
:101840000FBE8F89988D0E94710ACE010E94710A85
:10185000CFCFCF93DF93EC010E942804CE010E94EA
:10186000D60EEC010E94C806209769F4259A2D9A9D
:101870002FEF80E792E0215080409040E1F700C0D8
:1018800000001D9AF5CFCE01DF91CF9108957F9290
:101890008F929F92AF92BF92CF92DF92EF92FF9280
:1018A0000F931F93CF93DF93982EA92E762E872E1A
:1018B0007A01B22ECA010E94290C6C01892B09F40D
:1018C000EDC080E390E00E94290CEC01892B09F423
:1018D000E2C080E3DE011D928A95E9F7D88ECF8AB7
:1018E000A70165EA70E0C6010E942C10B1E0EB1A76
:1018F000F108EF89F88DEE0DFF1D672D782DCE01D3
:1019000049969B01205F3F4FDB014D91BD01DC01FA
:101910004D93CD01AB0141505109DA014C91442363
:1019200019F02617370781F718A6BE8AB9A61B86B5
:101930001A861D8A1C8AD987C88784E090E08B1993
:1019400091099D878C87DB8BCA8B9082DF01119771
:10195000AC9211971C92119780E88C9311971C926E
:1019600057971C9211971C92B397F983E88301153E
:10197000110519F0F801D183C0830FB6F8940F92C6
:10198000809164028F5F80936402809162029091E3
:101990006302892B09F091C0D0936302C093620265
:1019A00080916402813081F58BE392E00E94FA0518
:1019B00084E492E00E94FA058DE492E00E94FA0528
:1019C00086E592E00E94FA0582E392E00E94FA0521
:1019D00089E292E00E94FA0580E292E00E94FA0514
:1019E00087E192E00E94FA058EE092E00E94FA05FB
:1019F00082E392E090930D0280930C0289E292E0E0
:101A000090930B0280930A02809160028F5F809313
:101A10006002AE8980915F028A1710F4A0935F0282
:101A200029E02A9FD0011124A55CBD4F11960D908D
:101A3000BC91A02DBD83AC8314968D919C9115977C
:101A40009F838E831496ED91FC911597CE0102969B
:101A50009383828315969C938E931497EE89E29FCD
:101A6000F0011124E55CFD4FFB87EA8780818F5FE1
:101A700080830F900FBE80916102882351F0E09126
:101A80006202F091630296898E89981710F40E9481
:101A9000080681E004C0C6010E94710A8FEFDF9141
:101AA000CF911F910F91FF90EF90DF90CF90BF905B
:101AB000AF909F908F907F900895809161028111E7
:101AC000A3CFE0916202F091630296898E89891713
:101AD00008F49ACFD0936302C093620295CF0E941C
:101AE000A6081895CF93DF93CDB7DEB760970FB6F2
:101AF000F894DEBF0FBECDBF789484B5826084BDFC
:101B000084B5816084BD85B5826085BD85B5816001
:101B100085BD80916E00816080936E00109281007F
:101B2000809181008260809381008091810081603A
:101B300080938100809180008160809380008091FB
:101B4000B10084608093B1008091B0008160809387
:101B5000B00080917A00846080937A0080917A004E
:101B6000826080937A0080917A00816080937A000D
:101B700080917A00806880937A001092C100209151
:101B80000501309106018FEF98E0821B930B909333
:101B90000201809301010E940902ADE2B1E0FE0161
:101BA0003196BF018D918193882321F081E0AD337F
:101BB000B807C1F701EE11E020E040EC50E086EFFD
:101BC0009BE00E94470C882309F4B7C0813009F0DC
:101BD000B4C00FB6F8940F928091FB019091FC0174
:101BE000892B09F050C080EF91E00E94FA0587EE42
:101BF00091E00E94FA0580EF91E09093E6018093D6
:101C0000E50187EE91E09093E4018093E30181E5A3
:101C100090E00E94290C8C01009789F14F96F80101
:101C2000918380838AE0838F85E0848F0FB6F89458
:101C30000F9280819181238D448DBC01249F600D82
:101C4000711D112475836483128E938382832150C6
:101C5000330B429FB001439F700D1124860F971FD5
:101C6000978386838FEF858F868FC80108960E94A1
:101C7000FA05C80141960E94FA050F900FBE109315
:101C8000FC010093FB010F900FBE8091FB0190912E
:101C9000FC01892B09F451C009EF11E023E04CE568
:101CA00050E062E371E082E89AE00E94470C8130E4
:101CB00009F043C0F8942FEF3FEF309300022093D8
:101CC000FF01809361021092FE011092FD01A89520
:101CD00088E190EC0FB6F894A895809360000FBE51
:101CE00090936000A0916202B0916302CD91CDBF4C
:101CF000DD91DEBFFF91EF91DF91CF91BF91AF9169
:101D00009F918F917F916F915F914F913F912F9113
:101D10001F910F91FF90EF90DF90CF90BF90AF9009
:101D20009F908F907F906F905F904F903F902F90FB
:101D30001F900F900FBE0F900895809100010E9498
:101D4000090200E010E001151105E9F30E944301CA
:101D5000FACFE4E4F1E01382128288EE93E0A0E08F
:101D6000B0E084839583A683B7838BE091E0918371
:101D7000808385EC90E09587848784EC90E097875A
:101D8000868780EC90E0918B808B81EC90E0938B48
:101D9000828B82EC90E0958B848B86EC90E0978B25
:101DA000868B118E128E138E148E08950F931F93AF
:101DB000CF93DF938230910510F482E090E0E091C0
:101DC0006702F091680230E020E0B0E0A0E03097D8
:101DD00099F42115310509F44AC0281B390B243028
:101DE0003105D8F58A819B816115710589F1FB0167
:101DF00093838283FE0111C040815181028113814E
:101E000048175907E0F04817590799F4109761F0FF
:101E100012960C93129713961C933296CF01DF9172
:101E2000CF911F910F91089500936702109368025C
:101E3000F4CF2115310551F04217530738F0A901AD
:101E4000DB019A01BD01DF01F801C1CFEF01F9CF3C
:101E50009093680280936702CDCFFE01E20FF31FDB
:101E6000819391932250310939832883D7CF2091D0
:101E7000650230916602232B41F4209103013091D9
:101E80000401309366022093650220910101309194
:101E900002012115310541F42DB73EB740910501EE
:101EA00050910601241B350BE0916502F09166020A
:101EB000E217F307A0F42E1B3F0B2817390778F021
:101EC000AC014E5F5F4F2417350748F04E0F5F1F80
:101ED0005093660240936502819391939FCFF0E007
:101EE000E0E09CCFCF93DF930097E9F0FC013297BD
:101EF00013821282A0916702B0916802ED0130E076
:101F000020E01097A1F420813181820F931F20914E
:101F10006502309166022817390709F061C0F09315
:101F20006602E0936502DF91CF910895EA01CE1732
:101F3000DF07E8F54A815B819E0141155105B1F744
:101F4000E901FB83EA8349915991C40FD51FEC172E
:101F5000FD0761F4808191810296840F951FE9014C
:101F600099838883828193819B838A83F0E0E0E078
:101F700012968D919C9113970097B9F52D913C91F4
:101F80001197CD010296820F931F20916502309127
:101F900066022817390739F6309751F51092680212
:101FA00010926702B0936602A0936502BCCFD38300
:101FB000C28340815181840F951FC817D90761F4EE
:101FC0004E5F5F4F88819981480F591F518340832D
:101FD0008A819B81938382832115310509F0B0CFDB
:101FE000F0936802E09367029ECFFD01DC01C0CF51
:101FF00013821282D7CFA1E21A2EAA1BBB1BFD01AE
:102000000DC0AA1FBB1FEE1FFF1FA217B307E407D7
:10201000F50720F0A21BB30BE40BF50B661F771F2F
:10202000881F991F1A9469F760957095809590950F
:102030009B01AC01BD01CF010895EE0FFF1F05907C
:10204000F491E02D0994FB01DC0102C001900D9296
:1020500041505040D8F70895DC0101C06D934150C4
:0A2060005040E0F70895F894FFCF18
:10206A0003000069028000000000007201CF00FC3A
:10207A0000BF012D010B011F01426C696E6B00410B
:10208A006E616C6F6752656164000D0A0049444CC9
:0A209A004500546D72205376630078
:00000001FF
