:020000040000FA
:100000000C945D000C9485000C9485000C94850084
:100010000C9485000C9485000C94990D0C9485002B
:100020000C9485000C9485000C9485000C9485003C
:100030000C9485000C9485000C9485000C9485002C
:100040000C94E9020C9485000C9459030C9433032E
:100050000C9485000C9485000C9485000C9485000C
:100060000C9485000C94850000000008000201003B
:100070000003040700000000000000000000000072
:10008000250028002B0000000000240027002A0083
:10009000040404040404040402020202020203032E
:1000A0000303030301020408102040800102040836
:1000B0001020010204081020D30E11241FBECFEF20
:1000C000D8E0DEBFCDBF11E0A0E0B1E0EEEBF0E2A2
:1000D00002C005900D92A234B107D9F722E0A2E444
:1000E000B1E001C01D92A137B207E1F710E0CDE504
:1000F000D0E004C02197FE010E944710CC35D10703
:10010000C9F70E949C0D0C945D100C94000090E0C7
:10011000FC01EC55FF4F249180579F4FFC018491C7
:10012000882399F090E0880F991FFC01EA57FF4F50
:10013000A591B491FC01E458FF4F859194918FB73C
:10014000F894EC91E22BEC938FBF089590E0FC01C2
:10015000E859FF4F2491FC01EC55FF4F3491FC010D
:10016000E057FF4FE491EE23C9F0222339F023300A
:1001700001F1A8F4213019F1223029F1F0E0EE0F5D
:10018000FF1FE458FF4FA591B4918FB7F894EC91FD
:10019000611126C030953E233C938FBF08952730D0
:1001A000A9F02830C9F0243049F7809180008F7D74
:1001B00003C0809180008F7780938000DFCF84B56B
:1001C0008F7784BDDBCF84B58F7DFBCF8091B0006E
:1001D0008F778093B000D2CF8091B0008F7DF9CF20
:1001E0003E2BDACFAF92BF92CF92DF92EF92FF9287
:1001F0000F931F93CF93DF936C017B018B01040F4F
:10020000151FEB015E01AE18BF08C017D10759F0EA
:100210006991D601ED91FC910190F081E02DC6012C
:100220000995892B79F7C501DF91CF911F910F9126
:10023000FF90EF90DF90CF90BF90AF900895FC01BA
:10024000538D448D252F30E0842F90E0821B930B3B
:10025000541710F0CF96089501970895FC01918DE1
:10026000828D981761F0A28DAE0FBF2FB11D5D96E4
:100270008C91928D9F5F9F73928F90E008958FEF86
:100280009FEF0895FC01918D828D981731F0828D3A
:10029000E80FF11D858D90E008958FEF9FEF089591
:1002A000FC01918D228D892F90E0805C9F4F821BF5
:1002B00091098F73992708958CE491E00E94500171
:1002C00021E0892B09F420E0822F08950E945C012F
:1002D00081110C940000089580E090E0892B11F0CA
:1002E0000C9466010895FC01A48DA80FB92FB11DCF
:1002F000A35ABF4F2C91848D90E001968F7399275C
:10030000848FA689B7892C93A089B1898C91837039
:1003100080648C93938D848D981306C00288F38932
:10032000E02D80818F7D80830895EF92FF920F935F
:100330001F93CF93DF93EC0181E0888F9B8D8C8D91
:1003400098131AC0E889F989808185FF15C09FB785
:10035000F894EE89FF896083E889F9898081837048
:10036000806480839FBF81E090E0DF91CF911F91F7
:100370000F91FF90EF900895F62E0B8D10E00F5F18
:100380001F4F0F731127E02E8C8D8E110CC00FB6EE
:1003900007FCFACFE889F989808185FFF5CFCE0186
:1003A0000E947301F1CFEB8DEC0FFD2FF11DE35A8D
:1003B000FF4FF0829FB7F8940B8FEA89FB89808109
:1003C0008062CFCFCF93DF93EC01888D8823B9F083
:1003D000AA89BB89E889F9898C9185FD03C0808150
:1003E00086FD0DC00FB607FCF7CF8C9185FFF2CFCD
:1003F000808185FFEDCFCE010E947301E9CFDF91AF
:10040000CF9108958CE00E94870061E08CE00E940B
:10041000A6008EE390E00E94BE0860E08CE00E949F
:10042000A6008EE390E00E94BE08EFCF8DE00E9410
:10043000870061E08DE00E94A6008EE390E00E94BC
:10044000BE0860E08DE00E94A6008EE390E00E946E
:10045000BE08EFCF0F931F93ECE4F1E0A089B189C0
:1004600082E08C93A485B5851C92A685B7858FEC18
:100470008C93108EA489B58986E08C93A289B38968
:100480008C9180618C93A289B3898C9188608C93C4
:10049000A289B3898C9180688C930288F389E02DBE
:1004A00080818F7D808310E000E022E040E850E012
:1004B00069E171E086E192E00E94710C23E040E87E
:1004C00050E06FE171E082E092E00E94710C21E067
:1004D00040E850E066E271E083E792E00E94710C30
:1004E0001F910F910895CF93DF93CDB7DEB7A197FA
:1004F0000FB6F894DEBF0FBECDBF10E48AE0882EA1
:10050000912CA12CB12C10937C0080917A008064F6
:1005100080937A0080917A0086FDFCCFC0907800AD
:10052000D09079000D2C000CEE08FF08F7FE3BC0C0
:100530006DE28CE491E00E94950122273327A90106
:100540002C193D094E095F0919A2CE0181967C0143
:10055000CA01B901A50194010E942510605DF7014F
:1005600062937F01211531054105510589F7E11499
:10057000F10461F001900020E9F73197AF014E19C5
:100580005F09B7018CE491E00E94F20042E050E084
:1005900061E371E08CE491E00E94F20081E090E080
:1005A0000E94BE08B0CFA701960119A2CE01819684
:1005B0007C01CA01B901A50194010E942510605D6A
:1005C000F70162937F01211531054105510589F736
:1005D000CECF1F920F920FB60F9211242F933F93FD
:1005E0008F939F93AF93BF9380910E0290910F02D0
:1005F000A0911002B091110230910D0223E0230F5F
:100600002D3758F50196A11DB11D20930D02809341
:100610000E0290930F02A0931002B09311028091EA
:10062000090290910A02A0910B02B0910C0201966E
:10063000A11DB11D8093090290930A02A0930B02A1
:10064000B0930C02BF91AF919F918F913F912F91E9
:100650000F900FBE0F901F90189526E8230F02965B
:10066000A11DB11DD2CF1F920F920FB60F92112470
:100670002F933F934F935F936F937F938F939F93AA
:10068000AF93BF93EF93FF938CE491E00E947301CB
:10069000FF91EF91BF91AF919F918F917F916F915A
:1006A0005F914F913F912F910F900FBE0F901F9030
:1006B00018951F920F920FB60F9211242F938F93BC
:1006C0009F93EF93FF93E0915C01F0915D01808136
:1006D000E0916201F091630182FD1BC090818091E5
:1006E00065018F5F8F7320916601821741F0E09161
:1006F0006501F0E0E45BFE4F958F80936501FF910B
:10070000EF919F918F912F910F900FBE0F901F909F
:1007100018958081F4CFE0911402F0911502808148
:10072000811107C08FEF9FEF90930802809307021B
:100730000895E0911402F09115020580F681E02DF4
:1007400080819181F1CFCF93DF93DC011596ED91FC
:10075000FC910680F781E02DA489B589868597856F
:1007600020893189EC013D832C83C089D1899B8309
:100770008A83CF010C9611962D913C9112972817E0
:10078000390721F41296DC93CE931197158A148AB7
:100790002C9121502C9320914701211157C0A28503
:1007A000B3858481958126813781EC013D832C833B
:1007B000C681D7819B838A83CF01029611962D91A2
:1007C0003C9112972817390721F41296DC93CE93A7
:1007D0001197138612862C9121502C93C689209153
:1007E00067022C1710F4C093670229E02C9FE001E8
:1007F0001124CD5BDD4F0980DA81C02DD583C48300
:100800004C815D8157834683AC81BD8113969C9357
:100810008E9312979D838C83A689A29FD001112469
:10082000AD5BBD4FB387A2878C918F5F8C93A091F6
:100830006A02B0916B02968956968C91891730F5B1
:1008400081E080934601DF91CF910895A091290224
:10085000B0912A02B787A68714962D913C911597DF
:10086000318B208B1496CD91DC9115979B838A83D5
:1008700015969C938E93149788E292E0958B848BC7
:10088000809128028F5F80932802D1CF80E0DBCF58
:100890000FB6F8940F9280910502909106020F9086
:1008A0000FBE0895809147018F5F8093470108959F
:1008B0000FB6F8940F92FC01928D0F900FBE81E05D
:1008C000911180E00895EF92FF920F931F93CF93C1
:1008D000DF93EC010FB6F8940F921E8D7C0181E13D
:1008E000E80EF11C01E01116D4F08FEF8E8F0F90FF
:1008F0000FBE0FB6F8940F921D8D7E0188E0E80EB2
:10090000F11C01E01116B4F08FEF8D8F0F900FBE28
:10091000DF91CF911F910F91FF90EF9008958989FA
:10092000882319F3C7010E94A30381110093460194
:100930001150D9CF8885882339F3C7010E94A303BA
:100940008111009346011150DDCFCF93DF93FC015D
:10095000A085B1858281938124813581EC013D831D
:100960002C83C481D5819B838A8311968D919C9120
:1009700012978E179F0721F41296DC93CE9311974E
:10098000118610868C9181508C93DF91CF910895C0
:100990000F931F93CF93DF938C01FB018081918193
:1009A000D80113968F3F9807F1F4E801AF81B8851D
:1009B00012968D919C91139793838283EC01FD8312
:1009C000EC83B583A4831396FC93EE93129711875F
:1009D0000087F80180818F5F8083DF91CF911F9125
:1009E0000F910895D90112962D913C911397E90129
:1009F0004881598184179507A8F7DACFFC017383E2
:100A00006283918780874617570790F0421B530BEC
:100A10008485958548175907C8F4BF016E5F7F4FDD
:100A20008091EB019091EC010E94C80480E0089550
:100A30004217530718F46217730740F4BF016E5F43
:100A40007F4F8091ED019091EE01EECF81E008950E
:100A5000EF92FF920F931F93CF93DF93EC018B01E3
:100A60007A016C857D85600F711F9801A701CE0109
:100A70000E94FE04811107C0DF91CF911F910F9159
:100A8000FF90EF9008958C859D85080F191FE889C8
:100A9000F989CE010995E5CFEF92FF920F931F934D
:100AA000CF93DF938C017B01E091ED01F091EE019A
:100AB0000580F681E02DC681D781CE0102960E9485
:100AC000A5048A8982FF0FC0A701B801CE010E9448
:100AD0002805E889F989CE01DF91CF911F910F9107
:100AE000FF90EF9009948E7F8A8BF3CFE091ED0118
:100AF000F091EE01808181110DC08091EB01909108
:100B0000EC019093EE018093ED01F093EC01E09302
:100B1000EB0108950580F681E02D6FEF7FEF808176
:100B200091810E944C05E2CFBF92CF92DF92EF926B
:100B3000FF920F931F93CF93DF93EC01B62EC090DB
:100B40000502D09006020091140210911502E09067
:100B50001202F090130280916A0290916B02029649
:100B60000E94A504CF3FDC0709F042C0BB2009F476
:100B70003FC0E0911702F0911802A0916A02B09173
:100B80006B021596FC93EE931497A0916A02B091B4
:100B90006B028481958117969C938E931697809112
:100BA0006A0290916B02A481B581029613969C9380
:100BB0008E93129780916A0290916B0202969583B0
:100BC0008483E0916A02F0916B0286E192E0938760
:100BD0008287809116028F5F80931602DF91CF91FA
:100BE0001F910F91FF90EF90DF90CF90BF900895ED
:100BF000CC0DDD1DE0916A02F0916B02D383C283BC
:100C000060916A0270916B026E5F7F4FCC15DD05BB
:100C100060F4C701DF91CF911F910F91FF90EF908A
:100C2000DF90CF90BF900C94C804C8010E94C80404
:100C30008091070290910802C817D90778F6D093DF
:100C40000802C0930702CACFFC01039692838183F6
:100C50002FEF3FEF348323839683858390878783A9
:100C6000108208950F920FB6F8940F921F921124DC
:100C70002F923F924F925F926F927F928F929F92AC
:100C8000AF92BF92CF92DF92EF92FF920F931F939A
:100C90002F933F934F935F936F937F938F939F9384
:100CA000AF93BF93CF93DF93EF93FF93A0916A022B
:100CB000B0916B020DB60D920EB60D928091470168
:100CC000882321F081E08093460161C010924601A3
:100CD000A0916A02B0916B02E0916A02F0916B02FE
:100CE0002D913C918789908D82179307A8F0809170
:100CF0006A0290916B0280916A0290916B02259A30
:100D00002D9A2FEF87EA91E6215080409040E1F73D
:100D100000C000001D9AF5CF2091670289E001C054
:100D20002150422F50E0849FF001859FF00D112447
:100D3000ED5BFD4F9081992399F3A181B2811296C9
:100D40006D917C9172836183289FC00111248A5B1D
:100D50009D4F6817790721F485819681928381835D
:100D600089E0849FF001859FF00D1124ED5BFD4F1C
:100D70000180F281E02D8681978190936B028093B0
:100D80006A022093670280916A0290916B02A0919F
:100D90006A02B0916B02CD91CDBFDD91DEBFFF91B4
:100DA000EF91DF91CF91BF91AF919F918F917F9103
:100DB0006F915F914F913F912F911F910F91FF90F4
:100DC000EF90DF90CF90BF90AF909F908F907F90EB
:100DD0006F905F904F903F902F901F900F900FBE9D
:100DE0000F9008958F929F92BF92CF92DF92EF92D1
:100DF000FF920F931F93CF93DF930FB6F8940F9248
:100E00008091470181508093470180914701882359
:100E100079F080E00F900FBEDF91CF911F910F917D
:100E2000FF90EF90DF90CF90BF909F908F900895AC
:100E300080916C02882369F3E0902D02F0902E02DD
:100E4000F0E0E0E039E041E08091280281115EC0ED
:100E5000EF2B11F00E948B03E0904401F0904501CC
:100E6000E114F10409F47DC189E0D82ECC24C394A7
:100E70000FEF1FEF80914701811161C1C091050201
:100E8000D09106024E018FEF881A980A90920602BE
:100E90008092050281149104B9F48091140290911A
:100EA0001502209112023091130230931502209303
:100EB0001402909313028093120280914B018F5F72
:100EC00080934B010E948B0380910702909108024E
:100ED000B12C8816990608F026C1E0916A02F091BB
:100EE0006B02E689DE9EF0011124ED5BFD4F8081EF
:100EF000823010F0BB24B39480914601811103C06D
:100F0000BB2009F425C1C092460122C1D701169623
:100F1000ED91FC91A489B589668577858089918951
:100F2000EB019D838C8380899189EC017B836A83AB
:100F3000BF01645F7F4F11960D911C9112970617A8
:100F4000170721F412969C938E931197158A148A91
:100F50008C9181508C93A285B38584819581668123
:100F60007781EC017D836C8366817781EB019B83C4
:100F70008A83CF01029611960D911C911297081742
:100F8000190721F412967C936E931197138612869B
:100F90002C9121502C93A689209167022A1710F4D6
:100FA000A09367023A9FD0011124AD5BBD4F11960B
:100FB0000D90BC91A02DB583A48314966D917C9166
:100FC00015977783668314966D917C911597EB0145
:100FD0009B838A8315969C938E9314979689939FEF
:100FE000D0011124AD5BBD4FB387A2878C918F5F79
:100FF0008C93A0916A02B0916B0256968C918917DE
:1010000008F022CF409346011FCFE0911402F091E7
:1010100015020580F681E02D0680F781E02D8281A2
:1010200093818816990628F490930802809307020A
:1010300054CFC285D3858481958126813781DC0197
:1010400015963C932E93149726813781D9011396D8
:101050009C938E931297CF01029649815A8148172B
:10106000590711F43A832983138612862881215067
:101070002883A489B5891097F9F02685378540899A
:101080005189E9015D834C8340895189EA013B83A1
:101090002A8311966D917C9112979F01245F3F4F97
:1010A0006217730721F412965C934E931197158A79
:1010B000148A2C9121502C93A689209167022A171B
:1010C00010F4A0936702DA9ED0011124AD5BBD4FEE
:1010D00011960D90BC91A02DB583A48314962D91EB
:1010E0003C9115973783268314962D913C91159743
:1010F000E9019B838A8315969C938E931497968916
:101100009D9DD0011124AD5BBD4FB387A2878C910B
:101110008F5F8C93E0916A02F0916B028689891748
:1011200010F4BB24B394E0911402F0911502808175
:1011300081116BCF1093080200930702CECE8091ED
:10114000440190914501019690934501809344019B
:10115000D1E0ED1AF10809F08DCE10924501109200
:10116000440180914601882309F453CE80916A029C
:1011700090916B020E94320681E04CCECF93DF93B8
:10118000EC010E94520460E0CE010E9494050E948E
:10119000F206811102C00E943206DF91CF910895BC
:1011A0000F920FB6F8940F921F9211242F923F9234
:1011B0004F925F926F927F928F929F92AF92BF9267
:1011C000CF92DF92EF92FF920F931F932F933F9353
:1011D0004F935F936F937F938F939F93AF93BF933F
:1011E000CF93DF93EF93FF93A0916A02B0916B02CC
:1011F0000DB60D920EB60D9213BE8091470181116E
:10120000F9C0809105029091060201969093060222
:1012100080930502009781F5209114023091150208
:101220004091120250911302509315024093140200
:10123000309313022093120220914B012F5F2093D1
:101240004B01E0911402F09115022081211107C099
:101250002FEF3FEF30930802209307020DC0E0917B
:101260001402F09115020580F681E02D2081318174
:101270003093080220930702209107023091080260
:101280008217930710F420E0A1C020E039E0D32EAC
:10129000E0911402F09115023081311107C08FEFF7
:1012A0009FEF909308028093070290C0E091140290
:1012B000F09115020580F681E02D0680F781E02D82
:1012C000428153818417950728F450930802409374
:1012D00007027CC0A285B3854481558166817781F0
:1012E000EA017D836C8366817781EB015B834A83AE
:1012F000AF014E5F5F4F11960D911C91129704172D
:10130000150721F412967C936E931197138612861B
:101310003C9131503C93A489B5891097F9F06685CA
:10132000778500891189EB011D830C830089118960
:10133000E8017B836A831196ED90FC901297BF01C0
:10134000645F7F4FE616F70621F412961C930E9306
:101350001197158A148A3C9131503C93A68930919B
:1013600067023A1710F4A0936702DA9ED0011124A5
:10137000AD5BBD4F11960D90BC91A02DB583A4839C
:1013800014966D917C9115977783668314966D9171
:101390007C911597EB015B834A8315965C934E9382
:1013A000149746894D9DD0011124AD5BBD4FB38785
:1013B000A2873C913F5F3C93E0916A02F0916B02FF
:1013C0003689341708F064CF21E062CFE0916A02D9
:1013D000F0916B02E689D9E0ED9FF0011124ED5BFD
:1013E000FD4F8081823008F021E08091460181111B
:1013F0000EC00AC0809144019091450101969093DE
:101400004501809344016CC0222309F469C0809196
:101410004701882321F081E08093460161C010924A
:101420004601A0916A02B0916B02E0916A02F091CC
:101430006B022D913C918789908D82179307A8F0BC
:1014400080916A0290916B0280916A0290916B0286
:10145000259A2D9A2FEF87EA91E6215080409040FF
:10146000E1F700C000001D9AF5CF2091670289E0E6
:1014700001C02150422F50E0849FF001859FF00D64
:101480001124ED5BFD4F9081992399F3A181B281E5
:1014900012966D917C9172836183289FC001112403
:1014A0008A5B9D4F6817790721F485819681928325
:1014B000818389E0849FF001859FF00D1124ED5B0D
:1014C000FD4F0180F281E02D8681978190936B0220
:1014D00080936A022093670280916A0290916B0266
:1014E000A0916A02B0916B02CD91CDBFDD91DEBFBC
:1014F000FF91EF91DF91CF91BF91AF919F918F912C
:101500007F916F915F914F913F912F911F910F911B
:10151000FF90EF90DF90CF90BF90AF909F908F9013
:101520007F906F905F904F903F902F901F900F9003
:101530000FBE0F900895CF93DF93009751F0EC0109
:101540000E945204CE010E949C0FDF91CF910C9417
:10155000F206DF91CF910895CF93DF9300D000D0B2
:101560001F92CDB7DEB785E0B82ECE0101967C0183
:10157000E091ED01F091EE011081D12CC12C1123ED
:1015800029F00580F681E02DC080D1800E945204B0
:101590000E9448044C018091490190914A018816AB
:1015A000990608F089C00E94760590924A018092BF
:1015B00049010E94F206D701EB2D1D92EA95E9F749
:1015C00000910302109104020FB6F8940F92D80113
:1015D0005A96DC905A97DD2009F42FC15C964C9105
:1015E0005C974423F9F050E016968D919C911797E3
:1015F000840F951F17969C938E93169714962D9192
:101600003C9115978217930738F08D919C91119713
:1016100017969C938E931697F80166817781C70180
:101620000E944D10DA94D8015A96DC925A97189677
:101630008C91882339F0C80108960E94A303811178
:101640000E9432060F900FBEA980A7FCB9CF0C8173
:101650001D81D8011A968D919C91892B21F0C8018A
:1016600002960E94A5040E9448046C0180914901E1
:1016700090914A01C816D90610F40E947605D092BE
:101680004A01C0924901EFEFEA0DE93008F098CF26
:101690000E2E000CFF0BED5AF44FD80152968C9190
:1016A00052970C944710D60BD60B190C010C130C47
:1016B000D60BD60B190C010C90924A01809249016D
:1016C000112351F08C149D0470F00E94F206B401B5
:1016D000C6010E944C056FCFE091EB01F091EC0147
:1016E00061E08081811160E00091030210910402A9
:1016F0000FB6F8940F92D8015D968C915D978F3F4D
:1017000011F45D961C92F801868D8F3F09F4168EB8
:101710000F900FBED8015A968C915A9781113CC0F8
:101720005296ED91FC91A0916A02B0916B021F96C6
:10173000FC93EE931E97A0916A02B0916B02848194
:10174000958151969C938E93509780916A029091C7
:101750006B02A481B5810C9613969C938E9312977D
:1017600080916A0290916B020C9695838483E0913C
:101770006A02F0916B02C8014196958B848BF80147
:1017800081898F5F818BC60188199909662311F0C1
:101790008FEF9FEF0E949405C8010E9463040E948E
:1017A000F206811108CF0E94320605CF8160F80150
:1017B000828B8A809B8064857585680D791D940174
:1017C000A601C8010E94FE04882309F4F9CED801BD
:1017D00052968C91529782FF10C01C966D917C910D
:1017E000680D791DA601C8010E942805D8015096F0
:1017F000ED91FC91C8010995E3CE8E7FF801828BB3
:10180000F5CF816052968C9352976A817B811D96A9
:101810007C936E931C976C0D7D1D9601A601C801EB
:101820000E94FE04CDCE81FD04C0C8010E949B0A27
:10183000C7CE8E7FF801828BC3CE0F900FBE98CE9D
:1018400000E010E08091480181110CC080914302BA
:10185000823010F00E9432060115110599F30E94A2
:101860006601F0CF0FB6F8940F92E0912402F09148
:101870002502C681D781CE0102960E94A5048091DF
:101880006C02815080936C0280914801815080935A
:1018900048010F900FBE8F89988D0E949B0ACE0140
:1018A0000E949B0ACFCFCF93DF93EC010E9452049A
:1018B000CE010E94000FEC010E94F206209769F40D
:1018C000259A2D9A2FEF80E792E02150804090409A
:1018D000E1F700C000001D9AF5CFCE01DF91CF9156
:1018E00008957F928F929F92AF92BF92CF92DF9294
:1018F000EF92FF920F931F93CF93DF93982EA92E11
:10190000762E872E7A01B22ECA010E94530C6C01EA
:10191000892B09F4EDC080E390E00E94530CEC01A8
:10192000892B09F4E2C080E3DE011D928A95E9F774
:10193000D88ECF8AA70165EA70E0C6010E945610D2
:10194000B1E0EB1AF108EF89F88DEE0DFF1D672D60
:10195000782DCE0149969B01205F3F4FDB014D91D1
:10196000BD01DC014D93CD01AB0141505109DA01BC
:101970004C91442319F02617370781F718A6BE8A21
:10198000B9A61B861A861D8A1C8AD987C88784E057
:1019900090E08B1991099D878C87DB8BCA8B908295
:1019A000DF011197AC9211971C92119780E88C93EC
:1019B00011971C9257971C9211971C92B397F98319
:1019C000E8830115110519F0F801D183C0830FB622
:1019D000F8940F9280916C028F5F80936C028091DB
:1019E0006A0290916B02892B09F091C0D0936B022F
:1019F000C0936A0280916C02813081F583E492E0A9
:101A00000E9424068CE492E00E94240685E592E080
:101A10000E9424068EE592E00E9424068AE392E06A
:101A20000E94240681E392E00E94240688E292E06C
:101A30000E9424068FE192E00E94240686E192E053
:101A40000E9424068AE392E0909315028093140288
:101A500081E392E0909313028093120280916802D6
:101A60008F5F80936802AE89809167028A1710F4B5
:101A7000A093670229E02A9FD0011124AD5BBD4FDE
:101A800011960D90BC91A02DBD83AC8314968D91C1
:101A90009C9115979F838E831496ED91FC911597D9
:101AA000CE0102969383828315969C938E9314970E
:101AB000EE89E29FF0011124ED5BFD4FFB87EA8781
:101AC00080818F5F80830F900FBE80916902882391
:101AD00051F0E0916A02F0916B0296898E89981715
:101AE00010F40E94320681E004C0C6010E949B0AE5
:101AF0008FEFDF91CF911F910F91FF90EF90DF90CB
:101B0000CF90BF90AF909F908F907F9008958091DD
:101B100069028111A3CFE0916A02F0916B0296896C
:101B20008E89891708F49ACFD0936B02C0936A020A
:101B300095CF0E94D0081895CF93DF93CDB7DEB72D
:101B400060970FB6F894DEBF0FBECDBF789484B512
:101B5000826084BD84B5816084BD85B5826085BDA9
:101B600085B5816085BD80916E00816080936E0037
:101B70001092810080918100826080938100809129
:101B800081008160809381008091800081608093DA
:101B900080008091B10084608093B1008091B0009A
:101BA00081608093B00080917A00846080937A0095
:101BB00080917A00826080937A0080917A008160BF
:101BC00080937A0080917A00806880937A001092E6
:101BD000C10020910501309106018FEF98E0821B32
:101BE000930B90930201809301010E942A02A4E3C7
:101BF000B1E0FE013196BF018D918193882321F0E0
:101C000081E0A434B807C1F709EE11E020E040EC10
:101C100050E080E29CE00E94710C882309F4B7C078
:101C2000813009F0B4C00FB6F8940F92809103028E
:101C300090910402892B09F050C088EF91E00E9436
:101C400024068FEE91E00E94240688EF91E09093A5
:101C5000EE018093ED018FEE91E09093EC01809383
:101C6000EB0181E590E00E94530C8C01009789F113
:101C70004F96F801918380838AE0838F85E0848F7B
:101C80000FB6F8940F9280819181238D448DBC0111
:101C9000249F600D711D112475836483128E9383BC
:101CA00082832150330B429FB001439F700D11245A
:101CB000860F971F978386838FEF858F868FC80146
:101CC00008960E942406C80141960E9424060F909F
:101CD0000FBE10930402009303020F900FBE809179
:101CE000030290910402892B09F451C001E012E033
:101CF00023E04CE550E069E371E08CEA9AE00E9451
:101D0000710C813009F043C0F8942FEF3FEF30930E
:101D10000802209307028093690210920602109233
:101D20000502A89588E190EC0FB6F894A8958093E9
:101D300060000FBE90936000A0916A02B0916B02A8
:101D4000CD91CDBFDD91DEBFFF91EF91DF91CF91BE
:101D5000BF91AF919F918F917F916F915F914F91C3
:101D60003F912F911F910F91FF90EF90DF90CF90B7
:101D7000BF90AF909F908F907F906F905F904F90AB
:101D80003F902F901F900F900FBE0F90089580915D
:101D900000010E942A0200E010E001151105E9F39C
:101DA0000E946601FACFECE4F1E01382128288EE21
:101DB00093E0A0E0B0E084839583A683B7838BE0B3
:101DC00091E09183808385EC90E09587848784EC13
:101DD00090E09787868780EC90E0918B808B81ECF8
:101DE00090E0938B828B82EC90E0958B848B86ECD9
:101DF00090E0978B868B118E128E138E148E089521
:101E00000F931F93CF93DF938230910510F482E0FC
:101E100090E0E0916F02F091700230E020E0B0E0DD
:101E2000A0E0309799F42115310509F44AC0281B28
:101E3000390B24303105D8F58A819B8161157105F4
:101E400089F1FB0193838283FE0111C0408151819E
:101E50000281138148175907E0F04817590799F490
:101E6000109761F012960C93129713961C9332966A
:101E7000CF01DF91CF911F910F91089500936F02D1
:101E800010937002F4CF2115310551F0421753071A
:101E900038F0A901DB019A01BD01DF01F801C1CFD2
:101EA000EF01F9CF9093700280936F02CDCFFE01C6
:101EB000E20FF31F819391932250310939832883D4
:101EC000D7CF20916D0230916E02232B41F42091E7
:101ED00003013091040130936E0220936D02209132
:101EE0000101309102012115310541F42DB73EB7B2
:101EF0004091050150910601241B350BE0916D02C4
:101F0000F0916E02E217F307A0F42E1B3F0B281787
:101F1000390778F0AC014E5F5F4F2417350748F062
:101F20004E0F5F1F50936E0240936D028193919309
:101F30009FCFF0E0E0E09CCFCF93DF930097E9F0F4
:101F4000FC01329713821282A0916F02B09170024D
:101F5000ED0130E020E01097A1F420813181820F63
:101F6000931F20916D0230916E022817390709F0F6
:101F700061C0F0936E02E0936D02DF91CF910895FE
:101F8000EA01CE17DF07E8F54A815B819E01411522
:101F90005105B1F7E901FB83EA8349915991C40FD7
:101FA000D51FEC17FD0761F4808191810296840FA3
:101FB000951FE90199838883828193819B838A831A
:101FC000F0E0E0E012968D919C9113970097B9F59F
:101FD0002D913C911197CD010296820F931F209174
:101FE0006D0230916E022817390739F6309751F596
:101FF0001092700210926F02B0936E02A0936D0265
:10200000BCCFD383C28340815181840F951FC817F1
:10201000D90761F44E5F5F4F88819981480F591F3E
:10202000518340838A819B8193838283211531056B
:1020300009F0B0CFF0937002E0936F029ECFFD01E4
:10204000DC01C0CF13821282D7CFA1E21A2EAA1BC5
:10205000BB1BFD010DC0AA1FBB1FEE1FFF1FA21758
:10206000B307E407F50720F0A21BB30BE40BF50B55
:10207000661F771F881F991F1A9469F760957095DE
:10208000809590959B01AC01BD01CF010895EE0FA5
:10209000FF1F0590F491E02D0994FB01DC0102C0C3
:1020A00001900D9241505040D8F70895DC0101C0D5
:1020B0006D9341505040E0F70895F894FFCF03002E
:1020C0000071028000000000009501F2001F01E293
:1020D0000150012E014201426C696E6B00426C6935
:1020E0006E6B3200416E616C6F6752656164000D0A
:1020F0000A0049444C4500546D7220537663000039
:107E0000112484B714BE81FFF0D085E080938100F7
:107E100082E08093C00088E18093C10086E0809377
:107E2000C20080E18093C4008EE0C9D0259A86E02C
:107E300020E33CEF91E0309385002093840096BBD3
:107E4000B09BFECF1D9AA8958150A9F7CC24DD24C4
:107E500088248394B5E0AB2EA1E19A2EF3E0BF2EE7
:107E6000A2D0813461F49FD0082FAFD0023811F036
:107E7000013811F484E001C083E08DD089C08234E0
:107E800011F484E103C0853419F485E0A6D080C0E4
:107E9000853579F488D0E82EFF2485D0082F10E0AE
:107EA000102F00270E291F29000F111F8ED06801E7
:107EB0006FC0863521F484E090D080E0DECF843638
:107EC00009F040C070D06FD0082F6DD080E0C81688
:107ED00080E7D80618F4F601B7BEE895C0E0D1E017
:107EE00062D089930C17E1F7F0E0CF16F0E7DF06D8
:107EF00018F0F601B7BEE89568D007B600FCFDCFD4
:107F0000A601A0E0B1E02C9130E011968C91119780
:107F100090E0982F8827822B932B1296FA010C0160
:107F200087BEE89511244E5F5F4FF1E0A038BF0790
:107F300051F7F601A7BEE89507B600FCFDCF97BE46
:107F4000E89526C08437B1F42ED02DD0F82E2BD052
:107F50003CD0F601EF2C8F010F5F1F4F84911BD097
:107F6000EA94F801C1F70894C11CD11CFA94CF0C13
:107F7000D11C0EC0853739F428D08EE10CD085E9AC
:107F80000AD08FE07ACF813511F488E018D01DD067
:107F900080E101D065CF982F8091C00085FFFCCF94
:107FA0009093C60008958091C00087FFFCCF809118
:107FB000C00084FD01C0A8958091C6000895E0E648
:107FC000F0E098E1908380830895EDDF803219F02E
:107FD00088E0F5DFFFCF84E1DECF1F93182FE3DFCA
:107FE0001150E9F7F2DF1F91089580E0E8DFEE27F6
:047FF000FF270994CA
:027FFE00040479
:00000001FF
