:100000000C94210C0C94490C0C94490C0C94490C44
:100010000C94490C0C94490C0C94490C0C94490C0C
:100020000C94490C0C94490C0C94490C0C94490CFC
:100030000C94490C0C94490C0C94490C0C94490CEC
:100040000C9438130C94490C0C94490C0C94490CE6
:100050000C94490C0C94490C0C94490C0C94490CCC
:100060000C94490C0C94490C018001801A58366C90
:100070002004118833CCC663C66333CC11882004B6
:10008000366C1A58018001800000000000003F8794
:100090002084208420842084208420842084208440
:1000A0002084E0FC00000000000007E01FF83C3C5A
:1000B000781E6006C003C003C003C003700E700E3C
:1000C000381CF81FF81F0000000003C007E00C30C8
:1000D0000C300C300C300C300FF00FF00C300C30BA
:1000E0000C300C300C300000FC3F600C600830100D
:1000F0003010181018200C200C400E40068006808E
:100100000380030001000100FFE0FFD1AFFF32FFD9
:10011000D0FFFEFFE0FFD1AEFFD0FFFEFFE0FFD13A
:100120001000FFFEFFD0FFE0FFC1FFD1AED580A8D9
:100130003FD300408D142000A1C8DA1281CFD9F13D
:10014000DB402EA4A6AFFFD0FFFE000000000000A1
:10015000000000000000000000000000000000009F
:10016000000000000000000000020000000000008D
:10017000000000000000000000020000000000007D
:10018000000000000000000000020000000000006D
:10019000000000000000000000020000000000005D
:1001A000000000000000000000020000000000004D
:1001B000000000000000000000020000000000003D
:1001C000000000000000000000020000000000002D
:1001D000000000000000000000000000000000001F
:1001E000000000000000000000000000000000000F
:1001F00000000000000000000002000000000000FD
:1002000000000000000000000002000000000000EC
:1002100000000000000000000002000000000000DC
:1002200000000000000000000002000000000000CC
:1002300000000000000000000002000000000000BC
:1002400000000000000000000002000000000000AC
:10025000000000000000000000020000000000009C
:10026000000000000000000000000000000000008E
:10027000000000000000000000000000000000007E
:10028000000000000000000000020000000000006C
:10029000000000000000000000020000000000005C
:1002A000000000000000000000023FFFFFFFFFFF12
:1002B000FFFFFFFFFFFFFFFFFFC240000000000045
:1002C000000000000000000000228000000000008C
:1002D000000000000000000000128000000000008C
:1002E000000000000000000000128000000000007C
:1002F000000000000000000000108000000000006E
:10030000000000000000000000108000000000005D
:10031000000000000000000000128000000000004B
:10032000000000000000000000128000000000003B
:10033000000000000000000000128000000000002B
:10034000000000000000000000128000000000001B
:10035000000000000000000000128000000000000B
:1003600000000000000000000012800000000000FB
:1003700000000000000000000012800000000000EB
:1003800000000000000000000010800000000000DD
:1003900000000000000000000010800000000000CD
:1003A00000000000000000000012800000000000BB
:1003B00000000000000000000012800000000000AB
:1003C00000000000000000000012400000000000DB
:1003D000000000000000000000223FFFFFFFFFFFC1
:1003E000FFFFFFFFFFFFFFFFFFC200000000000054
:1003F00000000000000000000002000000000000FB
:1004000000000000000000000002000000000000EA
:1004100000000000000000000000000000000000DC
:1004200000000000000000000000000000000000CC
:1004300000000000000000000002000000000000BA
:1004400000000000000000000002000000000000AA
:10045000000000000000000000020000000000009A
:10046000000000000000000000020000000000008A
:10047000000000000000000000020000000000007A
:10048000000000000000000000020000000000006A
:10049000000000000000000000020000000000005A
:1004A000000000000000000000000000000000004C
:1004B000000000000000000000000000000000003C
:1004C000000000000000000000020000000000002A
:1004D000000000000000000000020000000000001A
:1004E000000000000000000000020000000000000A
:1004F00000000000000000000002000000000000FA
:1005000000000000000000000002000000000000E9
:1005100000000000000000000002000000000000D9
:1005200000000000000000000002000000000000C9
:1005300000000000000000000000000000000000BB
:100540000000000000000000000000000000240087
:1005500027002A0000000000250028002B000000D2
:1005600000002300260029000404040404040404F9
:10057000020202020202030303030303010204084E
:1005800010204080010204081020010204081020FD
:100590000000000800020100000304070000000042
:1005A0000000000001070E00FE0A0189031E20FF63
:1005B000FE0CFE0BFE0E0070222A7AC0C0C0C0C026
:1005C000C0C000C0C0195474D8D8D8D8026A7A788C
:1005D0007878FC7878FC787878016B7B3078B4B4E4
:1005E000703834B4B47830026A7A6CDCD870102079
:1005F000386CECD8026A7A386C6C6C386CDCD8D801
:100600006C292474C0C0C0C0105D7D18306060C00B
:10061000C0C0C0C060603018105D7DC06030301850
:1006200018181818303060C0056777B4B47830787F
:10063000B4B4036777303030FC303030203474E0AD
:100640006060C0066171FC222272C0C0006D7D0C2A
:100650000C0C18183030306060C0C0C0026A7A7864
:10066000CCCCCCCCCCCCCCCC78026A7A3070F0300C
:100670003030303030FC026A7A78CCCC0C1818302C
:1006800060C0FC026A7A78CCCC0C380C0CCCCC78EC
:10069000026A7A0818183878D8D8FC1818026A7ACA
:1006A000FCC0C0F8CC0C0CCCCC78026A7A386CCC8C
:1006B000C0F8CCCCCCCC78026A7AFCCCD8183030DC
:1006C00030303030026A7A78CCCCCC7878CCCCCC54
:1006D00078026A7A78CCCCCCCC7C0CCCD87023272E
:1006E00077C0C0000000C0C0213979606000000000
:1006F000E06060C00269790C183060C06030180C8E
:10070000046474FC0000FC026979C06030180C18A5
:100710003060C0026A7A78CCCC183030300030308B
:10072000026A7A386CDCF4F4F4F4DC603C026A7A35
:1007300078FCCCCCCCCCFCCCCCCC026A7AF8CCCC3F
:10074000C8F8CCCCCCCCF8026A7A78CCCCC0C0C08B
:10075000C0CCCC78026A7AF0D8CCCCCCCCCCCCD87B
:10076000F0026A7AFCC0C0C0F8C0C0C0C0FC026A17
:100770007AFCC0C0C0F8C0C0C0C0C0026A7A78CCE1
:10078000CCC0C0DCCCCCCC78026A7ACCCCCCCCFC53
:10079000CCCCCCCCCC026A7AFC303030303030302B
:1007A00030FC026A7A0C0C0C0C0C0C0CCCD87002CD
:1007B0006A7ACCD8F0E0E0F0F0D8CCCC026A7AC00B
:1007C000C0C0C0C0C0C0C0C0FC026A7A84CCCCFC2F
:1007D000FCCCCCCCCCCC026A7ACCCCECECECDCDC27
:1007E000DCCCCC026A7A78CCCCCCCCCCCCCCCC785F
:1007F000026A7AF8CCCCCCCCF8C0C0C0C0006C7C0B
:1008000078CCCCCCCCCCECDCCC780C04026A7AF87A
:10081000CCCCCCF8D8CCCCCCCC026A7A78CCCC601E
:10082000303018CCCC78026A7AFC3030303030303E
:10083000303030026A7ACCCCCCCCCCCCCCCCCC789E
:10084000026A7ACCCCCCCCCCCCCC787830026A7A28
:10085000CCCCCCCCCCFCFCFCFC48026A7ACCCC786E
:100860007830307878CCCC026A7ACCCCCC787830BE
:1008700030303030026A7AFC0C181830306060C0BA
:10088000FC105D7DF8C0C0C0C0C0C0C0C0C0C0C04A
:10089000F8006D7DC0C0C0606030303018180C0C9E
:1008A0000C105D7DF8181818181818181818181852
:1008B000F80B63733078CC006272FCFC1A4373C08F
:1008C000603002677778CC1C6CCCCC7C026A7AC032
:1008D000C0C0F8CCCCCCCCCCF802677778CCC0C008
:1008E000C0CC78026A7A0C0C0C7CCCCCCCCCCC7C06
:1008F00002677778CCCCFCC0CC78026A7A183C309E
:1009000030FC303030303000697974DCD8D8704039
:10091000F8CC78026A7AC0C0C0F8CCCCCCCCCCCCB5
:10092000222A7AC0C000C0C0C0C0C0C0C0105C7C59
:1009300018180018181818181818D870026A7AC0F1
:10094000C0C0C8D8F0F0D8CCC4222A7AC0C0C0C079
:10095000C0C0C0C0C0C0026777D8FCFCFCFCFCCCA7
:10096000026777F8CCCCCCCCCCCC02677778CCCCF7
:10097000CCCCCC78006979F8CCCCCCCCCCF8C0C04D
:100980000069797CCCCCCCCCCC7C0C0C026777F8A1
:10099000CCCCC0C0C0C002677778CC603018CC78AF
:1009A000026A7A303030FC30303030301C026777E9
:1009B000CCCCCCCCCCCC7C026777CCCCCC7878308F
:1009C00030026777CCCCFCFCFCFC48026777CCCCCF
:1009D000783078CCCC006979CCCC6C6C383818D8AD
:1009E00070026777FC0C183060C0FC105D7D3860C9
:1009F00060606060C0606060606038202D7DC0C055
:100A0000C0C0C0C0C0C0C0C0C0C0C0105D7DE030AC
:100A100030303030183030303030E009647444F415
:100A2000BC88FFFFFFFFFFFFFFFFFFFFFFFFFFFF90
:100A3000FFFFFFFFFFFFFFFFFFFFFFFFFFFFFFFFC6
:100A4000FFFFFF0E0070222A7AC0C000C0C0C0C0E5
:100A5000C0C0C0016979307CB4B0B0B0B47C3002A1
:100A60006979386C6060F06060F86C046676CC7808
:100A7000685878CC026A7A84CC78FC3030FC30300C
:100A800030222A7AC0C0C0C00000C0C0C0C0026B03
:100A90007B78CC603078CC783018CC781B5272D808
:100AA000D8026B7B78CCFCECECECECECFCCC781555
:100AB000587870D878D8D87800F80267771C3C78D6
:100AC000F0783C1C026575FCFC0C0C0C164171F0B6
:100AD000026B7B78CCFCECECFCECECECCC781C51A5
:100AE00071F819547470D8D8700266763030FC30C2
:100AF00030FC16577770D8183060C0F816577770EA
:100B0000D8187018D8701A43733060C0006878CC59
:100B1000CCCCCCDCFCC0C0006C7C7CECECECEC6C99
:100B20002C2C2C2C2C3C272272C0C02033736060EC
:100B3000C016367660E06060606016567670D8D871
:100B40007000F8026777E070381C3870E0026A7A4B
:100B500064EC687878346C5CDC8C026A7A64EC68EB
:100B6000787838744CD89C026A7AC46CE878F03C87
:100B70006CDC9C0C006B7B6060006060606060CC33
:100B8000CC78026C7C60300078FCCCCCCCFCCCCC3B
:100B9000CC026C7C18300078FCCCCCCCFCCCCCCC1F
:100BA000026C7C30780078FCCCCCCCFCCCCCCC0279
:100BB0006C7C68B00078FCCCCCCCFCCCCCCC026C8F
:100BC0007CCCCC0078FCCCCCCCFCCCCCCC026C7CEF
:100BD0003048300078FCCCCCFCCCCCCC027A7A7E8D
:100BE000D8D8D8DCF8D8D8D8DE006C7C78CCCCC08B
:100BF000C0C0C0CCCC783060026C7C603000FCC0DF
:100C0000C0C0F8C0C0C0FC026C7C183000FCC0C082
:100C1000C0F8C0C0C0FC026C7C307800FCC0C0C012
:100C2000F8C0C0C0FC026C7CCCCC00FCC0C0C0F8DA
:100C3000C0C0C0FC026C7C603000FC303030303012
:100C40003030FC026C7C183000FC303030303030FA
:100C500030FC026C7C307800FC303030303030308A
:100C6000FC026C7CCCCC00FC30303030303030FCBE
:100C7000027A7A786C6666FE6666666C78026C7CD0
:100C800068B000CCECECECDCDCDCCCCC026C7C6046
:100C9000300078CCCCCCCCCCCCCC78026C7C18306E
:100CA0000078CCCCCCCCCCCCCC78026C7C3078002E
:100CB00078CCCCCCCCCCCCCC78026C7C68B0007836
:100CC000CCCCCCCCCCCCCC78026C7CCCCC0078CC52
:100CD000CCCCCCCCCCCC78027777C66C38386CC610
:100CE00082006E7E040478DCDCDCDCECECECEC787E
:100CF0008080026C7C603000CCCCCCCCCCCCCCCC1A
:100D000078026C7C183000CCCCCCCCCCCCCCCC7861
:100D1000026C7C307800CCCCCCCCCCCCCCCC780267
:100D20006C7CCCCC00CCCCCCCCCCCCCCCC78026CFD
:100D30007C183000CCCCCC787878303030026A7AAD
:100D4000C0C0F8CCCCCCCCF8C0C0026A7A386C6C8D
:100D50006C786C6C6C6CF8026A7A60300078CC3C11
:100D60006CCCCC7C026A7A18300078CC3C6CCCCC51
:100D70007C026A7A30780078CC3C6CCCCC7C026AFD
:100D80007A68B00078CC3C6CCCCC7C026A7ACCCC53
:100D90000078CC3C6CCCCC7C026B7B30483000784B
:100DA000CC3C6CCCCC7C0277777CDA3A5ED8DE7CAB
:100DB00000697978CCC0C0C0CC783060026A7A60B3
:100DC000300078CCCCFCC0CC78026A7A183000783D
:100DD000CCCCFCC0CC78026A7A30780078CCCCFCE1
:100DE000C0CC78026A7ACCCC0078CCCCFCC0CC7871
:100DF000223A7AC0600060606060606060223A7A87
:100E000060C000C0C0C0C0C0C0C0124A7A60F0005C
:100E100060606060606060026A7ACCCC0030303024
:100E200030303030026B7BD870F0980C7CCCCCCC5E
:100E3000CC78026A7A68B000F8CCCCCCCCCCCC02AE
:100E40006A7A60300078CCCCCCCCCC78026A7A1844
:100E5000300078CCCCCCCCCC78026A7A3078007870
:100E6000CCCCCCCCCC78026A7A68B00078CCCCCC34
:100E7000CCCC78026A7ACCCC0078CCCCCCCCCC78F8
:100E8000026878303000FCFC003030006B7B0408D6
:100E900078DCDCECECCC788080026A7A603000CCC4
:100EA000CCCCCCCCCC7C026A7A183000CCCCCCCC6C
:100EB000CCCC7C026A7A307800CCCCCCCCCCCC7C4C
:100EC000026A7ACCCC00CCCCCCCCCCCC7C006C7C78
:100ED000183000CCCCCC78383830F060006C7CC056
:100EE000C0C0F8CCCCCCCCCCF8C0C0006C7CCCCC96
:100EF00000CCCCCC78383830F06001070E00FE0A08
:100F0000018A031E20FFFE0CFE0BFE0E0070321A3B
:100F10007A80808080808080008080293474A0A0C6
:100F2000A0A0125A7A505050F85050F8505050012A
:100F30006B7B1078949450381494947810026A7AE9
:100F40006494987010203864A498026A7A304848F3
:100F50004830649488986439147480808080204D6F
:100F60007D10204040808080808040402010104DC7
:100F70007D8040202010101010102020408013573A
:100F80007720A8702070A820135777202020F82001
:100F90002020202474C0404080165171F821337302
:100FA00040E040006D7D040408081010102020402F
:100FB000408080026A7A3048848484848484483003
:100FC000125A7A2060A0202020202020F8026A7A7D
:100FD000788484040808102040FC026A7AFC040823
:100FE00010380404848478026A7A0818282848484B
:100FF00088FC0808026A7AFC8080F88404048484EF
:1010000078026A7A38408080B8C484848478026A1E
:101010007AFC040808101020204040026A7A788484
:101020008448304884848478026A7A788484848C02
:10103000740484887022387840E040000040E0402A
:10104000212878C0C00000C04040801259790810A3
:1010500020408040201008056474FC0000FC1259F8
:1010600079804020100810204080026A7A788484B9
:1010700008101010001010026A7A38449CA4A4A42E
:10108000A49C403C026A7A3048848484FC84848432
:1010900084026A7AF0888488F088848488F0026AFE
:1010A0007A78848480808080848478026A7AF08868
:1010B00084848484848488F0026A7AFC808080F04E
:1010C00080808080FC026A7AFC808080F080808052
:1010D0008080026A7A78848480809C84848C740204
:1010E0006A7A84848484FC8484848484125A7AF89E
:1010F0002020202020202020F8026A7A1C080808DE
:10110000080808888870026A7A848890A0C0A09035
:10111000888484026A7A808080808080808080FCDD
:10112000026A7A84CCCCB4B48484848484026A7ADB
:101130008484C4C4A4948C8C8484026A7A78848461
:1011400084848484848478026A7AF884848484F829
:1011500080808080006C7C788484848484E4948C97
:10116000780804026A7AF884848484F890888484F5
:10117000026A7A78848480601804848478027A7A97
:10118000FE101010101010101010026A7A8484845F
:1011900084848484848478026A7A84848484484839
:1011A00048303030125A7A888888888888A8A8A859
:1011B00050026A7A84844848303048488484125AFD
:1011C0007A88888850502020202020026A7AFC04E7
:1011D00008101020404080FC204D7DF080808080F1
:1011E00080808080808080F0006D7D808040402005
:1011F0002020101008080404104D7DF0101010106D
:1012000010101010101010F00A6373304884006141
:1012100071FC2A33738040200267777884047C84D1
:10122000847C026A7A808080B8C4848484C4B802D2
:10123000677778848080808478026A7A04040474F2
:101240008C8484848C74026777788484FC808478AE
:10125000026A7A18242020F82020202020006979B2
:10126000748888887040B88478026A7A808080B8F0
:10127000C48484848484125A7A2020006020202030
:101280002020F8105C7C0808001808080808088866
:101290008870026A7A8080808890A0E090888412AA
:1012A0005A7A602020202020202020F8125777D062
:1012B000A8A8A8A8A888026777B8C484848484846E
:1012C00002677778848484848478006979B8C484D8
:1012D0008484C4B88080006979748C8484848C741C
:1012E0000404026777B8C4848080808002677778BE
:1012F000844030088478026A7A202020F820202058
:1013000020241802677784848484848C741257772D
:10131000888888505020201257778888A8A8A8A8C5
:1013200050026777848448304884840069798484D3
:1013300084848C74048478026777FC081020204031
:10134000FC204D7D30404040404080404040404087
:1013500030301D7D80808080808080808080808093
:1013600080104D7DC0202020202010202020202013
:10137000C009647440A49408FFFFFFFFFFFFFFFF54
:10138000FFFFFFFFFFFFFFFFFFFFFFFFFFFFFFFF6D
:10139000FFFFFFFFFFFFFFFFFF0E0070321A7A8092
:1013A0008000808080808080800169792078A4A07E
:1013B000A0A0A4782012597930484040F04040F075
:1013C00048046676847848487884125A7A8850505F
:1013D00020F820F8202020321A7A808080800000B7
:1013E00080808080026B7B7884403048844830085D
:1013F00084781B42729090026B7B7884B4CCC4C416
:10140000C4CCB4847815587870887888986800F8C7
:10141000026777142850A0502814125474F8080852
:1014200008164171F0026B7B7884F4CCCCF4CCCC00
:10143000CC84781B5171F8194474609090601256F6
:10144000762020F82020F816477760901020408002
:10145000F0164777609010601090602A3373204038
:101460008010587888888888D8A88080105C7C781C
:10147000A8A8A8A86828282828283837117180200B
:10148000237340408026377740C040404040E016FC
:1014900046766090906000F0026777A0502814288C
:1014A00050A0026A7A40C4484850242C549C8402BC
:1014B0006A7A40C4484850283444889C026A7AC4F6
:1014C000244830D0244C549C04006B7B2020002006
:1014D00020202040848478026C7C201000304884D6
:1014E00084FC84848484026C7C10200030488484D2
:1014F000FC84848484026C7C30480030488484FC02
:1015000084848484026C7C64980030488484FC84E5
:10151000848484026B7B480030488484FC84848407
:1015200084026B7B304830488484FC848484840249
:101530006A7A3C509090FC909090909C006C7C78E3
:101540008484808080808484781020026C7C2010C9
:1015500000FC808080F8808080FC026C7C10200081
:10156000FC808080F8808080FC026C7C304800FC2D
:10157000808080F8808080FC026B7B4800FC80804B
:1015800080F8808080FC125C7C402000F8202020C5
:1015900020202020F8125C7C102000F82020202041
:1015A000202020F8125C7C205000F82020202020F1
:1015B0002020F8125B7B5000F820202020202020E3
:1015C000F8027A7A78444242F24242424478026C0B
:1015D0007C649800C4C4A4A49494948C8C026C7C05
:1015E000201000788484848484848478026C7C1045
:1015F0002000788484848484848478026C7C3048DD
:1016000000788484848484848478026C7C64980068
:10161000788484848484848478026B7B4800788412
:1016200084848484848478027777824428102844D0
:1016300082006E7E0404788C949494A4A4A4C4784C
:101640008080026C7C201000848484848484848460
:1016500078026C7C10200084848484848484847860
:10166000026C7C304800848484848484848478027E
:101670006B7B4800848484848484848478125C7CBA
:10168000102000888850502020202020026A7A8074
:1016900080F884848484F88080026A7A30484848DC
:1016A0007048444444F8026A7A2010007884047C2C
:1016B00084847C026A7A0810007884047C84847CA8
:1016C000026A7A3048007884047C84847C026A7AD6
:1016D0006498007884047C84847C0269794800786A
:1016E00084047C84847C026B7B30483000788404E2
:1016F0007C84847C0277777C92325E90927C006955
:1017000079788480808084781020026A7A201000A2
:10171000788484FC808478026A7A1020007884843B
:10172000FC808478026A7A304800788484FC808463
:10173000780269794800788484FC808478125A7A27
:10174000402000602020202020F8125A7A1020002B
:10175000602020202020F8125A7A6090006020201B
:10176000202020F81259795000602020202020F8F5
:10177000125B7B5020500878888888888870026ABD
:101780007A649800B8C48484848484026A7A2010BD
:101790000078848484848478026A7A1020007884B3
:1017A0008484848478026A7A3048007884848484CB
:1017B0008478026A7A6498007884848484847802C5
:1017C000697948007884848484847802657530005F
:1017D000FC0030006B7B0408789494A4A4C4788047
:1017E00080026A7A20100084848484848C74026A63
:1017F0007A10200084848484848C74026A7A30484D
:101800000084848484848C7402697948008484848C
:1018100084848C74006C7C102000848444482838B4
:10182000109060006C7C808080B8C4848484C4B8CC
:101830008080006B7B480084844448283810906086
:10184000B21511241FBECFEFD8E0DEBFCDBF11E02F
:10185000A0E0B1E0E4E2FCE202C005900D92A03904
:10186000B107D9F722E0A0E9B1E001C01D92AF3580
:10187000B207E1F71CE0C1E2DCE004C02197FE0101
:101880000E940A16C032D107C9F70E9482130C9435
:1018900010160C9400008091290290912A02009762
:1018A00039F120913C02FC01211123C03596E491CD
:1018B000E0933D02FC013C96E491E0933E0280916E
:1018C0003D02082E000C990B20913E02821B9109CB
:1018D00027FD939520913F02203441F0829FC00163
:1018E000112426E0969587952A95E1F7809340028A
:1018F0000895213039F43F96E491E0933D02FC01D4
:101900007096DACF3D96E491E0933D02FC013E965D
:10191000D3CF833081F028F4813099F08230A9F060
:1019200008958730A9F08830C9F08430B1F48091EF
:1019300080008F7D03C0809180008F77809380002E
:10194000089584B58F7784BD089584B58F7DFBCFCE
:101950008091B0008F778093B00008958091B0009F
:101960008F7DF9CFCF93DF93282F30E0F901E05737
:10197000FA4F8491F901E458FA4FD491F901E859EA
:10198000FA4FC491CC23A1F081110E94890CEC2F55
:10199000F0E0EE0FFF1FE25AFA4FA591B491EC91DF
:1019A000ED2381E090E009F480E0DF91CF9108958C
:1019B00080E090E0FACF1F93CF93DF93282F30E0A1
:1019C000F901E057FA4F8491F901E458FA4FD491A4
:1019D000F901E859FA4FC491CC23A9F0162F8111CF
:1019E0000E94890CEC2FF0E0EE0FFF1FEC5AFA4F2B
:1019F000A591B4918FB7F894EC91111108C0D095CE
:101A0000DE23DC938FBFDF91CF911F910895DE2BF2
:101A1000F8CFCF93DF9390E0FC01E458FA4F249184
:101A200088599A4FFC0184918823D1F090E0880F67
:101A3000991FFC01E65BFA4FA591B491FC01EC5AA9
:101A4000FA4FC591D491623071F49FB7F8943C91EC
:101A5000822F809583238C93E8812E2B28839FBF30
:101A6000DF91CF9108958FB7F894EC912E2B2C93A2
:101A70008FBFF6CF8E50806480937C0080917A0077
:101A8000806480937A0080917A0086FDFCCF8091FB
:101A900078009091790008953FB7F89480911B02E7
:101AA00090911C02A0911D02B0911E0226B5A89B28
:101AB00005C02F3F19F00196A11DB11D3FBFBA2FE0
:101AC000A92F982F8827BC01CD01620F711D811DA0
:101AD000911D42E0660F771F881F991F4A95D1F725
:101AE00008958F929F92AF92BF92CF92DF92EF9222
:101AF000FF920E944C0D4B015C018EE1C82ED12C4F
:101B0000E12CF12C0E944C0D681979098A099B0976
:101B1000683E734081059105A8F321E0C21AD108FF
:101B2000E108F10888EE880E83E0981EA11CB11C24
:101B3000C114D104E104F10429F7FF90EF90DF9084
:101B4000CF90BF90AF909F908F90089580E00895C0
:101B5000AF92BF92CF92DF92EF92FF920F931F93BB
:101B6000CF93DF936C017B018B01040F151FEB01F9
:101B70005E01AE18BF08C017D10759F06991D601B0
:101B8000ED91FC910190F081E02DC6010995892B22
:101B900079F7C501DF91CF911F910F91FF90EF90E1
:101BA000DF90CF90BF90AF9008950895DC01169616
:101BB000ED91FC91179712968C91481B477081E02C
:101BC00090E001C0880F4A95EAF7E60FF11D3081D9
:101BD000222319F0832B8083089580958323FBCFE4
:101BE000FB014181DC0112962C911297421768F09B
:101BF00013962C911397241740F0608115962C9121
:101C0000621718F424810C94D60D0895FC0180818C
:101C10009281980F92832181921760F494819F5F43
:101C200094839381890F821710F08FEF820F838343
:101C300081E0089580E00895FC0112828081815046
:101C4000838314820895DB01ED91FC9109940F9335
:101C50001F93CF93DF931F92CDB7DEB7009127027A
:101C600010912802E0915602F091570282E0099506
:101C700030E020E04AE0B80185E292E00E94230EC5
:101C8000182FE0915602F091570283E00995E091F8
:101C90005602F091570280E009951123B9F1609145
:101CA0002702709128029E012F5F3F4F46E485E294
:101CB00092E00E94230E8981809325026091270281
:101CC000709128029E012F5F3F4F47E485E292E02A
:101CD0000E94230E898180932602609127027091D1
:101CE000280230E020E048E485E292E00E94230EE2
:101CF00080933002609127027091280228E532E03B
:101D000047E185E292E00E94230E11E0812F0F90BF
:101D1000DF91CF911F910F9108950B96FC01849153
:101D200008950A96FC0184910895FC018491089518
:101D30000E94950E882321F0823011F083E00895EF
:101D400086E00895FC01E60FF11D849190E0982F44
:101D500088273196E4918E0F911D089568E00C94C8
:101D6000A20E66E00C94A20E2EE93FE0009709F463
:101D70000895F9013197F1F70197F8CFCF93DF93E9
:101D800000D0CDB7DEB720ED37E03A8329839091BC
:101D9000BC00982311F081E00FC029813A81232BE8
:101DA00081F48091200281FDF6CF80911F02811184
:101DB0000DC091E090931F020F900F90DF91CF9193
:101DC000089529813A8121503109DFCF80E0F4CF95
:101DD00084EA8093BC0061E080E80E94BE0E81111D
:101DE00002C080E008958091B900887F883051F06A
:101DF000803141F080911F028111F3CF82E0809306
:101E00001F02EFCF88E78093BB0084E88093BC007B
:101E100062E080E80E94BE0E882319F380912002C0
:101E200081FD05C08091B900887F883119F781E074
:101E3000089584E98093BC0064E080E10C94BE0EB8
:101E40008093BB0084E88093BC0063E080E80E943C
:101E5000BE0E8823A1F08091200281FD0DC08091EB
:101E6000B900887F883241F080911F02811106C03D
:101E700092E090931F02089581E0089580E0089514
:101E800010921F020895809320021092B90084FFDF
:101E900005C08CE08093B8000C94400F88E4FACF22
:101EA000CF93DF93FC0123A5222389F0EC010E944C
:101EB000E80E811104C080E0DF91CF9108958EA1DA
:101EC000811107C00E94200F8823A9F31BA681E07F
:101ED000F3CF80E4F7CF0F931F93CF93DF93C62FF9
:101EE000D42F8901633001F138F4613099F0623008
:101EF00009F449C0C1E012C0663029F1673091F1A0
:101F00006530C1F70E94500F811117C00E94190F50
:101F1000C0E004C0FC0186A50E94430F8C2FDF9116
:101F2000CF911F910F910895FC0116A221E023A7E4
:101F30004111E0CF0E94190FDDCF8D2F0E94200F9D
:101F40008111D8CFE3CF0E94500F8823F9F2DD230F
:101F500089F2F80181918F010E94200F8823B1F24C
:101F6000D150F5CF0E94500F882381F2DD2311F26A
:101F7000F80184910E94200FC82F882379F20F5F07
:101F80001F4FD150F3CFFC0146A321E023A7B2CFCE
:101F9000DB011496ED91FC9130E020E065E00994BE
:101FA000DB011496ED91FC9130E020E062E00994B1
:101FB000DB011496ED91FC9130E020E063E00994A0
:101FC000CF92DF92EF92FF920F931F93CF93DF9305
:101FD0008C017B016A0180E0F601C491811110C07F
:101FE00081E0CF3F49F04C2FB701C8010E94C80FD4
:101FF000882309F444C080E0BFEFCB1ADB0AECCFA2
:102000004FEFCF3F89F3CE3FD9F1C03FA0F7C03E9D
:1020100038F04C2F4F70B701C8010E94D00FEBCFA2
:10202000C03D38F04C2F4F70B701C8010E94D80F47
:10203000E2CFC03CF8F0D7011496ED91FC9130E06E
:1020400020E040E064E0C8010995C295C07FCE5F02
:10205000D0E0CE010E94B40ED7011496ED91FC9110
:1020600030E020E041E064E0C8010995CE010E9423
:10207000B40EC1CFC7FDBFCF8C2F90E0F8CF80E06A
:10208000DF91CF911F910F91FF90EF90DF90CF9054
:102090000895AF92BF92CF92DF92FF920F931F935A
:1020A000CF93DF936C018B01F42EE90180E1481797
:1020B00009F47EC0841778F1AAE04A1709F461C0D8
:1020C000BFE04B1709F47FC0F80102811381F2E3EE
:1020D000FF1609F4DDC0FF1508F48EC085E1F8167F
:1020E00009F4DBC0A7E1FA1609F4ECC0B4E1FB1275
:1020F00065C0D8011696ED91FC91179715968C91B5
:102100008E0F9F2F911D11928E179F07E1F7C80127
:102110000E941C0E53C0E1E14E1709F451C0F5E1D5
:102120004F13D2CFFB01A280B3804CE151E0C60136
:102130000E94E00FD50114964C91406BB801C60186
:102140000E94C80F41E0B801C6010E94D00FF501FE
:1021500026813781D8011496ED91FC91D501159611
:102160004C9166E0C601099581111CC080E0DF91A9
:10217000CF911F910F91FF90DF90CF90BF90AF90C4
:102180000895DB011496ED91FC9130E020E042E0EF
:1021900061E0C601099544E251E0B801C6010E9420
:1021A000E00F92CF40E0B801C6010E94D80F8CCF5B
:1021B00043E151E0B801C6010E94E00F81E0D7CFB2
:1021C00048E051E0F7CF41E0C6010E94D80F40E05F
:1021D000B801C6010E94D00F41E8B801C6010E94B3
:1021E000C80F4881B801C6010E94C80F40E0B8017D
:1021F000C6010E94D80FE2CFE6E4FE1609F46CC0D7
:10220000F7E4FF1609F46DC08BE3F812D7CF99817C
:102210008B8138E0390F813031F0833011F0392F64
:1022200002C0392F985021E0D80113964C914917DC
:1022300008F420E041E0391708F040E091E0F801AF
:102240005281351708F490E0322F342B932319F480
:10225000242309F4B3CFFA80D12CC12C843048F464
:1022600090E0FC01EE57FE4FC08082589E4FDC018B
:10227000DC90F7FE04C0BE01C8010E94F00D888109
:102280008C0D888389818D0D8983FF0C91F796CF02
:10229000BE01C8010E94F00D91CFC8010E94060E38
:1022A000882309F463CFD8011696ED91FC91179716
:1022B00015968C918E0F9F2F911D11928E179F074F
:1022C000E1F77CCF1882F801828189838581815072
:1022D0008A8383818B8372CFD80115968C918883F2
:1022E0006DCFF8018181FBCF0F93FC010150040FEA
:1022F00084A996A9941788F0081710F4041778F4A5
:102300002150260F83A995A9961758F0281760F435
:1023100081E0261720F40F910895081778F780E0E0
:10232000FACF2817A8F7FBCF81E0F5CF8F929F92C5
:10233000AF92BF92CF92DF92EF92FF920F931F93D3
:10234000CF93DF93A82EC62FB42ED22F7801242F3F
:10235000220F220F220F0D2F462F682F85E292E0C9
:102360000E947411DC0F8B2C912C81112EC0DF91F7
:10237000CF911F910F91FF90EF90DF90CF90BF9082
:10238000AF909F908F900895F801849160912702FB
:1023900070912802D0924102C093420210924402EE
:1023A0008093430221E432E04BE385E292E00E9415
:1023B000230E0F5F1F4FCA94F8E0DF0EC110E4CF69
:1023C000E80CF91CCF5FDC1791F2CB2CDA2C8701DB
:1023D000DBCF5F926F927F928F929F92AF92BF926C
:1023E000CF92DF92EF92FF920F931F93CF93DF93E1
:1023F000EC01C62E142FD22EEC80FD80C7010E9466
:10240000950E082F8C819D810E94980E982EAA24EB
:10241000AA94013011F48FE0A82E8C819D810E9436
:10242000910E082F8C819D810E948D0EB82E8C817B
:102430009D810E94AE0E20E62D1570F4009761F08C
:10244000E80EF91E01E6BD14C0F4188A1B8A1C8A26
:10245000198A1A8A80E05AC08C819D810E94B10E2F
:10246000E0E4ED1530F4009721F0E80EF91E01E4E8
:10247000EACFF1E1EF0EF11CE6CFB01630F3892D73
:1024800090E0F70124912F3F39F4FFEFEF1AFF0A94
:10249000B016D9F20F5FF5CFD0125FC08C819D814D
:1024A0000E94950E97012F5F3F4FF701882319F087
:1024B000823009F03BC084918B8BF90124912C8BE5
:1024C000F7013396E491E88BF7013496E491E98BB8
:1024D000F7013596E491EA8BE114F10409F4BACFDF
:1024E0008C819D810E94980EA82EDB88BC888989EA
:1024F000C80E1B198A89181B0B2D2D2D412F6C2DF1
:10250000CE010E947411811131C08889DF91CF9171
:102510001F910F91FF90EF90DF90CF90BF90AF9001
:102520009F908F907F906F905F9008958491982FE7
:102530009F7092509A8B82958F70898BF9012491AC
:10254000822F8F708C8B22952F702B8BF7013296F8
:10255000E491E295EF70E88BBFCF3296E491EA21E7
:10256000E80FF92FF11DEE0EFF1E92CFEA0CF11CC1
:10257000F7E0DF0ED694D694D694012F0B0D4E01C2
:102580002CE1820E911C6D2C712C101709F4BDCF1B
:102590005C2C570112C0F50184916A817B815C8EAD
:1025A0001D8F1F8E8E8F94014BE3CE010E94230E50
:1025B000FFEFAF1ABF0A28E0520E8A2D8E198D1533
:1025C00050F3E60CF71C1F5FE0CFFF920F931F93B1
:1025D000CF93DF93082FF62E172FE0913A02F09158
:1025E0003B0285E292E00995080FCF2DD12F10E034
:1025F0008AE1F82E2991211107C0812FDF91CF9117
:102600001F910F91FF900895402F6F2D85E292E06A
:102610000E94E911F80E180FEDCFDF92EF92FF92B2
:102620000F931F93CF93DF93EC01D62E1CAD0BAD10
:102630007C0184E0E80EF11CE98DFA8DC701099553
:10264000412F480F2D2D602FC7010E94E9119BAD2E
:10265000890F8BAF81E090E0DF91CF911F910F91B7
:10266000FF90EF90DF900895089590E080E0089546
:102670001F920F920FB60F9211242F933F938F93B7
:102680009F93AF93BF938091170290911802A091EE
:102690001902B0911A023091160223E0230F2D3750
:1026A00058F50196A11DB11D2093160280931702C3
:1026B00090931802A0931902B0931A0280911B0202
:1026C00090911C02A0911D02B0911E020196A11DC5
:1026D000B11D80931B0290931C02A0931D02B09326
:1026E0001E02BF91AF919F918F913F912F910F90BB
:1026F0000FBE0F901F90189526E8230F0296A11D7C
:10270000B11DD2CF789484B5826084BD84B58160D8
:1027100084BD85B5826085BD85B5816085BD8091AC
:102720006E00816080936E00109281008091810024
:10273000826080938100809181008160809381001C
:10274000809180008160809380008091B1008460DE
:102750008093B1008091B00081608093B00080913F
:102760007A00846080937A0080917A0082608093FE
:102770007A0080917A00816080937A0080917A005B
:10278000806880937A001092C10061E085E00E9429
:10279000090D61E083E00E94090D61E084E00E9480
:1027A000090D61E082E00E94090D81E080934502FD
:1027B00062E08CE00E94090D62E088E00E94090D51
:1027C00062E084E00E94090D54E0452E512C65E042
:1027D000662E712C7AEFE72E7EE0F72EC6EADDE05A
:1027E000E4EACE2EE5E0DE2E32E0832E912C40E0AE
:1027F000A42E40E0B42E61E082E00E94DB0C60E099
:1028000083E00E94DB0C8FE39FE10197F1F700C0AA
:1028100000008EE00E943A0D8CE00E94B20C892BE1
:1028200009F0DEC00E94710D8CE00E94B20C892B71
:1028300081F48091150280FD0CC0809114028150BA
:1028400008F4CAC0809314028091150281608093BD
:10285000150284E00E94B20C892B09F0C8C01091C7
:1028600014020E94710D84E00E94B20C892B79F44D
:102870008091150281FD0BC01F5F153008F0B4C0B8
:10288000109314028091150282608093150288E0F3
:102890000E94B20C10911402892B09F0D7C00E943B
:1028A000710D88E00E94B20C892B99F48091150279
:1028B00082FD0FC08091120290911302009709F4DB
:1028C0009AC0059708F4BDC080911502846080937A
:1028D00015028FEF810F8F3F09F4BCC08093110266
:1028E0001F5F153008F0BAC01093100280915E028D
:1028F000811105C081E080935E020E94270E009145
:10290000270210912802E0915602F091570282E0CE
:102910000995E0915602F091570281E0099530E067
:1029200020E044E1B80185E292E00E94230E28E510
:1029300032E047E1B80185E292E00E94230EE09187
:102940005602F091570280E0099524E1322E8091E1
:10295000120290911302009709F483C0049709F4BE
:10296000F8C0E0913302F0913402309719F085E21B
:1029700092E009950091270210912802E0915602F9
:10298000F091570282E00995E0915602F0915702CA
:1029900081E0099530E020E045E1B80185E292E070
:1029A0000E94230E282E882341F028E532E047E1DB
:1029B000B80185E292E00E94230EE0915602F09168
:1029C000570280E009952110C2CFA114B10409F487
:1029D00012CF0E94000008CF94E09093140234CFED
:1029E000809115028E7F33CF109214024BCF8091CD
:1029F00015028D7F4ACF1230E1F050F4112391F08F
:102A0000113009F061CF90921302809212025CCFD4
:102A1000133091F0143009F057CF70921302609286
:102A2000120252CF81E090E0909313028093120241
:102A30004BCF83E090E0F8CF509213024092120205
:102A400043CF10921302109212023ECF80911502D2
:102A50008B7F3DCF94E09093110242CF10921002F1
:102A600045CF0AE411E020E440E160E080E00E940C
:102A700096118091290290912A028A5F9E4051F01E
:102A8000F0922A02E09229020E944B0CD0933B0262
:102A9000C0933A0260911102639DB0011124625FFC
:102AA0007E4F8FE00E94E512E0911102F0E0EE0F00
:102AB000FF1FEA57FE4F0081118120E142E062E0F2
:102AC00083E00E9496118091290290912A02845AF3
:102AD000954051F0D0922A02C09229020E944B0CDC
:102AE000D0933B02C0933A0260911402639DB001FF
:102AF0001124625F7E4F85E20E94E512E09114028C
:102B0000F0E0EE0FFF1FEA57FE4F0081118120E138
:102B100042E068E183E00E94961180912902909141
:102B20002A028A5F9E4051F0F0922A02E092290226
:102B30000E944B0CD0933B02C0933A02609110026A
:102B4000639DB0011124625F7E4F8BE30E94E5120A
:102B500008CF0AE411E020E440E160E080E00E9458
:102B60009611FFCE109224021092230286E791E084
:102B7000909322028093210210925C0210925D02D7
:102B800010925E0210922A021092290210922C02D8
:102B900010922B0210922E0281E080932D0282E28D
:102BA00080932F021092340210923302E8E4F2E094
:102BB0008FEF819392E0E635F907D9F781E08093B2
:102BC000450226EA3DE030933B0220933A0280938F
:102BD0003C0210923D0210923E0280E480933F023C
:102BE0001092400285ED9DE090935702809356022B
:102BF00088E091E0909328028093270282E18093FD
:102C000053020E94270E86E791E090932202809360
:102C100021020895EE0FFF1F0590F491E02D099415
:042C2000F894FFCF56
:102C24000840000000809001491000016B0F566FAE
:102C34006C746D6574657200000000000000000093
:102C44000000416D6D6574657200000000000000B5
:102C54000000000000004F686D6D6574657200002F
:102C64000000000000000000000053696720476571
:102C74006E00000000000000000000000000436F30
:102C84006E6669670000000000000000000000009C
:102C94000000000000000D13A80D351334130001CB
:102CA40000FF0100FF00E800C800A80088006800D9
:00000001FF
