:020000040000FA
:100000000C94AD000C94D5000C94D5000C94D50044
:100010000C94D5000C94D5000C94D5000C94D5000C
:100020000C94D5000C94D5000C94D5000C94D500FC
:100030000C94D5000C94D5000C94D5000C94D500EC
:100040000C94F7020C94D5000C9467030C944103B4
:100050000C94D5000C94D5000C94D5000C94D500CC
:100060000C94D5000C94D50000000000240027005B
:100070002A00018001801A58366C2004118833CC84
:10008000C663C66333CC11882004366C1A580180CD
:100090000180000007E01FF83C3C781E6006C003AA
:1000A000C003C003C003700E700E381CF81FF81F89
:1000B0000000000003C007E00C300C300C300C30A6
:1000C0000C300FF00FF00C300C300C300C300C30CA
:1000D0000000FC3F600C6008301030101810182031
:1000E0000C200C400E4006800680038003000100B7
:1000F00001000000000000003F872084208420844D
:10010000208420842084208420842084E0FC00003B
:10011000000000000000250028002B000404040457
:1001200004040404020202020202030303030303A1
:10013000010204081020408001020408102001027E
:10014000040810200000000800020100000304075A
:100150000000000000000000D70411241FBECFEFF4
:10016000D8E0DEBFCDBF11E0A0E0B1E0E8E8FAE002
:1001700002C005900D92A432B107D9F721E0A4E2A4
:10018000B1E001C01D92AA3CB207E1F710E0CDEA50
:10019000D0E004C02197FE010E943C05CC3AD10773
:1001A000C9F70E9499030C9442050C940000E1E504
:1001B000F1E02491EDE3F1E09491E9E2F1E0E491E2
:1001C000EE23C9F0222339F0233001F1A8F42130C5
:1001D00019F1223029F1F0E0EE0FFF1FEE5EFE4F25
:1001E000A591B4912FB7F894EC91811126C0909508
:1001F0009E239C932FBF08952730A9F02830C9F083
:10020000243049F7209180002F7D03C02091800089
:100210002F7720938000DFCF24B52F7724BDDBCF4D
:1002200024B52F7DFBCF2091B0002F772093B00015
:10023000D2CF2091B0002F7DF9CF9E2BDACF3FB7E0
:10024000F8948091290190912A01A0912B01B091FD
:100250002C0126B5A89B05C02F3F19F00196A11DC2
:10026000B11D3FBFBA2FA92F982F8827BC01CD0100
:10027000620F711D811D911D42E0660F771F881F5F
:10028000991F4A95D1F708958F929F92AF92BF928E
:10029000CF92DF92EF92FF924B015C010E941F010F
:1002A0006B017C010E941F016C197D098E099F0959
:1002B000683E734081059105A8F321E0821A9108F8
:1002C000A108B10888EEC80E83E0D81EE11CF11C1D
:1002D00081149104A104B10429F7FF90EF90DF90FD
:1002E000CF90BF90AF909F908F900895AF92BF92A4
:1002F000CF92DF92EF92FF920F931F93CF93DF93F2
:100300006C017B018B01040F151FEB015E01AE1820
:10031000BF08C017D10759F06991D601ED91FC9142
:100320000190F081E02DC6010995892B79F7C5016F
:10033000DF91CF911F910F91FF90EF90DF90CF90C1
:10034000BF90AF900895FC01538D448D252F30E070
:10035000842F90E0821B930B541710F0CF960895D2
:1003600001970895FC01918D828D981761F0A28DFF
:10037000AE0FBF2FB11D5D968C91928D9F5F9F73C5
:10038000928F90E008958FEF9FEF0895FC01918D7B
:10039000828D981731F0828DE80FF11D858D90E0E8
:1003A00008958FEF9FEF0895FC01918D228D892F85
:1003B00090E0805C9F4F821B91098F73992708956D
:1003C0008DE291E00E94D40121E0892B09F420E024
:1003D000822F089580E090E0892B29F00E94E001AF
:1003E00081110C9400000895FC01A48DA80FB92F71
:1003F000B11DA35ABF4F2C91848D90E001968F734D
:100400009927848FA689B7892C93A089B1898C916B
:10041000837080648C93938D848D981306C00288BA
:10042000F389E02D80818F7D80830895EF92FF9284
:100430000F931F93CF93DF93EC0181E0888F9B8D07
:100440008C8D98131AC0E889F989808185FF15C0C1
:100450009FB7F894EE89FF896083E889F9898081E4
:100460008370806480839FBF81E090E0DF91CF91B3
:100470001F910F91FF90EF900895F62E0B8D10E0D5
:100480000F5F1F4F0F731127E02E8C8D8E110CC044
:100490000FB607FCFACFE889F989808185FFF5CF8F
:1004A000CE010E94F401F1CFEB8DEC0FFD2FF11D79
:1004B000E35AFF4FF0829FB7F8940B8FEA89FB89CC
:1004C00080818062CFCFCF93DF93EC01888D88232A
:1004D000B9F0AA89BB89E889F9898C9185FD03C0A7
:1004E000808186FD0DC00FB607FCF7CF8C9185FF8C
:1004F000F2CF808185FFEDCFCE010E94F401E9CFDC
:10050000DF91CF910895FC0101900020E9F7319728
:10051000AF01481B590BBC018DE291E00C947601B0
:100520008F929F92AF92BF920F931F93CF93DF93BF
:10053000CDB7DEB7A1970FB6F894DEBF0FBECDBF23
:1005400019A2423008F44AE08E010F5D1F4F842E3D
:10055000912CB12CA12CA50194010E941A05E62F23
:10056000B901CA01EA30F4F4E05DD801EE938D01DF
:10057000232B242B252B79F790E080E0109719F09E
:10058000CD010E948302A1960FB6F894DEBF0FBE84
:10059000CDBFDF91CF911F910F91BF90AF909F90F2
:1005A0008F900895E95CE1CFEF92FF920F931F9334
:1005B000CF93DF937C018B0185E0000F111F8A959B
:1005C000E1F7D0E0C0E0F701EC0FFD1F6491C80136
:1005D0008C0F9D1F0E940C052196C032D10599F702
:1005E000DF91CF911F910F91FF90EF9008951F928F
:1005F0000F920FB60F9211242F933F938F939F93D7
:10060000AF93BF938091250190912601A09127017E
:10061000B09128013091240123E0230F2D3758F5A4
:100620000196A11DB11D2093240180932501909373
:100630002601A0932701B093280180912901909170
:100640002A01A0912B01B0912C010196A11DB11D91
:100650008093290190932A01A0932B01B0932C0140
:10066000BF91AF919F918F913F912F910F900FBEAE
:100670000F901F90189526E8230F0296A11DB11D1B
:10068000D2CF1F920F920FB60F9211242F933F9348
:100690004F935F936F937F938F939F93AF93BF938A
:1006A000EF93FF938DE291E00E94F401FF91EF91AF
:1006B000BF91AF919F918F917F916F915F914F917A
:1006C0003F912F910F900FBE0F901F9018951F9282
:1006D0000F920FB60F9211242F938F939F93EF9346
:1006E000FF93E0913D01F0913E018081E091430153
:1006F000F091440182FD1BC09081809146018F5F83
:100700008F7320914701821741F0E0914601F0E09C
:10071000E35DFE4F958F80934601FF91EF919F918E
:100720008F912F910F900FBE0F901F901895808181
:10073000F4CFCF93DF93CDB7DEB7A0970FB6F89481
:10074000DEBF0FBECDBF789484B5826084BD84B512
:10075000816084BD85B5826085BD85B5816085BDBC
:1007600080916E00816080936E0010928100809174
:1007700081008260809381008091810081608093FC
:100780008100809180008160809380008091B10021
:1007900084608093B1008091B00081608093B0004C
:1007A00080917A00846080937A0080917A008260E0
:1007B00080937A0080917A00816080937A008091A2
:1007C0007A00806880937A001092C100E0913D0128
:1007D000F0913E0182E08083E0913901F0913A018D
:1007E0001082E0913B01F0913C018FEC80831092EC
:1007F0004501E0914101F091420186E08083E09162
:100800003F01F0914001808180618083E0913F0150
:10081000F0914001808188608083E0913F01F091F8
:100820004001808180688083E0913F01F091400128
:1008300080818F7D808363E070E082EF90E00E9492
:10084000D40270E060E082ED90E00E94D40261E0AA
:1008500070E082EB90E00E94D40262E070E082E9F6
:1008600090E00E94D40264E070E082E790E00E9491
:10087000D40268EB7BE080E090E00E944401CE016E
:1008800001966C01EE24FF24E81AF90A412C512C40
:1008900032014E0191E2890E911C8601C8018E0D34
:1008A0009F1D0E940405F80181938F018E169F06FB
:1008B000A9F782E191E00E9483024AE0C301B201FC
:1008C0000E94900280E291E00E94830280E291E027
:1008D0000E9483025601F50161915F0170E090E092
:1008E00080E040E10E9490028EE191E00E9483024C
:1008F000A016B10681F780E291E00E94830280E2B7
:1009000091E00E94830268EE73E080E090E00E9434
:100910004401FFEF4F1A5F0A6F0A7F0A80E2E80E78
:10092000F11C95E0491651046104710409F0B5CF3A
:1009300068E873E180E090E00E944401EDE3F1E0BB
:100940002491E9E2F1E08491882399F090E0880F06
:10095000991FFC01E859FF4FA591B491FC01EE5E8F
:10096000FE4F859194918FB7F894EC91E22BEC9324
:100970008FBF00E010E081E00E94D70068EE73E0D6
:1009800080E090E00E94440180E00E94D70068EE81
:1009900073E080E090E00E9444010115110559F3D5
:1009A0000E94E001882339F30E940000E4CFEDE2C9
:1009B000F1E01382128288EE93E0A0E0B0E084833D
:1009C0009583A683B78384E091E09183808385EC4F
:1009D00090E09587848784EC90E09787868780EC09
:1009E00090E0918B808B81EC90E0938B828B82ECFA
:1009F00090E0958B848B86EC90E0978B868B118EA4
:100A0000128E138E148E0895F999FECF92BD81BD7A
:100A1000F89A992780B50895262FF999FECF1FBA25
:100A200092BD81BD20BD0FB6F894FA9AF99A0FBE17
:100A300001960895A1E21A2EAA1BBB1BFD010DC051
:100A4000AA1FBB1FEE1FFF1FA217B307E407F5077E
:100A500020F0A21BB30BE40BF50B661F771F881F5A
:100A6000991F1A9469F760957095809590959B01F0
:100A7000AC01BD01CF010895EE0FFF1F0590F49169
:100A8000E02D0994F894FFCF0000000016027601D3
:100A9000A3016302D401B201C601424954204D4171
:0C0AA00050205049432020000D0A0000A7
:107E0000112484B714BE81FFF0D085E080938100F7
:107E100082E08093C00088E18093C10086E0809377
:107E2000C20080E18093C4008EE0C9D0259A86E02C
:107E300020E33CEF91E0309385002093840096BBD3
:107E4000B09BFECF1D9AA8958150A9F7CC24DD24C4
:107E500088248394B5E0AB2EA1E19A2EF3E0BF2EE7
:107E6000A2D0813461F49FD0082FAFD0023811F036
:107E7000013811F484E001C083E08DD089C08234E0
:107E800011F484E103C0853419F485E0A6D080C0E4
:107E9000853579F488D0E82EFF2485D0082F10E0AE
:107EA000102F00270E291F29000F111F8ED06801E7
:107EB0006FC0863521F484E090D080E0DECF843638
:107EC00009F040C070D06FD0082F6DD080E0C81688
:107ED00080E7D80618F4F601B7BEE895C0E0D1E017
:107EE00062D089930C17E1F7F0E0CF16F0E7DF06D8
:107EF00018F0F601B7BEE89568D007B600FCFDCFD4
:107F0000A601A0E0B1E02C9130E011968C91119780
:107F100090E0982F8827822B932B1296FA010C0160
:107F200087BEE89511244E5F5F4FF1E0A038BF0790
:107F300051F7F601A7BEE89507B600FCFDCF97BE46
:107F4000E89526C08437B1F42ED02DD0F82E2BD052
:107F50003CD0F601EF2C8F010F5F1F4F84911BD097
:107F6000EA94F801C1F70894C11CD11CFA94CF0C13
:107F7000D11C0EC0853739F428D08EE10CD085E9AC
:107F80000AD08FE07ACF813511F488E018D01DD067
:107F900080E101D065CF982F8091C00085FFFCCF94
:107FA0009093C60008958091C00087FFFCCF809118
:107FB000C00084FD01C0A8958091C6000895E0E648
:107FC000F0E098E1908380830895EDDF803219F02E
:107FD00088E0F5DFFFCF84E1DECF1F93182FE3DFCA
:107FE0001150E9F7F2DF1F91089580E0E8DFEE27F6
:047FF000FF270994CA
:027FFE00040479
:00000001FF
