:100000000C947D050C94A5050C94A5050C94A505F0
:100010000C94A5050C94A5050C94A5050C94A505B8
:100020000C94A5050C94A5050C94A5050C94A505A8
:100030000C94A5050C94A5050C94A5050C94A50598
:100040000C943B170C94A5050C94AB170C948517D6
:100050000C94A5050C94A5050C94A5050C94A50578
:100060000C94DD170C94A50500000000003E5B4FCA
:100070005B3E3E6B4F6B3E1C3E7C3E1C183C7E3C08
:10008000181C577D571C1C5E7F5E1C00183C180016
:10009000FFE7C3E7FF0018241800FFE7DBE7FF30A6
:1000A000483A060E2629792926407F050507407F14
:1000B00005253F5A3CE73C5A7F3E1C1C08081C1C87
:1000C0003E7F14227F22145F5F005F5F06097F017D
:1000D0007F006689956A606060606094A2FFA29468
:1000E00008047E040810207E201008082A1C080836
:1000F0001C2A08081E101010100C1E0C1E0C303884
:100100003E3830060E3E0E06000000000000005F84
:1001100000000007000700147F147F14242A7F2AA0
:100120001223130864623649562050000807030062
:10013000001C2241000041221C002A1C7F1C2A08AE
:10014000083E080800807030000808080808000011
:1001500060600020100804023E5149453E00427F85
:10016000400072494949462141494D331814127FD4
:100170001027454545393C4A494931412111090774
:100180003649494936464949291E000014000000F5
:1001900040340000000814224114141414140041C7
:1001A00022140802015909063E415D594E7C121184
:1001B000127C7F494949363E414141227F414141BC
:1001C0003E7F494949417F090909013E4141517337
:1001D0007F0808087F00417F41002040413F017FA8
:1001E000081422417F404040407F021C027F7F0470
:1001F00008107F3E4141413E7F090909063E4151B9
:10020000215E7F09192946264949493203017F01A8
:10021000033F4040403F1F2040201F3F4038403FA9
:10022000631408146303047804036159494D4300BF
:100230007F4141410204081020004141417F0402F6
:10024000010204404040404000030708002054548D
:1002500078407F284444383844444428384444286B
:100260007F385454541800087E090218A4A49C78BE
:100270007F0804047800447D40002040403D007F1A
:100280001028440000417F40007C047804787C08FA
:100290000404783844444438FC18242418182424CE
:1002A00018FC7C08040408485454542404043F44B3
:1002B000243C4040207C1C2040201C3C4030403CE2
:1002C00044281028444C9090907C4464544C440042
:1002D00008364100000077000000413608000201A6
:1002E0000204023C2623263C1EA1A161123A404092
:1002F000207A38545455592155557941225454780F
:1003000042215554784020545579400C1E527212A7
:100310003955555559395454545939555454580030
:1003200000457C410002457D420001457C407D1234
:1003300011127DF0282528F07C5455450020545496
:100340007C547C0A097F4932494949323A44444441
:100350003A324A4848303A4141217A3A424020787C
:10036000009DA0A07D3D4242423D3D4040403D3C7D
:1003700024FF2424487E4943662B2FFC2F2BFF09A2
:1003800029F620C0887E0903205454794100004496
:100390007D413048484A32384040227A007A0A0A81
:1003A000727D0D19317D2629292F282629292926F4
:1003B00030484D4020380808080808080808382F39
:1003C00010C8ACBA2F102834FA00007B00000814C3
:1003D0002A142222142A14085500550055AA55AA99
:1003E00055AAFF55FF55FF000000FF00101010FF39
:1003F00000141414FF001010FF00FF1010F010F094
:10040000141414FC001414F700FF0000FF00FF1484
:1004100014F404FC141417101F10101F101F1414D0
:10042000141F00101010F0000000001F101010101A
:100430001F10101010F010000000FF10101010100E
:1004400010101010FF10000000FF140000FF00FF4C
:1004500000001F10170000FC04F4141417101714E8
:1004600014F404F40000FF00F7141414141414140A
:10047000F700F7141414171410101F101F1414147D
:10048000F4141010F010F000001F101F0000001FE7
:1004900014000000FC140000F010F01010FF10FF1A
:1004A000141414FF141010101F00000000F010FFAF
:1004B000FFFFFFFFF0F0F0F0F0FFFFFF0000000093
:1004C00000FFFF0F0F0F0F0F3844443844FC4A4A17
:1004D0004A347E02020606027E027E0263554941CC
:1004E000633844443C04407E201E2006027E020203
:1004F00099A5E7A5991C2A492A1C4C7201724C3017
:100500004A4D4D303048784830BC625A463D3E49ED
:100510004949007E0101017E2A2A2A2A2A44445F91
:10052000444440514A444040444A51400000FF0185
:1005300003E080FF000008086B6B08361236243693
:10054000060F090F060000181800000010100030F8
:1005500040FF0101001F01011E00191D1712003C80
:100560003C3C3C0000000000000103070F1F3F7FE0
:100570000080C0E0F0F8FCFEDB40A4A62EAF200017
:10058000A1C8D300408DAED580A800006000000057
:100590000000000000000000000000E0000000007B
:1005A00000000000000000000001E000000000006A
:1005B000000000000000000001F00000000000004A
:1005C0000000000000000003F00000000000000038
:1005D00000000000000007F0000000000000000024
:1005E000000000000007F80000000000000000000C
:1005F000000000000FF800000003C0007E000001B2
:10060000E0007F0FF800000003C000FE000001E0E2
:1006100000FFEFF800000003C000FE000001E00052
:10062000FFFFF800000003C000F00000000F007F93
:10063000FE7FC0000003C000F00000000F003FFE7E
:100640007FF83FF1FBCFFCFEF3BC3DEFE01FFE7FE8
:10065000FF7FFBFFDFFEFEFFBC3DEFE01FC6FFFF9D
:100660007FFBFFDFFEFEFFBC3DEFE00FE3C7FE7840
:100670007BC3DE1EF0FFBC3DEF0007FF87FC787BED
:10068000C3DE1EF0F83C3DEF0001FFFFF0007BC32E
:10069000C01EF0F03C3DEF0001F37FE03FFBC3CF15
:1006A000FEF0F03C3DEF0003E33F807FFBC3DFFE45
:1006B000F0F03C3DEF0007E73C00787BC3DE1EF026
:1006C000F03C3DEF0007FFBE00787BC3DE1EF0F07C
:1006D0003C3DEF0007FFFE00787BC3DE1EF0F03CE0
:1006E0003DEF000FFFFE007FFBFFDFFEF0F03FFD60
:1006F000EFE00FFFFF007FFBFFDFFEF0F03FFDEFBD
:10070000E00FF9FF003E79F9CF9EF0F01F3DE7E0E2
:100710001FF1FF0000000000000000000000001FAB
:1007200080FF007FFFFFFFFFFFFFFFFFFFE01C00D8
:100730007F007FFFFFFFFEB46D888D18E000001F73
:10074000007FFFFFFFFE95AD7DB577E000000F0055
:100750007FFFFFFFFEA5AD9D8D19E0000006007F25
:10076000FFFFFFFEB5ADEDB57EE00000000000012B
:100770008000000000000000000003800000000076
:10078000000000000007C0000000000000000000A2
:1007900007C00000000000000000000FC0000000C3
:1007A0000000000000001FE000000000000000004A
:1007B000001FE00000000000000000003FE000001B
:1007C000000000000000003FF000000000000000FA
:1007D00000007FF0000000000000001FF87FF00024
:1007E0000000000000003FFE7FF00000000000005D
:1007F000003FFF7FF0000000000000001FFFFBE053
:10080000000000000000000FFFF9FFC00000000022
:1008100000000FFFF9FFF800000000000007FFF1E3
:10082000FFFF00000000000003FC73FFFF800000DA
:1008300000000001FE3FFFFF80000000000000FFFD
:100840001E0FFF000000000000007FFE1FFC0000E4
:1008500000000000003FFFFFF80000000000000063
:100860000FDFFFE0000000000000001F19FFC000C4
:100870000000000000003F3CFF00000000000000FE
:10088000007E7CF800000000000000007FFE7C007D
:1008900000000000000000FFFFFC0000000000005E
:1008A0000000FFFFFE0000000000000000FFFFFE50
:1008B0000000000000000001FFEFFE00000000004B
:1008C000000001FFCFFE0000000000000003FF0752
:1008D000FE0000000000000003FC07FE0000000016
:1008E00000000003F003FE00000000000000018093
:1008F00000FE000000000000000000007E0000007C
:10090000000000000000003E0000000000000000A9
:1009100000000C000000000000078000FC00000345
:10092000C0000000078001FC000003C000000007B9
:100930008001FC000003C0000000078001E000000F
:10094000001E000000078001E00000001E007FE3A1
:10095000F79FF9FDE7787BDFC0FFF7FFBFFDFDFFE5
:10096000787BDFC0FFF7FFBFFDFDFF787BDFC0F0C6
:10097000F787BC3DE1FF787BDE00F0F787BC3DE107
:10098000F0787BDE0000F787803DE1E0787BDE00D9
:100990007FF7879FFDE1E0787BDE00FFF787BFFDF3
:1009A000E1E0787BDE00F0F787BC3DE1E0787BDEBC
:1009B00000F0F787BC3DE1E0787BDE00F0F787BC14
:1009C0003DE1E0787BDE00FFF7FFBFFDE1E07FFB6C
:1009D000DFC0FFF7FFBFFDE1E07FFBDFC07CF3F38B
:1009E0009F3DE1E03E7BCFC0000000000000000022
:1009F000000000FFFFFFFFFFFFFFFFFFFFC0FFFF43
:100A0000FFFFFD68DB111A31C0FFFFFFFFFD2B5A0E
:100A1000FB6AEFC0FFFFFFFFFD4B5B3B1A33C0FFDC
:100A2000FFFFFFFD6B5BDB6AFDC030780048656C43
:100A30006C6F2C20776F726C64210000FF2F2600F2
:100A400000FF2F2700012F2900A300012F2A00A358
:100A5000007363726F6C6C002064793A2000207917
:100A60003A2000783A200000C001C001C003E0F342
:100A7000E0FEF87EFF339F1FFC0D701BA03FE03FA0
:100A8000F07CF070700030535344313330362061C5
:100A90006C6C6F636174696F6E206661696C65640C
:100AA000000000000800020100000304070000002D
:100AB000000000000000000000250028002B0000BE
:100AC000000000240027002A000404040404040495
:100AD00004020202020202030303030303010204ED
:100AE00008102040800102040810200102040810B0
:100AF000202200FF2100FC18652611241FBECFEF25
:100B0000D8E0DEBFCDBF11E0A0E0B1E0ECE9F1E557
:100B100002C005900D92AE35B107D9F723E0AEE5DE
:100B2000B1E001C01D92AF30B207E1F715E0CCE7AC
:100B3000D5E004C02197FE010E948A27CB37D10758
:100B4000C9F70E947F190C94C1280C9400000895E5
:100B500090E0FC01E352F54F24918753954FFC013F
:100B60008491882399F090E0880F991FFC01E1544B
:100B7000F54FA591B491FC01EB54F54F85919491FB
:100B80008FB7F894EC91E22BEC938FBF089590E02F
:100B9000FC01EF55F54F2491FC01E352F54F3491E0
:100BA000FC01E753F54FE491EE23C9F0222339F01D
:100BB000233001F1A8F4213019F1223029F1F0E0BD
:100BC000EE0FFF1FEB54F54FA591B4918FB7F8943A
:100BD000EC91611126C030953E233C938FBF089560
:100BE0002730A9F02830C9F0243049F780918000DF
:100BF0008F7D03C0809180008F7780938000DFCF4E
:100C000084B58F7784BDDBCF84B58F7DFBCF80919A
:100C1000B0008F778093B000D2CF8091B0008F7DED
:100C2000F9CF3E2BDACF3FB7F89480911A0290911A
:100C30001B02A0911C02B0911D0226B5A89B05C005
:100C40002F3F19F00196A11DB11D3FBFBA2FA92F4B
:100C5000982F8827BC01CD01620F711D811D911D48
:100C600042E0660F771F881F991F4A95D1F70895B4
:100C70008F929F92AF92BF92CF92DF92EF92FF92AC
:100C80004B015C010E9413066B017C010E9413065C
:100C90006C197D098E099F09683E73408105910595
:100CA000A8F321E0821A9108A108B10888EEC80EC5
:100CB00083E0D81EE11CF11C81149104A104B1044D
:100CC00029F7FF90EF90DF90CF90BF90AF909F906B
:100CD0008F90089508950895EF92FF920F931F93B8
:100CE000CF93DF938C017B01D0E0C0E0F701EC0FE4
:100CF000FD1F6491662361F0D801ED91FC91019094
:100D0000F081E02DC8010995892B11F02196EECFD5
:100D1000CE01DF91CF911F910F91FF90EF90089539
:100D2000AF92BF92CF92DF92EF92FF920F931F93F9
:100D3000CF93DF936C017B018B01040F151FEB0137
:100D40005E01AE18BF08C017D10759F06991D601EE
:100D5000ED91FC910190F081E02DC6010995892B60
:100D600079F7C501DF91CF911F910F91FF90EF901F
:100D7000DF90CF90BF90AF900895FC01538D448DCC
:100D8000252F30E0842F90E0821B930B541710F036
:100D9000CF96089501970895FC01918D828D981743
:100DA00061F0A28DAE0FBF2FB11D5D968C91928D1B
:100DB0009F5F9F73928F90E008958FEF9FEF08954C
:100DC000FC01918D828D981731F0828DE80FF11D15
:100DD000858D90E008958FEF9FEF0895FC01918D30
:100DE000228D892F90E0805C9F4F821B91098F7329
:100DF0009927089582E292E00E94EE0621E0892B75
:100E000009F420E0822F089580E090E0892B29F0FA
:100E10000E94FA0681110C9400000895FC01A48D33
:100E2000A80FB92FB11DA35ABF4F2C91848D90E00C
:100E300001968F739927848FA689B7892C93A089EF
:100E4000B1898C91837080648C93938D848D981379
:100E500006C00288F389E02D80818F7D808308950C
:100E6000EF92FF920F931F93CF93DF93EC0181E0FA
:100E7000888F9B8D8C8D98131AC0E889F9898081A1
:100E800085FF15C09FB7F894EE89FF896083E889D4
:100E9000F98980818370806480839FBF81E090E0C6
:100EA000DF91CF911F910F91FF90EF900895F62E53
:100EB0000B8D10E00F5F1F4F0F731127E02E8C8DED
:100EC0008E110CC00FB607FCFACFE889F989808132
:100ED00085FFF5CFCE010E940E07F1CFEB8DEC0F11
:100EE000FD2FF11DE35AFF4FF0829FB7F8940B8F4F
:100EF000EA89FB8980818062CFCFCF93DF93EC01B9
:100F0000888D8823B9F0AA89BB89E889F9898C91F1
:100F100085FD03C0808186FD0DC00FB607FCF7CFAD
:100F20008C9185FFF2CF808185FFEDCFCE010E94AD
:100F30000E07E9CFDF91CF910895EF92FF920F93C3
:100F40001F93CF93DF93EC01EC80FD806E157F053E
:100F50000CF070C057FF04C0240F351F50E040E074
:100F60008E819F81FA01E20FF31F8E179F071CF4F9
:100F70009C01241B350B121613060CF05BC0922F3C
:100F8000842F8695869586958E9DD0018F9DB00D78
:100F900011246A0F7B1FAF8DB8A1A60FB71F477032
:100FA00049F188E0841B482F682F70E0FB01E0596D
:100FB000FA4FE491281708F063C0621B71092FEF04
:100FC00030E002C0359527956A95E2F7E2230130BB
:100FD000110539F0B0F10230110561F58C91E82767
:100FE00002C08C91E82BEC93941720F12C813D8169
:100FF000A20FB31FE92FE41BE83078F0023011058F
:1010000021F58E2F9C9190959C932C813D81A20F70
:10101000B31F88508830B0F7E770EE2359F0F0E046
:10102000E859FA4FE49101301105F9F010F102305E
:10103000110519F1DF91CF911F910F91FF90EF9062
:101040000895E0958C91E823CECF81E0011511053C
:1010500009F480E081959E2F8C932C813D81A20F15
:10106000B31F98509830C0F7D7CF8C91E82BEC93F2
:10107000E1CFE0958C91E823FACF8C91E827F7CF68
:101080000130110509F4ADCFE0F20230110509F489
:10109000A5CFAE0DBF1DAECF0F931F93CF93DF93A0
:1010A00077FF04C0260F371F70E060E0DC01149664
:1010B000CD91DC91FB01E20FF31FCE17DF071CF48B
:1010C0009E01261B370B121613064CF5FA0157FD2D
:1010D0003796A3E0F595E795AA95E1F7EC9FD00147
:1010E000ED9FB00DFC9FB00D11246A0F7B1FDC013A
:1010F0005F96ED91FC91E60FF71F4770552781E051
:1011000090E001C0880F4A95EAF7482F0130110599
:1011100059F0A8F02E0F3F1F02301105E1F0DF91CA
:10112000CF911F910F9108952E0F3F1FE217F307E4
:10113000B1F38191DF011197842B8C93F7CF8095C8
:101140002E0F3F1FE217F30751F39191DF01119723
:1011500098239C93F7CFE217F30709F38191DF01FE
:10116000119784278C93F7CF0F931F93FA01DC011B
:1011700056964C9156974230E9F04330A1F14130F8
:1011800061F514964D915C91DA01AE1BBF0BFD0128
:10119000E21BF30B77FD0BC0DC0116964D915C91C1
:1011A0006417750724F4AB01BF010E944C081F911E
:1011B0000F91089514964D915C91DA01A61BB70B1F
:1011C000BD0161507109DC0116964D915C91DA0107
:1011D000AE1BBF0BFD01E21BF30B77FDE8CFAF01A8
:1011E0000E949D07E4CF16964D915C91DA01A61BF3
:1011F000B70BBD0161507109CDCF0F931F93FA0159
:10120000DC0156964C9156974230A9F0433091F14B
:10121000413019F514964D915C91DA01AE1BBF0B6C
:10122000FD013197F7FD04C0AB01BF010E949D078E
:101230001F910F91089514964D915C91DA01A61BB0
:10124000B70BBD01DC0116964D915C91DA01AE1B26
:10125000BF0BFD013197621B730BF7FDE9CFDC017A
:1012600016964D915C91E417F50714F7AF010E94B3
:101270004C08DECF16964D915C91DA01A61BB70B98
:10128000BD01621B730BCECFFC0177FD64C080856E
:101290009185681779070CF05EC057FD5CC08285A8
:1012A0009385481759070CF056C086898230B1F0F3
:1012B000833029F1813041F484819581841B950B21
:1012C000AB01BC01615071092130310509F108F40D
:1012D00043C02230310509F463C0089584819581AB
:1012E000DC01A61BB70BBD01615071098681978196
:1012F000DC01A41BB50BAD0141505109E5CF86813E
:101300009781861B970BBA01AC0141505109DCCF84
:10131000CA0157FD0796A3E095958795AA95E1F731
:10132000A481B5818A9F90018B9F300D9A9F300DCB
:101330001124620F731F078CF0A1E02DE60FF71F39
:101340004770552721E030E001C0220F4A95EAF7A7
:101350008081822B80830895CA0157FD079633E070
:10136000959587953A95E1F7A481B5818A9F90017B
:101370008B9F300D9A9F300D1124620F731F078CC5
:10138000F0A1E02DE60FF71F4770552781E090E0B0
:1013900001C0880F4A95EAF7809590818923DACFBA
:1013A000CA0157FD079623E0959587952A95E1F7A1
:1013B000A481B5818A9F90018B9F300D9A9F300D3B
:1013C0001124620F731F078CF0A1E02DE60FF71FA9
:1013D0004770552721E030E001C0220F4A95EAF717
:1013E00080818227B7CF08958EBD00000DB407FE1F
:1013F000FDCF8EB508958CBD9DBD08950895FC0167
:101400006370668B8481958126813781613039F0E4
:10141000633029F091878087338722870895318749
:1014200020879387828708952F923F924F925F92F1
:101430006F927F928F929F92AF92BF92CF92DF92E4
:10144000EF92FF920F931F93CF93DF93CDB7DEB749
:101450006A970FB6F894DEBF0FBECDBF9A8F898F03
:101460007A8369834A01D22E18870F833701BC2CF7
:10147000DC0159962D913C915A972115310509F0BF
:1014800015C118968D919C911997681779070CF0E2
:10149000D7C11A968D919C91481759070CF0D0C16D
:1014A0004C2C512CB6E0CB9E600D711D11247C8715
:1014B0006B87161617060CF0C3C1EA2DF0E0FA8709
:1014C000E98793E0EE0FFF1F9A95E1F7F88BEF871E
:1014D000CF01840F951F181619060CF0B1C1A98D04
:1014E000BA8D58968C91811104C0BFEABD1508F4DD
:1014F000D394A98DBA8DED91FC9111970284F38557
:10150000E02DCD010995B5E0DB9EC0011124E981F4
:10151000FA81FC83EB83312C212C9C0128593F4F0D
:10152000388F2F8B4A2D50E05E8B4D8BEF89F88DD5
:10153000E20DF31D44919E828D82D12CC12C6981D4
:101540007A81620D731D7A8B698B842F90E09C8B5E
:101550008B8BE98DFA8DA081B18140FF82C0F1E0D3
:10156000BF126FC0AF126DC01C96ED91FC912F8120
:101570003885A4014C0D5D1D69897A89898D9A8D04
:101580000995EB89FC89F595E7954E2F5FEFC51A14
:10159000D50A6D817E818D899E89680F791F7E8332
:1015A0006D8398E0C916D10481F6AFEF2A1A3A0A82
:1015B000EB81FC81E40DF51DFC83EB83F5E02F1638
:1015C000310409F0B3CF2F81388526153705B9F0DE
:1015D000A98DBA8DED91FC91B1E0BB1257C0AB1251
:1015E00055C069817A816B5F7F4F0088F189E02D5A
:1015F000830128E030E0A401898D9A8D0995A98D99
:10160000BA8DED91FC9111970688F789E02DCD01F7
:101610006A960FB6F894DEBF0FBECDBFDF91CF91B3
:101620001F910F91FF90EF90DF90CF90BF90AF9000
:101630009F908F907F906F905F904F903F902F90F2
:1016400009941E96ED91FC91EF80F88409851A8526
:1016500092014D815E816B817C81898D9A8D099586
:1016600090CF2F8138852615370509F48ACF31E0D0
:10167000B31207C0A31205C01C96ED91FC91930113
:1016800078CF1E96ED91FC917301E0CF6B857C8540
:10169000641975090684F785E02D73010F85188993
:1016A0009201A401898D9A8D0995A9CFF9013496EB
:1016B0009491329745915491D91AB7E0DB9E400D31
:1016C000511D1124F901259134913C8B2B8BFA018A
:1016D00025903490FA013296749031963491398B7A
:1016E000329664903196449041E04C1518F04A15BA
:1016F00008F07FC0662D062C000C770B7C836B8373
:10170000842D042C000C990B9E838D83A98DBA8D9A
:10171000ED91FC9111970284F385E02DCD0109959F
:10172000512CD12CC12CEA2DF0E0FA87E9872B2D22
:1017300030E03C872B87A401440D511D47FC5A958E
:10174000588F4F8B69817A81660D711D67FC7A9580
:101750007E876D877989C71608F051CF2C2D30E030
:101760004D815E81420F531FA985BA854A9FC001F2
:101770004B9F900D5A9F900D1124FC01E80DF91D0F
:10178000F88BEF87852D612C4F89588D420F531FA1
:101790005E8B4D8B671408F050C044244394480E70
:1017A000877041F4C1010196EB89FC89E20DF31DBC
:1017B000D4901C01D7FE19C0A98DBA8DED91FC9172
:1017C000662D70E0B1E0BB1219C0AB1217C02D85B9
:1017D0003E85620F731F0484F585E02D2F813885C7
:1017E0004D895E89898D9A8D0995DD0C6394842DD0
:1017F000D1CF1E821D821C821B8288CF4B815C81CF
:10180000640F751FAB85BC856A9FC0016B9F900DEF
:101810007A9F900D112469817A81680F791F06845F
:10182000F785E02DEF80F88409851A859D014F85A5
:101830005889898D9A8D0995D8CF570CC3948ACF32
:101840006A960FB6F894DEBF0FBECDBFDF91CF9181
:101850001F910F91FF90EF90DF90CF90BF90AF90CE
:101860009F908F907F906F905F904F903F902F90C0
:1018700008958F929F92AF92CF92EF92FF920F9323
:101880001F93CF93DF93EC01262F898D9A8D0097BC
:1018900009F051C06A30D1F41D861C868D8948E05C
:1018A000849F900111248E859F85820F931F9F87AF
:1018B0008E8781E090E0DF91CF911F910F91FF9093
:1018C000EF90CF90AF909F908F9008956D3089F3F7
:1018D000CC88AD888F898823C1F08C859D8536E0C2
:1018E000C39E800D911D11244885598548175907BD
:1018F00064F44E855F851D861C8638E0A39EC0017A
:101900001124840F951F9F878E87EA88FB8808899A
:1019100019894E855F856C857D85CE010E94140AEC
:101920002C898C859D8546E0249F800D911D112476
:101930009D878C87BECF6A3069F41D861C86FC01AA
:101940003896E4912D898E859F85E29F800D911DAB
:101950001124ADCF6D3009F4ACCFFC013496349135
:10196000631708F4A6CF3296E491E61708F4A1CFE6
:10197000FC01329685909490462F431B342F47E00C
:10198000349F800C911C1124F401329634913196CD
:10199000E4913323A9F1EE2399F1CC88F401359633
:1019A000E491AD884F89442301F10E2E000CFF0B0A
:1019B000E30FF11DCE9EA001CF9E500D11246C852A
:1019C0007D85460F571F68857985641775076CF408
:1019D0004E855F851D861C86FC013896E491AE9E7F
:1019E000400D511D11245F874E87EA88FB880889C6
:1019F00019894E855F856C857D85CE010E94140A0C
:101A0000F4013496E4912C898C859D85E29F800DAC
:101A1000911D11248DCF6F927F928F929F92AF92E2
:101A2000BF92CF92DF92EF92FF920F931F93CF93CB
:101A3000DF93EC016B015A0139014801E881F9811A
:101A40000284F385E02D0995E881F9810288F38904
:101A5000E02D87019301A501B601CE010995A501ED
:101A6000480D591D41505109E881F9810288F389D7
:101A7000E02D9301B601CE010995E881F981008836
:101A8000F189E02D9401A501B601CE010995C60C9E
:101A9000D71CB60161507109E881F9810088F1898C
:101AA000E02D9401A501CE010995E881F981068810
:101AB000F789E02DCE01DF91CF911F910F91FF901B
:101AC000EF90DF90CF90BF90AF909F908F907F90DE
:101AD0006F9009946F927F928F929F92AF92BF9274
:101AE000CF92DF92EF92FF920F931F93CF93DF93EA
:101AF0005C01EB016A01490138018701DC01ED91CC
:101B0000FC916217730719F5641675062CF0962D73
:101B1000872D3A01C92ED82E9601261937092F5F35
:101B20003F4F048CF58DE02DA301BE01C501099541
:101B3000DF91CF911F910F91FF90EF90DF90CF90A9
:101B4000BF90AF909F908F907F906F9008954615B3
:101B5000570591F42617370724F0892D4B01C22F22
:101B6000D82F9E01281939092F5F3F4F068CF78D1A
:101B7000E02DA601B401DACF0284F385E02D0995AA
:101B8000D501ED91FC910488F589E02D8301940144
:101B9000A601BE01C5010995D501ED91FC9106880C
:101BA000F789E02DC501DF91CF911F910F91FF9033
:101BB000EF90DF90CF90BF90AF909F908F907F90ED
:101BC0006F900994EF92FF920F931F93DC011A9686
:101BD0000D911C911B9718962D913C911997ED91A1
:101BE000FC9100A0F1A1E02D7B0150E040E070E00D
:101BF00060E009951F910F91FF90EF9008954F922B
:101C00005F926F927F928F929F92AF92BF92CF928C
:101C1000DF92EF92FF920F931F93CF93DF936C01AC
:101C20002B015A0139014801DC01ED91FC9102843C
:101C3000F385E02D0995E201640C751CD601ED9148
:101C4000FC91C615D7055CF40088F189E02D870169
:101C50009401A501BE01C60109952196EFCF068822
:101C6000F789E02DC601DF91CF911F910F91FF9071
:101C7000EF90DF90CF90BF90AF909F908F907F902C
:101C80006F905F904F9009948F929F92AF92BF9206
:101C9000CF92DF92EF92FF920F931F93CF93DF9338
:101CA000EC015B014A016901E881F9810284F38555
:101CB000E02D099595012C0D3D1D21503109E8813C
:101CC000F9810488F589E02D78018401A401B5012A
:101CD000CE010995E881F9810688F789E02DCE01CA
:101CE000DF91CF911F910F91FF90EF90DF90CF90F8
:101CF000BF90AF909F908F9009948F929F92AF92D8
:101D0000BF92CF92DF92EF92FF920F931F93CF93E8
:101D1000DF93EC015B014A0169017801E881F981F7
:101D20000284F385E02D0995C80CD91C8601015069
:101D30001109E881F9810488F589E02D9501A40154
:101D4000B501CE010995E881F9810688F789E02D72
:101D5000CE01DF91CF911F910F91FF90EF90DF9017
:101D6000CF90BF90AF909F908F900994EF92FF9289
:101D70000F931F93DC01ED91FC9100A0F1A1E02DE8
:101D800009951F910F91FF90EF9008950F931F9366
:101D9000DC01ED91FC91068CF78DE02D09951F91EA
:101DA0000F9108950F931F93DC01ED91FC91048C2A
:101DB000F58DE02D09951F910F9108952F923F9277
:101DC0004F925F926F927F928F929F92AF92BF924B
:101DD000CF92DF92EF92FF920F931F93CF93DF93F7
:101DE000CDB7DEB72A970FB6F894DEBF0FBECDBFD2
:101DF0003C012B015A874987180181E090E05C0182
:101E0000A41AB50ACA01919581959109AC01440FB4
:101E1000551F5A834983C80101969C838B83F12CFB
:101E2000E12C88248394912C922F91709D832270B1
:101E30002E83AB014F5F5F4F58874F8389859A850B
:101E4000E816F9060CF07CC0C984DA84B7FC0CC033
:101E50006C0191E0C91AD10849815A814E5F5F4FE8
:101E60005A834983A40EB51E5FEFE51AF50A82E096
:101E7000880E911CA80CB91CCE14DF0464F19D815E
:101E8000992399F09601220F331F4B815C81240F17
:101E9000351F02E010E0A2014C195D09B701660D83
:101EA000771D8BEC92E00E94D20E5E81552399F053
:101EB0009601220F331F8B819C81280F391F02E06E
:101EC00010E0A2014C195D09B3016E197F098BEC7A
:101ED00092E00E94D20E49855A854C155D0569F144
:101EE0005D81552399F0940122503109220D331D53
:101EF00002E010E04F8158854E195F0969857A85A7
:101F0000660D771D8BEC92E00E94D20E8E818823A5
:101F1000A1F0940122503109220D331DB3014985EE
:101F20005A85641B750B02E010E04F8158854E19ED
:101F30005F098BEC92E00E94D20EDA86C9867ECFD2
:101F40002A960FB6F894DEBF0FBECDBFDF91CF91BA
:101F50001F910F91FF90EF90DF90CF90BF90AF90C7
:101F60009F908F907F906F905F904F903F902F90B9
:101F70000895DC01ED91FC910084F185E02D099438
:101F80002F923F924F925F926F927F928F929F9289
:101F9000AF92BF92CF92DF92EF92FF920F931F9377
:101FA000CF93DF937C016B01EA0181E090E05C015B
:101FB000A41AB50A66247724641A750A660C771C7D
:101FC00010E000E088248394912C822F8470582E96
:101FD000822F8270482E822F8870382E2170222EF8
:101FE0000C171D070CF079C0B7FC06C0219782E0E2
:101FF000680E711CA60CB71C0F5F1F4F82E0880E85
:10200000911CA80CB91C5520C1F021E030E0AE01B4
:102010004C0D5D1DB701600F711F8BEC92E00E94AB
:10202000B90F21E030E0A601400F511FBE016E0D37
:102030007F1D8BEC92E00E94B90F4420C1F021E09B
:1020400030E0A6014C1B5D0BB701600F711F8BECDC
:1020500092E00E94B90F21E030E0A601401B510B35
:10206000BE016E0D7F1D8BEC92E00E94B90F3320F4
:10207000C1F021E030E0A601400F511FB7016C1BF9
:102080007D0B8BEC92E00E94B90F21E030E0AE01B5
:102090004C0D5D1DB701601B710B8BEC92E00E9433
:1020A000B90F222009F49CCF21E030E0A601401BAB
:1020B000510BB7016C1B7D0B8BEC92E00E94B90FAA
:1020C00021E030E0A6014C1B5D0BB701601B710BDA
:1020D0008BEC92E00E94B90F83CFDF91CF911F91DB
:1020E0000F91FF90EF90DF90CF90BF90AF909F90B7
:1020F0008F907F906F905F904F903F902F900895BA
:102100003F924F925F926F927F928F929F92AF9287
:10211000BF92CF92DF92EF92FF920F931F93CF93D4
:10212000DF9300D000D0CDB7DEB75C013B016A0180
:102130004901C80107969C0193E0359527959A952A
:10214000E1F73A8329832A014E0C5F1CF12CE12C24
:10215000312CC414D50499F11C821B828B819C8183
:102160000817190721F187709927330C892B61F41F
:10217000EB81FC8183E0F595E7958A95E1F7EE0D1B
:10218000FF1DE80DF91D349037FE0AC021E030E054
:10219000A6016B817C81660D771DC5010E94B90F78
:1021A0002B813C812F5F3F4F3C832B83D7CF3FEF69
:1021B000C31AD30A89819A81E80EF91ECACF0F90FB
:1021C0000F900F900F90DF91CF911F910F91FF9083
:1021D000EF90DF90CF90BF90AF909F908F907F90C7
:1021E0006F905F904F903F9008952F923F924F9243
:1021F0005F926F927F928F929F92AF92BF92CF9297
:10220000DF92EF92FF920F931F93CF93DF9300D053
:1022100000D000D0CDB7DEB73C016A013E832D83EC
:10222000FC82EB825801A41AB50AB7FE03C0B19430
:10223000A194B1088D809E80861A970A97FE03C0EC
:102240009194819491088A149B045CF0902F812FC3
:102250000D811E819D838E839C2D8D2D6B01692F99
:10226000782F0C151D055CF09D818E817E836D831A
:10227000692F782F902F812F8601C92ED82E160115
:10228000201A310A2B012D813E81421A530A57FE32
:1022900003C0519441945108710137FE03C03FEFD0
:1022A000E31AF30AF594E7948D819E8186179707C8
:1022B0005CF5A1E0B0E0BA83A983C016D1064CF169
:1022C000D301ED91FC910484F585E02D2B813C81B7
:1022D000A8016D817E818A149B041CF04D815E8172
:1022E000B801C3010995E418F508F7FE0AC02D816D
:1022F0003E8189819A81280F391F3E832D83E20C0C
:10230000F31C0F5F1F4FD9CF2FEF3FEF3A83298385
:10231000D4CF26960FB6F894DEBF0FBECDBFDF91A7
:10232000CF911F910F91FF90EF90DF90CF90BF90D2
:10233000AF909F908F907F906F905F904F903F9065
:102340002F90089508952091C401260F3327331F3D
:1023500021323105ECF42091E801FC0190E080E0AD
:10236000243069F082E00895A091C4012191AC016C
:102370004C555E4FA40FB52FB11D2C9301968617B7
:1023800098F38091C401680F6093C40180E00895C0
:1023900081E008959B01AC0160E074E284EF90E07D
:1023A0000E944A2720513109410951095695479504
:1023B000379527952093B80008951092E80181E0A1
:1023C0008093EA011092E90161E082E10E94C70571
:1023D00061E083E10E94C705E9EBF0E080818E7F38
:1023E000808380818D7F808388E48093B80085E43A
:1023F0008093BC000895CF93DF9391E09093A30165
:102400008823B9F0C091B800D091BA008091BC0087
:102410008A7B8093BC0060E082E10E94C70560E097
:1024200083E10E94C7050E94DD11D093BA00C093DA
:10243000B800DF91CF910895E091140280911302CA
:10244000E81730F4F0E0E258FE4F808190E0089504
:102450008FEF9FEF089590911402809113022FEF58
:102460003FEF981748F4E92FF0E0E258FE4F208143
:1024700030E09F5F90931402C90108958091130288
:1024800090911402891B990B0895CF92DF92EF92DD
:10249000FF920F931F93CF93DF937C01CB018A01AF
:1024A00020912102222389F0EB016B01C40ED51E7D
:1024B000CC15DD0569F06991D701ED91FC91019092
:1024C000F081E02DC7010995F3CF642F0E94A3117D
:1024D000C801DF91CF911F910F91FF90EF90DF9096
:1024E000CF900895CF93DF931F92CDB7DEB7698366
:1024F000209121022223F9F020911E02203258F06F
:1025000021E030E0FC013383228390E080E00F90F3
:10251000DF91CF91089580911F02E82FF0E0E25AF9
:10252000FE4F998190838F5F80931F0280931E02DC
:1025300081E090E0ECCF61E0CE0101960E94A31112
:10254000F7CFCF92DF92EF92FF920F931F93CF932B
:10255000DF93D0911E0281E0D13208F09CC0C0917F
:1025600020020E9413066B017C018091E801811119
:102570006CC082E08093E80181E08093EA018FEFF4
:102580008093E70110920C02D0930B02AEE5B1E00C
:10259000EBEEF1E080E0D8138DC010920D02809137
:1025A0000D02CC0FC82BC0930D028091E901813040
:1025B00009F084C01092E9010E9413066B017C01AE
:1025C00080910D028093BB0080919F019091A001AA
:1025D000A091A101B091A201892B8A2B8B2BA1F094
:1025E0000E94130600919F011091A0012091A1016A
:1025F0003091A2016C197D098E099F0906171707F2
:102600002807390708F442C08091BC0083FDD8CF69
:1026100085EC8093BC000E9413066B017C018091C5
:10262000E801823009F44CC08091E7018F3F09F442
:1026300069C08091E701803209F466C08091E701AA
:10264000803309F463C084E026C080919F0190919B
:10265000A001A091A101B091A201892B8A2B8B2B03
:1026600009F483CF0E94130600919F011091A001ED
:102670002091A1013091A2016C197D098E099F0959
:10268000061717072807390708F06FCF80919E01BA
:102690000E94FB1185E010921F0210921E02109200
:1026A0002102DF91CF911F910F91FF90EF90DF906A
:1026B000CF9008959D9191938F5F6DCF85EEA9CFB7
:1026C00080919F019091A001A091A101B091A201E0
:1026D000892B8A2B8B2B09F4A2CF0E941306009121
:1026E0009F011091A0012091A1013091A2016C19CC
:1026F0007D098E099F09061717072807390708F073
:102700008ECFC4CF80E0C7CF82E0C5CF83E0C3CFF8
:10271000EF92FF920F931F93CF93DF937C01C62F0D
:102720008091E8029091E902009709F459C0209144
:10273000EC0231E0309321022093200210921F021C
:1027400010921E02DC01ED91FC910190F081E02DD0
:1027500060E009958701EE24E394F12CD1E0C150AB
:102760008091E8029091E902CF3F91F1B0E2EB163F
:10277000F104D8F00E94A1128091E8029091E90240
:102780002091EC02D09321022093200210921F028C
:1027900010921E02DC01ED91FC910190F081E02D80
:1027A00060E00995EE24E394F12C8091E802909189
:1027B000E902F8016491DC01ED91FC910190F08156
:1027C000E02D0995BFEFEB1AFB0A0F5F1F4FC7CF34
:1027D000DF91CF911F910F91FF90EF900C94A11278
:1027E000E091F802F091F90290818091FE028095CB
:1027F000892380838701C15008F438C0F80184918F
:102800002091E6023091E702232B29F00E94F4097F
:102810000F5F1F4FF0CF28E030E040E8E091F40276
:10282000F091F5029091FC02582F5423D9F0508179
:10283000952B9083E091F602F091F70290815091F0
:10284000FD02952B9083E091F602F091F702508102
:102850009091FD02909595239083469521503109E2
:10286000E9F6D6CF508190959523E3CFDF91CF91B4
:102870001F910F91FF90EF9008951F93CF93DF93D7
:10288000EC018D8D9E8D009721F1162F29A131E04D
:10289000309321022093200210921F0210921E02F8
:1028A000DC01ED91FC910190F081E02D60E0099553
:1028B0008D8D9E8DDC01ED91FC910190F081E02DDC
:1028C000612F09958D8D9E8DDF91CF911F910C9475
:1028D000A112ADA5BEA59C918BA9809589238C934F
:1028E0008B8D9C8D892B31F0862FDF91CF911F919D
:1028F0000C94F40928E030E080E8A9A5BAA599A9CC
:10290000462F4823C1F04C91942B9C93ABA5BCA5BA
:102910009C914AA9942B9C93ABA5BCA54C919AA9D8
:10292000909594239C9386952150310931F7DF913E
:10293000CF911F9108954C9190959423E6CFDF920B
:10294000EF92FF920F931F93CF93DF938091E80252
:102950009091E902892B09F48AC06091000370917B
:10296000010380910203909103030E94CA1165E064
:1029700081EF9AE00E9488136091CF0261508BEC46
:1029800092E00E943D142091D1023091D202C901FF
:10299000079697FD079623E0959587952A95E1F789
:1029A0002091CF023091D002829F8001839F100D31
:1029B000929F100D1124C091EA02D091EB028091F8
:1029C000E8029091E9020C0F1D1F009709F480C0E6
:1029D0002091EC0231E030932102209320021092EA
:1029E0001F0210921E02DC01ED91FC910190F0811A
:1029F000E02D60E40995EE24E394F12CDD24D394DA
:102A00008091E8029091E9020C171D0709F446C075
:102A1000B0E2EB16F104D8F00E94A1128091E80216
:102A20009091E9022091EC02D092210220932002A1
:102A300010921F0210921E02DC01ED91FC91019098
:102A4000F081E02D60E40995EE24E394F12C80916F
:102A5000E8029091E9026991DC01ED91FC9101900D
:102A6000F081E02D0995BFEFEB1AFB0AC9CF8091E9
:102A7000E6029091E702892B31F080910903909151
:102A80000A030E94FB09E091FA02F091FB02908197
:102A90008091FF0280958923808369CF0E94A112D3
:102AA0008091E8029091E902892B09F452C060916B
:102AB0000403709105038091060390910703DF9151
:102AC000CF911F910F91FF90EF90DF900C94CA115E
:102AD000E091F802F091F90280819091FE02892B39
:102AE00080830C171D07E1F289912091E602309155
:102AF000E702232B19F00E94F409F3CF28E030E01D
:102B000040E8E091F402F091F5029091FC02582F18
:102B10005423D9F05081952B9083E091F602F091E7
:102B2000F70290815091FD02952B9083E091F6027F
:102B3000F091F70250819091FD029095952390833A
:102B4000469521503109E9F6CCCF508190959523D7
:102B5000E3CFE091FA02F091FB0280819091FF02B5
:102B6000892B8083DF91CF911F910F91FF90EF9080
:102B7000DF9008958091E8029091E902892BF9F0A5
:102B8000609100037091010380910203909103030F
:102B90000E94CA116EE28BEC92E00E943D1480917B
:102BA000E8029091E902892B09F160910403709188
:102BB000050380910603909107030C94CA1180913C
:102BC000E6029091E702892B31F080910903909100
:102BD0000A030E94FB09E091FA02F091FB02908146
:102BE0008091FF02809589238083D4CFE091FA02FF
:102BF000F091FB0280819091FF02892B80830895E0
:102C00001F93CF93DF93EC01162F8D8D9E8D892B13
:102C1000C9F06DA97EA98FA998AD0E94CA1166EA74
:102C2000111167EACE010E943D148D8D9E8D892B76
:102C3000C9F069AD7AAD8BAD9CADDF91CF911F919D
:102C40000C94CA118B8D9C8D892B21F08EAD9FAD7C
:102C50000E94FB09EFA5F8A990818CA98095892392
:102C60008083DDCFEFA5F8A980819CA9892B808383
:102C7000DF91CF911F91089590E080E00895209119
:102C8000D1023091D202C901079697FD079623E041
:102C9000959587952A95E1F72091CF023091D00242
:102CA000829FA001839F500D929F500D112470E0D0
:102CB00060E08091EA029091EB020C94BA280E94A5
:102CC000B528FB0101900020E9F73197AF01461BC1
:102CD000570BDC01ED91FC910280F381E02D09940A
:102CE0008F929F92AF92BF92EF92FF920F931F939A
:102CF000CF93DF93CDB7DEB7A1970FB6F894DEBFC1
:102D00000FBECDBF7C01FA01CB0119A2223008F41D
:102D10002AE08E010F5D1F4F822E912CB12CA12C29
:102D2000BF01A50194010E944A27F901CA016A3036
:102D30000CF5605DD8016E938D01232B242B252B80
:102D400079F790E080E0109721F0BD01C7010E9463
:102D50006116A1960FB6F894DEBF0FBECDBFDF910E
:102D6000CF911F910F91FF90EF90BF90AF909F90E8
:102D70008F900895695CDECFCF92DF92EF92FF9241
:102D8000CF93DF936B017C016DE282E292E00E94BF
:102D90003007EC0144275527BA014C195D096E092B
:102DA0007F092AE082E292E00E9470168C0F9D1F3C
:102DB000DF91CF91FF90EF90DF90CF900895AC011D
:102DC000092E000C660B770B97FF04C0CB01BA01EC
:102DD0000C94BC162AE082E292E00C9470160F93D9
:102DE0001F93CF93DF93EC010E946C068C016AE580
:102DF00071E0CE010E946116800F911FDF91CF918B
:102E00001F910F91089585ED8093BC0080919F01E3
:102E10009091A001A091A101B091A2010796A11DDE
:102E2000B11D23E0B695A795979587952A95D1F77B
:102E30002091BC0024FD03C01092E8010895409148
:102E40009F015091A0016091A1017091A201452BB9
:102E5000462B472B69F30097A105B10541F02AE203
:102E60002A95F1F700C00197A109B109E1CF80913E
:102E70009E010C94FB111F920F920FB60F9211241A
:102E80002F933F938F939F93AF93BF93809116029D
:102E900090911702A0911802B09119023091150279
:102EA00023E0230F2D3758F50196A11DB11D209366
:102EB00015028093160290931702A0931802B09304
:102EC000190280911A0290911B02A0911C02B091EC
:102ED0001D020196A11DB11D80931A0290931B0241
:102EE000A0931C02B0931D02BF91AF919F918F914F
:102EF0003F912F910F900FBE0F901F90189526E8CD
:102F0000230F0296A11DB11DD2CF1F920F920FB6B3
:102F10000F9211242F933F934F935F936F937F935F
:102F20008F939F93AF93BF93EF93FF9382E292E0CF
:102F30000E940E07FF91EF91BF91AF919F918F91EA
:102F40007F916F915F914F913F912F910F900FBEA5
:102F50000F901F9018951F920F920FB60F92112489
:102F60002F938F939F93EF93FF93E0913202F09111
:102F700033028081E0913802F091390282FD1BC05A
:102F8000908180913B028F5F8F7320913C0282176A
:102F900041F0E0913B02F0E0EE5DFD4F958F8093B4
:102FA0003B02FF91EF919F918F912F910F900FBE58
:102FB0000F901F9018958081F4CF1F920F920FB63B
:102FC0000F9211242F933F934F935F936F937F93AF
:102FD0008F939F93AF93BF93EF93FF938091B9002B
:102FE000887F803609F44AC0F0F5883209F4A7C01A
:102FF00018F5803109F49BC0B8F4882309F4F9C0AE
:10300000883009F494C0FF91EF91BF91AF919F91E7
:103010008F917F916F915F914F913F912F910F9081
:103020000FBE0F901F901895883109F488C0803228
:1030300051F78093E70114C0803409F49DC040F437
:103040008033B9F38833F9F68093E70185ECB0C09B
:10305000803509F485C0883509F496C0883499F61E
:103060000E940317D0CF883909F48CC038F588370F
:1030700029F050F4883611F0803729F683E08093E8
:10308000E8011092E60157C0883809F47BC0803906
:1030900019F0803809F0B7CF8091E601803208F04E
:1030A00071C0E091E60181E08E0F8093E60180918E
:1030B000BB00F0E0EA53FE4F80833DC0803B39F017
:1030C000E0F4803A09F479C0883A09F09CCF84E0B2
:1030D0008093E8011092C5011092C401E0911102A1
:1030E000F091120209958091C40181110FC081E015
:1030F0008093C4011092A40109C0803C09F4A6CFBA
:10310000883C09F4A3CF883B09F07DCFE091C5014D
:1031100081E08E0F8093C501F0E0EC55FE4F808179
:103120008093BB009091C5018091C40129C080911A
:103130000D028093BB0085EC8093BC0064CF90911E
:103140000C0280910B02981758F5E0910C0281E077
:103150008E0F80930C02F0E0E551FE4F8081E9CFA5
:10316000E0910C0281E08E0F80930C028091BB00F5
:10317000F0E0E551FE4F808390910C0280910B02AC
:103180009817C8F285E8D8CFE0910C0281E08E0F45
:1031900080930C028091BB00F0E0E551FE4F8083EC
:1031A0008091EA0181115CCF81E08093E90184EA9A
:1031B0008093BC001092E80126CF85EC8093BC0080
:1031C0001092E8018091E601803230F4E091E6014E
:1031D000F0E0EA53FE4F10826091E60170E0E0916A
:1031E0000F02F091100286EC91E009951092E60131
:1031F0000ACF1092E70134CFE2E2F2E013821282AA
:1032000048EE53E060E070E0448355836683778343
:103210008EE091E09183808385EC90E095878487B0
:1032200084EC90E09787868780EC90E0918B808B90
:1032300081EC90E0938B828B82EC90E0958B848B79
:1032400086EC90E0978B868B118E128E138E148EE7
:10325000AFEBB2E013961C921E92129714964D9308
:103260005D936D937C93179780E291E011969C9308
:103270008E93EBECF2E01382128220E830E035838B
:10328000248380E490E09783868331872087938727
:103290008287168A158614861786168681E0858BA6
:1032A000848B2FEF3FEF338B228B318B208B878BDF
:1032B000108E128E118E82E391E091838083148EA2
:1032C000138EB68FA58F10A2178E8FEF84A385A3C0
:1032D00086A387A380A780E89AE1A6E0B0E085AB4B
:1032E00096ABA7ABB0AF80EA96E8A1E0B0E081AFC3
:1032F00092AFA3AFB4AF80E586AF17AE0895CF937A
:10330000DF93CDB7DEB7C454D1090FB6F894DEBF52
:103310000FBECDBF789484B5826084BD84B58160D2
:1033200084BD85B5826085BD85B5816085BD809190
:103330006E00816080936E00109281008091810008
:103340008260809381008091810081608093810000
:10335000809180008160809380008091B1008460C2
:103360008093B1008091B00081608093B000809123
:103370007A00846080937A0080917A0082608093E2
:103380007A0080917A00816080937A0080917A003F
:10339000806880937A001092C100E0913202F0912F
:1033A000330282E08083E0912E02F0912F0210829E
:1033B000E0913002F09131028FEC808310923A025A
:1033C000E0913602F091370286E08083E09134028A
:1033D000F0913502808180618083E0913402F09128
:1033E0003502808188608083E0913402F09135025B
:1033F000808180688083E0913402F0913502808181
:103400008F7D80838091EA029091EB02892B41F5B8
:103410002091D1023091D202C901079697FD0796FB
:1034200023E0959587952A95E1F72091CF02309179
:10343000D0028C01029FC001039F900D129F900D3E
:1034400011240E9490279093EB028093EA02892B2B
:1034500039F467E87AE082E292E00E94EF16FFCF4B
:103460000E943F168091D1029091D2026091CF02CA
:103470007091D002AC0181970CF42CC140545109D9
:1034800057FF02C04F5F5F4F5595479562557109D1
:1034900077FF02C06F5F7F4F7595679510E4E12E4F
:1034A000F12C02E510E02AE637E08BEC92E00E9476
:1034B000801082E08093ED028091E8029091E90211
:1034C000892B09F41FC18DE38093EC021092140242
:1034D0001092130210921F0210921E020E94DD1120
:1034E0008AE696E090931202809311028BE696E0B2
:1034F0009093100280930F028091F30287FD1DC00C
:103500000E94A80561E08091F3020E94C70561E076
:1035100070E080E090E00E94380660E08091F30265
:103520000E94C7056AE070E080E090E00E943806E3
:1035300061E08091F3020E94C7058091E8029091BA
:10354000E902892B09F495C1609100037091010390
:1035500080910203909103030E94CA1164E086E8FF
:1035600095E00E9488136091D10261508BEC92E04B
:103570000E943D1464E082E895E00E9488138091E7
:10358000ED0260E1813009F064E18BEC92E00E9491
:103590003D1464E08EE795E00E9488138FE88093E5
:1035A00008038091CF029091D0028038910509F0F4
:1035B00079C18091D1029091D2028034910509F0B5
:1035C00081C18091ED02813009F06AC18FE9809359
:1035D000080312E16AED8BEC92E00E943D14612F2A
:1035E0008BEC92E00E943D1461E88BEC92E00E942B
:1035F0003D14609108038BEC92E00E943D1469ED4C
:103600008BEC92E00E943D148091ED0262E28130E9
:1036100009F061EF8BEC92E00E943D1466E088E7D0
:1036200095E00E9488138091E8029091E902892B2D
:1036300009F44CC160910403709105038091060365
:10364000909107030E94CA110E949F1460ED77E0D9
:1036500080E090E00E9438060E943F1621E030E0B2
:103660004AE050E06AE070E08BEC92E00E9444098E
:103670000E949F1460ED77E080E090E00E943806A1
:103680000E943F16D12CC12C0091D5021091D60278
:103690008091D3029091D402C816D9060CF020C1B3
:1036A00001501109EE24E394F12C960150E040E022
:1036B00070E060E08BEC92E00E946A0D0E949F1423
:1036C00061E070E080E090E00E94380614E0C10EF6
:1036D000D11CDACF4052510957FF02C04F5F5F4FF4
:1036E000559547956357710977FF02C06F5F7F4F0C
:1036F00075956795F0E2EF2EF12C03E710E02AE8CC
:1037000035E0D3CE8091F1020E94A8058091F202AB
:103710000E94A8058091F102082E000C990BFC0173
:10372000E753F54FE491F0E0EE0FFF1FEB54F54F38
:10373000259134913093F9022093F802FC01E35271
:10374000F54FE491E093FE028091F202082E000C06
:10375000990BFC01E753F54FE491F0E0EE0FFF1FEA
:10376000EB54F54FA591B491B093FB02A093FA02EC
:10377000FC01E352F54FE491E093FF028C91E82BBA
:10378000EC938091E6029091E702892B89F11FB7B3
:10379000F89480910E02811124C0E3EDFAE0849147
:1037A000E7EEFAE09491E82FF0E0EE0FFF1FE1540E
:1037B000F54FA591B491EC91E92321F461E08AE001
:1037C0000E94C7058AE00E94A8058CB580618CBD67
:1037D0008CB580648CBD8DE00E94A8058BE00E94B2
:1037E000A80580910E028F5F80930E021FBF84CECA
:1037F0008091EF020E94A8058091F0020E94A80526
:103800008091EF02082E000C990BFC01E753F54F55
:10381000E491F0E0EE0FFF1FEB54F54F259134914A
:103820003093F5022093F402FC01E352F54FE4914A
:10383000E093FC028091F002082E000C990BFC0131
:10384000E753F54FE491F0E0EE0FFF1FEB54F54F17
:10385000A591B491B093F702A093F602FC01E35254
:10386000F54FE491E093FD028C91E095E823EC9311
:1038700043CE8091E6029091E702892B31F080914E
:10388000090390910A030E94FB09E091FA02F0916A
:10389000FB0290818091FF028095892380835ECE18
:1038A0008FEC95CE8036910569F48091D10290918C
:1038B000D202409739F48091ED02813029F480E101
:1038C0008093080312E086CE8FEAFACFE091FA02E5
:1038D000F091FB0280819091FF02892B8083B4CE0E
:1038E000D12CC12C8091D5029091D602C816D90650
:1038F000F4F42091D3023091D40221503109EE2406
:10390000E394F12C860150E040E070E060E08BEC45
:1039100092E00E946A0D0E949F1461E070E080E0D6
:1039200090E00E94380624E0C20ED11CDBCF6AEF83
:1039300070E080E090E00E9438060E943F16D12C93
:10394000C12CA090D502B090D60231E0A31AB108E4
:103950008091D3029091D402C816D906CCF4EE24FB
:10396000E394F12C10E000E09601A50170E060E026
:103970008BEC92E00E946A0D0E949F1461E070E05F
:1039800080E090E00E94380644E0C40ED11CD9CFFC
:10399000B7FC22C02091D3023091D40221503109CA
:1039A0004091D5025091D60241505109EE24E39442
:1039B000F12C850170E060E08BEC92E00E946A0DD2
:1039C0000E949F1461E070E080E090E00E94380661
:1039D00054E0A51AB108DCCF6AEF70E080E090E017
:1039E0000E9438060E943F16C090D302D090D402A5
:1039F00061E0C61AD108A090D502B090D60271E05D
:103A0000A71AB108D7FC1DC06091D3027091D402EF
:103A100061507109EE24E394F12C10E000E096016E
:103A2000A5018BEC92E00E946A0D0E949F1461E058
:103A300070E080E090E00E94380684E0C81AD10867
:103A4000DACFB7FC22C04091D5025091D602415046
:103A500051096091D3027091D40261507109EE2432
:103A6000E394F12C850130E020E08BEC92E00E94A1
:103A70006A0D0E949F1461E070E080E090E00E9477
:103A8000380694E0A91AB108DCCF6AEF70E080E054
:103A900090E00E9438060E943F16D12CC12C609104
:103AA000D3027091D4028091D5029091D602C816AB
:103AB000D906D4F461507109EE24E394F12C860107
:103AC00030E020E050E040E08BEC92E00E946A0D94
:103AD0000E949F1461E070E080E090E00E94380650
:103AE000A4E0CA0ED11CDBCFD12CC12C6091D30233
:103AF0007091D402C616D706F4F40091D502109145
:103B0000D6020150110961507109EE24E394F12CA1
:103B1000960150E040E08BEC92E00E946A0D0E941A
:103B20009F1461E070E080E090E00E943806B4E00D
:103B3000CB0ED11CDBCF60ED77E080E090E00E94FF
:103B400038060E943F16D12CC12C0091D50210914D
:103B5000D602C80117FD019695958795C816D90616
:103B600004F5C601880F991F081B190B2091D30279
:103B70003091D402281B390BEE24E394F12CA601DA
:103B8000B6018BEC92E00E940B0D0E949F1461E045
:103B900070E080E090E00E943806E2E0CE0ED11C9A
:103BA000D4CF60ED77E080E090E00E9438060E947C
:103BB0003F16D12CC12C0091D5021091D602C8011C
:103BC00017FD019695958795C816D90604F5C60187
:103BD000880F991F081B190B2091D3023091D40232
:103BE000281B390B42E0E42EF12CA601B6018BEC28
:103BF00092E00E94FF0D0E949F1461E070E080E05F
:103C000090E00E943806F3E0CF0ED11CD4CF60EDD7
:103C100077E080E090E00E9438060E943F161EA2E6
:103C20001DA2D12CC12CE090D302F090D402409080
:103C3000D5025090D6024E145F042CF4C701F7FE53
:103C400005C0019603C0C20157FCFBCF959587952F
:103C5000C816D9060CF0D6C057FE03C00FEF401AA5
:103C6000500A55944794F7FE03C01FEFE11AF10A7A
:103C7000F594E79401E010E00C191D0918A30F8FCB
:103C80000DA11EA11CA70BA721E030E0A601440D49
:103C9000551DB7018BEC92E00E94B90F21E030E096
:103CA000A2014C195D09B7018BEC92E00E94B90F9B
:103CB000B6016E0D7F1D21E030E0A2018BEC92E099
:103CC0000E94B90FB7016C197D0921E030E0A20113
:103CD0008BEC92E00E94B90F160110E000E021E0A9
:103CE00030E03AA329A3021513050CF079C04F8DDB
:103CF00058A157FD0FC051E0251A31086BA57CA5CE
:103D00006E5F7F4F7CA76BA78F8D98A1860F971F43
:103D100098A38F8F0F5F1F4FA9A1BAA11296BAA3C4
:103D2000A9A3EF8DF8A1EA0FFB1FF8A3EF8F3801CD
:103D30006E0C7F1C21E030E05201A20CB31CA501E7
:103D4000B3018BEC92E00E94B90F4701801A910AEF
:103D500021E030E0A501B4018BEC92E00E94B90FA4
:103D600021E030E05201A218B308A501B3018BECA9
:103D700092E00E94B90F21E030E0A501B4018BEC84
:103D800092E00E94B90F5201A00EB11E21E030E076
:103D9000A5014701820C931CB4018BEC92E00E94B8
:103DA000B90F21E030E0A5015701A218B308B50111
:103DB0008BEC92E00E94B90F3201601A710A21E087
:103DC00030E0A301B4018BEC92E00E94B90F21E036
:103DD00030E0A301B5018BEC92E00E94B90F83CFD4
:103DE0000E949F1461E070E080E090E00E9438063D
:103DF000F2E0CF0ED11C0DA11EA1045011091EA38B
:103E00000DA311CF60ED77E080E090E00E943806CE
:103E10000E943F168091D3029091D4024091D50226
:103E20005091D602481759070CF046C097FD0196ED
:103E30006C01D594C7945601AA0CBB1C1FEFA11AA4
:103E4000B10A1C141D04F4F58090D5029090D6029E
:103E500097FE03C02FEF821A920A95948794E09000
:103E6000D302F090D402F7FE03C03FEFE31AF30A47
:103E7000F594E794A4014C195D0902E010E0950166
:103E8000B7018BEC92E00E94D20E10E000E023E03C
:103E9000A601B401C7010E94DE0E0E949F1461E0DA
:103EA00070E080E090E00E94380643E0C41AD10838
:103EB00056E0A51AB108C5CF57FF02C04F5F5F4F4C
:103EC0006A01B7CF60ED77E080E090E00E943806AD
:103ED0000E943F16D12CC12C4090D5025090D602A2
:103EE000C20157FC0196959587950297C816D90689
:103EF0000CF089C0720157FE03C063E0E60EF11CAE
:103F0000F594E794F594E794C601880F991F481A31
:103F1000590A2090D3023090D402281A390A241466
:103F200035042CF4C10137FE05C0019603C0C2015F
:103F300057FCFBCF959587958E159F050CF47C015A
:103F40004701880C991C3101681879085601AE0C9C
:103F5000BF1C01E010E09301A601B5018BEC92E0DB
:103F60000E94C60EC601840D951D98A38F8FAC01CB
:103F7000415051099301B5018BEC92E00E94C60EAD
:103F8000481859089201A501B6018BEC92E00E94F5
:103F9000D20E2C0C3D1CB101615071099201A5019A
:103FA0008BEC92E00E94D20E21E0A701B501C50181
:103FB0000E94C00F2E183F0891E0291A310822E014
:103FC000A701B501C1010E94C00F0F8D18A10E19E4
:103FD0001F090150110924E0A701B801C1010E9485
:103FE000C00F28E0A701B801C5010E94C00F0E94C0
:103FF0009F1461E070E080E090E00E943806A2E04B
:10400000CA0ED11C69CF60ED77E080E090E00E949D
:1040100038060E943F16912C812CC090D502D0907A
:10402000D602C601D7FC019695958795029788160A
:1040300099060CF05CC05601D7FE03C0B3E0AB0E8E
:10404000B11CB594A794B594A7949401220F331F83
:10405000C21AD30A4090D3025090D402421A530A93
:104060004C145D042CF4C20157FE05C0019603C038
:10407000C601D7FCFBCF959587958A159B050CF457
:104080005C013501660C771C14012A0C3B1C920163
:104090002619370912E0E12EF12C8601A401B101A5
:1040A0008BEC92E00E94B60EC618D708E1E0CE1A5B
:1040B000D108C401840D951D8A199B09860121E050
:1040C000A501B10101970E94DE0E22E0A501B10118
:1040D000C1010E94DE0E0E949F1461E070E080E04A
:1040E00090E00E943806F2E08F0E911C96CF60EDB2
:1040F00077E080E090E00E9438060E943F16912C05
:10410000812CA090D302B090D402C090D502D09060
:10411000D602CA14DB042CF4C501B7FE05C0019613
:1041200003C0C601D7FCFBCF9595879588169906E5
:104130000CF03FC0D7FE03C00FEFC01AD00AD594D1
:10414000C79434016C0C7D1CB7FE03C01FEFA11A8D
:10415000B10AB594A79414012A0C3B1C25014818F8
:104160005908C818D908EE24E394F12C8301920170
:10417000A601B5018BEC92E00E946A0D9101A301AA
:10418000B2018BEC92E00E946A0D86019501A301B9
:10419000B1018BEC92E00E946A0D0E949F1461E0D5
:1041A00070E080E090E00E94380625E0820E911CCD
:1041B000A8CF60ED77E080E090E00E9438060E9492
:1041C0003F168091D3029091D402E090D502F090F6
:1041D000D602E816F9060CF050C07C0197FF03C028
:1041E0003FEFE31AF30AF594E7941E141F040CF052
:1041F000F9C08091D5029091D60297FD01969595D0
:1042000087955701A80EB91E2091D3023091D40290
:1042100037FF02C02F5F3F4F359527954701820E2C
:10422000931E6901CE18DF08BC016E197F0978A3BF
:104230006F8FA616B7060CF4ACC4EF8DF8A1AE16BE
:10424000BF0609F1442755274E195F09C5016F8D37
:1042500078A1861B970B9CA78BA7D401AC19BD092D
:10426000BAA7A9A77EA36DA3B8A2AF8E4601690124
:10427000BCAAABAA1AA219A2A6C4F7FEB4CF4FEFEC
:10428000E41AF40AB0CFC216D30654F0922F832F4B
:104290002C153D0514F49C2D8D2D6901292F382FE7
:1042A0008C149D042CF0281539050CF4940146015A
:1042B000281939092F5F3F4F02E010E04F8D58A1B8
:1042C000B4018BEC92E00E94C60E0E949F1461E044
:1042D00070E080E090E00E943806A5E0EA1AF1085C
:1042E00084CF49A55AA5052E000C660B770B4FA766
:1042F00058AB69AB7AAB91012A193B09A9A5BAA5BC
:104300000E947B272B013C0191016DA17EA1261B00
:10431000370BD7010E947B276DA37EA38FA398A79D
:1043200089A19AA1092E000CAA0BBB0B89A39AA301
:10433000ABA3BCA30BA51CA5012E000C220B330BB9
:104340000BA71CA72DA73EA72F8D38A1221533053B
:104350000CF4BBCFC301B20129A13AA14BA15CA1CE
:104360000E9418278401020F131F6DA17EA18FA147
:1043700098A52BA53CA54DA55EA50E941827B601C2
:10438000620F731F8FA598A9A9A9BAA9480E591E33
:104390006A1E7B1E2DA13EA14FA158A58DA99EA9E5
:1043A000AFA9B8AD280F391F4A1F5B1F2DA33EA32D
:1043B0004FA358A7601771072CF0962F872FB801CD
:1043C000092F182F061B170B98012F5F3F4F02E094
:1043D00010E0A1018BEC92E00E94C60E9FEF291A1B
:1043E000390AB2CF60ED77E080E090E00E943806B5
:1043F0000E943F1681E08093DF028093E00221E07B
:1044000030E03093DE022093DD023093DC02209313
:10441000DB021092D8021092D7021092DA021092A8
:10442000D9028093E30210E000E060E20A30110557
:1044300009F0602F8BEC92E00E94390C0F5F1F4F48
:104440000115B1E01B0789F70E949F1460ED77E02A
:1044500080E090E00E9438060E943F1681E0809341
:10446000DF028093E00201E010E01093DE0200938F
:10447000DD021093DC020093DB021092D80210924E
:10448000D7021092DA021092D9026DE27AE08BEC38
:1044900092E00E94EF161092DC021092DB02109361
:1044A000DE020093DD022AE043E050E060E070E0CD
:1044B0008BEC92E00E9470166EE28BEC92E00E9410
:1044C000390C2AE041E050E060E070E08BEC92E0D3
:1044D0000E9470162AE044E050E060E070E08BEC4F
:1044E00092E00E9470166AE571E08BEC92E00E9407
:1044F000611622E0F22EF092DF02F092E0021093B9
:10450000DE020093DD021093DC020093DB026AE21C
:104510007AE08BEC92E00E946C0620E14FEE5EEBBD
:104520006DEA7EED8BEC92E00E9470166AE571E018
:104530008BEC92E00E9461160E949F1460ED77E080
:1045400080E090E00E9438060E943F16F092DF0261
:10455000F092E0021093DE020093DD021093DC0281
:104560000093DB028AE090E09093D8028093D70218
:104570001092DA021092D90261E57AE08BEC92E0B7
:104580000E94EF160E949F1464E670E080E090E0C5
:104590000E9438068091E8029091E902892B09F483
:1045A0006CC26091000370910103809102039091AD
:1045B00003030E94CA1162E08EE39AE00E9488130E
:1045C00060E08BEC92E00E943D1460E08BEC92E0A6
:1045D0000E943D146FE08BEC92E00E943D1463E07A
:1045E0008BE39AE00E9488138091E8029091E9029F
:1045F000892B09F459C260910403709105038091DD
:104600000603909107030E94CA1160ED77E080E0F5
:1046100090E00E9438060E94BA1568EE73E080E0D0
:1046200090E00E9438068091E8029091E902892B7F
:1046300009F444C260910003709101038091020368
:10464000909103030E94CA1162E083E49AE00E9401
:10465000881360E08BEC92E00E943D1460E08BECEC
:1046600092E00E943D146FE08BEC92E00E943D14BA
:1046700063E080E49AE00E9488138091E8029091C0
:10468000E902892B09F431C260910403709105039A
:1046900080910603909107030E94CA1160ED77E0B4
:1046A00080E090E00E9438060E94BA1568EE73E040
:1046B00080E090E00E9438068091E8029091E90243
:1046C000892B09F41CC26091000370910103809151
:1046D0000203909103030E94CA1162E089E49AE008
:1046E0000E9488136091D1028BEC92E00E943D14ED
:1046F00062E087E49AE00E94881360E08BEC92E02D
:104700000E943D1460E08BEC92E00E943D1467E053
:104710008BEC92E00E943D1462E085E49AE00E94F6
:1047200088138091E8029091E902892B09F4FEC177
:104730006091040370910503809106039091070333
:104740000E94CA1160ED77E080E090E00E94380698
:104750008091E8029091E902892B09F4F1C16091FE
:1047600000037091010380910203909103030E9462
:10477000CA1162E08FE49AE00E9488136091D1022E
:104780008BEC92E00E943D1462E08DE49AE00E947E
:10479000881360E08BEC92E00E943D1460E08BECAB
:1047A00092E00E943D1467E08BEC92E00E943D1481
:1047B00062E08BE49AE00E9488138091E802909175
:1047C000E902892B09F4D3C16091040370910503B8
:1047D00080910603909107030E94CA1160ED77E073
:1047E00080E090E00E9438060E94BA1568EE73E0FF
:1047F00080E090E00E9438060E943F168091D5022A
:104800009091D602AC014051510957FF02C04F5F51
:104810005F4F559547958091D3029091D402BC018A
:104820006051710977FF02C06F5F7F4F7595679583
:10483000F0E1EF2EF12C00E110E027E63AE08BECFE
:1048400092E00E9480100E949F1468EE73E080E066
:1048500090E00E94380661E08BEC92E00E94001626
:1048600068EE73E080E090E00E94380660E08BEC38
:1048700092E00E94001668EE73E080E090E00E94F3
:1048800038068E010F5F1F4FAAE07A2EB0EF6B2E15
:1048900085E0282E312C412C512CC090D302D09091
:1048A000D4020D2C000CEE08FF0831EF832E992462
:1048B0009A94A92CB92CE2EFCE16EFEFDE06EE06A5
:1048C000FE068CF00E94C026A7019601215F3F4F93
:1048D0004F4F5F4F0E9418274B015C01FFE08F1A7A
:1048E0009108A108B108D8018C9211966C920E948F
:1048F000C026A20191010E9418276B017C01BFEF25
:10490000CB1ADB0AEB0AFB0AF801C28263E67AE003
:1049100082E292E00E946C06882D880C990B0E941E
:10492000DF166EE57AE082E292E00E946C0680EF8C
:104930009FEF0E94DF1668E57AE082E292E00E9433
:104940006C06F7FE1EC1C701B6010E94BC166AE5DF
:1049500071E082E292E00E9461167A940D5F1F4F2F
:1049600071109BCF01E010E00C0F1D1F025E1F4F66
:1049700018A30F8F90EF392E25E0422E512C612C79
:10498000712C0E943F169E012F5F3F4F6901D60197
:1049900011964C911197042E000C550B6C91062E1C
:1049A000000C770B80E1E82EF12C00E110E027E607
:1049B0003AE08BEC92E00E948010B3E0CB0ED11C69
:1049C000EF8DF8A1EC15FD0511F70E949F1468EC1E
:1049D00070E080E090E00E9438068E010F5F1F4F6C
:1049E000D80111968C91119712969C911297890F6C
:1049F00011968C93082E000C990B2091D5023091C2
:104A0000D6028217930794F18090D3029090D4023B
:104A1000092C000CAA08BB0881EF9FEFAFEFBFEF96
:104A2000B2EF8B16BFEF9B06AB06BB067CF00E9475
:104A3000C026A5019401215F3F4F4F4F5F4F0E9459
:104A40001827DC01CB010F97A109B109F801808378
:104A500031820E94C026A30192010E9418276F5F35
:104A60007F4F8F4F9F4FD80112966C930D5F1F4F52
:104A7000C016D10609F0B4CF84CF8091E6029091A0
:104A8000E702892B31F08091090390910A030E947B
:104A9000FB09E091FA02F091FB0290818091FF0204
:104AA00080958923808387CDE091FA02F091FB0203
:104AB00080819091FF02892B8083A7CD8091E602AF
:104AC0009091E702892B31F08091090390910A03BC
:104AD0000E94FB09E091FA02F091FB029081809123
:104AE000FF02809589238083AFCDE091FA02F09197
:104AF000FB0280819091FF02892B8083CFCD809132
:104B0000E6029091E702892B31F0809109039091A0
:104B10000A030E94FB09E091FA02F091FB029081E6
:104B20008091FF02809589238083D7CDE091FA029E
:104B3000F091FB0280819091FF02892B808302CE4D
:104B40008091E6029091E702892B31F08091090370
:104B500090910A030E94FB09E091FA02F091FB0296
:104B600090818091FF0280958923808302CEE0911D
:104B7000FA02F091FB0280819091FF02892B8083E1
:104B80002DCE2AE0B701A60182E292E00E947016C3
:104B9000DECEA4014C195D09EF8DF8A1EA19FB09DD
:104BA000FCA7EBA7002711270E191F091AA709A7B1
:104BB000FAA3E9A39501215031093CAB2BABBEA26E
:104BC000ADA290E080E02DA03EA01FA618AA19AAD1
:104BD0001AAA412C512C320187010F2C000C220BF8
:104BE000330B0DAB1EAB2FAB38AF8C01990F220BE3
:104BF000330B09AF1AAF2BAF3CAF6BA57CA5072ECB
:104C0000000C880B990B21966CAF7DAF8EAF9FAFD8
:104C10002197CA01550FAA0BBB0B25968CAF9DAFF0
:104C2000AEAFBFAF2597ABA9BCA9A215B3050CF4D5
:104C300058CBC301B20129AD3AAD4BAD5CAD0E947A
:104C400018278601020F131F6FA578A989A99AA9B1
:104C500021962CAD3DAD4EAD5FAD21970E9418273A
:104C6000B601620F731F25962CAD3DAD4EAD5FAD05
:104C70002597420E531E641E751E8FA598A9A9A9DB
:104C8000BAA92DA93EA94FA958AD820F931FA41F01
:104C9000B51F8FA798ABA9ABBAAB601771072CF003
:104CA000962F872FB801092F182F061B170B980175
:104CB0002F5F3F4F02E010E0A1018BEC92E00E94D9
:104CC000C60E3FEF231A330AAECF82E391E09093F2
:104CD000CC028093CB028091EA029091EB02009784
:104CE00011F00C942C2808958F929F92AF92BF924E
:104CF000CF92DF92EF92FF92CF93DF93EC01688126
:104D000079818A819B81611571058105910521F465
:104D100064E279ED8BE597E02DE133EF41E050E07F
:104D20000E94182749015A019B01AC01A7EAB1E48E
:104D30000E9437276B017C01ACEEB4EFA501940112
:104D40000E944527C60ED71EE81EF91EF7FE06C0B4
:104D500081E0C81AD108E10880E8F80AC882D9823F
:104D6000EA82FB82C701B6019F77DF91CF91FF9066
:104D7000EF90DF90CF90BF90AF909F908F9008956D
:104D80008F929F92AF92BF92CF92DF92EF92FF925B
:104D900060910001709101018091020190910301E5
:104DA000611571058105910521F464E279ED8BE5CA
:104DB00097E02DE133EF41E050E00E9418274901D0
:104DC0005A019B01AC01A7EAB1E40E9437276B01AD
:104DD0007C01ACEEB4EFA50194010E944527C60EFC
:104DE000D71EE81EF91EF7FE06C081E0C81AD108DA
:104DF000E10880E8F80AC0920001D0920101E09237
:104E00000201F0920301C701B6019F77FF90EF9076
:104E1000DF90CF90BF90AF909F908F900895609358
:104E200000017093010180930201909303010895A2
:104E3000052E97FB1EF400940E942F2757FD07D0E4
:104E40000E944A2707FC03D04EF40C942F2750955C
:104E50004095309521953F4F4F4F5F4F0895909566
:104E60008095709561957F4F8F4F9F4F08950E9459
:104E70006C27A59F900DB49F900DA49F800D911D50
:104E800011240895B7FF0C9437270E943727821BFF
:104E9000930B0895A1E21A2EAA1BBB1BFD010DC0A6
:104EA000AA1FBB1FEE1FFF1FA217B307E407F507DA
:104EB00020F0A21BB30BE40BF50B661F771F881FB6
:104EC000991F1A9469F760957095809590959B014C
:104ED000AC01BD01CF010895A29FB001B39FC001F5
:104EE000A39F700D811D1124911DB29F700D811D16
:104EF0001124911D08950E946C27332312F48A1BFC
:104F00009B0B0C9485270E946C27B7FF0895821B8A
:104F1000930B0895EE0FFF1F0590F491E02D099477
:104F20000F931F93CF93DF938230910510F482E0AB
:104F300090E0E0910D03F0910E0330E020E0B0E04E
:104F4000A0E0309799F42115310509F44AC0281BD7
:104F5000390B24303105D8F58A819B8161157105A3
:104F600089F1FB0193838283FE0111C0408151814D
:104F70000281138148175907E0F04817590799F43F
:104F8000109761F012960C93129713961C93329619
:104F9000CF01DF91CF911F910F91089500930D03E1
:104FA00010930E03F4CF2115310551F0421753072A
:104FB00038F0A901DB019A01BD01DF01F801C1CF81
:104FC000EF01F9CF90930E0380930D03CDCFFE0137
:104FD000E20FF31F81939193225031093983288383
:104FE000D7CF20910B0330910C03232B41F4209158
:104FF00006013091070130930C0320930B0320919D
:105000000401309105012115310541F42DB73EB75A
:105010004091080150910901241B350BE0910B03CD
:10502000F0910C03E217F307A0F42E1B3F0B281797
:10503000390778F0AC014E5F5F4F2417350748F011
:105040004E0F5F1F50930C0340930B03819391937A
:105050009FCFF0E0E0E09CCFCF93DF930097E9F0A3
:10506000FC01329713821282A0910D03B0910E03BE
:10507000ED0130E020E01097A1F420813181820F12
:10508000931F20910B0330910C032817390709F067
:1050900061C0F0930C03E0930B03DF91CF9108956F
:1050A000EA01CE17DF07E8F54A815B819E014115D1
:1050B0005105B1F7E901FB83EA8349915991C40F86
:1050C000D51FEC17FD0761F4808191810296840F52
:1050D000951FE90199838883828193819B838A83C9
:1050E000F0E0E0E012968D919C9113970097B9F54E
:1050F0002D913C911197CD010296820F931F209123
:105100000B0330910C032817390739F6309751F506
:1051100010920E0310920D03B0930C03A0930B0397
:10512000BCCFD383C28340815181840F951FC817A0
:10513000D90761F44E5F5F4F88819981480F591FED
:10514000518340838A819B8193838283211531051A
:1051500009F0B0CFF0930E03E0930D039ECFFD0155
:10516000DC01C0CF13821282D7CF81E090E0F894A7
:105170000C94C128DC0101C06D9341505040E0F710
:10518000089515E0CCE7D5E004C0FE010E948A270F
:0C5190002196CD37D107C9F7F894FFCF66
:10519C000100000000000F03800000000000300739
:1051AC009006BD067D07EE06CC06E006000000006A
:1051BC00721245123C16A7053E122B121C1200004F
:1051CC000000390C90063C16A2114409A705B90F32
:1051DC00B60ED20EC60EF510A705FF090016B408C0
:0E51EC00FD08FF0DE20D6A0D0B0D0D0A00000F
:00000001FF
