:020000040000FA
:100000000C94C3030C94921C0C946B1C0C94EB0387
:100010000C94EB030C94EB030C94EB030C94EB03A8
:100020000C94EB030C94EB030C94EB030C94EB0398
:100030000C94EB030C94EB030C94EB030C94EB0388
:100040000C94211C0C94EB030C94EB030C94EB0329
:100050000C94EB030C94EB030C94EB030C94EB0368
:100060000C94B91C0C94EB0300407A10F35A00A0D6
:10007000724E18090010A5D4E80000E87648170071
:1000800000E40B54020000CA9A3B000000E1F505B1
:10009000000080969800000040420F000000A086FB
:1000A00001000000102700000000E803000000002D
:1000B0006400000000000A000000000001000000D1
:1000C00000002C76D888DC674F0823DFC1DFAE59EB
:1000D000E1B1B796E5E3E453C63AE651997696E87E
:1000E000E6C28426EB898C9B62ED407C6FFCEFBC02
:1000F0009C9F40F2BAA56FA5F490055A2AF75C932D
:100100006B6CF9676DC11BFCE0E40D47FEF520E662
:10011000B500D0ED902E0300943577050080841E45
:10012000080000204E0A000000C80C333333330FA0
:10013000986E12831141EF8D2114893BE65516CF3D
:10014000FEE6DB18D1844B381BF77C1D901DA4BB49
:10015000E424203284725E228100C9F124ECA1E5FE
:100160003D273B29004F7363696C6C6F73636F703D
:1001700065004172647553636F706500CDCC4C3E71
:10018000CDCC4C3D0AD7233C6F12033B6F12033A90
:1001900017B75139617620202020760025006B4862
:1001A000006B4800487A00487A00756E53796E6398
:1001B00000486F6C64002020355600202032560025
:1001C0002020315600302E355600302E3256003267
:1001D00030306D73002035306D73002031306D7319
:1001E000002020326D7300353030757300323030AE
:1001F00075730000000000003E5B4F5B3E3E6B4F9E
:100200006B3E1C3E7C3E1C183C7E3C181C577D57A8
:100210001C1C5E7F5E1C00183C1800FFE7C3E7FF54
:100220000018241800FFE7DBE7FF30483A060E26E7
:1002300029792926407F050507407F05253F5A3C3F
:10024000E73C5A7F3E1C1C08081C1C3E7F14227F82
:1002500022145F5F005F5F06097F017F006689955A
:100260006A606060606094A2FFA29408047E040843
:1002700010207E201008082A1C08081C2A08081EC6
:10028000101010100C1E0C1E0C30383E3830060EAC
:100290003E0E06000000000000005F0000000700A6
:1002A0000700147F147F14242A7F2A122313086462
:1002B0006236495620500008070300001C22410006
:1002C0000041221C002A1C7F1C2A08083E08080046
:1002D00080703000080808080800006060002010E6
:1002E0000804023E5149453E00427F4000724949A0
:1002F00049462141494D331814127F102745454581
:10030000393C4A49493141211109073649494936A1
:10031000464949291E000014000000403400000036
:100320000814224114141414140041221408020168
:100330005909063E415D594E7C1211127C7F494994
:1003400049363E414141227F4141413E7F49494931
:10035000417F090909013E414151737F0808087F27
:1003600000417F41002040413F017F081422417F2E
:10037000404040407F021C027F7F0408107F3E41C6
:1003800041413E7F090909063E4151215E7F09191D
:100390002946264949493203017F01033F40404035
:1003A0003F1F2040201F3F4038403F631408146324
:1003B00003047804036159494D43007F41414102E0
:1003C00004081020004141417F0402010204404022
:1003D000404040000307080020545478407F2844E0
:1003E00044383844444428384444287F38545454CA
:1003F0001800087E090218A4A49C787F08040478D9
:1004000000447D40002040403D007F102844000013
:10041000417F40007C047804787C080404783844E8
:10042000444438FC1824241818242418FC7C08049C
:100430000408485454542404043F44243C404020BD
:100440007C1C2040201C3C4030403C442810284468
:100450004C9090907C4464544C4400083641000019
:1004600000770000004136080002010204023C2629
:1004700023263C1EA1A161123A4040207A385454F0
:100480005559215555794122545478422155547873
:100490004020545579400C1E527212395555555909
:1004A000395454545939555454580000457C41002E
:1004B00002457D420001457C407D1211127DF028ED
:1004C0002528F07C545545002054547C547C0A095E
:1004D0007F4932494949323A4444443A324A4848C9
:1004E000303A4141217A3A42402078009DA0A07DD7
:1004F0003D4242423D3D4040403D3C24FF24244893
:100500007E4943662B2FFC2F2BFF0929F620C0883C
:100510007E090320545479410000447D413048480D
:100520004A32384040227A007A0A0A727D0D193127
:100530007D2629292F28262929292630484D402083
:10054000380808080808080808382F10C8ACBA2F5F
:10055000102834FA00007B000008142A1422221408
:100560002A14085500550055AA55AA55AAFF55FF4B
:1005700055FF000000FF00101010FF00141414FFBE
:10058000001010FF00FF1010F010F0141414FC0005
:100590001414F700FF0000FF00FF1414F404FC140F
:1005A0001417101F10101F101F1414141F00101008
:1005B00010F0000000001F101010101F101010107D
:1005C000F010000000FF101010101010101010FF9D
:1005D00010000000FF140000FF00FF00001F1017B4
:1005E0000000FC04F414141710171414F404F4009D
:1005F00000FF00F714141414141414F700F7141463
:1006000014171410101F101F141414F4141010F0E9
:1006100010F000001F101F0000001F14000000FC5D
:10062000140000F010F01010FF10FF141414FF1449
:100630001010101F00000000F010FFFFFFFFFFF080
:10064000F0F0F0F0FFFFFF0000000000FFFF0F0FD1
:100650000F0F0F3844443844FC4A4A4A347E0202A1
:100660000606027E027E0263554941633844443CDB
:1006700004407E201E2006027E020299A5E7A5996D
:100680001C2A492A1C4C7201724C304A4D4D3030A4
:1006900048784830BC625A463D3E494949007E018F
:1006A00001017E2A2A2A2A2A44445F444440514AAE
:1006B000444040444A51400000FF0103E080FF00F5
:1006C0000008086B6B083612362436060F090F0631
:1006D000000018180000001010003040FF01010059
:1006E0001F01011E00191D1712003C3C3C3C00007C
:1006F0000000003B004F7363696C6C6F65004172D2
:1007000064755363003B29004F7363696C6C6F73AE
:10071000636F7073646C6B6B6500417264755363D7
:1007200064736673646F3B6F650000000000240013
:1007300027002A0000000000250028002B000000F0
:100740000000230026002900040404040404040417
:10075000020202020202030303030303010204086C
:10076000102040800102040810200102040810201B
:100770000000000800020100000304070000000060
:1007800000000000D81D11241FBECFEFD8E0DEBF4F
:10079000CDBF15E0A0E0B1E0E0EDFBE402C00590C4
:1007A0000D92AE36B107D9F726E0AEE6B5E001C04E
:1007B0001D92A437B207E1F713E0C3ECD3E004C005
:1007C0002197FE010E94DB25C23CD107C9F70E9498
:1007D000151E0C94E6250C94000028E030E040E85B
:1007E000E0916A06F0916B065081909171069095A8
:1007F00095239083E0916806F091690690917006C8
:10080000582F542389F05081952B9083E0916A06EC
:10081000F0916B06908150917106952B90834695CF
:1008200021503109E9F60895508190959523EDCF37
:100830008091040120E4829FC001112480937C00F8
:1008400080917A00806480937A0080917A0086FD9E
:10085000FCCF80917800909179000895833081F0E9
:1008600028F4813099F08230A9F008958730A9F0FA
:100870008830C9F08430B1F4809180008F7D03C04E
:10088000809180008F7780938000089584B58F7762
:1008900084BD089584B58F7DFBCF8091B0008F77A4
:1008A0008093B00008958091B0008F7DF9CFCF93F1
:1008B000DF93E3E7F7E08491EFE5F7E0D491EBE431
:1008C000F7E0C491CC23A1F081110E942E04EC2FFB
:1008D000F0E0EE0FFF1FE25CF84FA591B491EC91B0
:1008E000ED2381E090E009F480E0DF91CF9108955D
:1008F00080E090E0FACF1F93CF93DF93282F30E072
:10090000F901E059F84F8491F901E45AF84FD49174
:10091000F901E85BF84FC491CC23A9F0162F81119F
:100920000E942E04EC2FF0E0EE0FFF1FEC5CF84F5E
:10093000A591B4918FB7F894EC91111108C0D0959E
:10094000DE23DC938FBFDF91CF911F910895DE2BC3
:10095000F8CFCF93DF9390E0FC01E45AF84F249155
:10096000885B984FFC0184918823D1F090E0880F38
:10097000991FFC01E65DF84FA591B491FC01EC5C78
:10098000F84FC591D491623071F49FB7F8943C91BF
:10099000822F809583238C93E8812E2B28839FBF01
:1009A000DF91CF9108958FB7F894EC912E2B2C9373
:1009B0008FBFF6CF3FB7F8948091E5059091E6059B
:1009C000A091E705B091E80526B5A89B05C02F3F8B
:1009D00019F00196A11DB11D3FBFBA2FA92F982F65
:1009E0008827BC01CD01620F711D811D911D42E060
:1009F000660F771F881F991F4A95D1F708958F9228
:100A00009F92AF92BF92CF92DF92EF92FF924B01F3
:100A10005C010E94DA046B017C010E94DA046C190B
:100A20007D098E099F09683E734081059105A8F3F1
:100A300021E0821A9108A108B10888EEC80E83E06F
:100A4000D81EE11CF11C81149104A104B10429F702
:100A5000FF90EF90DF90CF90BF90AF909F908F90DE
:100A6000089583B1982F9770973019F091E0909383
:100A7000740580FD06C09091730521E09227909344
:100A8000730581FD20C09091730591110CC0909168
:100A900072059F5F909372059091720595301CF0DE
:100AA00094E09093720590917305992361F0909171
:100AB00071059F5F909371059091710596301CF0C0
:100AC00095E09093710582FD1CC090917305911182
:100AD0000AC09091720591509093720590917205A1
:100AE00097FD1092720590917305992351F09091A2
:100AF00071059150909371059091710597FD109239
:100B0000710583FD06C08091700591E0892780936F
:100B100070050895089508950895AF92BF92CF92F9
:100B2000DF92EF92FF920F931F93CF93DF936C01AD
:100B30007B018B01040F151FEB015E01AE18BF088E
:100B4000C017D10759F06991D601ED91FC91019040
:100B5000F081E02DC6010995892B79F7C501DF9158
:100B6000CF911F910F91FF90EF90DF90CF90BF90AA
:100B7000AF9008950895FC016370668B8481958120
:100B800026813781613039F0633029F09187808781
:100B90003387228708953187208793878287089536
:100BA0002F923F924F925F926F927F928F929F927D
:100BB000AF92BF92CF92DF92EF92FF920F931F936B
:100BC000CF93DF93CDB7DEB76A970FB6F894DEBF49
:100BD0000FBECDBF9A8F898F7A8369834A01D22E47
:100BE00018870F833701BC2CDC0159962D913C915D
:100BF0005A972115310509F015C118968D919C91D0
:100C00001997681779070CF0D7C11A968D919C91A6
:100C1000481759070CF0D0C14C2C512CB6E0CB9E94
:100C2000600D711D11247C876B87161617060CF05A
:100C3000C3C1EA2DF0E0FA87E98793E0EE0FFF1FCA
:100C40009A95E1F7F88BEF87CF01840F951F18165F
:100C500019060CF0B1C1A98DBA8D58968C918111ED
:100C600004C0BFEABD1508F4D394A98DBA8DED91E7
:100C7000FC9111970284F385E02DCD010995B5E033
:100C8000DB9EC0011124E981FA81FC83EB83312CC6
:100C9000212C9C012D503E4F388F2F8B4A2D50E038
:100CA0005E8B4D8BEF89F88DE20DF31D44919E8292
:100CB0008D82D12CC12C69817A81620D731D7A8B52
:100CC000698B842F90E09C8B8B8BE98DFA8DA081B2
:100CD000B18140FF82C0F1E0BF126FC0AF126DC0A2
:100CE0001C96ED91FC912F813885A4014C0D5D1D62
:100CF00069897A89898D9A8D0995EB89FC89F595A1
:100D0000E7954E2F5FEFC51AD50A6D817E818D89DB
:100D10009E89680F791F7E836D8398E0C916D10480
:100D200081F6AFEF2A1A3A0AEB81FC81E40DF51D3A
:100D3000FC83EB83F5E02F16310409F0B3CF2F814C
:100D4000388526153705B9F0A98DBA8DED91FC913E
:100D5000B1E0BB1257C0AB1255C069817A816B5F9D
:100D60007F4F0088F189E02D830128E030E0A40165
:100D7000898D9A8D0995A98DBA8DED91FC91119768
:100D80000688F789E02DCD016A960FB6F894DEBF8C
:100D90000FBECDBFDF91CF911F910F91FF90EF90CC
:100DA000DF90CF90BF90AF909F908F907F906F908B
:100DB0005F904F903F902F9009941E96ED91FC917B
:100DC000EF80F88409851A8592014D815E816B81DF
:100DD0007C81898D9A8D099590CF2F813885261534
:100DE000370509F48ACF31E0B31207C0A31205C05A
:100DF0001C96ED91FC91930178CF1E96ED91FC919C
:100E00007301E0CF6B857C85641975090684F785CD
:100E1000E02D73010F8518899201A401898D9A8DA7
:100E20000995A9CFF901349694913297459154913F
:100E3000D91AB7E0DB9E400D511D1124F90125910F
:100E400034913C8B2B8BFA0125903490FA01329629
:100E5000749031963491398B3296649031964490E7
:100E600041E04C1518F04A1508F07FC0662D062C9D
:100E7000000C770B7C836B83842D042C000C990B66
:100E80009E838D83A98DBA8DED91FC91119702847B
:100E9000F385E02DCD010995512CD12CC12CEA2DE3
:100EA000F0E0FA87E9872B2D30E03C872B87A401FF
:100EB000440D511D47FC5A95588F4F8B69817A819B
:100EC000660D711D67FC7A957E876D877989C716D7
:100ED00008F051CF2C2D30E04D815E81420F531F21
:100EE000A985BA854A9FC0014B9F900D5A9F900DCE
:100EF0001124FC01E80DF91DF88BEF87852D612C7D
:100F00004F89588D420F531F5E8B4D8B671408F02D
:100F100050C044244394480E877041F4C1010196A7
:100F2000EB89FC89E20DF31DD4901C01D7FE19C09A
:100F3000A98DBA8DED91FC91662D70E0B1E0BB12E8
:100F400019C0AB1217C02D853E85620F731F048434
:100F5000F585E02D2F8138854D895E89898D9A8DA3
:100F60000995DD0C6394842DD1CF1E821D821C82D5
:100F70001B8288CF4B815C81640F751FAB85BC855C
:100F80006A9FC0016B9F900D7A9F900D112469811B
:100F90007A81680F791F0684F785E02DEF80F88449
:100FA00009851A859D014F855889898D9A8D0995E6
:100FB000D8CF570CC3948ACF6A960FB6F894DEBF89
:100FC0000FBECDBFDF91CF911F910F91FF90EF909A
:100FD000DF90CF90BF90AF909F908F907F906F9059
:100FE0005F904F903F902F9008958F929F92AF9275
:100FF000CF92EF92FF920F931F93CF93DF93EC0169
:10100000262F898D9A8D009709F051C06A30D1F44E
:101010001D861C868D8948E0849F900111248E8551
:101020009F85820F931F9F878E8781E090E0DF91DD
:10103000CF911F910F91FF90EF90CF90AF909F9025
:101040008F9008956D3089F3CC88AD888F8988237F
:10105000C1F08C859D8536E0C39E800D911D1124C5
:10106000488559854817590764F44E855F851D8664
:101070001C8638E0A39EC0011124840F951F9F8712
:101080008E87EA88FB88088919894E855F856C857B
:101090007D85CE010E94D0052C898C859D8546E0FA
:1010A000249F800D911D11249D878C87BECF6A30AF
:1010B00069F41D861C86FC013896E4912D898E8585
:1010C0009F85E29F800D911D1124ADCF6D3009F4F5
:1010D000ACCFFC0134963491631708F4A6CF329656
:1010E000E491E61708F4A1CFFC0132968590949024
:1010F000462F431B342F47E0349F800C911C112452
:10110000F401329634913196E4913323A9F1EE2320
:1011100099F1CC88F4013596E491AD884F89442348
:1011200001F10E2E000CFF0BE30FF11DCE9EA0016E
:10113000CF9E500D11246C857D85460F571F688505
:101140007985641775076CF44E855F851D861C864E
:10115000FC013896E491AE9E400D511D11245F872D
:101160004E87EA88FB88088919894E855F856C85DA
:101170007D85CE010E94D005F4013496E4912C893E
:101180008C859D85E29F800D911D11248DCFEF925E
:10119000FF920F931F93CF93DF938C017B01D0E0DD
:1011A000C0E0F701EC0FFD1F6491662339F0C80120
:1011B0000E94F507892B11F02196F3CFCE01DF9124
:1011C000CF911F910F91FF90EF9008956F927F92B2
:1011D0008F929F92AF92BF92CF92DF92EF92FF9247
:1011E0000F931F93CF93DF93EC016B015A013901E9
:1011F0004801E881F9810284F385E02D0995E881B1
:10120000F9810288F389E02D87019301A501B601D8
:10121000CE010995A501480D591D41505109E8819C
:10122000F9810288F389E02D9301B601CE01099579
:10123000E881F9810088F189E02D9401A501B601CA
:10124000CE010995C60CD71CB60161507109E88121
:10125000F9810088F189E02D9401A501CE0109955D
:10126000E881F9810688F789E02DCE01DF91CF91E1
:101270001F910F91FF90EF90DF90CF90BF90AF90B4
:101280009F908F907F906F9009946F927F928F9232
:101290009F92AF92BF92CF92DF92EF92FF920F9305
:1012A0001F93CF93DF935C01EB016A014901380181
:1012B0008701DC01ED91FC916217730719F5641643
:1012C00075062CF0962D872D3A01C92ED82E960141
:1012D000261937092F5F3F4F048CF58DE02DA301B0
:1012E000BE01C5010995DF91CF911F910F91FF902C
:1012F000EF90DF90CF90BF90AF909F908F907F90B6
:101300006F9008954615570591F42617370724F076
:10131000892D4B01C22FD82F9E01281939092F5F23
:101320003F4F068CF78DE02DA601B401DACF028481
:10133000F385E02D0995D501ED91FC910488F5899F
:10134000E02D83019401A601BE01C5010995D501D7
:10135000ED91FC910688F789E02DC501DF91CF91D1
:101360001F910F91FF90EF90DF90CF90BF90AF90C3
:101370009F908F907F906F900994EF92FF920F93C0
:101380001F93DC011A960D911C911B9718962D91B5
:101390003C911997ED91FC9100A0F1A1E02D7B010A
:1013A00050E040E070E060E009951F910F91FF90E0
:1013B000EF9008954F925F926F927F928F929F92DB
:1013C000AF92BF92CF92DF92EF92FF920F931F9353
:1013D000CF93DF936C012B015A0139014801DC01E5
:1013E000ED91FC910284F385E02D0995E201640CF6
:1013F000751CD601ED91FC91C615D7055CF40088EB
:10140000F189E02D87019401A501BE01C60109956E
:101410002196EFCF0688F789E02DC601DF91CF91A5
:101420001F910F91FF90EF90DF90CF90BF90AF9002
:101430009F908F907F906F905F904F9009948F92C4
:101440009F92AF92BF92CF92DF92EF92FF920F9353
:101450001F93CF93DF93EC015B014A016901E8819F
:10146000F9810284F385E02D099595012C0D3D1D30
:1014700021503109E881F9810488F589E02D78014E
:101480008401A401B501CE010995E881F98106889E
:10149000F789E02DCE01DF91CF911F910F91FF9041
:1014A000EF90DF90CF90BF90AF909F908F90099476
:1014B0008F929F92AF92BF92CF92DF92EF92FF9264
:1014C0000F931F93CF93DF93EC015B014A016901F6
:1014D0007801E881F9810284F385E02D0995C80C33
:1014E000D91C860101501109E881F9810488F58928
:1014F000E02D9501A401B501CE010995E881F9819E
:101500000688F789E02DCE01DF91CF911F910F91D1
:10151000FF90EF90DF90CF90BF90AF909F908F9013
:1015200009940895EF92FF920F931F93DC01ED91C0
:10153000FC9100A0F1A1E02D09951F910F91FF9062
:10154000EF9008950F931F93DC01ED91FC91068CB1
:10155000F78DE02D09951F910F9108950F931F931B
:10156000DC01ED91FC91048CF58DE02D09951F9126
:101570000F910895DC01ED91FC910084F185E02D3F
:1015800009942F923F924F925F926F927F928F9227
:101590009F92AF92BF92CF92DF92EF92FF920F9302
:1015A0001F93CF93DF9300D000D000D0CDB7DEB72C
:1015B0003C016A013E832D83FC82EB825801A41A10
:1015C000B50AB7FE03C0B194A194B1088D809E8086
:1015D000861A970A97FE03C09194819491088A1401
:1015E0009B045CF0902F812F0D811E819D838E8343
:1015F0009C2D8D2D6B01692F782F0C151D055CF02E
:101600009D818E817E836D83692F782F902F812F0E
:101610008601C92ED82E1601201A310A2B012D81E0
:101620003E81421A530A57FE03C051944194510817
:10163000710137FE03C03FEFE31AF30AF594E79414
:101640008D819E81861797075CF5A1E0B0E0BA8393
:10165000A983C016D1064CF1D301ED91FC9104840D
:10166000F585E02D2B813C81A8016D817E818A1456
:101670009B041CF04D815E81B801C3010995E418FB
:10168000F508F7FE0AC02D813E8189819A81280FD5
:10169000391F3E832D83E20CF31C0F5F1F4FD9CF00
:1016A0002FEF3FEF3A832983D4CF26960FB6F894D5
:1016B000DEBF0FBECDBFDF91CF911F910F91FF9085
:1016C000EF90DF90CF90BF90AF909F908F907F90E2
:1016D0006F905F904F903F902F9008952091B605A6
:1016E000260F3327331F21323105ECF420910F06EA
:1016F000FC0190E080E0243069F082E00895A09140
:10170000B6052191AC014A565A4FA40FB52FB11D11
:101710002C930196861798F38091B605680F609315
:10172000B60580E0089581E0089510920F0681E0EB
:1017300080930E061092E90561E082E10E947B042D
:1017400061E083E10E947B04E9EBF0E080818E7F21
:10175000808380818D7F808388E48093B80085E4D6
:101760008093BC000895CF93DF9391E0909395050B
:101770008823B9F0C091B800D091BA008091BC0024
:101780008A7B8093BC0060E082E10E947B0460E081
:1017900083E10E947B040E94950BD093BA00C09312
:1017A000B800DF91CF910895CF92DF92EF92FF9230
:1017B0000F931F93CF93DF93D091380681E0D132FE
:1017C00008F09CC0C09137060E94DA046B017C01CE
:1017D00080910F0681116CC082E080930F0681E03A
:1017E00080930E068FEF80930D0610920C06D09317
:1017F0000B06A7E1B6E0EBEEF5E080E0D8138DC074
:101800001092EA058091EA05CC0FC82BC093EA0537
:101810008091E905813009F084C01092E9050E94A9
:10182000DA046B017C018091EA058093BB00809112
:10183000110690911206A0911306B0911406892BFF
:101840008A2B8B2BA1F00E94DA04009111061091D3
:10185000120620911306309114066C197D098E0929
:101860009F09061717072807390708F442C0809117
:10187000BC0083FDD8CF85EC8093BC000E94DA04C5
:101880006B017C0180910F06823009F44CC080917D
:101890000D068F3F09F469C080910D06803209F46E
:1018A00066C080910D06803309F463C084E026C0D1
:1018B0008091110690911206A0911306B091140622
:1018C000892B8A2B8B2B09F483CF0E94DA04009199
:1018D00011061091120620911306309114066C190E
:1018E0007D098E099F09061717072807390708F091
:1018F0006FCF809110060E94B30B85E01092160600
:101900001092380610921506DF91CF911F910F911A
:10191000FF90EF90DF90CF9008959D9191938F5F0E
:101920006DCF85EEA9CF8091110690911206A091FE
:101930001306B0911406892B8A2B8B2B09F4A2CFA6
:101940000E94DA04009111061091120620911306EC
:10195000309114066C197D098E099F090617170727
:101960002807390708F08ECFC4CF80E0C7CF82E0C8
:10197000C5CF83E0C3CFE091DE058091DD05E81798
:1019800030F4F0E0EB58FA4F808190E008958FEF4B
:101990009FEF08959091DE058091DD052FEF3FEFD9
:1019A000981748F4E92FF0E0EB58FA4F208130E027
:1019B0009F5F9093DE05C90108958091DD059091A8
:1019C000DE05891B990B0895CF92DF92EF92FF926B
:1019D0000F931F93CF93DF937C01CB018A0120915A
:1019E0001506222389F0EB016B01C40ED51ECC1520
:1019F000DD0569F06991D701ED91FC910190F081CD
:101A0000E02DC7010995F3CF642F0E946E0BC8012A
:101A1000DF91CF911F910F91FF90EF90DF90CF90CA
:101A20000895CF93DF931F92CDB7DEB769832091DE
:101A300015062223F9F020913806203258F021E0D3
:101A400030E0FC013383228390E080E00F90DF914F
:101A5000CF91089580911606E82FF0E0E95EF94FE6
:101A6000998190838F5F809316068093380681E07A
:101A700090E0ECCF61E0CE0101960E946E0BF7CFB3
:101A8000CF93C82F809162068F3FB1F1E0916C0631
:101A9000F0916D06808190917206892B8083E09190
:101AA0006E06F0916F069081809173068095892370
:101AB0008083E0916C06F0916D06908180917206B2
:101AC00080958923808380916706882389F0CEBD25
:101AD00000000DB407FEFDCF8EB5E0916C06F091CD
:101AE0006D06808190917206892B8083CF91089535
:101AF0008C2F0E94ED03F1CF8091600691E09093CE
:101B0000150680933706109216061092380660E08C
:101B100089E396E00E94110D6C2F89E396E00E9404
:101B2000110DCF910C94D40B8F929F92AF92BF92D4
:101B3000CF92DF92EF92FF920F931F93CF93DF9399
:101B400080E00E94400D80E10E94400D80E40E94F0
:101B5000400D809162068F3F09F46BC030EBF32E8D
:101B6000D0E0C0E08F2D0E94400D82E00E94400D29
:101B700080E10E94400D10E000E0CE018B5F9E4F9F
:101B80006C01E0916C06F0916D0680819091720677
:101B9000892B8083E0916E06F0916F068081909191
:101BA0007306892B8083E0916C06F0916D0690811D
:101BB000809172068095892380835601A00EB11E04
:101BC00020E1E22EF50181915F0190916706992352
:101BD00069F18EBD00000DB407FEFDCF8EB5EA940D
:101BE000E110F0CFE0916C06F0916D06808190914C
:101BF0007206892B8083005F1F4F0038110509F0A2
:101C0000C0CFC058DF4FF394C115F4E0DF0709F0EF
:101C1000A9CFDF91CF911F910F91FF90EF90DF90AF
:101C2000CF90BF90AF909F908F9008950E94ED034A
:101C3000D6CF9090B8008CE08093B80090EBF92E4E
:101C4000D0E0C0E0882483948F2D0E94400D82E074
:101C50000E94400D80E10E94400D10E000E0CE01A6
:101C60008B5F9E4F5C018091600680921506809389
:101C70003706109216061092380660E489E396E063
:101C80000E94110D6501C00ED11E80E1E82EF60103
:101C900061916F0189E396E00E94110DEA94E110D1
:101CA000F6CF0E94D40B005F1F4F00381105D9F604
:101CB000C058DF4FF394C115F4E0DF0729F6909286
:101CC000B800A7CFFC01E150F048EE0FFF1FE60F70
:101CD000F71F8281938120813181820F931F24819C
:101CE0003581820F931F08950F931F93CF93DF9336
:101CF000EC018E89823009F453C0833009F4ACC002
:101D0000813009F05CC0EC81FD81E41BF50BAF0173
:101D1000421B530B77FD3FC08E819F816817790767
:101D2000D4F557FF04C0240F351F50E040E08C81EC
:101D30009D81FA01E20FF31F8E179F071CF49C018F
:101D4000241B350B1216130634F5FB0177FD37966D
:101D5000A3E0F595E795AA95E1F7F695FE2FEE2716
:101D6000F795E795E40FF51FEB5FFE4F6770772758
:101D700081E090E001C0880F6A95EAF7482F0130B2
:101D8000110509F472C008F47CC02E0F3F1F023009
:101D9000110509F483C0DF91CF911F910F91089530
:101DA000AC81BD81CD01861B970BBC0161507109CF
:101DB000EE81FF81E41BF50BAF01421B530B77FD56
:101DC000EACF8C819D81681779072CF757FF04C0F3
:101DD000240F351F50E040E08E819F81FA01E20F11
:101DE000F31F8E179F071CF49C01241B350B121642
:101DF00013068CF6922FA42FA695A695A69580E89B
:101E0000A89FD0011124A60FB71FAB5FBE4F47702C
:101E100009F457C058E0541B452F652F70E0FB01B3
:101E2000E35FFA4F8081251708F0B0C0621B71098B
:101E30002FEF30E002C0359527956A95E2F78223AF
:101E400001301105A9F108F464C00230110509F050
:101E5000A2CF2C9182272EC0AE81BF81CD01861BDF
:101E6000970BBC016150710955CF2E0F3F1FE21730
:101E7000F30709F490CF8191DF011197842B8C93A4
:101E8000F6CF80952E0F3F1FE217F30709F483CF9B
:101E90009191DF01119798239C93F6CFE217F307F6
:101EA00009F479CF8191DF01119784278C93F6CFC4
:101EB0002C91822B8C93941708F46DCF941BA0580F
:101EC000BF4F983008F447C00230110531F5FD01CD
:101ED000892F208120952083E058FF4F885088303B
:101EE000C0F728EF290F26952695269530E02F5F1D
:101EF0003F4F3695322F222737952795A20FB31FD4
:101F0000977009F448CFE92FF0E0EB5FFA4F80813A
:101F100032C080952C918223CDCF81E00130110514
:101F200009F080E08195FD01292F8083E058FF4F63
:101F300028502830D0F728EF290F2695269526958A
:101F400030E02F5F3F4F3695322F22273795279568
:101F5000A20FB31F9770992309F41DCFE92FF0E06A
:101F6000EB5FFA4F80810130110541F058F00230EB
:101F7000110509F010CF9C91892702C09C91892BF3
:101F80008C9309CF80959C918923FACF013011055C
:101F900009F48ECF08F4BDCF0230110509F459CFF2
:101FA0008DCF0F931F93CF93DF93EC018E898230F7
:101FB00009F45EC0833009F4B5C0813009F067C010
:101FC000AC81BD81CD01841B950BAC014150510901
:101FD00057FD49C08C819D81481759070CF043C0BB
:101FE00077FF04C0260F371F70E060E08E819F816D
:101FF000FB01E20FF31F8E179F071CF49C01261BA9
:10200000370B121613067CF5922FA62FA695A695D0
:10201000A69580E8A89FD0011124A40FB51FAB5F3F
:10202000BE4F677009F48FC048E0461B642F70E014
:10203000FB01E35FFA4F8081241708F002C1621BA5
:1020400071092FEF30E002C0359527956A95E2F7C8
:1020500082230130110509F46DC008F49CC00230E0
:10206000110509F4F8C0DF91CF911F910F910895E8
:10207000EC81FD81E61BF70BAE81BF81CD01841B96
:10208000950BAC0141505109BF01621B730B57FD09
:10209000EACF8E819F81481759072CF777FF04C03C
:1020A000260F371F70E060E08C819D81FB01E20FFD
:1020B000F31F8E179F071CF49C01261B370B12166B
:1020C00013068CF6FA0157FD379693E0F595E795E0
:1020D0009A95E1F7F695FE2FEE27F795E795E60F2F
:1020E000F71FEB5FFE4F4770552781E090E001C07E
:1020F000880F4A95EAF7482F0130110509F488C086
:1021000008F492C02E0F3F1F0230110509F0ABCF2B
:10211000E217F30709F4A7CF8191DF011197842714
:102120008C93F6CFEE81FF81E61BF70BBF01621B9C
:10213000730B4ECF2C91822B8C93941708F493CF72
:10214000941BA058BF4F983008F447C002301105C7
:1021500031F5FD01892F208120952083E058FF4F24
:1021600088508830C0F728EF290F269526952695A8
:1021700030E02F5F3F4F3695322F22273795279536
:10218000A20FB31F977009F46ECFE92FF0E0EB5F59
:10219000FA4F808132C080952C918223CDCF81E08F
:1021A0000130110509F080E08195FD01292F808320
:1021B000E058FF4F28502830D0F728EF290F2695F8
:1021C0002695269530E02F5F3F4F3695322F2227F8
:1021D00037952795A20FB31F9770992309F443CF22
:1021E000E92FF0E0EB5FFA4F80810130110541F0FB
:1021F00058F00230110509F036CF9C91892702C0B2
:102200009C91892B8C932FCF80959C918923FACF19
:102210002E0F3F1FE217F30709F425CF8191DF014D
:102220001197842B8C93F6CF80952E0F3F1F2E177E
:102230003F0709F418CF9191DF01119798239C93E0
:10224000F6CF0130110509F475CF08F4A4CF0230A0
:10225000110509F075CF2C9182276ECFDC0177FD37
:1022600067C018968D919C911997681779070CF0A3
:102270005FC057FD5DC01A968D919C911B974817C2
:1022800059070CF055C056968C9156978230B9F08C
:10229000833041F1813049F414968D919C91841BD7
:1022A000950BAB01BC01615071092130310521F161
:1022B00008F43FC02230310509F458C0089514963F
:1022C000ED91FC911597E61BF70BBF016150710969
:1022D00016968D919C91FC01E41BF50BAF014150CA
:1022E0005109E3CF16968D919C91861B970BBA01ED
:1022F000AC0141505109D9CFFA0157FD3796A3E0FF
:10230000F595E795AA95E1F7F695FE2FEE27F79557
:10231000E795E60FF71FEB5FFE4F4770552721E06B
:1023200030E001C0220F4A95EAF78081822B80833A
:102330000895FA0157FD379623E0F595E7952A951C
:10234000E1F7F695FE2FEE27F795E795E60FF71FD5
:10235000EB5FFE4F4770552781E090E001C0880F8A
:102360004A95EAF7809590818923E1CFFA0157FDDC
:10237000379683E0F595E7958A95E1F7F695FE2F78
:10238000EE27F795E795E60FF71FEB5FFE4F4770D7
:10239000552721E030E001C0220F4A95EAF78081FD
:1023A0008227C5CF089590E080E00895E5E0F1E050
:1023B00080E094E0DF019C011D9221503040E1F764
:1023C0000895FB0101900020E9F73197AF01461B0A
:1023D000570B0C948D058F929F92AF92BF920F93E3
:1023E0001F93CF93DF93CDB7DEB7A1970FB6F894C5
:1023F000DEBF0FBECDBF19A2423008F44AE08E0105
:102400000F5D1F4F842E912CB12CA12CA50194019E
:102410000E943F23E62FB901CA01EA3004F5E05DCE
:10242000D801EE938D01232B242B252B79F790E0F7
:1024300080E0109729F0BD0185E496E00E94E1114B
:10244000A1960FB6F894DEBF0FBECDBFDF91CF913E
:102450001F910F91BF90AF909F908F900895E95C6E
:10246000DFCF0F931F93CF93DF93EC010E94C70838
:102470008C0163E575E0CE010E94E111800F911F90
:10248000DF91CF911F910F9108954F925F926F92BC
:102490007F928F929F92AF92BF92CF92DF92EF92F4
:1024A000FF92CF93DF936B017C01D42FAC019B0192
:1024B0000E94AE2566E575E0811126C02601370130
:1024C000E89477F82FEF3FEF4FE75FE7C301B201E2
:1024D0000E94AE2581110CC02FEF3FEF4FE75FE761
:1024E000C301B2010E94DD236AE575E0181664F0AD
:1024F0002FEF3FEF4FE75FE4C701B6010E943C2595
:102500001816A4F46EE575E085E496E0DF91CF91AE
:10251000FF90EF90DF90CF90BF90AF909F908F9003
:102520007F906F905F904F900C94E1112FEF3FEFF1
:102530004FE75FECC701B6010E94DD2387FDE2CFC4
:1025400020E030E0A901C701B6010E94DD23912CF3
:10255000812C87FF0AC06DE285E496E00E94F507B2
:102560004C01F7FAF094F7F8F094CD2FA12C60E02D
:1025700070E080E09FE3AD1640F420E030E040E200
:1025800051E40E94E223A394F6CFA70196010E9492
:1025900071232B013C010E945B245B016C014AE02A
:1025A0000E94EB117C01E80CF91CDD23C1F1C6018E
:1025B000B5010E948A249B01AC01C301B2010E94B3
:1025C00070234B015C016EE285E496E00E94F50702
:1025D000E80EF91EC15018F120E030E040E251E46D
:1025E000C501B4010E9441252B013C010E945B24DE
:1025F0004B01B12CA12C4AE0C501B4010E94EB11A2
:10260000E80EF91EC501B4010E948A249B01AC01A9
:10261000C301B2010E9470234B015C01DBCFC701F3
:10262000DF91CF91FF90EF90DF90CF90BF90AF9070
:102630009F908F907F906F905F904F9008950E9431
:10264000E12585ED8093BC008091110690911206E2
:10265000A0911306B09114060796A11DB11D23E0A9
:10266000B695A795979587952A95D1F72091BC00A7
:1026700024FD03C010920F06089540911106509159
:1026800012066091130670911406452B462B472BBA
:1026900069F30097A105B10541F02AE22A95F1F707
:1026A00000C00197A109B109E1CF809110060C94F7
:1026B000B30B8F929F92AF92BF92CF92DF92EF9225
:1026C000FF920F931F93CF93DF934B015A01690140
:1026D000E7016091710526E06202B00111246153A7
:1026E0007E4F0E9498206091720585E06802B001DB
:1026F00011246A547E4FC4010E9498208091720573
:102700008230B1F18CF48823D9F0813049F1DF9126
:10271000CF911F910F91FF90EF90DF90CF90BF90DE
:10272000AF909F908F900895833051F1843079F766
:1027300083E290E0F5019183808384E190E007C01B
:1027400082E793E0F5019183808384EF91E0F601C5
:1027500091838083F8011182108219821882D7CF69
:1027600080E691E0F5019183808388EC90E0EFCFE3
:1027700080EB90E0F5019183808384E690E0E7CFE1
:1027800088E590E0F5019183808382E390E0DFCFDC
:102790002F923F924F925F926F927F928F929F9271
:1027A000AF92BF92CF92DF92EF92FF920F931F935F
:1027B000CF93DF93CDB7DEB7CE5CD1400FB6F894A0
:1027C000DEBF0FBECDBF7E0127E6E21A2EEFF20A72
:1027D00086E0E2E6F5E0D70101900D928A95E1F7F7
:1027E0006E0131E6C31A3EEFD30A85E0E8E6F5E074
:1027F000D60101900D928A95E1F710927005109222
:102800006F051092740511E0109372051093710515
:10281000109273050E94D6111093590610935A0610
:1028200081E090E090935806809357069093560667
:102830008093550688E290E090935206809351066B
:10284000109254061092530662E771E085E496E018
:102850000E9431128EE190E09093520680935106CF
:1028600084E190E0909354068093530665E671E00E
:1028700085E496E00E94311287E390E0909352063F
:10288000809351068AE290E0909354068093530619
:1028900062E671E085E496E00E9431120E94940D98
:1028A00062E370E080E090E00E94FF046CED75E070
:1028B00080E090E00E94FF040E94D6111093590618
:1028C00010935A0680916E058B7F80936E05CF53CF
:1028D000DE4FC882C15CD140CE53DE4FD882C25C8D
:1028E000D140CD53DE4FE882C35CD140CC53DE4FA4
:1028F000F882C45CD140CE018F569E4FC455DE4F46
:1029000099838883CC5AD14080916E0582FD79C726
:10291000DE01A655BE4F7D018E010A551E4F9E0158
:1029200028553E4FAE014C555E4FCF53DE4F688168
:10293000C15CD140CE53DE4F7881C25CD140CD53D3
:10294000DE4F8881C35CD140CC53DE4F9881C45C9C
:10295000D1400E9459131092740580917A00887FAB
:1029600080937A0080917105823009F42CC50CF0B7
:10297000B0C4882309F4E1C4813009F402C59E0182
:1029800026553E4F79018E010A551E4F22503109BE
:10299000AE014C555E4FCF53DE4F6881C15CD140D4
:1029A000CE53DE4F7881C25CD140CD53DE4F88815B
:1029B000C35CD140CC53DE4F9881C45CD1400E94AF
:1029C0005913FE013196EE24EA9453E0F52E10E0FF
:1029D00000E040E050E0BA01819191914C01092E54
:1029E000000CAA08BB08480D591D6A1D7B1D8E15D9
:1029F0009F050CF47C01081719070CF48C01C455D1
:102A0000DE4F88819981CC5AD1408E179F0721F7DC
:102A1000CB01BA01665F7F4F8F4F9F4F24E130E0BB
:102A200040E050E00E94D622C553DE4F2883398310
:102A30004A835B83CB5CD140C8018E0D9F1D9C01F6
:102A400097FF02C02F5F3F4F35952795FE01EF5945
:102A5000FF4F41E3842E912C41915191421753072E
:102A600034F440815181421753070CF012C5AFEF87
:102A70008A1A9A0AB6E98B16910471F7A4E68A2E8F
:102A8000912CC454DE4F1882CC5BD1400E191F0923
:102A9000063011052CF4C454DE4F1882CC5BD140B3
:102AA0001C01220C331C280E391E37FE03C0FFEF19
:102AB0002F1A3F0A35942794CB53DE4F1882198280
:102AC0001A821B82C55CD140C654DE4F198218821F
:102AD000CA5BD140CA54DE4F19821882C65BD1400E
:102AE000C854DE4F19821882C85BD140C055DE4FF2
:102AF0001882C05BD140CE54DE4F1882C25BD140F9
:102B0000C753DE4F1882C95CD140C653DE4F1882CE
:102B1000CA5CD140C255DE4F1882CE5AD1407724CC
:102B2000739401E010E0BE016F5F7F4FC8010E9407
:102B3000620E7C0158012FEFA21AB20A772009F425
:102B4000D8C4281639060CF45DC5BE016F5F7F4FEF
:102B5000C5010E94620E6C01281639060CF052C5A0
:102B6000C1018E199F097C01BC01990F880B990B3B
:102B70000E948C242B013C01B601621973096E0D71
:102B80007F1D072E000C880B990B0E948C249B0143
:102B9000AC01C301B2010E94E2236B017C01B801C8
:102BA000110F880B990B0E948C249B01AC01C7016B
:102BB000B6010E947123C354DE4F6883CD5BD140C0
:102BC000C254DE4F7883CE5BD140C154DE4F888340
:102BD000CF5BD140C054DE4F9883C05CD140C2551A
:102BE000DE4F9881CE5AD140992309F459C4C0557B
:102BF000DE4F2881C05BD140CE54DE4F3881C25BAE
:102C0000D140C753DE4F4881C95CD140C653DE4F27
:102C10005881CA5CD140C054DE4F9881C05CD1401D
:102C20000E947023CB53DE4F688379838A839B8312
:102C3000C55CD140C854DE4FA881B981C85BD14082
:102C40001196C854DE4FB983A883C85BD140712C5C
:102C500031E0C255DE4F3883CE5AD1408501063C63
:102C6000110509F060CFE091710524E0E202F00166
:102C70001124E458FE4F85919591A591B491CE54BD
:102C8000DE4F88839983AA83BB83C25BD1400E94B5
:102C9000D61181E090E09093580680935706909368
:102CA00056068093550685E590E0909352068093F2
:102CB0005106109254061092530664E971E085E4BF
:102CC00096E00E94311201E010E027E330E049E095
:102CD00050E06AE170E085E496E00E94740E23E023
:102CE00030E049E050E06FE770E085E496E00E9454
:102CF000740E23E030E04DE350E06FE770E085E4D0
:102D000096E00E94740E27E030E049E050E068E170
:102D100070E085E496E00E94D10F22E030E044E2CA
:102D200050E068E170E085E496E00E94D10F27E072
:102D300030E04FE350E068E170E085E496E00E9407
:102D4000D10F23E030E049E050E063E370E085E438
:102D500096E00E94D10F23E030E04FE350E063E3C0
:102D600070E085E496E00E94D10F23E030E049E076
:102D700050E06CE470E085E496E00E94D10F23E01F
:102D800030E04FE350E06CE470E085E496E00E94B0
:102D9000D10F23E030E049E050E065E670E085E4E3
:102DA00096E00E94D10F23E030E04FE350E065E66B
:102DB00070E085E496E00E94D10F25E030E049E024
:102DC00050E06BE770E085E496E00E94D10F25E0CB
:102DD00030E04FE350E06BE770E085E496E00E945E
:102DE000D10F7AE1E72EF12C01E010E022E030E093
:102DF00044E250E0B70185E496E00E94D10F95E0EF
:102E0000E90EF11CA3E8EA16F10471F766E6E62E76
:102E1000F12C5AE0C52ED12C01E010E022E030E088
:102E2000A601B70185E496E00E94740EB5E0CB0ED2
:102E3000D11CE1E4CE16D10479F7F9E1EF1AF108DB
:102E40002BE1E216F10429F7C40182539048880F60
:102E5000991FA1E0B0E0AC0FBD1FA80FB91FC2556C
:102E6000DE4FB983A883CE5AD1404BE1C42ED12C7A
:102E7000CA55DE4FE880F980C65AD1400F2C000CAD
:102E8000000B110BC255DE4FE881F981CE5AD140BB
:102E900021913191C255DE4FF983E883CE5AD1405A
:102EA000C055DE4F39832883C05BD140CC55DE4FFF
:102EB00048805980C45AD140052C000C6608770818
:102EC0004E185F08600A710A16013FEF231A330A91
:102ED00020813181032E000C440B550B2E193F0924
:102EE000400B510BAAECBFEF0E940323A3019201F8
:102EF0000E94D62249015A018FE3880E911CA11C21
:102F0000B11C90E489169104A104B1042CF02FE3C4
:102F1000822E912CA12CB12CA9E08A169104A10437
:102F2000B1042CF499E0892E912CA12CB12CC05520
:102F3000DE4FE881F981C05BD1409F01FF0F440B58
:102F4000550B2E193F09400B510BAAECBFEF0E9405
:102F50000323A30192010E94D622BA01A901415C78
:102F60005F4F6F4F7F4F403451056105710524F06D
:102F70004FE350E060E070E04930510561057105B4
:102F800024F449E050E060E070E0EE24E394F12C9A
:102F900084019101B60185E496E00E944509610132
:102FA000FEE72F16310409F063CF82E090E09093A2
:102FB0005206809351061092540610925306CF5336
:102FC000DE4F6881C15CD140CE53DE4F7881C25C58
:102FD000D14085E496E00E94E11180917305811152
:102FE00020C001E010E02BE130E047E050E070E06D
:102FF00060E085E496E00E94D10F22E030E045E0F9
:1030000050E070E060E085E496E00E94740E22E0FB
:1030100030E045E050E06AE170E085E496E00E942F
:10302000740E82E290E090935206809351061092C3
:10303000540610925306CD53DE4F6881C35CD140D5
:10304000CC53DE4F7881C45CD14085E496E00E9489
:10305000E11180917305882301F101E010E021E284
:1030600030E047E050E060E270E085E496E00E94E6
:10307000D10F22E030E045E050E060E270E085E40E
:1030800096E00E94740E22E030E045E050E060E4FB
:1030900070E085E496E00E94740E8BE490E09093DB
:1030A000520680935106109254061092530668E11E
:1030B00085E496E00E94F507C553DE4F28813981EB
:1030C000CB5CD140B901330F880B990B0E948C2443
:1030D00020ED3CEB49EB5BE30E94412520E030E032
:1030E00040E251E40E94E2236B017C0120E030E0E9
:1030F00040E251E40E94DD238E010F561E4F22E074
:1031000087FF21E044E0C701B6010E947A2082E6F1
:1031100090E09093520680935106109254061092BC
:103120005306BE016F567E4F85E496E00E94E11182
:10313000C855DE4F68817981C85AD140072E000CEE
:10314000880B990B0E948C2420E030E048EC52E47C
:103150000E94E2238E010F561E4F22E044E00E949F
:103160007A20109252061092510689E090E09093D6
:10317000540680935306B80185E496E00E94E1115D
:10318000C855DE4F68817981C85AD140C655DE4F97
:1031900088819981CA5AD140680F791F072E000C87
:1031A000880B990B0E948C2420E030E048E453E423
:1031B0000E94E22322E044E00E947A20109252060C
:1031C0001092510681E290E090935406809353064A
:1031D000B80185E496E00E94E111C655DE4F688192
:1031E0007981CA5AD140072E000C880B990B0E9496
:1031F0008C2420E030E048EC52E40E94E22322E0FC
:1032000044E00E947A20109252061092510689E3FF
:1032100090E09093540680935306B80185E496E0BD
:103220000E94E111C454DE4F3881CC5BD140311192
:10323000ECC1F12CE12C08E010E028E130E04EE098
:1032400050E06CE570E085E496E00E94DA098CE5D8
:1032500090E090935206809351068EE090E0909318
:103260005406809353066AEA71E085E496E00E9472
:10327000C7080E94940D80917005882309F4A6C2A6
:10328000F12CE12C08E010E028E130E04BE050E0C8
:103290006AE270E085E496E00E94DA098AE290E052
:1032A00090935206809351068BE090E090935406E1
:1032B0008093530661EB71E085E496E00E94C708B5
:1032C0000E94940D6AE070E080E090E00E94FF04AC
:1032D000D2CF843009F4B7C00CF497C0853009F020
:1032E0004ECB80917A00826080937A008E010F5FCE
:1032F0001F4F0E941804D8018D939D938D010000EB
:1033000000000000000000000000000000000000BD
:1033100000000000000000000000000000000000AD
:10332000000000000000C455DE4FE881F981CC5A4E
:10333000D140EA17FB07E9F622CB80917A0087603B
:1033400080937A00FE0131967F010BE31BE70E9418
:103350001804D7018D939D937D01C8010197F1F762
:1033600080917405882319F01092740508CBC45518
:10337000DE4FE881F981CC5AD140EA17FB0739F7D3
:10338000FECA80917A00876080937A009E012F5F49
:103390003F4F79010BE51DE10E941804D7018D9381
:1033A0009D937D01C8010197F1F78091740581110A
:1033B000E6CAC455DE4FE881F981CC5AD140EA17FC
:1033C000FB0751F7DCCA80917A00876080937A000E
:1033D0009E012F5F3F4F790107E714E00E94180418
:1033E000D7018D939D937D01C8010197F1F78091DD
:1033F00074058111C4CAC455DE4FE881F981CC5AE5
:10340000D140EA17FB0751F7BACA80917A0086606B
:1034100080937A009E012F5F3F4F790107E510E00E
:103420000E941804D7018D939D937D01C8010197D7
:10343000F1F7C455DE4FE881F981CC5AD140EA1743
:10344000FB0771F79CCA80917A00846080937A00B0
:103450009E012F5F3F4F79010BE010E00E9418049E
:10346000D7018D939D937D01C8010197F1F700006D
:103470000000000000000000000000000000C45533
:10348000DE4FE881F981CC5AD140EA17FB0731F7CA
:1034900076CAE1E0C454DE4FE883CC5BD140F6CA83
:1034A000C354DE4FB881CD5BD140C055DE4FB883E9
:1034B000C05BD140C254DE4FE881CE5BD140CE54D8
:1034C000DE4FE883C25BD140C154DE4FF881CF5B51
:1034D000D140C753DE4FF883C95CD140C054DE4FA2
:1034E0002881C05CD140C653DE4F2883CA5CD140DE
:1034F000AECB821593050CF4B1CBBE016F5F7F4F4D
:10350000C5010E94620E6C01821593050CF0A6CBDA
:10351000C255DE4F4881CE5AD140442309F472C0CF
:10352000E218F308B7010F2C000C880B990B0E94CE
:103530008C242B013C01B1016C197D096E0D7F1D9E
:10354000072E000C880B990B0E948C249B01AC0168
:10355000C301B2010E94E2236B017C01B801110F8B
:10356000880B990B0E948C249B01AC01C701B6010A
:103570000E947123C354DE4F2881CD5BD140C254D9
:10358000DE4F3881CE5BD140C154DE4F4881CF5BE6
:10359000D140C054DE4F5881C05CD1400E9470239E
:1035A0006B017C01CA54DE4FA881B981C65BD14052
:1035B000BD01BB0F880B990B0E948C249B01AC01B1
:1035C000C701B6010E9471230E945424CA54DE4FE1
:1035D00079836883C65BD140C654DE4FE881F981A8
:1035E000CA5BD1403196C654DE4FF983E883CA5B8B
:1035F000D14077247394F1E0C255DE4FF883CE5A60
:10360000D1402CCB7724739429CBC854DE4FA881AA
:10361000B981C85BD140BD01BB0F880B990B0E94DB
:103620008C249B01AC01CB53DE4F688179818A8168
:103630009B81C55CD1400E94E2234B015C01CE54CA
:10364000DE4F288139814A815B81C25BD1400E9473
:10365000412520E030E048EC51E40E94E2239B0148
:10366000AC0160E070E080E89FE30E94E2232B0160
:103670003C01F12CE12C09E010E029E130E04CE0C4
:1036800050E06AE570E085E496E00E94DA098BE597
:1036900090E090935206809351068DE090E09093D5
:1036A00054068093530620E030E048EC52E4C30116
:1036B000B2010E94DD2387FF50C041E050E0C3010A
:1036C000B2010E94451267EA71E085E496E00E942B
:1036D000C708F12CE12C0AE010E029E130E045E1D7
:1036E00050E060E670E085E496E00E94DA0989E641
:1036F00090E0909352068093510687E190E090937A
:10370000540680935306CA54DE4F88819981C65B64
:10371000D140C654DE4F68817981CA5BD1400E9496
:10372000B325072E000C880B990B0E948C2420E0F7
:1037300030E048EC52E40E944125A50194010E942A
:10374000E2230E945424072E000C880B990B41E0C1
:103750000E94EB116CE971E088CD20E030E04AE78F
:1037600054E4C301B2010E94DD2387FF09C050E089
:1037700040E0C301B2010E94451264EA71E0A5CFA6
:1037800020E030E04AE754E4C301B2010E94E223A2
:103790006B017C0120E030E44CE156E4C301B2014E
:1037A0000E94DD2387FF09C042E050E0C701B60157
:1037B0000E94451261EA71E088CF41E050E0C70104
:1037C000B6010E9445126EE971E07FCF0E94570456
:1037D000892B99F46EE170E080E090E00E94FF0494
:1037E0000E945704892B09F08FC880916E0582FDD5
:1037F0008BC8846080936E0587C880916E058B7F2F
:10380000F9CF64E670E080E090E00E94FF04C253CC
:10381000DE4F0FB6F894DEBF0FBECDBFDF91CF9164
:103820001F910F91FF90EF90DF90CF90BF90AF90DE
:103830009F908F907F906F905F904F903F902F90D0
:1038400008951F920F920FB60F9211242F933F935A
:103850008F939F93AF93BF938091E1059091E20581
:10386000A091E305B091E4053091E00523E0230F3A
:103870002D3758F50196A11DB11D2093E0058093C9
:10388000E1059093E205A093E305B093E4058091F0
:10389000E5059091E605A091E705B091E805019650
:1038A000A11DB11D8093E5059093E605A093E70562
:1038B000B093E805BF91AF919F918F913F912F9168
:1038C0000F900FBE0F901F90189526E8230F0296B9
:1038D000A11DB11DD2CF1F920F920FB60F921124CE
:1038E0002F933F934F935F936F937F938F939F9308
:1038F000AF93BF93EF93FF93E0910201F091030127
:103900000995FF91EF91BF91AF919F918F917F9119
:103910006F915F914F913F912F910F900FBE0F903C
:103920001F9018951F920F920FB60F9211242F938C
:103930003F934F935F936F937F938F939F93AF9337
:10394000BF93EF93FF93E0910001F091010109957E
:10395000FF91EF91BF91AF919F918F917F916F9167
:103960005F914F913F912F910F900FBE0F901F903D
:1039700018951F920F920FB60F9211242F933F9319
:103980004F935F936F937F938F939F93AF93BF9367
:10399000EF93FF938091B900887F803609F44AC085
:1039A000F0F5883209F4A7C018F5803109F49BC0FE
:1039B000B8F4882309F4F9C0883009F494C0FF9161
:1039C000EF91BF91AF919F918F917F916F915F9197
:1039D0004F913F912F910F900FBE0F901F90189510
:1039E000883109F488C0803251F780930D0614C0E5
:1039F000803409F49DC040F48033B9F38833F9F67C
:103A000080930D0685ECB0C0803509F485C08835FB
:103A100009F496C0883499F60E942113D0CF8839D2
:103A200009F48CC038F5883729F050F4883611F045
:103A3000803729F683E080930F061092D80557C08F
:103A4000883809F47BC0803919F0803809F0B7CF85
:103A50008091D805803208F071C0E091D80581E0EE
:103A60008E0F8093D8058091BB00F0E0E854FA4FA8
:103A700080833DC0803B39F0E0F4803A09F479C09E
:103A8000883A09F09CCF84E080930F061092B70526
:103A90001092B605E091DB05F091DC050995809167
:103AA000B60581110FC081E08093B605109296058E
:103AB00009C0803C09F4A6CF883C09F4A3CF883B19
:103AC00009F07DCFE091B70581E08E0F8093B705B7
:103AD000F0E0EA56FA4F80818093BB009091B705E1
:103AE0008091B60529C08091EA058093BB0085ECE2
:103AF0008093BC0064CF90910C0680910B069817C0
:103B000058F5E0910C0681E08E0F80930C06F0E0F2
:103B1000E551FA4F8081E9CFE0910C0681E08E0FEC
:103B200080930C068091BB00F0E0E551FA4F808352
:103B300090910C0680910B069817C8F285E8D8CFB3
:103B4000E0910C0681E08E0F80930C068091BB0003
:103B5000F0E0E551FA4F808380910E0681115CCF31
:103B600081E08093E90584EA8093BC0010920F06FF
:103B700026CF85EC8093BC0010920F068091D8056B
:103B8000803230F4E091D805F0E0E854FA4F10822A
:103B90006091D80570E0E091D905F091DA0588EBE5
:103BA00095E009951092D8050ACF10920D0634CFF2
:103BB000E9E3F6E01382128288EE93E0A0E0B0E041
:103BC00084839583A683B78389E195E0918380837D
:103BD000E5E4F6E01382128220E830E035832483A6
:103BE00080E490E09783868331872087938782875C
:103BF000168A158614861786168681E0858B848B37
:103C00002FEF3FEF338B228B318B208B878B108EE6
:103C1000128E118E8BE295E0918380838FEF858FDA
:103C200081A3878F868F80A30895789484B582605E
:103C300084BD84B5816084BD85B5826085BD85B550
:103C4000816085BD80916E00816080936E001092CE
:103C50008100809181008260809381008091810049
:103C600081608093810080918000816080938000DA
:103C70008091B10084608093B1008091B000816038
:103C80008093B00080917A00846080937A00809164
:103C90007A00826080937A0080917A0081608093BC
:103CA0007A0080917A00806880937A001092C10037
:103CB00062E082E00E94A90462E088E00E94A90418
:103CC00062E089E00E94A90462E08AE00E94A904FF
:103CD00062E08BE00E94A90462E083E00E94A904F4
:103CE00061E08DE00E94A90482E0809361068CE38C
:103CF00080936006809162068F3F09F4E4C161E021
:103D0000809164060E94A90461E0809166060E9489
:103D1000A90480916606082E000C990BFC01E85B53
:103D2000F84FE491F0E0EE0FFF1FEC5CF84F2591A7
:103D3000349130936D0620936C06FC01E45AF84FE1
:103D4000E491E093720680916406082E000C990BB2
:103D5000FC01E85BF84FE491F0E0EE0FFF1FEC5C34
:103D6000F84F2591349130936F0620936E06FC0135
:103D7000E45AF84FE491E09373068091670681114D
:103D80003EC061E0809162060E94A90461E08091DA
:103D900063060E94A90480916306082E000C990B0B
:103DA000FC01E85BF84FE491F0E0EE0FFF1FEC5CE4
:103DB000F84F2591349130936B0620936A06FC01ED
:103DC000E45AF84FE491E093710680916206082E60
:103DD000000C990BFC01E85BF84FE491F0E0EE0F6A
:103DE000FF1FEC5CF84F25913491309369062093C6
:103DF0006806FC01E45AF84FE491E0937006809164
:103E00006706882309F439C0CFB7F8948091DF059D
:103E1000811127C0E2E5F7E08491E6E6F7E09491AE
:103E2000E82FF0E0EE0FFF1FE65DF84FA591B4918B
:103E3000EC91E92321F461E08AE00E947B0461E0D7
:103E40008AE00E94A9048CB580618CBD8CB5806429
:103E50008CBD61E08DE00E94A90461E08BE00E94CE
:103E6000A9048091DF058F5F8093DF05CFBF8CB5FC
:103E70008C7F8CBD8DB581608DBD61E080916506C4
:103E80000E94A90461E0809165060E947B0461E0C4
:103E900070E080E090E00E94FF0460E080916506A1
:103EA0000E947B046AE070E080E090E00E94FF04E2
:103EB00061E0809165060E947B048EEA0E94400DBD
:103EC00085ED0E94400D80E80E94400D88EA0E9426
:103ED000400D8FE30E94400D83ED0E94400D80E075
:103EE0000E94400D80E40E94400D8DE80E94400D2C
:103EF00084E10E94400D80E20E94400D80E00E941B
:103F0000400D81EA0E94400D88EC0E94400D8AED30
:103F10000E94400D82E10E94400D81E80E94400D08
:103F20008FEC0E94400D89ED0E94400D81EF0E94B0
:103F3000400D8BED0E94400D80E40E94400D84EA0C
:103F40000E94400D86EA0E94400D8FEA0E94400DBB
:103F500083E08093040181E395E0909301018093D5
:103F60000001809169008C7F826080936900E89AEB
:103F700055245394C1E0D0E088E2682E712C9EE174
:103F8000892E912C04E110E027E3E22EF12C3AE295
:103F9000C32ED12C40E0A42E40E0B42E0E94D611B6
:103FA0005092590650925A06D0935806C09357061D
:103FB000D0935606C09355067092520660925106F1
:103FC00010925406109253066AE177E085E496E079
:103FD0000E9431129092520680925106109354061C
:103FE0000093530668E077E085E496E00E94311282
:103FF000F0925206E0925106D0925406C0925306B7
:1040000065E077E085E496E00E9431120E94940D0D
:104010006CED75E080E090E00E94FF040E94D611F4
:104020005092590650925A060E94C8130E94D61107
:104030005092590650925A06D0935806C09357068C
:10404000D0935606C0935506709252066092510660
:1040500010925406109253066EEF76E085E496E0D7
:104060000E9431129092520680925106109354068B
:104070000093530665EF76E085E496E00E943112E6
:10408000F0925206E0925106D0925406C092530626
:1040900063EF76E085E496E00E9431120E94940D71
:1040A0006CED75E080E090E00E94FF040E94D61164
:1040B0005092590650925A06A114B10409F46ECFD9
:1040C0000E9400006BCF1092DE051092DD05109269
:1040D0001606109238060E94950B8AE895E0909398
:1040E000DC058093DB058BE895E09093DA058093FF
:1040F000D905C3CEEF920F931F93CF93DF93E801BF
:1041000034E047FD34E1042E000C550B57FF03C08B
:10411000519541955109E32E022F242FAE010E94A3
:104120009F20CE01DF91CF911F910F91EF900895C5
:10413000FB01DC0105900D920020E1F70895A9E054
:10414000B0E0E5EAF0E20C940E236A01F22EB02E04
:10415000102FFBE3AF2EA01608F41BE31F5F012F07
:1041600027E0AE014F5F5F4F0E94FE21BC018981B5
:10417000982F9970913009F43FC09BE2E1FC04C094
:104180009E2D9170E0FC3AC05E2D5071E82FE870D2
:1041900083FF46C084E0911101C083E0EF2DE81B4E
:1041A0008F1508F0E0E0D6018E2F20E2552351F163
:1041B000992329F0D6019C93C60101966C019601C2
:1041C0002D5F3F4FE2FE24C08EE4D6018C9391E434
:1041D00011969C93119712968C93D9018E2F90E291
:1041E00081111BC0E20FF32FF11D10828EEF9FEFA4
:1041F0002996ECE00C942A239DE2C6CF90E2C4CF2E
:104200002D9381508111FCCFCE0ED11CE0E0D0CF98
:104210008EE6D6018C9391E6DBCF9D938150E0CF63
:10422000482F447082FF3DC084E0911101C083E0BB
:104230008F1510F4EF2DE81BD6018E2F20E25523A9
:1042400009F1992329F0D6019C93C60101966C01CE
:1042500096012D5F3F4FE2FE1BC089E4D6018C938F
:104260008EE411968C93119786E412968C93D90163
:104270008E2F90E2882309F4B5CF9D938150FACF19
:104280002D9381508111FCCFCE0ED11CE0E0D9CF0F
:1042900089E6D6018C938EE611968C93119786E66B
:1042A000E4CF9B0177FF02C030E020E0A1E0B0E066
:1042B000911102C0B0E0A0E0F9013196AE0FBF1F2E
:1042C0008B2C912CBB2009F461C05401EFEFAE1A86
:1042D000BE0AAA0DBB1DFA161B0619F014F04F2DCD
:1042E0004A1B511188C0E3FC59C07601A42FB0E2EB
:1042F000A1114FC0C40ED11C992309F45BC040E04A
:10430000D6011196F60190836D01552309F448C03A
:10431000012F060F9A81582F507184FF03C09133EB
:1043200009F4015010160CF047C0093008F008E0FD
:10433000EEE2FE2E5B01A01AB108850191948194F2
:1043400091082F3F320729F4D601FC92F6013196ED
:104350006F016217730794F1021713077CF5DB01F5
:10436000A21BB30BAA24A394B12CAC0EBD1EAA0DA4
:10437000BB1D11968C9121503109D601119628153B
:104380003905F4F0F60180836D01DBCFB12CA12C4F
:10439000A0CFF701B1937F01A150AACF9111B0CF67
:1043A000D601942F50E302C05D9391509111FCCF40
:1043B000C40ED11C40E0ACCF01E0BACF80E3DBCF2C
:1043C0006217730731F4963388F4953311F455234B
:1043D00069F0F6018083FD01842F90E2811108C00D
:1043E000A40FB11D1C9290E080E002CF81E3F1CFD9
:1043F00091938150F3CF911183CF8ACF283008F069
:1044000027E03327DA01990F311D87FD916000966F
:104410006105710539F432602E5F3D9330E32A95D2
:10442000E1F708959F3F30F080387105610509F08C
:104430003C5F3C5F3D93913008F08068911DDF93B5
:10444000CF931F930F93FF92EF92192F987F96951A
:10445000E92F96959695E90FFF27EE53FF4F992781
:104460003327EE24FF24A701E70105900894079461
:1044700028F4360FE71EF81E491F511D660F771FDF
:10448000881F991F0694A1F70590079428F4E70E5A
:10449000F81E491F561FC11D770F881F991F661FE1
:1044A0000694A1F70590079428F4F80E491F561FAB
:1044B000C71FD11D880F991F661F771F0694A1F78C
:1044C0000590079420F4490F561FC71FD81F990F56
:1044D000661F771F881F0694A9F78491109517709F
:1044E00041F0D695C79557954795F794E7941A9557
:1044F000C1F7E8E6F0E06894159015913591659163
:10450000959105907FE27395E118F10A430B560BE4
:10451000C90BD009C0F7E10CF11E431F561FC91F7C
:10452000D01D7EF4703311F48A95E6CFE8940150E3
:1045300030F0080F0AF40027021708F4202F239503
:10454000022F7A3328F079E37D932A95E9F710C09A
:104550007D932A9589F606949795679537951795D3
:104560001794E118F10A430B560BC90BD00998F0C8
:1045700023957E9173957A3308F070E37C93201332
:10458000B8F77E9170617D9330F0839571E37D93F0
:1045900070E32A95E1F71124EF90FF900F911F919E
:1045A000CF91DF91992787FD90950895052E97FB70
:1045B0001EF400940E94ED2257FD07D00E943F2375
:1045C00007FC03D04EF40C94ED22509540953095A5
:1045D00021953F4F4F4F5F4F08959095809570956F
:1045E00061957F4F8F4F9F4F08950E946123A59F34
:1045F000900DB49F900DA49F800D911D11240895DE
:10460000B7FF0C94F5220E94F522821B930B0895AC
:104610002F923F924F925F926F927F928F929F92D2
:10462000AF92BF92CF92DF92EF92FF920F931F93C0
:10463000CF93DF93CDB7DEB7CA1BDB0B0FB6F89471
:10464000DEBF0FBECDBF09942A88398848885F84B1
:104650006E847D848C849B84AA84B984C884DF8022
:10466000EE80FD800C811B81AA81B981CE0FD11D06
:104670000FB6F894DEBF0FBECDBFED010895A1E2E5
:104680001A2EAA1BBB1BFD010DC0AA1FBB1FEE1FCC
:10469000FF1FA217B307E407F50720F0A21BB30B17
:1046A000E40BF50B661F771F881F991F1A9469F793
:1046B00060957095809590959B01AC01BD01CF01EF
:1046C0000895A29FB001B39FC001A39F700D811DEB
:1046D0001124911DB29F700D811D1124911D08950B
:1046E0005058BB27AA270E9488230C9402250E94B9
:1046F000F42438F00E94FB2420F039F49F3F19F491
:1047000026F40C94F1240EF4E095E7FB0C94EB24D2
:10471000E92F0E94132558F3BA176207730784071D
:10472000950720F079F4A6F50C9435250EF4E09564
:104730000B2EBA2FA02D0B01B90190010C01CA015B
:10474000A0011124FF27591B99F0593F50F4503E06
:1047500068F11A16F040A22F232F342F4427585FF8
:10476000F3CF469537952795A795F0405395C9F710
:104770007EF41F16BA0B620B730B840BBAF09150C8
:10478000A1F0FF0FBB1F661F771F881FC2F70EC067
:10479000BA0F621F731F841F48F48795779567953A
:1047A000B795F7959E3F08F0B0CF9395880F08F026
:1047B0009927EE0F9795879508950E94C72408F4CE
:1047C00081E008950E94F6230C9402250E94FB24A8
:1047D00058F00E94F42440F029F45F3F29F00C9433
:1047E000EB2451110C9436250C94F1240E941325CE
:1047F00068F39923B1F3552391F3951B550BBB2710
:10480000AA2762177307840738F09F5F5F4F220F54
:10481000331F441FAA1FA9F335D00E2E3AF0E0E84B
:1048200032D091505040E695001CCAF72BD0FE2F95
:1048300029D0660F771F881FBB1F26173707480729
:10484000AB07B0E809F0BB0B802DBF01FF279358E1
:104850005F4F3AF09E3F510578F00C94EB240C9496
:1048600036255F3FE4F3983ED4F3869577956795B8
:10487000B795F7959F5FC9F7880F911D9695879516
:1048800097F90895E1E0660F771F881FBB1F621735
:1048900073078407BA0720F0621B730B840BBA0BF3
:1048A000EE1F88F7E09508950E945B246894B1118B
:1048B0000C94362508950E941B2588F09F5798F088
:1048C000B92F9927B751B0F0E1F0660F771F881F15
:1048D000991F1AF0BA95C9F714C0B13091F00E942F
:1048E0003525B1E008950C943525672F782F88275A
:1048F000B85F39F0B93FCCF3869577956795B39556
:10490000D9F73EF490958095709561957F4F8F4FC4
:104910009F4F0895E89409C097FB3EF490958095C9
:10492000709561957F4F8F4F9F4F9923A9F0F92F75
:1049300096E9BB279395F695879577956795B795F3
:10494000F111F8CFFAF4BB0F11F460FF1BC06F5FD9
:104950007F4F8F4F9F4F16C0882311F096E911C0EB
:10496000772321F09EE8872F762F05C0662371F00C
:1049700096E8862F70E060E02AF09A95660F771F20
:10498000881FDAF7880F9695879597F90895990FFC
:104990000008550FAA0BE0E8FEEF16161706E80709
:1049A000F907C0F012161306E407F50798F0621B2A
:1049B000730B840B950B39F40A2661F0232B242BFF
:1049C000252B21F408950A2609F4A140A6958FEF1E
:1049D000811D811D089597F99F6780E870E060E070
:1049E00008959FEF80EC089500240A941616170688
:1049F00018060906089500240A94121613061406D0
:104A000005060895092E0394000C11F4882352F032
:104A1000BB0F40F4BF2B11F460FF04C06F5F7F4FEA
:104A20008F4F9F4F089557FD9058440F551F59F0D1
:104A30005F3F71F04795880F97FB991F61F09F3F8B
:104A400079F087950895121613061406551FF2CFB4
:104A50004695F1DF08C0161617061806991FF1CF04
:104A600086957105610508940895E894BB2766272B
:104A70007727CB0197F908950E94C72408F48FEF98
:104A800008950E9454250C9402250E94F42438F0C5
:104A90000E94FB2420F0952311F00C94EB240C943D
:104AA000F12411240C9436250E94132570F3959F50
:104AB000C1F3950F50E0551F629FF001729FBB2715
:104AC000F00DB11D639FAA27F00DB11DAA1F649FB1
:104AD0006627B00DA11D661F829F2227B00DA11D64
:104AE000621F739FB00DA11D621F839FA00D611DEA
:104AF000221F749F3327A00D611D231F849F600D0B
:104B0000211D822F762F6A2F11249F5750409AF033
:104B1000F1F088234AF0EE0FFF1FBB1F661F771FBF
:104B2000881F91505040A9F79E3F510580F00C948A
:104B3000EB240C9436255F3FE4F3983ED4F386953E
:104B400077956795B795F795E7959F5FC1F7FE2B2A
:104B5000880F911D9695879597F908950E94C7240F
:104B6000880B990B089597FB072E16F4009407D035
:104B700077FD09D00E94C72507FC05D03EF490952B
:104B800081959F4F0895709561957F4F0895AA1B59
:104B9000BB1B51E107C0AA1FBB1FA617B70710F028
:104BA000A61BB70B881F991F5A95A9F7809590955A
:104BB000BC01CD010895EE0FFF1F0590F491E02D8B
:104BC000099481E090E0F8940C94E625F894FFCFE6
:104BD0008C058C05010000000000000000000000B2
:104BE00000000000000000000000000000000000C5
:104BF00000000000000000000000000000000000B5
:104C000000000000000000000000000000000000A4
:104C10000000000080808000000000000000000014
:104C20000000000000008080C0C000000000000004
:104C30000000000000000000000000000000000074
:104C40000000000000000000000000000000000064
:104C50000000000000000000000000000000000054
:104C600000000000000000000080C0E0F0F8FCF848
:104C7000E000000000000000000000000000000054
:104C800000008080808080008080000000008080A4
:104C900080808000FFFFFF00000000808080800097
:104CA000008080000080FFFF808000808000808086
:104CB00080800080800000000000808000008C8EDA
:104CC00084000080F8F8F880000000000000000078
:104CD0000000000000F0F0F0F0F0F0F0F0F0F0F084
:104CE000F0E0E0C08000E0FCFEFFFFFF7FFFFFFF81
:104CF000FFFF0000000000000000000000000000B6
:104D0000FEFFC70101010183FFFF00007CFEC70118
:104D100001010183FFFFFF0038FEC783010101830A
:104D2000C7FFFF000001FFFF010100FFFF070101B6
:104D30000100007FFF80000000FFFF7F0000FFFFF9
:104D4000FF000001FFFFFF01000000000000000065
:104D50000000000000030F3F7F7FFFFFFFFFFFFF0A
:104D6000FFE7C7C78F8F9FBFFFFFC3C0F0FFFFFFE5
:104D7000FFFFFCFCFCFCFCFCFCFCF8F8F0F0E0C0E5
:104D80000001030303030301030300000000010308
:104D900003030301010301000000010303030301F6
:104DA00001030300000003030000000303000000F0
:104DB00000000000010303030303010000000103DE
:104DC00001000000030301000000000000000000DB
:104DD000000000000000000080C0E0F0F9FFFFFFCD
:104DE000FFFF3F1F0F87C7F7FFFF1F1F3DFCF8F8AE
:104DF000F8F87C7DFFFFFFFFFFFFFFFF7F3F0F07FE
:104E00000030300000000000000000000000000042
:104E1000000000000000000000FEFEFC000000009A
:104E20000000000000000000000000000000000082
:104E30000000E0C0000000000000000000000030A2
:104E40003000000000000000000000000000000032
:104E5000000000000000C0FEFFFFFFFFFFFFFFFF9C
:104E6000FF7F7F3F1F0F071F7FFFFFF8F8FFFFFF48
:104E7000FFFFFEF8E000000001000000000000005D
:104E800000FEFE000000FCFEFC0C06060EFCF80016
:104E900000F0F81C0E0606060CFFFFFF0000FEFEE9
:104EA00000000000FCFEFC00183C7E66E6CE84009C
:104EB0000006FFFF0606FCFEFC0C0606060000FED0
:104EC000FE0000C0F8FC4E4646464E7C7840183C3A
:104ED00076E6CECC8000000000000000000000005C
:104EE00000000000000000000001070F1F1F3F3FEF
:104EF0003F3F1F0F03000000000000000000000003
:104F0000000F0F0000000F0F0F000000000F0F0038
:104F10000003070E0C18180C060F0F0F0000010FEE
:104F20000E0C180C0F070100040E0C180C0F0700D4
:104F300000000F0F00000F0F0F0000000000000F17
:104F40000F00000007070C0C181C0C060600040ECE
:104F50000C180C0F0700000000000000000000000B
:104F60000000000000000000000000000000000041
:104F70000000000000000000000000000000000031
:104F80000000000000000000000000000000000021
:104F90000000000000000000000000000000000011
:104FA0000000000000000000000000000000000001
:104FB00000000000000000000000000000000000F1
:104FC00000000000000000000000000000000000E1
:104FD0000000000000000103070F1F3F7F0080C09A
:104FE000E0F0F8FCFE00000000110DE40CD311917C
:104FF0000ADD0CCA0CBB0C00000000F5078D05D3C0
:1050000011D2112E11910ABA0A920AAE0AA20AC14D
:105010000A910ABB05BA05740ED10FDA09BD09451C
:1050200009E6080D0A006E616E00696E66006F7613
:0E503000660078787841730078787878000010
:107E0000112484B714BE81FFF0D085E080938100F7
:107E100082E08093C00088E18093C10086E0809377
:107E2000C20080E18093C4008EE0C9D0259A86E02C
:107E300020E33CEF91E0309385002093840096BBD3
:107E4000B09BFECF1D9AA8958150A9F7CC24DD24C4
:107E500088248394B5E0AB2EA1E19A2EF3E0BF2EE7
:107E6000A2D0813461F49FD0082FAFD0023811F036
:107E7000013811F484E001C083E08DD089C08234E0
:107E800011F484E103C0853419F485E0A6D080C0E4
:107E9000853579F488D0E82EFF2485D0082F10E0AE
:107EA000102F00270E291F29000F111F8ED06801E7
:107EB0006FC0863521F484E090D080E0DECF843638
:107EC00009F040C070D06FD0082F6DD080E0C81688
:107ED00080E7D80618F4F601B7BEE895C0E0D1E017
:107EE00062D089930C17E1F7F0E0CF16F0E7DF06D8
:107EF00018F0F601B7BEE89568D007B600FCFDCFD4
:107F0000A601A0E0B1E02C9130E011968C91119780
:107F100090E0982F8827822B932B1296FA010C0160
:107F200087BEE89511244E5F5F4FF1E0A038BF0790
:107F300051F7F601A7BEE89507B600FCFDCF97BE46
:107F4000E89526C08437B1F42ED02DD0F82E2BD052
:107F50003CD0F601EF2C8F010F5F1F4F84911BD097
:107F6000EA94F801C1F70894C11CD11CFA94CF0C13
:107F7000D11C0EC0853739F428D08EE10CD085E9AC
:107F80000AD08FE07ACF813511F488E018D01DD067
:107F900080E101D065CF982F8091C00085FFFCCF94
:107FA0009093C60008958091C00087FFFCCF809118
:107FB000C00084FD01C0A8958091C6000895E0E648
:107FC000F0E098E1908380830895EDDF803219F02E
:107FD00088E0F5DFFFCF84E1DECF1F93182FE3DFCA
:107FE0001150E9F7F2DF1F91089580E0E8DFEE27F6
:047FF000FF270994CA
:027FFE00040479
:00000001FF
