:020000040000FA
:100000000C9407060C940E170C94E7160C942F060C
:100010000C942F060C942F060C942F060C942F068C
:100020000C942F060C942F060C942F060C942F067C
:100030000C942F060C942F060C942F060C942F066C
:100040000C949D160C942F060C942F060C942F06DE
:100050000C942F060C942F060C942F060C942F064C
:100060000C9435170C942F0600407A10F35A00A018
:10007000724E18090010A5D4E80000E87648170071
:1000800000E40B54020000CA9A3B000000E1F505B1
:10009000000080969800000040420F000000A086FB
:1000A00001000000102700000000E803000000002D
:1000B0006400000000000A000000000001000000D1
:1000C00000002C76D888DC674F0823DFC1DFAE59EB
:1000D000E1B1B796E5E3E453C63AE651997696E87E
:1000E000E6C28426EB898C9B62ED407C6FFCEFBC02
:1000F0009C9F40F2BAA56FA5F490055A2AF75C932D
:100100006B6CF9676DC11BFCE0E40D47FEF520E662
:10011000B500D0ED902E0300943577050080841E45
:10012000080000204E0A000000C80C333333330FA0
:10013000986E12831141EF8D2114893BE65516CF3D
:10014000FEE6DB18D1844B381BF77C1D901DA4BB49
:10015000E424203284725E228100C9F124ECA1E5FE
:100160003D272020355600202032560020203156D1
:1001700000302E355600302E3256003230306D733E
:10018000002035306D73002031306D730020203237
:100190006D73003530307573003230307573000088
:1001A000000000003E5B4F5B3E3E6B4F6B3E1C3ED3
:1001B0007C3E1C183C7E3C181C577D571C1C5E7FE7
:1001C0005E1C00183C1800FFE7C3E7FF0018241866
:1001D00000FFE7DBE7FF30483A060E26297929269B
:1001E000407F050507407F05253F5A3CE73C5A7F85
:1001F0003E1C1C08081C1C3E7F14227F22145F5FDB
:10020000005F5F06097F017F006689956A60606014
:10021000606094A2FFA29408047E040810207E204F
:100220001008082A1C08081C2A08081E10101010A4
:100230000C1E0C1E0C30383E3830060E3E0E0600EA
:100240000000000000005F00000007000700147FAE
:10025000147F14242A7F2A12231308646236495615
:1002600020500008070300001C2241000041221C0E
:10027000002A1C7F1C2A08083E08080080703000F5
:100280000808080808000060600020100804023E0A
:100290005149453E00427F4000724949494621414B
:1002A000494D331814127F1027454545393C4A49BA
:1002B00049314121110907364949493646494929F9
:1002C0001E00001400000040340000000814224109
:1002D0001414141414004122140802015909063E92
:1002E000415D594E7C1211127C7F494949363E418D
:1002F0004141227F4141413E7F494949417F0909AE
:1003000009013E414151737F0808087F00417F4148
:10031000002040413F017F081422417F404040407F
:100320007F021C027F7F0408107F3E4141413E7FD7
:10033000090909063E4151215E7F091929462649CE
:1003400049493203017F01033F4040403F1F2040A5
:10035000201F3F4038403F631408146303047804AF
:10036000036159494D43007F414141020408102077
:10037000004141417F0402010204404040404000EE
:100380000307080020545478407F284444383844F8
:10039000444428384444287F385454541800087E74
:1003A000090218A4A49C787F0804047800447D40C6
:1003B000002040403D007F1028440000417F400065
:1003C0007C047804787C080404783844444438FC7D
:1003D0001824241818242418FC7C08040408485401
:1003E00054542404043F44243C4040207C1C2040BE
:1003F000201C3C4030403C44281028444C909090B5
:100400007C4464544C4400083641000000770000EE
:10041000004136080002010204023C2623263C1E4D
:10042000A1A161123A4040207A38545455592155BF
:1004300055794122545478422155547840205455DE
:1004400079400C1E5272123955555559395454542D
:100450005939555454580000457C410002457D42AD
:100460000001457C407D1211127DF0282528F07C8A
:10047000545545002054547C547C0A097F49324924
:100480004949323A4444443A324A4848303A414170
:10049000217A3A42402078009DA0A07D3D42424210
:1004A0003D3D4040403D3C24FF2424487E49436676
:1004B0002B2FFC2F2BFF0929F620C0887E09032053
:1004C000545479410000447D413048484A32384014
:1004D00040227A007A0A0A727D0D19317D26292977
:1004E0002F28262929292630484D40203808080879
:1004F0000808080808382F10C8ACBA2F102834FA9A
:1005000000007B000008142A142222142A14085523
:1005100000550055AA55AA55AAFF55FF55FF0000E2
:1005200000FF00101010FF00141414FF001010FF43
:1005300000FF1010F010F0141414FC001414F70055
:10054000FF0000FF00FF1414F404FC141417101F24
:1005500010101F101F1414141F00101010F00000B2
:1005600000001F101010101F10101010F0100000CD
:1005700000FF101010101010101010FF10000000DD
:10058000FF140000FF00FF00001F10170000FC0414
:10059000F414141710171414F404F40000FF00F7F7
:1005A00014141414141414F700F71414141714105A
:1005B000101F101F141414F4141010F010F0000089
:1005C0001F101F0000001F14000000FC140000F0AA
:1005D00010F01010FF10FF141414FF141010101F4F
:1005E00000000000F010FFFFFFFFFFF0F0F0F0F060
:1005F000FFFFFF0000000000FFFF0F0F0F0F0F387D
:1006000044443844FC4A4A4A347E02020606027ECA
:10061000027E0263554941633844443C04407E20D5
:100620001E2006027E020299A5E7A5991C2A492AE6
:100630001C4C7201724C304A4D4D30304878483075
:10064000BC625A463D3E494949007E0101017E2A6D
:100650002A2A2A2A44445F444440514A44404044A0
:100660004A51400000FF0103E080FF000008086BD2
:100670006B083612362436060F090F0600001818CC
:100680000000001010003040FF0101001F01011E9A
:1006900000191D1712003C3C3C3C0000000000000B
:1006A0000103070F1F3F7F0080C0E0F0F8FCFEDB76
:1006B00040A4A62EAF2000A1C8D300408DAED580A7
:1006C000A800006000000000000000000000000022
:1006D0000000E0000000000000000000000000003A
:1006E00001E0000000000000000000000000000128
:1006F000F00000000000000000000000000003F017
:100700000000000000000000000000000007F000F2
:1007100000000000000000000000000007F80000DA
:1007200000000000000000000000000FF8000000C2
:1007300003C0007E000001E0007F0FF8000000030E
:10074000C000FE000001E000FFEFF800000003C061
:1007500000FE000001E000FFFFF800000003C00001
:10076000F00000000F007FFE7FC0000003C000F01B
:100770000000000F003FFE7FF83FF1FBCFFCFEF3CF
:10078000BC3DEFE01FFE7FFF7FFBFFDFFEFEFFBCF7
:100790003DEFE01FC6FFFF7FFBFFDFFEFEFFBC3D1E
:1007A000EFE00FE3C7FE787BC3DE1EF0FFBC3DEF3A
:1007B0000007FF87FC787BC3DE1EF0F83C3DEF00AE
:1007C00001FFFFF0007BC3C01EF0F03C3DEF0001D5
:1007D000F37FE03FFBC3CFFEF0F03C3DEF0003E3CF
:1007E0003F807FFBC3DFFEF0F03C3DEF0007E73CBE
:1007F00000787BC3DE1EF0F03C3DEF0007FFBE003B
:10080000787BC3DE1EF0F03C3DEF0007FFFE007872
:100810007BC3DE1EF0F03C3DEF000FFFFE007FFBD0
:10082000FFDFFEF0F03FFDEFE00FFFFF007FFBFF7B
:10083000DFFEF0F03FFDEFE00FF9FF003E79F9CF6A
:100840009EF0F01F3DE7E01FF1FF000000000000F8
:100850000000000000001F80FF007FFFFFFFFFFF80
:10086000FFFFFFFFE01C007F007FFFFFFFFEB46D76
:10087000888D18E000001F007FFFFFFFFE95AD7D13
:10088000B577E000000F007FFFFFFFFEA5AD9D8D57
:1008900019E0000006007FFFFFFFFEB5ADEDB57E5D
:1008A000E0000000000001800000000000000000E7
:1008B00000038000000000000000000007C00000EE
:1008C0000000000000000007C00000000000000061
:1008D00000000FC00000000000000000001FE0004A
:1008E00000000000000000001FE000000000000009
:1008F0000000003FE00000000000000000003FF0AA
:100900000000000000000000007FF0000000000078
:1009100000001FF87FF0000000000000003FFE7F95
:10092000F0000000000000003FFF7FF0000000002A
:100930000000001FFFFBE0000000000000000FFFB0
:10094000F9FFC00000000000000FFFF9FFF80000F1
:100950000000000007FFF1FFFF000000000000039F
:10096000FC73FFFF80000000000001FE3FFFFF80DE
:10097000000000000000FF1E0FFF0000000000004C
:10098000007FFE1FFC000000000000003FFFFFF89A
:10099000000000000000000FDFFFE000000000008A
:1009A00000001F19FFC0000000000000003F3CFFD6
:1009B00000000000000000007E7CF8000000000045
:1009C0000000007FFE7C0000000000000000FFFF30
:1009D000FC0000000000000000FFFFFE000000001F
:1009E00000000000FFFFFE0000000000000001FF0B
:1009F000EFFE0000000000000001FFCFFE0000003D
:100A00000000000003FF07FE0000000000000003DC
:100A1000FC07FE0000000000000003F003FE0000E1
:100A20000000000000018000FE0000000000000047
:100A30000000007E000000000000000000003E00FA
:100A40000000000000000000000C0000000000009A
:100A5000078000FC000003C0000000078001FC00CC
:100A60000003C0000000078001FC000003C000007C
:100A700000078001E00000001E000000078001E088
:100A80000000001E007FE3F79FF9FDE7787BDFC0E1
:100A9000FFF7FFBFFDFDFF787BDFC0FFF7FFBFFD66
:100AA000FDFF787BDFC0F0F787BC3DE1FF787BDEA0
:100AB00000F0F787BC3DE1F0787BDE0000F787802F
:100AC0003DE1E0787BDE007FF7879FFDE1E0787B0A
:100AD000DE00FFF787BFFDE1E0787BDE00F0F787FF
:100AE000BC3DE1E0787BDE00F0F787BC3DE1E078DB
:100AF0007BDE00F0F787BC3DE1E0787BDE00FFF7AE
:100B0000FFBFFDE1E07FFBDFC0FFF7FFBFFDE1E0DE
:100B10007FFBDFC07CF3F39F3DE1E03E7BCFC00075
:100B200000000000000000000000FFFFFFFFFFFFCB
:100B3000FFFFFFFFC0FFFFFFFFFD68DB111A31C0A1
:100B4000FFFFFFFFFD2B5AFB6AEFC0FFFFFFFFFD1A
:100B50004B5B3B1A33C0FFFFFFFFFD6B5BDB6AFDA6
:100B6000C03B29004F7363696C6C6F73636F706572
:100B7000004172647553636F706500CDCC4C3ECDFF
:100B8000CC4C3D0AD7233C6F12033B6F12033A173C
:100B9000B75139617620202020760025006B48006F
:100BA0006B4800487A00487A00756E53796E63008E
:100BB000486F6C640000000000240027002A000039
:100BC000000000250028002B000404040404040491
:100BD00004020202020202030303030303010204EC
:100BE00008102040800102040810200102040810AF
:100BF00020000000080002010000030407000000BC
:100C000000000000002200FF2100541806221124D9
:100C10001FBECFEFD8E0DEBFCDBF11E0A0E0B1E056
:100C2000E4E7F1E502C005900D92A436B107D9F7CB
:100C300024E0A4E6B1E001C01D92AD32B207E1F7B5
:100C400016E0C6E0D6E004C02197FE010E94762798
:100C5000C530D107C9F70E94AF180C94AD280C9489
:100C6000000080910F0120E4829FC0011124809335
:100C70007C0080917A00806480937A0080917A0071
:100C800086FDFCCF809178009091790008950895B9
:100C900090E0FC01EF50F44F2491FC01E352F44F3B
:100CA0003491FC01E753F44FE491EE23C9F0222381
:100CB00039F0233001F1A8F4213019F1223029F163
:100CC000F0E0EE0FFF1FE154F44FA591B4918FB700
:100CD000F894EC91611126C030953E233C938FBF70
:100CE00008952730A9F02830C9F0243049F78091C1
:100CF00080008F7D03C0809180008F77809380007B
:100D0000DFCF84B58F7784BDDBCF84B58F7DFBCFFC
:100D10008091B0008F778093B000D2CF8091B000E7
:100D20008F7DF9CF3E2BDACFCF93DF9390E0FC019C
:100D3000E352F44F24918753944FFC01849188230C
:100D4000D1F090E0880F991FFC01EB54F44FA5916E
:100D5000B491FC01E154F44FC591D491623071F427
:100D60009FB7F8943C91822F809583238C93E881E0
:100D70002E2B28839FBFDF91CF9108958FB7F894D2
:100D8000EC912E2B2C938FBFF6CF3FB7F894809128
:100D9000D5039091D603A091D703B091D80326B57F
:100DA000A89B05C02F3F19F00196A11DB11D3FBFA3
:100DB000BA2FA92F982F8827BC01CD01620F711D72
:100DC000811D911D42E0660F771F881F991F4A956C
:100DD000D1F708958F929F92AF92BF92CF92DF92F8
:100DE000EF92FF924B015C010E94C5066B017C01F2
:100DF0000E94C5066C197D098E099F09683E7340E3
:100E000081059105A8F321E0821A9108A108B10893
:100E100088EEC80E83E0D81EE11CF11C81149104F9
:100E2000A104B10429F7FF90EF90DF90CF90BF901D
:100E3000AF909F908F90089583B1982F97709730BF
:100E400019F091E09093CD0380FD06C09091CA0304
:100E500021E092279093CA0381FD20C09091CA039C
:100E600091110CC09091CC039F5F9093CC03909113
:100E7000CC0395301CF094E09093CC039091CA037E
:100E8000992361F09091CB039F5F9093CB03909156
:100E9000CB0396301CF095E09093CB0382FD1CC0F1
:100EA0009091CA0391110AC09091CC0391509093F4
:100EB000CC039091CC0397FD1092CC039091CA0380
:100EC000992351F09091CB0391509093CB03909143
:100ED000CB0397FD1092CB0383FD06C08091CF0317
:100EE00091E089278093CF03089581E08093CE031A
:100EF0000895089508950895AF92BF92CF92DF921A
:100F0000EF92FF920F931F93CF93DF936C017B01BE
:100F10008B01040F151FEB015E01AE18BF08C0174F
:100F2000D10759F06991D601ED91FC910190F081C2
:100F3000E02DC6010995892B79F7C501DF91CF9185
:100F40001F910F91FF90EF90DF90CF90BF90AF90E7
:100F50000895EF92FF920F931F93CF93DF93EC01CD
:100F6000EC80FD806E157F050CF070C057FF04C04B
:100F7000240F351F50E040E08E819F81FA01E20F7F
:100F8000F31F8E179F071CF49C01241B350B1216B0
:100F900013060CF05BC0922F842F8695869586955C
:100FA0008E9DD0018F9DB00D11246A0F7B1FAF8DD8
:100FB000B8A1A60FB71F477049F188E0841B482FDE
:100FC000682F70E0FB01E955F94FE491281708F00C
:100FD00063C0621B71092FEF30E002C03595279581
:100FE0006A95E2F7E2230130110539F0B0F10230E1
:100FF000110561F58C91E82702C08C91E82BEC93E8
:10100000941720F12C813D81A20FB31FE92FE41B1F
:10101000E83078F00230110521F58E2F9C919095E3
:101020009C932C813D81A20FB31F88508830B0F76C
:10103000E770EE2359F0F0E0E156F94FE49101300A
:101040001105F9F010F10230110519F1DF91CF917E
:101050001F910F91FF90EF900895E0958C91E823F8
:10106000CECF81E00115110509F480E081959E2F16
:101070008C932C813D81A20FB31F98509830C0F7FC
:10108000D7CF8C91E82BEC93E1CFE0958C91E823BE
:10109000FACF8C91E827F7CF0130110509F4ADCFD5
:1010A000E0F20230110509F4A5CFAE0DBF1DAECFA1
:1010B0000F931F93CF93DF9377FF04C0260F371F43
:1010C00070E060E0DC011496CD91DC91FB01E20F51
:1010D000F31FCE17DF071CF49E01261B370B1216D9
:1010E00013064CF5FA0157FD3796A3E0F595E79501
:1010F000AA95E1F7EC9FD001ED9FB00DFC9FB00DDC
:1011000011246A0F7B1FDC015F96ED91FC91E60FC5
:10111000F71F4770552781E090E001C0880F4A957E
:10112000EAF7482F0130110559F0A8F02E0F3F1FA4
:1011300002301105E1F0DF91CF911F910F910895D9
:101140002E0F3F1FE217F307B1F38191DF011197D3
:10115000842B8C93F7CF80952E0F3F1FE217F30758
:1011600051F39191DF01119798239C93F7CFE217E8
:10117000F30709F38191DF01119784278C93F7CF4F
:101180000F931F93FA01DC0156964C91569742300B
:10119000E9F04330A1F1413061F514964D915C9135
:1011A000DA01AE1BBF0BFD01E21BF30B77FD0BC099
:1011B000DC0116964D915C916417750724F4AB0120
:1011C000BF010E9458081F910F91089514964D91E8
:1011D0005C91DA01A61BB70BBD0161507109DC01FE
:1011E00016964D915C91DA01AE1BBF0BFD01E21B1F
:1011F000F30B77FDE8CFAF010E94A907E4CF169665
:101200004D915C91DA01A61BB70BBD0161507109CC
:10121000CDCF0F931F93FA01DC0156964C91569750
:101220004230A9F0433091F1413019F514964D91B7
:101230005C91DA01AE1BBF0BFD013197F7FD04C0D5
:10124000AB01BF010E94A9071F910F910895149649
:101250004D915C91DA01A61BB70BBD01DC0116961E
:101260004D915C91DA01AE1BBF0BFD013197621B02
:10127000730BF7FDE9CFDC0116964D915C91E417F5
:10128000F50714F7AF010E945808DECF16964D916E
:101290005C91DA01A61BB70BBD01621B730BCECFAD
:1012A000FC0177FD64C080859185681779070CF093
:1012B0005EC057FD5CC082859385481759070CF0C6
:1012C00056C086898230B1F0833029F1813041F4F3
:1012D00084819581841B950BAB01BC016150710920
:1012E0002130310509F108F443C02230310509F4F9
:1012F00063C0089584819581DC01A61BB70BBD01F5
:101300006150710986819781DC01A41BB50BAD0189
:1013100041505109E5CF86819781861B970BBA0111
:10132000AC0141505109DCCFCA0157FD0796A3E03B
:1013300095958795AA95E1F7A481B5818A9F90013B
:101340008B9F300D9A9F300D1124620F731F078CF5
:10135000F0A1E02DE60FF71F4770552721E030E0A0
:1013600001C0220F4A95EAF78081822B808308957D
:10137000CA0157FD079633E0959587953A95E1F7B1
:10138000A481B5818A9F90018B9F300D9A9F300D6B
:101390001124620F731F078CF0A1E02DE60FF71FD9
:1013A0004770552781E090E001C0880F4A95EAF721
:1013B000809590818923DACFCA0157FD079623E0F3
:1013C000959587952A95E1F7A481B5818A9F90012B
:1013D0008B9F300D9A9F300D1124620F731F078C65
:1013E000F0A1E02DE60FF71F4770552721E030E010
:1013F00001C0220F4A95EAF780818227B7CF08956E
:101400008EBD00000DB407FEFDCF8EB508958CBDD6
:101410009DBD08950895FC016370668B848195815C
:1014200026813781613039F0633029F091878087D8
:10143000338722870895318720879387828708958D
:101440002F923F924F925F926F927F928F929F92D4
:10145000AF92BF92CF92DF92EF92FF920F931F93C2
:10146000CF93DF93CDB7DEB76A970FB6F894DEBFA0
:101470000FBECDBF9A8F898F7A8369834A01D22E9E
:1014800018870F833701BC2CDC0159962D913C91B4
:101490005A972115310509F015C118968D919C9127
:1014A0001997681779070CF0D7C11A968D919C91FE
:1014B000481759070CF0D0C14C2C512CB6E0CB9EEC
:1014C000600D711D11247C876B87161617060CF0B2
:1014D000C3C1EA2DF0E0FA87E98793E0EE0FFF1F22
:1014E0009A95E1F7F88BEF87CF01840F951F1816B7
:1014F00019060CF0B1C1A98DBA8D58968C91811145
:1015000004C0BFEABD1508F4D394A98DBA8DED913E
:10151000FC9111970284F385E02DCD010995B5E08A
:10152000DB9EC0011124E981FA81FC83EB83312C1D
:10153000212C9C0121563E4F388F2F8B4A2D50E095
:101540005E8B4D8BEF89F88DE20DF31D44919E82E9
:101550008D82D12CC12C69817A81620D731D7A8BA9
:10156000698B842F90E09C8B8B8BE98DFA8DA08109
:10157000B18140FF82C0F1E0BF126FC0AF126DC0F9
:101580001C96ED91FC912F813885A4014C0D5D1DB9
:1015900069897A89898D9A8D0995EB89FC89F595F8
:1015A000E7954E2F5FEFC51AD50A6D817E818D8933
:1015B0009E89680F791F7E836D8398E0C916D104D8
:1015C00081F6AFEF2A1A3A0AEB81FC81E40DF51D92
:1015D000FC83EB83F5E02F16310409F0B3CF2F81A4
:1015E000388526153705B9F0A98DBA8DED91FC9196
:1015F000B1E0BB1257C0AB1255C069817A816B5FF5
:101600007F4F0088F189E02D830128E030E0A401BC
:10161000898D9A8D0995A98DBA8DED91FC911197BF
:101620000688F789E02DCD016A960FB6F894DEBFE3
:101630000FBECDBFDF91CF911F910F91FF90EF9023
:10164000DF90CF90BF90AF909F908F907F906F90E2
:101650005F904F903F902F9009941E96ED91FC91D2
:10166000EF80F88409851A8592014D815E816B8136
:101670007C81898D9A8D099590CF2F81388526158B
:10168000370509F48ACF31E0B31207C0A31205C0B1
:101690001C96ED91FC91930178CF1E96ED91FC91F3
:1016A0007301E0CF6B857C85641975090684F78525
:1016B000E02D73010F8518899201A401898D9A8DFF
:1016C0000995A9CFF9013496949132974591549197
:1016D000D91AB7E0DB9E400D511D1124F901259167
:1016E00034913C8B2B8BFA0125903490FA01329681
:1016F000749031963491398B32966490319644903F
:1017000041E04C1518F04A1508F07FC0662D062CF4
:10171000000C770B7C836B83842D042C000C990BBD
:101720009E838D83A98DBA8DED91FC9111970284D2
:10173000F385E02DCD010995512CD12CC12CEA2D3A
:10174000F0E0FA87E9872B2D30E03C872B87A40156
:10175000440D511D47FC5A95588F4F8B69817A81F2
:10176000660D711D67FC7A957E876D877989C7162E
:1017700008F051CF2C2D30E04D815E81420F531F78
:10178000A985BA854A9FC0014B9F900D5A9F900D25
:101790001124FC01E80DF91DF88BEF87852D612CD4
:1017A0004F89588D420F531F5E8B4D8B671408F085
:1017B00050C044244394480E877041F4C1010196FF
:1017C000EB89FC89E20DF31DD4901C01D7FE19C0F2
:1017D000A98DBA8DED91FC91662D70E0B1E0BB1240
:1017E00019C0AB1217C02D853E85620F731F04848C
:1017F000F585E02D2F8138854D895E89898D9A8DFB
:101800000995DD0C6394842DD1CF1E821D821C822C
:101810001B8288CF4B815C81640F751FAB85BC85B3
:101820006A9FC0016B9F900D7A9F900D1124698172
:101830007A81680F791F0684F785E02DEF80F884A0
:1018400009851A859D014F855889898D9A8D09953D
:10185000D8CF570CC3948ACF6A960FB6F894DEBFE0
:101860000FBECDBFDF91CF911F910F91FF90EF90F1
:10187000DF90CF90BF90AF909F908F907F906F90B0
:101880005F904F903F902F9008958F929F92AF92CC
:10189000CF92EF92FF920F931F93CF93DF93EC01C0
:1018A000262F898D9A8D009709F051C06A30D1F4A6
:1018B0001D861C868D8948E0849F900111248E85A9
:1018C0009F85820F931F9F878E8781E090E0DF9135
:1018D000CF911F910F91FF90EF90CF90AF909F907D
:1018E0008F9008956D3089F3CC88AD888F898823D7
:1018F000C1F08C859D8536E0C39E800D911D11241D
:10190000488559854817590764F44E855F851D86BB
:101910001C8638E0A39EC0011124840F951F9F8769
:101920008E87EA88FB88088919894E855F856C85D2
:101930007D85CE010E94200A2C898C859D8546E0FC
:10194000249F800D911D11249D878C87BECF6A3006
:1019500069F41D861C86FC013896E4912D898E85DC
:101960009F85E29F800D911D1124ADCF6D3009F44C
:10197000ACCFFC0134963491631708F4A6CF3296AD
:10198000E491E61708F4A1CFFC013296859094907B
:10199000462F431B342F47E0349F800C911C1124A9
:1019A000F401329634913196E4913323A9F1EE2378
:1019B00099F1CC88F4013596E491AD884F894423A0
:1019C00001F10E2E000CFF0BE30FF11DCE9EA001C6
:1019D000CF9E500D11246C857D85460F571F68855D
:1019E0007985641775076CF44E855F851D861C86A6
:1019F000FC013896E491AE9E400D511D11245F8785
:101A00004E87EA88FB88088919894E855F856C8531
:101A10007D85CE010E94200AF4013496E4912C8940
:101A20008C859D85E29F800D911D11248DCF0F9394
:101A30001F93CF93DF938C01D0E0C0E0F801EC0F4F
:101A4000FD1F6491662341F089EE93E00E94450CEE
:101A5000892B11F02196F2CFCE01DF91CF911F910A
:101A60000F9108956F927F928F929F92AF92BF9243
:101A7000CF92DF92EF92FF920F931F93CF93DF935A
:101A8000EC016B015A0139014801E881F9810284B6
:101A9000F385E02D0995E881F9810288F389E02D2D
:101AA00087019301A501B601CE010995A501480D55
:101AB000591D41505109E881F9810288F389E02DCF
:101AC0009301B601CE010995E881F9810088F18979
:101AD000E02D9401A501B601CE010995C60CD71CD5
:101AE000B60161507109E881F9810088F189E02D22
:101AF0009401A501CE010995E881F9810688F7894D
:101B0000E02DCE01DF91CF911F910F91FF90EF90CB
:101B1000DF90CF90BF90AF909F908F907F906F900D
:101B200009946F927F928F929F92AF92BF92CF92C1
:101B3000DF92EF92FF920F931F93CF93DF935C019D
:101B4000EB016A01490138018701DC01ED91FC914B
:101B50006217730719F5641675062CF0962D872DFC
:101B60003A01C92ED82E9601261937092F5F3F4F0B
:101B7000048CF58DE02DA301BE01C5010995DF910F
:101B8000CF911F910F91FF90EF90DF90CF90BF907A
:101B9000AF909F908F907F906F9008954615570556
:101BA00091F42617370724F0892D4B01C22FD82F27
:101BB0009E01281939092F5F3F4F068CF78DE02DC4
:101BC000A601B401DACF0284F385E02D0995D50191
:101BD000ED91FC910488F589E02D83019401A60123
:101BE000BE01C5010995D501ED91FC910688F789E3
:101BF000E02DC501DF91CF911F910F91FF90EF90E4
:101C0000DF90CF90BF90AF909F908F907F906F901C
:101C10000994EF92FF920F931F93DC011A960D9196
:101C20001C911B9718962D913C911997ED91FC9161
:101C300000A0F1A1E02D7B0150E040E070E060E009
:101C400009951F910F91FF90EF9008954F925F9229
:101C50006F927F928F929F92AF92BF92CF92DF92BC
:101C6000EF92FF920F931F93CF93DF936C012B01A1
:101C70005A0139014801DC01ED91FC910284F385A0
:101C8000E02D0995E201640C751CD601ED91FC91E3
:101C9000C615D7055CF40088F189E02D8701940111
:101CA000A501BE01C60109952196EFCF0688F789E7
:101CB000E02DC601DF91CF911F910F91FF90EF9022
:101CC000DF90CF90BF90AF909F908F907F906F905C
:101CD0005F904F9009948F929F92AF92BF92CF9254
:101CE000DF92EF92FF920F931F93CF93DF93EC015C
:101CF0005B014A016901E881F9810284F385E02DE5
:101D0000099595012C0D3D1D21503109E881F9817E
:101D10000488F589E02D78018401A401B501CE0184
:101D20000995E881F9810688F789E02DCE01DF91D8
:101D3000CF911F910F91FF90EF90DF90CF90BF90C8
:101D4000AF909F908F9009948F929F92AF92BF9285
:101D5000CF92DF92EF92FF920F931F93CF93DF9377
:101D6000EC015B014A0169017801E881F981028493
:101D7000F385E02D0995C80CD91C86010150110985
:101D8000E881F9810488F589E02D9501A401B50168
:101D9000CE010995E881F9810688F789E02DCE0109
:101DA000DF91CF911F910F91FF90EF90DF90CF9037
:101DB000BF90AF909F908F900994EF92FF920F93F6
:101DC0001F93DC01ED91FC9100A0F1A1E02D09959C
:101DD0001F910F91FF90EF9008950F931F93DC01D7
:101DE000ED91FC91068CF78DE02D09951F910F91D7
:101DF00008950F931F93DC01ED91FC91048CF58DF8
:101E0000E02D09951F910F910895DC01ED91FC9152
:101E10000084F185E02D09943F924F925F926F927A
:101E20007F928F929F92AF92BF92CF92DF92EF926A
:101E3000FF920F931F93CF93DF935C017B014A01C5
:101E40006901390187E0680E711C93E0759467940D
:101E50009A95E1F72B01400E511E10E000E0312C65
:101E6000D0E0C0E0CE0187709927330C892B59F45C
:101E7000FE0183E0F595E7958A95E1F7E00FF11F04
:101E8000E80DF91D349037FE0AC021E030E0A701CB
:101E9000B5016C0F7D1F89EE93E00E94050F21961E
:101EA000CC16DD06F9F68FEFE81AF80A060D171DB5
:101EB000E414F504A9F6DF91CF911F910F91FF90E3
:101EC000EF90DF90CF90BF90AF909F908F907F90DA
:101ED0006F905F904F903F9008952F923F924F9256
:101EE0005F926F927F928F929F92AF92BF92CF92AA
:101EF000DF92EF92FF920F931F93CF93DF9300D067
:101F000000D000D0CDB7DEB73C016A013E832D83FF
:101F1000FC82EB825801A41AB50AB7FE03C0B19443
:101F2000A194B1088D809E80861A970A97FE03C0FF
:101F30009194819491088A149B045CF0902F812FD6
:101F40000D811E819D838E839C2D8D2D6B01692FAC
:101F5000782F0C151D055CF09D818E817E836D832D
:101F6000692F782F902F812F8601C92ED82E160128
:101F7000201A310A2B012D813E81421A530A57FE45
:101F800003C0519441945108710137FE03C03FEFE3
:101F9000E31AF30AF594E7948D819E8186179707DB
:101FA0005CF5A1E0B0E0BA83A983C016D1064CF17C
:101FB000D301ED91FC910484F585E02D2B813C81CA
:101FC000A8016D817E818A149B041CF04D815E8185
:101FD000B801C3010995E418F508F7FE0AC02D8180
:101FE0003E8189819A81280F391F3E832D83E20C1F
:101FF000F31C0F5F1F4FD9CF2FEF3FEF3A83298399
:10200000D4CF26960FB6F894DEBF0FBECDBFDF91BA
:10201000CF911F910F91FF90EF90DF90CF90BF90E5
:10202000AF909F908F907F906F905F904F903F9078
:102030002F90089508952091CA01260F3327331F4A
:1020400021323105ECF42091EE01FC0190E080E0BA
:10205000243069F082E00895A091CA012191AC0179
:1020600046555E4FA40FB52FB11D2C9301968617D0
:1020700098F38091CA01680F6093CA0180E00895C7
:1020800081E008951092EE0181E08093F0011092BA
:10209000EF0161E082E10E94480661E083E10E9475
:1020A0004806E9EBF0E080818E7F808380818D7F20
:1020B000808388E48093B80085E48093BC00089511
:1020C000CF93DF9391E09093A9018823B9F0C09159
:1020D000B800D091BA008091BC008A7B8093BC008C
:1020E00060E082E10E94480660E083E10E944806C9
:1020F0000E944210D093BA00C093B800DF91CF91F4
:102100000895E0911A0280911902E81730F4F0E086
:10211000EC57FE4F808190E008958FEF9FEF089578
:1021200090911A02809119022FEF3FEF981748F40F
:10213000E92FF0E0EC57FE4F208130E09F5F909355
:102140001A02C90108958091190290911A02891BFF
:10215000990B0895CF92DF92EF92FF920F931F9306
:10216000CF93DF937C01CB018A012091DC032223F2
:1021700089F0EB016B01C40ED51ECC15DD0569F0AD
:102180006991D701ED91FC910190F081E02DC7019B
:102190000995F3CF642F0E941B10C801DF91CF91E6
:1021A0001F910F91FF90EF90DF90CF900895CF9304
:1021B000DF931F92CDB7DEB769832091DC03222322
:1021C000F9F02091D903203258F021E030E0FC01F1
:1021D0003383228390E080E00F90DF91CF910895C8
:1021E0008091DA03E82FF0E0EC59FE4F998190835B
:1021F0008F5F8093DA038093D90381E090E0ECCF86
:1022000061E0CE0101960E941B10F7CFCF92DF92C2
:10221000EF92FF920F931F93CF93DF93D091D90347
:1022200081E0D13208F09CC0C091DB030E94C5065A
:102230006B017C018091EE0181116CC082E0809382
:10224000EE0181E08093F0018FEF8093ED01109219
:102250001202D0931102A4E6B1E0E1EFF1E080E0D8
:10226000D8138DC01092130280911302CC0FC82B8B
:10227000C09313028091EF01813009F084C0109265
:10228000EF010E94C5066B017C01809113028093CF
:10229000BB008091A5019091A601A091A701B091EA
:1022A000A801892B8A2B8B2BA1F00E94C5060091D7
:1022B000A5011091A6012091A7013091A8016C19E8
:1022C0007D098E099F09061717072807390708F4A3
:1022D00042C08091BC0083FDD8CF85EC8093BC00C8
:1022E0000E94C5066B017C018091EE01823009F4E9
:1022F0004CC08091ED018F3F09F469C08091ED01E0
:10230000803209F466C08091ED01803309F463C026
:1023100084E026C08091A5019091A601A091A7011B
:10232000B091A801892B8A2B8B2B09F483CF0E94B3
:10233000C5060091A5011091A6012091A701309139
:10234000A8016C197D098E099F0906171707280730
:10235000390708F06FCF8091A4010E94601085E0DA
:102360001092DA031092D9031092DC03DF91CF911F
:102370001F910F91FF90EF90DF90CF9008959D9166
:1023800091938F5F6DCF85EEA9CF8091A50190913C
:10239000A601A091A701B091A801892B8A2B8B2BB4
:1023A00009F4A2CF0E94C5060091A5011091A601D3
:1023B0002091A7013091A8016C197D098E099F0910
:1023C000061717072807390708F08ECFC4CF80E01B
:1023D000C7CF82E0C5CF83E0C3CFEF92FF920F93C8
:1023E0001F93CF93DF937C01C62F809106049091B9
:1023F0000704009709F459C020910A0431E0309392
:10240000DC032093DB031092DA031092D903DC0182
:10241000ED91FC910190F081E02D60E0099587013C
:10242000EE24E394F12CD1E0C15080910604909108
:102430000704CF3F91F1B0E2EB16F104D8F00E940F
:102440000611809106049091070420910A04D0930C
:10245000DC032093DB031092DA031092D903DC0132
:10246000ED91FC910190F081E02D60E00995EE2462
:10247000E394F12C8091060490910704F801649193
:10248000DC01ED91FC910190F081E02D0995BFEF09
:10249000EB1AFB0A0F5F1F4FC7CFDF91CF911F9140
:1024A0000F91FF90EF900C940611E0911604F091BB
:1024B0001704908180911C04809589238083870173
:1024C000C15008F438C0F80184912091040430917F
:1024D0000504232B29F00E94000A0F5F1F4FF0CF45
:1024E00028E030E040E8E0911204F091130490916C
:1024F0001A04582F5423D9F05081952B9083E091E2
:102500001404F0911504908150911B04952B908335
:10251000E0911404F0911504508190911B04909562
:1025200095239083469521503109E9F6D6CF508105
:1025300090959523E3CFDF91CF911F910F91FF905D
:10254000EF9008951F93CF93DF93EC018D8D9E8DB7
:10255000009721F1162F29A131E03093DC0320935D
:10256000DB031092DA031092D903DC01ED91FC91A8
:102570000190F081E02D60E009958D8D9E8DDC014C
:10258000ED91FC910190F081E02D612F09958D8DE9
:102590009E8DDF91CF911F910C940611ADA5BEA524
:1025A0009C918BA9809589238C938B8D9C8D892BF5
:1025B00031F0862FDF91CF911F910C94000A28E013
:1025C00030E080E8A9A5BAA599A9462F4823C1F013
:1025D0004C91942B9C93ABA5BCA59C914AA9942BA0
:1025E0009C93ABA5BCA54C919AA9909594239C93E0
:1025F00086952150310931F7DF91CF911F910895D0
:102600004C9190959423E6CFDF92EF92FF920F9337
:102610001F93CF93DF938091060490910704892B39
:1026200009F498C020911E0430911F0440912004A9
:102630005091210460E074E284EF90E00E94DA247B
:1026400020513109410951095695479537952795EC
:102650002093B80065E085E09CE00E94ED11609158
:10266000ED03615089EE93E00E94A2122091EF03E6
:102670003091F003C901079697FD079633E09595D1
:1026800087953A95E1F72091ED033091EE03829F13
:102690008001839F100D929F100D1124C09108049A
:1026A000D091090480910604909107040C0F1D1F1E
:1026B000009709F48FC020910A0431E03093DC03C5
:1026C0002093DB031092DA031092D903DC01ED9121
:1026D000FC910190F081E02D60E40995EE24E394F3
:1026E000F12CDD24D39480910604909107040C17FB
:1026F0001D0709F446C0B0E2EB16F104D8F00E94C1
:102700000611809106049091070420910A04D0924A
:10271000DC032093DB031092DA031092D903DC016F
:10272000ED91FC910190F081E02D60E40995EE249B
:10273000E394F12C80910604909107046991DC01E7
:10274000ED91FC910190F081E02D0995BFEFEB1A1E
:10275000FB0AC9CF8091040490910504892B31F0C4
:1027600080912704909128040E94070AE0911804A0
:10277000F0911904908180911D04809589238083B4
:1027800069CF0E9406118091060490910704892B5D
:1027900009F461C020912204309123044091240463
:1027A0005091250460E074E284EF90E00E94DA2406
:1027B000205131094109510956954795379527957B
:1027C0002093B800DF91CF911F910F91FF90EF9070
:1027D000DF900895E0911604F091170480819091A4
:1027E0001C04892B80830C171D0769F289912091A5
:1027F000040430910504232B19F00E94000AF3CF42
:1028000028E030E040E8E0911204F0911304909148
:102810001A04582F5423D9F05081952B9083E091BE
:102820001404F0911504908150911B04952B908312
:10283000E0911404F0911504508190911B0490953F
:1028400095239083469521503109E9F6CCCF5081EC
:1028500090959523E3CFE0911804F09119048081BD
:1028600090911D04892B8083ADCF1F93CF93DF936D
:10287000EC01162F8D8D9E8D892BB1F12DA93EA9CE
:102880004FA958AD60E074E284EF90E00E94DA2432
:10289000205131094109510956954795379527959A
:1028A0002093B80066EA111167EACE010E94A212D5
:1028B0008D8D9E8D892B41F129AD3AAD4BAD5CAD2F
:1028C00060E074E284EF90E00E94DA242051310944
:1028D0004109510956954795379527952093B8009A
:1028E000DF91CF911F9108958B8D9C8D892B21F0C5
:1028F0008EAD9FAD0E94070AEFA5F8A990818CA923
:10290000809589238083CECFEFA5F8A980819CA9EB
:10291000892B8083E5CF90E080E00895DC01AA0F49
:10292000BB1FA35EBD4FFC01EE0FFF1FE15EFD4F1D
:102930002D913C9140815181240F351FFC01EE0FF8
:10294000FF1FEF5DFD4F80819181820F931F0895DE
:102950002091EF033091F003C901079697FD079688
:1029600023E0959587952A95E1F72091ED03309125
:10297000EE03829FA001839F500D929F500D112462
:1029800070E060E080910804909109040C94A628FE
:10299000FC0101900020E9F73197AF01481B590B6A
:1029A000BC0189EE93E00C947C07CF93DF930E94E7
:1029B000170DEC0184E591E00E94C8148C0F9D1F57
:1029C000DF91CF9108958F929F92AF92BF920F9314
:1029D0001F93CF93DF93CDB7DEB7A1970FB6F894CF
:1029E000DEBF0FBECDBF19A2423008F44AE08E010F
:1029F0000F5D1F4F842E912CB12CA12CA5019401A9
:102A00000E94DA24E62FB901CA01EA30F4F4E05D4D
:102A1000D801EE938D01232B242B252B79F790E001
:102A200080E0109719F0CD010E94C814A1960FB64E
:102A3000F894DEBF0FBECDBFDF91CF911F910F91F4
:102A4000BF90AF909F908F900895E95CE1CF4F9237
:102A50005F926F927F928F929F92AF92BF92CF922E
:102A6000DF92EF92FF920F931F93CF936B017C0144
:102A7000742EAC019B010E944927882399F087E5B9
:102A800091E0CF911F910F91FF90EF90DF90CF9049
:102A9000BF90AF909F908F907F906F905F904F907E
:102AA0000C94C81446015701E894B7F82FEF3FEF94
:102AB0004FE75FE7C501B4010E94492781110DC0AE
:102AC0002FEF3FEF4FE75FE7C501B4010E94782584
:102AD00018161CF48BE591E0D4CF2FEF3FEF4FE7B2
:102AE0005FE4C701B6010E94D72618161CF48FE5D3
:102AF00091E0C7CF2FEF3FEF4FE75FECC701B60183
:102B00000E94782587FDF3CF20E030E0A901C701BE
:102B1000B6010E94782510E000E087FF0AC06DE250
:102B200089EE93E00E94450C8C01F7FAF094F7F8D7
:102B3000F094C0E060E070E080E09FE37C1641F03C
:102B400020E030E040E251E40E947D25CF5FF6CFE7
:102B5000A70196010E940C252B013C010E94F6253D
:102B60004B015C014AE00E94E3147C01E00EF11E7F
:102B7000CC23C1F1C501B4010E9425269B01AC0103
:102B8000C301B2010E940B254B015C016EE289EE8C
:102B900093E00E94450CE80EF91EC15018F120E0A8
:102BA00030E040E251E4C501B4010E94DC262B0173
:102BB0003C010E94F6254B01B12CA12C4AE0C50135
:102BC000B4010E94E314E80EF91EC501B4010E948D
:102BD00025269B01AC01C301B2010E940B254B01CC
:102BE0005C01DBCFC701CF911F910F91FF90EF9058
:102BF000DF90CF90BF90AF909F908F907F906F901D
:102C00005F904F9008950E94A12885ED8093BC00AD
:102C10008091A5019091A601A091A701B091A80172
:102C20000796A11DB11D23E0B695A79597958795A9
:102C30002A95D1F72091BC0024FD03C01092EE012B
:102C400008954091A5015091A6016091A70170914E
:102C5000A801452B462B472B69F30097A105B10529
:102C600041F02AE22A95F1F700C00197A109B109C4
:102C7000E1CF8091A4010C9460106091CB0386E0B9
:102C80006802B001112465587E4F84E091E00E94F3
:102C900033226091CC0385E06802B00111246E59A3
:102CA0007E4F8AE091E00E9433228091CC038230F3
:102CB00049F12CF4882341F08130D9F00895833014
:102CC00051F1843089F1089582E793E09093B40341
:102CD0008093B30384EF91E09093BF038093BE038E
:102CE0001092B2031092B1031092BD031092BC0374
:102CF000089580E691E09093B4038093B30388EC49
:102D000090E0EACF80EB90E09093B4038093B3031C
:102D100084E690E0E1CF88E590E09093B40380935F
:102D2000B30382E390E0D8CF83E290E09093B403C2
:102D30008093B30384E190E0CFCF1F920F920FB640
:102D40000F9211242F933F938F939F93AF93BF9331
:102D50008091D1039091D203A091D303B091D40379
:102D60003091D00323E0230F2D3758F50196A11D94
:102D7000B11D2093D0038093D1039093D203A093ED
:102D8000D303B093D4038091D5039091D603A0913F
:102D9000D703B091D8030196A11DB11D8093D5032F
:102DA0009093D603A093D703B093D803BF91AF916C
:102DB0009F918F913F912F910F900FBE0F901F9079
:102DC000189526E8230F0296A11DB11DD2CF1F92A0
:102DD0000F920FB60F9211242F933F934F935F934F
:102DE0006F937F938F939F93AF93BF93EF93FF93D3
:102DF000E0910201F09103010995FF91EF91BF91DC
:102E0000AF919F918F917F916F915F914F913F9182
:102E10002F910F900FBE0F901F9018951F920F9239
:102E20000FB60F9211242F933F934F935F936F939D
:102E30007F938F939F93AF93BF93EF93FF93E09113
:102E40000001F09101010995FF91EF91BF91AF91C0
:102E50009F918F917F916F915F914F913F912F91B2
:102E60000F900FBE0F901F9018951F920F920FB6E4
:102E70000F9211242F933F934F935F936F937F9300
:102E80008F939F93AF93BF93EF93FF938091B9007C
:102E9000887F803609F44AC0F0F5883209F4A7C06B
:102EA00018F5803109F49BC0B8F4882309F4F9C0FF
:102EB000883009F494C0FF91EF91BF91AF919F9139
:102EC0008F917F916F915F914F913F912F910F90D3
:102ED0000FBE0F901F901895883109F488C080327A
:102EE00051F78093ED0114C0803409F49DC040F483
:102EF0008033B9F38833F9F68093ED0185ECB0C0E7
:102F0000803509F485C0883509F496C0883499F66F
:102F10000E940516D0CF883909F48CC038F588375F
:102F200029F050F4883611F0803729F683E0809339
:102F3000EE011092EC0157C0883809F47BC080394B
:102F400019F0803809F0B7CF8091EC01803208F099
:102F500071C0E091EC0181E08E0F8093EC018091D3
:102F6000BB00F0E0E453FE4F80833DC0803B39F06E
:102F7000E0F4803A09F479C0883A09F09CCF84E003
:102F80008093EE011092CB011092CA01E0911702DA
:102F9000F091180209958091CA0181110FC081E05A
:102FA0008093CA011092AA0109C0803C09F4A6CFFF
:102FB000883C09F4A3CF883B09F07DCFE091CB0199
:102FC00081E08E0F8093CB01F0E0E655FE4F8081CB
:102FD0008093BB009091CB018091CA0129C0809160
:102FE00013028093BB0085EC8093BC0064CF90916A
:102FF000120280911102981758F5E091120281E0B7
:103000008E0F80931202F0E0EF50FE4F8081E9CFE7
:10301000E091120281E08E0F809312028091BB003A
:10302000F0E0EF50FE4F80839091120280911102E8
:103030009817C8F285E8D8CFE091120281E08E0F90
:10304000809312028091BB00F0E0EF50FE4F80832E
:103050008091F00181115CCF81E08093EF0184EADF
:103060008093BC001092EE0126CF85EC8093BC00CB
:103070001092EE018091EC01803230F4E091EC018D
:10308000F0E0E453FE4F10826091EC0170E0E091BB
:103090001502F09116028CEC91E009951092EC016A
:1030A0000ACF1092ED0134CFADEDB3E013961C9230
:1030B0001E92129748EE53E060E070E014964D9334
:1030C0005D936D937C9317978AE191E011969C93A1
:1030D0008E93E9EEF3E01382128220E830E035832C
:1030E000248380E490E097838683318720879387C9
:1030F0008287168A158614861786168681E0858B48
:10310000848B2FEF3FEF338B228B318B208B878B80
:10311000108E128E118E8CE291E091838083148E3A
:10312000138EB68FA58F10A2178E8FEF84A385A361
:1031300086A387A380A780E89AE1A6E0B0E085ABEC
:1031400096ABA7ABB0AF80EA96E8A1E0B0E081AF64
:1031500092AFA3AFB4AF80E586AF17AE0895CF931B
:10316000DF93CDB7DEB762970FB6F894DEBF0FBE20
:10317000CDBF789484B5826084BD84B5816084BD00
:1031800085B5826085BD85B5816085BD80916E0005
:10319000816080936E001092810080918100826036
:1031A0008093810080918100816080938100809173
:1031B00080008160809380008091B1008460809362
:1031C000B1008091B00081608093B00080917A005E
:1031D000846080937A0080917A00826080937A0084
:1031E00080917A00816080937A0080917A00806873
:1031F00080937A001092C1001092CF031092CE03F8
:103200001092CD0362E082E00E94940662E088E0C2
:103210000E94940662E089E00E94940662E08AE0DF
:103220000E94940662E08BE00E949406809108045C
:1032300090910904892B11F10E94A8142091EF03A9
:103240003091F0038091ED039091EE03213231052E
:103250000CF0F5C4B9016052710977FF02C06F5FCD
:103260007F4F759567958357910997FD019600E209
:1032700010E023E730E041EC56E0F4C42091EF0386
:103280003091F003C901079697FD0796B3E0959535
:103290008795BA95E1F72091ED033091EE03AC01EB
:1032A000429FC001439F900D529F900D11240E9498
:1032B0007C279093090480930804892B09F0BCCFE4
:1032C00083E080930F018CE197E09093010180935C
:1032D0000001809169008C7F826080936900E89A88
:1032E00085E797E090930301809302018091690044
:1032F000837F886080936900E99A81E08093CC03A2
:103300008093CB031092CA031092CF031092CE0386
:103310001092CD0341E04093CC034093CB03109235
:10332000CA030E94A81451E05093FD035093FE037A
:1033300081E090E09093FC038093FB039093FA0369
:103340008093F90388E290E09093F6038093F5036D
:103350001092F8031092F70381E79BE00E94D514C6
:103360008EE190E09093F6038093F50384E190E082
:103370009093F8038093F70384E69BE00E94D514B2
:1033800087E390E09093F6038093F5038AE290E060
:103390009093F8038093F70381E69BE00E94D51495
:1033A0000E9404136CED75E080E090E00E94EA0654
:1033B0000E94A81481E08093FD038093FE03809116
:1033C000CE0381110C94FC210E943D161092CD0376
:1033D00080917A00887F80937A008091CB0382303D
:1033E00009F4A6C60CF02EC6882309F45EC6813007
:1033F00009F47FC60E943D16EFE1F2E00FEF13E003
:103400001A82198240E050E0BA01819191916C01D9
:10341000092E000CEE08FF084C0D5D1D6E1D7F1D72
:10342000801791070CF48C0129813A8128173907FC
:1034300014F49A8389838FEA93E08E179F0729F704
:10344000E981FA81F0931C02E0931B0210931E02A3
:1034500000931D02CB01BA01665F7F4F8F4F9F4FD4
:1034600024E130E040E050E00E9471243093C90331
:103470002093C80329803A80200E311EC10137FCF9
:10348000019695958795EFE7F2E021E330E0263944
:10349000310509F4ADC641915191481759070CF017
:1034A000A4C640815181481759070CF49EC6309339
:1034B000B0032093AF0381E08093BB0329813A815D
:1034C000201B310B2630310514F41092BB03C101CF
:1034D000880F991F280E391E37FE03C03FEF231AAD
:1034E000330A35942794D12C812C912C54011A82C3
:1034F00019821E821D8218861F821D861E861F86C7
:10350000188ACC24C39441E050E05A8B498B8989B6
:103510009A890E948E147C0189899A8901969C83DC
:103520008B83CC2009F476C62E143F040CF4D0C64D
:103530000E948E148C01281639060CF0C9C6F101C0
:10354000EE19FF097F01BF01FF0F880B990B0E9445
:1035500027262B013C01B801621973096E0D7F1DEE
:10356000072E000C880B990B0E9427269B01AC01AB
:10357000C301B2010E947D252B013C0129893A89B2
:10358000B901330F880B990B0E9427269B01AC01D0
:10359000C301B2010E940C2569877A878B879C87BB
:1035A000DD2009F42EC62D853E854F8558890E9461
:1035B0000B254B015C014F8158854F5F5F4F58874A
:1035C0004F83C12CDD24D394EB81FC81FA8BE98BF2
:1035D000E63CF10509F09BCF2F813885B901330F07
:1035E000880B990B0E9427269B01AC01C501B401F1
:1035F0000E947D256B017C01E091CB0334E0E30266
:10360000F0011124E558F44F2591359145915491DD
:103610000E94DC2620E030E048EC51E40E947D2549
:103620009B01AC0160E070E080E89FE30E947D2593
:103630006093B7037093B8038093B9039093BA0370
:103640008D819E8169817A810E944E27072E000C10
:10365000880B990B0E94272620E030E048EC52E4CA
:103660000E94DC26A70196010E947D250E94EF257D
:103670007093B6036093B5030E94A81481E090E0B4
:103680009093FC038093FB039093FA038093F903D8
:1036900085E590E09093F6038093F5031092F8038C
:1036A0001092F70383E99BE00E94D51401E010E03B
:1036B00027E330E049E050E06AE170E089EE93E012
:1036C0000E94C00823E030E049E050E06FE770E07E
:1036D00089EE93E00E94C00823E030E04DE350E023
:1036E0006FE770E089EE93E00E94C00827E030E0C9
:1036F00049E050E068E170E089EE93E00E9409093A
:1037000022E030E044E250E068E170E089EE93E0CE
:103710000E94090927E030E04FE350E068E170E0E3
:1037200089EE93E00E94090923E030E049E050E08F
:1037300063E370E089EE93E00E94090923E030E042
:103740004FE350E063E370E089EE93E00E940909E3
:1037500023E030E049E050E06CE470E089EE93E073
:103760000E94090923E030E04FE350E06CE470E090
:1037700089EE93E00E94090923E030E049E050E03F
:1037800065E670E089EE93E00E94090923E030E0ED
:103790004FE350E065E670E089EE93E00E9409098E
:1037A00025E030E049E050E06BE770E089EE93E01F
:1037B0000E94090925E030E04FE350E06BE770E03C
:1037C00089EE93E00E9409094AE150E05A83498357
:1037D00001E010E022E030E044E250E069817A81CB
:1037E00089EE93E00E94090989819A8105969A835E
:1037F00089838338910561F7E6E6F0E0FA83E9838F
:103800007AE0E72EF12C01E010E022E030E0A701A1
:1038100069817A8189EE93E00E94C008F5E0EF0E9D
:10382000F11C21E4E216F10471F749815A814951F2
:1038300051095A8349834B31510511F71A82198274
:10384000E090B103F090B2030F2C000C000B110BB1
:103850002090AF033090B00389819A81280E391EE1
:103860004090B3035090B403052C000C6608770811
:103870004E185F08600A710AF101EE0FFF1FE35452
:10388000FE4F20813181032E000C440B550B2E1965
:103890003F09400B510BAAECBFEF0E949E24A301ED
:1038A00092010E94712449015A019FE3890E911CE3
:1038B000A11CB11CE0E48E169104A104B1042CF00B
:1038C0005FE3852E912CA12CB12CF9E08F16910489
:1038D000A104B1042CF449E0842E912CA12CB12C2C
:1038E000C980DA802CE1C20ED11CF101EE0FFF1F5E
:1038F000E554FE4F20813181032E000C440B550B03
:103900002E193F09400B510BAAECBFEF0E949E24D9
:10391000A30192010E947124BA01A901415C5F4F89
:103920006F4F7F4F403451056105710524F04FE31F
:1039300050E060E070E0493051056105710524F404
:1039400049E050E060E070E089819A814B96EE2476
:10395000E394F12C84019601BC0189EE93E00E946E
:10396000910D49815A814F5F5F4F5A834983433696
:10397000510509F065CF82E090E09093F6038093C3
:10398000F5031092F8031092F7038AE091E00E9489
:10399000C8148091CA03811120C001E010E02BE11E
:1039A00030E047E050E070E060E089EE93E00E9494
:1039B000090922E030E045E050E070E060E089EE87
:1039C00093E00E94C00822E030E045E050E06AE168
:1039D00070E089EE93E00E94C00882E290E090934C
:1039E000F6038093F5031092F8031092F70384E036
:1039F00091E00E94C8148091CA03882301F101E07C
:103A000010E021E230E047E050E060E270E089EE53
:103A100093E00E94090922E030E045E050E060E2D6
:103A200070E089EE93E00E94C00822E030E045E0BB
:103A300050E060E470E089EE93E00E94C0088BE4FF
:103A400090E09093F6038093F5031092F8031092A0
:103A5000F70368E189EE93E00E94450C6091C8038A
:103A60007091C903072E000C880B990B0E94272622
:103A700020ED3CEB49EB5BE30E94DC2620E030E0EC
:103A800040E251E40E947D256B017C0120E030E0A2
:103A900040E251E40E94782500EC13E022E087FF29
:103AA00021E044E0C701B6010E94152282E690E0C1
:103AB0009093F6038093F5031092F8031092F703A6
:103AC00080EC93E00E94C8146091BE037091BF0324
:103AD000072E000C880B990B0E94272620E030E06F
:103AE00048EC52E40E947D2500EC13E022E044E023
:103AF0000E9415221092F6031092F50389E090E0DF
:103B00009093F8038093F703C8010E94C814609152
:103B1000BE037091BF038091BC039091BD03680FF9
:103B2000791F072E000C880B990B0E94272620E096
:103B300030E048E453E40E947D2522E044E00E9406
:103B400015221092F6031092F50381E290E0909313
:103B5000F8038093F703C8010E94C8146091BC0366
:103B60007091BD03072E000C880B990B0E9427262D
:103B700020E030E048EC52E40E947D2522E044E061
:103B80000E9415221092F6031092F50389E390E04B
:103B90009093F8038093F703C8010E94C8148091A2
:103BA000BB03F12CE12C811196C308E010E028E161
:103BB00030E04EE050E06CE570E089EE93E00E946A
:103BC000260E8CE590E09093F6038093F5038EE04B
:103BD00090E09093F8038093F70389EA9BE00E94BA
:103BE000170D0E9404138091CF03882309F4E7CBBB
:103BF000F12CE12C08E010E028E130E04BE050E04F
:103C00006AE270E089EE93E00E94260E8AE290E07C
:103C10009093F6038093F5038BE090E09093F80384
:103C20008093F70380EB9BE00E94170D0E94041322
:103C30006AE070E080E090E00E94EA06D4CFB9012B
:103C40006054710977FF02C06F5F7F4F759567956C
:103C50008255910997FD019600E410E022E530E0DD
:103C600041EA58E0959587950E940C0F82E0809379
:103C70000B048091060490910704892B09F4E0C09D
:103C80008DE380930A0410921A0210921902109286
:103C9000DA031092D9030E94421089E797E09093CB
:103CA0001802809317028AE797E090931602809398
:103CB00015028091110487FD1EC061E00E949406E8
:103CC00061E0809111040E94480661E070E080E0AC
:103CD00090E00E94EA0660E0809111040E9448068C
:103CE0006AE070E080E090E00E94EA0661E0809186
:103CF00011040E9448068091060490910704892BC4
:103D000009F45FC120911E0430911F0440912004EA
:103D10005091210460E074E284EF90E00E94DA2484
:103D200020513109410951095695479537952795F5
:103D30002093B80064E08DEB96E00E94ED11609155
:103D4000EF03615089EE93E00E94A21264E089EBD8
:103D500096E00E94ED1180910B0460E1813009F042
:103D600064E189EE93E00E94A21264E085EB96E0A4
:103D70000E94ED118FE8809326048091ED039091CD
:103D8000EE038038910509F035C18091EF039091E1
:103D9000F0038034910509F042C180910B04813019
:103DA00009F026C18FE98093260492E199836AED98
:103DB00089EE93E00E94A212698189EE93E00E944D
:103DC000A21261E889EE93E00E94A212609126049B
:103DD00089EE93E00E94A21269ED89EE93E00E94C1
:103DE000A21280910B0462E2813009F061EF89EE4A
:103DF00093E00E94A21266E08FEA96E00E94ED1125
:103E00008091060490910704892B09F411C1209137
:103E1000220430912304409124045091250460E051
:103E200074E284EF90E00E94DA24205131094109C4
:103E3000510956954795379527952093B80040CA64
:103E400061E080910F040E94940661E0809110046B
:103E50000E94940680910F04082E000C990BFC011F
:103E6000E753F44FE491F0E0EE0FFF1FE154F44FFD
:103E7000259134913093170420931604FC01E352EA
:103E8000F44FE491E0931C0480911004082E000C80
:103E9000990BFC01E753F44FE491F0E0EE0FFF1FA4
:103EA000E154F44FA591B491B0931904A093180470
:103EB000FC01E352F44FE491E0931D048C91E82B54
:103EC000EC938091040490910504892B09F436C089
:103ED0005FB75983F89480911402811127C0E3EDF4
:103EE000FBE08491E7EEFBE09491E82FF0E0EE0F29
:103EF000FF1FEB54F44FA591B491EC91E92321F409
:103F000061E08AE00E94480661E08AE00E9494062F
:103F10008CB580618CBD8CB580648CBD61E08DE01A
:103F20000E94940661E08BE00E9494068091140246
:103F30008F5F8093140289818FBFBBCE61E0809137
:103F40000D040E94940661E080910E040E94940684
:103F500080910D04082E000C990BFC01E753F44FDF
:103F6000E491F0E0EE0FFF1FE154F44F25913491FE
:103F70003093130420931204FC01E352F44FE491B4
:103F8000E0931A0480910E04082E000C990BFC019A
:103F9000E753F44FE491F0E0EE0FFF1FE154F44FCC
:103FA000A591B491B0931504A0931404FC01E352BD
:103FB000F44FE491E0931B048C91E095E823EC939B
:103FC00078CE8091040490910504892B31F0809182
:103FD0002704909128040E94070AE0911804F091A8
:103FE0001904908180911D04809589238083A2CE3D
:103FF0008FECD9CE80369105A9F48091EF03909192
:10400000F003409791F480910B04813031F480E10A
:1040100080932604E2E0E983CACE8FEAF9CFF2E08A
:10402000F983C5CE22E02983C2CE32E03983BFCEE8
:10403000E0911804F0911904808190911D04892B5E
:1040400080833EC9843009F4ADC00CF490C0853043
:1040500009F0D0C980917A00826080937A004FE1A4
:1040600052E05A8349830E943106E981FA818193A3
:104070009193FA83E9830000000000000000000033
:104080000000000000000000000000000000000030
:1040900000000000000000000000000000002FEA07
:1040A00033E02E173F07F9F6A5C980917A008760A3
:1040B00080937A00EFE1F2E0FA83E9830E9431060F
:1040C000E981FA8181939193FA83E9838BE39BE7FA
:1040D0000197F1F78091CD03882319F01092CD0359
:1040E00089C92FEA33E049815A812417350731F70E
:1040F00081C980917A00876080937A008FE192E095
:104100009A8389830E943106E981FA818193919390
:10411000FA83E9838BE59DE10197F1F78091CD0367
:10412000811168C92FEA33E02E173F0759F762C99A
:1041300080917A00876080937A004FE152E05A8341
:1041400049830E943106E981FA8181939193FA8330
:10415000E98387E794E00197F1F78091CD0381111E
:1041600049C92FEA33E02E173F0759F743C9809119
:104170007A00866080937A004FE152E05A83498347
:104180000E943106E981FA8181939193FA83E98350
:1041900087E590E00197F1F72FEA33E02E173F070C
:1041A00079F728C980917A00846080937A004FE182
:1041B00052E05A8349830E943106E981FA81819352
:1041C0009193FA83E9838BE090E00197F1F7000087
:1041D00000000000000000000000000000002FEAC6
:1041E00033E02E173F0739F705C92F5F3F4F4FC9FF
:1041F00084E690E09093B0038093AF031092BB03EA
:104200005DC959855D878A858E879B859F87EC85EB
:10421000E88BD7C9E214F3040CF4D6C98B819C81D6
:104220000E948E148C01821593050CF0CDC9DD20FF
:1042300009F44EC0E218F308B7010F2C000C880BEC
:10424000990B0E9427262B013C01B101601B710BC9
:104250006E0D7F1D072E000C880B990B0E942726E0
:104260009B01AC01C301B2010E947D256B017C0161
:1042700029893A89B901330F880B990B0E942726A7
:104280009B01AC01C701B6010E940C2529853A8526
:104290004B855C850E940B256B017C014D815E8105
:1042A000BA01550F880B990B0E9427269B01AC0180
:1042B000C701B6010E940C250E94EF257E836D8305
:1042C00089819A8101969A838983CC24C3947AC97F
:1042D000CC24C39479C909E010E029E130E04CE036
:1042E00050E06AE570E089EE93E00E94260E8BE5CF
:1042F00090E09093F6038093F5038DE090E0909327
:10430000F8038093F703C090B703D090B803E09010
:10431000B903F090BA0320E030E048EC52E4C70162
:10432000B6010E94782587FF31C041E0C701B60180
:104330000E94271586EA9BE00E94170DF12CE12CC4
:104340000AE010E029E130E045E150E060E670E08D
:1043500089EE93E00E94260E89E690E09093F603A2
:104360008093F50387E190E09093F8038093F7033F
:104370006091B5037091B603072E000C880B990B62
:1043800041E00E94E3148BE99BE029CC20E030E07F
:104390004AE754E4C701B6010E94782587FF08C0A8
:1043A00040E0C701B6010E94271583EA9BE0C4CF15
:1043B00020E030E04AE754E4C701B6010E947D25C1
:1043C0004B015C0120E030E44CE156E4C701B6014A
:1043D0000E94782587FF08C042E0C501B4010E9411
:1043E000271580EA9BE0A8CF41E0C501B4010E94F7
:1043F00027158DE99BE0A0CF80E090E0892B11F498
:104400000C9484190E9400000C9484198CE291E0B1
:104410009093EA038093E903809108049091090442
:10442000009711F00C9418280895EF920F931F93A2
:10443000CF93DF93E80134E047FD34E1042E000C14
:10444000550B57FF03C0519541955109E32E022F9B
:10445000242FAE010E943A22CE01DF91CF911F910D
:104460000F91EF900895FB01DC0105900D92002063
:10447000E1F70895A9E0B0E0E0E4F2E20C94A924A9
:104480006A01F22EB02E102FFBE3AF2EA01608F417
:104490001BE31F5F012F27E0AE014F5F5F4F0E94BC
:1044A0009923BC018981982F9970913009F43FC0FC
:1044B0009BE2E1FC04C09E2D9170E0FC3AC05E2DB1
:1044C0005071E82FE87083FF46C084E0911101C06D
:1044D00083E0EF2DE81B8F1508F0E0E0D6018E2F6A
:1044E00020E2552351F1992329F0D6019C93C6016E
:1044F00001966C0196012D5F3F4FE2FE24C08EE4D1
:10450000D6018C9391E411969C93119712968C93FB
:10451000D9018E2F90E281111BC0E20FF32FF11D04
:1045200010828EEF9FEF2996ECE00C94C5249DE25B
:10453000C6CF90E2C4CF2D9381508111FCCFCE0E17
:10454000D11CE0E0D0CF8EE6D6018C9391E6DBCF94
:104550009D938150E0CF482F447082FF3DC084E09E
:10456000911101C083E08F1510F4EF2DE81BD601E7
:104570008E2F20E2552309F1992329F0D6019C932F
:10458000C60101966C0196012D5F3F4FE2FE1BC0F4
:1045900089E4D6018C938EE411968C93119786E46E
:1045A00012968C93D9018E2F90E2882309F4B5CF0F
:1045B0009D938150FACF2D9381508111FCCFCE0E67
:1045C000D11CE0E0D9CF89E6D6018C938EE6119616
:1045D0008C93119786E6E4CF9B0177FF02C030E011
:1045E00020E0A1E0B0E0911102C0B0E0A0E0F9014C
:1045F0003196AE0FBF1F8B2C912CBB2009F461C0EC
:104600005401EFEFAE1ABE0AAA0DBB1DFA161B0627
:1046100019F014F04F2D4A1B511188C0E3FC59C00A
:104620007601A42FB0E2A1114FC0C40ED11C992372
:1046300009F45BC040E0D6011196F60190836D014C
:10464000552309F448C0012F060F9A81582F507145
:1046500084FF03C0913309F4015010160CF047C0D9
:10466000093008F008E0EEE2FE2E5B01A01AB10866
:1046700085019194819491082F3F320729F4D60146
:10468000FC92F60131966F016217730794F10217DD
:1046900013077CF5DB01A21BB30BAA24A394B12C56
:1046A000AC0EBD1EAA0DBB1D11968C912150310977
:1046B000D601119628153905F4F0F60180836D01B5
:1046C000DBCFB12CA12CA0CFF701B1937F01A1507A
:1046D000AACF9111B0CFD601942F50E302C05D93C1
:1046E00091509111FCCFC40ED11C40E0ACCF01E041
:1046F000BACF80E3DBCF6217730731F4963388F4C7
:10470000953311F4552369F0F6018083FD01842F60
:1047100090E2811108C0A40FB11D1C9290E080E0CE
:1047200002CF81E3F1CF91938150F3CF911183CFE9
:104730008ACF283008F027E03327DA01990F311D9E
:1047400087FD916000966105710539F432602E5F36
:104750003D9330E32A95E1F708959F3F30F080388C
:104760007105610509F03C5F3C5F3D93913008F0B5
:104770008068911DDF93CF931F930F93FF92EF9269
:10478000192F987F9695E92F96959695E90FFF2713
:10479000EE53FF4F99273327EE24FF24A701E701AB
:1047A00005900894079428F4360FE71EF81E491F59
:1047B000511D660F771F881F991F0694A1F705905A
:1047C000079428F4E70EF81E491F561FC11D770FE6
:1047D000881F991F661F0694A1F70590079428F477
:1047E000F80E491F561FC71FD11D880F991F661F3E
:1047F000771F0694A1F70590079420F4490F561FE0
:10480000C71FD81F990F661F771F881F0694A9F727
:1048100084911095177041F0D695C7955795479597
:10482000F794E7941A95C1F7E8E6F0E068941590DC
:10483000159135916591959105907FE27395E118F9
:10484000F10A430B560BC90BD009C0F7E10CF11E5E
:10485000431F561FC91FD01D7EF4703311F48A9573
:10486000E6CFE894015030F0080F0AF40027021751
:1048700008F4202F2395022F7A3328F079E37D93D3
:104880002A95E9F710C07D932A9589F606949795A5
:104890006795379517951794E118F10A430B560B56
:1048A000C90BD00998F023957E9173957A3308F05F
:1048B00070E37C932013B8F77E9170617D9330F0A4
:1048C000839571E37D9370E32A95E1F71124EF90CE
:1048D000FF900F911F91CF91DF91992787FD9095C0
:1048E0000895052E97FB1EF400940E94882457FD1E
:1048F00007D00E94DA2407FC03D04EF40C948824DD
:1049000050954095309521953F4F4F4F5F4F0895FB
:1049100090958095709561957F4F8F4F9F4F08952B
:104920000E94FC24A59F900DB49F900DA49F800D24
:10493000911D11240895B7FF0C9490240E94902497
:10494000821B930B08952F923F924F925F926F922A
:104950007F928F929F92AF92BF92CF92DF92EF920F
:10496000FF920F931F93CF93DF93CDB7DEB7CA1B90
:10497000DB0B0FB6F894DEBF0FBECDBF09942A88BB
:10498000398848885F846E847D848C849B84AA8463
:10499000B984C884DF80EE80FD800C811B81AA81F0
:1049A000B981CE0FD11D0FB6F894DEBF0FBECDBFBB
:1049B000ED010895A1E21A2EAA1BBB1BFD010DC03B
:1049C000AA1FBB1FEE1FFF1FA217B307E407F507BF
:1049D00020F0A21BB30BE40BF50B661F771F881F9B
:1049E000991F1A9469F760957095809590959B0131
:1049F000AC01BD01CF010895A29FB001B39FC001DA
:104A0000A39F700D811D1124911DB29F700D811DFA
:104A10001124911D08955058BB27AA270E942325D1
:104A20000C949D260E948F2638F00E94962620F036
:104A300039F49F3F19F426F40C948C260EF4E0957B
:104A4000E7FB0C948626E92F0E94AE2658F3BA178E
:104A5000620773078407950720F079F4A6F50C9494
:104A6000D0260EF4E0950B2EBA2FA02D0B01B90124
:104A700090010C01CA01A0011124FF27591B99F0D4
:104A8000593F50F4503E68F11A16F040A22F232FE0
:104A9000342F4427585FF3CF469537952795A79530
:104AA000F0405395C9F77EF41F16BA0B620B730BD7
:104AB000840BBAF09150A1F0FF0FBB1F661F771F48
:104AC000881FC2F70EC0BA0F621F731F841F48F4FD
:104AD000879577956795B795F7959E3F08F0B0CF86
:104AE0009395880F08F09927EE0F9795879508956D
:104AF0000E94622608F481E008950E9491250C949A
:104B00009D260E94962658F00E948F2640F029F498
:104B10005F3F29F00C94862651110C94D1260C94F9
:104B20008C260E94AE2668F39923B1F3552391F3A6
:104B3000951B550BBB27AA2762177307840738F00C
:104B40009F5F5F4F220F331F441FAA1FA9F335D069
:104B50000E2E3AF0E0E832D091505040E695001C1D
:104B6000CAF72BD0FE2F29D0660F771F881FBB1FD7
:104B7000261737074807AB07B0E809F0BB0B802DB5
:104B8000BF01FF2793585F4F3AF09E3F510578F0E1
:104B90000C9486260C94D1265F3FE4F3983ED4F320
:104BA000869577956795B795F7959F5FC9F7880FB5
:104BB000911D9695879597F90895E1E0660F771F07
:104BC000881FBB1F621773078407BA0720F0621B98
:104BD000730B840BBA0BEE1F88F7E09508950E94C3
:104BE000F6256894B1110C94D12608950E94B6263A
:104BF00088F09F5798F0B92F9927B751B0F0E1F09E
:104C0000660F771F881F991F1AF0BA95C9F714C04D
:104C1000B13091F00E94D026B1E008950C94D026D6
:104C2000672F782F8827B85F39F0B93FCCF3869586
:104C300077956795B395D9F73EF4909580957095E3
:104C400061957F4F8F4F9F4F0895E89409C097FB60
:104C50003EF490958095709561957F4F8F4F9F4F53
:104C60009923A9F0F92F96E9BB279395F695879597
:104C700077956795B795F111F8CFFAF4BB0F11F45A
:104C800060FF1BC06F5F7F4F8F4F9F4F16C0882301
:104C900011F096E911C0772321F09EE8872F762F37
:104CA00005C0662371F096E8862F70E060E02AF078
:104CB0009A95660F771F881FDAF7880F9695879564
:104CC00097F90895990F0008550FAA0BE0E8FEEF39
:104CD00016161706E807F907C0F012161306E407C0
:104CE000F50798F0621B730B840B950B39F40A26B9
:104CF00061F0232B242B252B21F408950A2609F497
:104D0000A140A6958FEF811D811D089597F99F679A
:104D100080E870E060E008959FEF80EC0895002443
:104D20000A941616170618060906089500240A9410
:104D300012161306140605060895092E0394000C96
:104D400011F4882352F0BB0F40F4BF2B11F460FF25
:104D500004C06F5F7F4F8F4F9F4F089557FD90584E
:104D6000440F551F59F05F3F71F04795880F97FB2F
:104D7000991F61F09F3F79F08795089512161306E9
:104D80001406551FF2CF4695F1DF08C01616170618
:104D90001806991FF1CF869571056105089408954D
:104DA000E894BB2766277727CB0197F908950E94DF
:104DB000622608F48FEF08950E94EF260C949D263A
:104DC0000E948F2638F00E94962620F0952311F03D
:104DD0000C9486260C948C2611240C94D1260E94C7
:104DE000AE2670F3959FC1F3950F50E0551F629F5B
:104DF000F001729FBB27F00DB11D639FAA27F00D34
:104E0000B11DAA1F649F6627B00DA11D661F829F5A
:104E10002227B00DA11D621F739FB00DA11D621F3F
:104E2000839FA00D611D221F749F3327A00D611D5C
:104E3000231F849F600D211D822F762F6A2F11243E
:104E40009F5750409AF0F1F088234AF0EE0FFF1F71
:104E5000BB1F661F771F881F91505040A9F79E3FC8
:104E6000510580F00C9486260C94D1265F3FE4F324
:104E7000983ED4F3869577956795B795F795E7951E
:104E80009F5FC1F7FE2B880F911D9695879597F927
:104E900008950E946226880B990B089597FB072EB0
:104EA00016F4009407D077FD09D00E94622707FC12
:104EB00005D03EF4909581959F4F0895709561952A
:104EC0007F4F0895AA1BBB1B51E107C0AA1FBB1F40
:104ED000A617B70710F0A61BB70B881F991F5A9586
:104EE000A9F780959095BC01CD010895EE0FFF1FA5
:104EF0000590F491E02D09940F931F93CF93DF93C6
:104F00008230910510F482E090E0E0912B04F09162
:104F10002C0430E020E0B0E0A0E0309799F42115B7
:104F2000310509F44AC0281B390B24303105D8F566
:104F30008A819B816115710589F1FB0193838283CD
:104F4000FE0111C040815181028113814817590728
:104F5000E0F04817590799F4109761F012960C93F6
:104F6000129713961C933296CF01DF91CF911F9128
:104F70000F91089500932B0410932C04F4CF211566
:104F8000310551F04217530738F0A901DB019A01AE
:104F9000BD01DF01F801C1CFEF01F9CF90932C04DF
:104FA00080932B04CDCFFE01E20FF31F81939193E9
:104FB0002250310939832883D7CF20912904309199
:104FC0002A04232B41F420911201309113013093D4
:104FD0002A042093290420911001309111012115F8
:104FE000310541F42DB73EB74091140150911501A0
:104FF000241B350BE0912904F0912A04E217F307F2
:10500000A0F42E1B3F0B2817390778F0AC014E5F38
:105010005F4F2417350748F04E0F5F1F50932A0447
:1050200040932904819391939FCFF0E0E0E09CCFDF
:10503000CF93DF930097E9F0FC013297138212823D
:10504000A0912B04B0912C04ED0130E020E01097EA
:10505000A1F420813181820F931F20912904309186
:105060002A042817390709F061C0F0932A04E09355
:105070002904DF91CF910895EA01CE17DF07E8F503
:105080004A815B819E0141155105B1F7E901FB831E
:10509000EA8349915991C40FD51FEC17FD0761F4BC
:1050A000808191810296840F951FE90199838883FD
:1050B000828193819B838A83F0E0E0E012968D9158
:1050C0009C9113970097B9F52D913C911197CD01C3
:1050D0000296820F931F2091290430912A042817E9
:1050E000390739F6309751F510922C0410922B04A1
:1050F000B0932A04A0932904BCCFD383C2834081F8
:105100005181840F951FC817D90761F44E5F5F4F17
:1051100088819981480F591F518340838A819B81DF
:10512000938382832115310509F0B0CFF0932C04CD
:10513000E0932B049ECFFD01DC01C0CF13821282CD
:10514000D7CF81E090E0F8940C94AD28DC0101C049
:105150006D9341505040E0F7089516E0C6E0D6E068
:1051600004C0FE010E9476272196C730D107C9F7F7
:10517000F894FFCF7B077B077878784173007878C5
:105180007878000100002D04800000000000D71096
:10519000AA108B144706A310901081100000000085
:1051A000450C7C078B141A1050094706050FDD0EBD
:1051B000F90EED0E6D0F47060B0A3514C0080909EC
:1051C000260E090E910D320D0D0A006E616E0069FA
:0851D0006E66006F76660000B8
:107E0000112484B714BE81FFF0D085E080938100F7
:107E100082E08093C00088E18093C10086E0809377
:107E2000C20080E18093C4008EE0C9D0259A86E02C
:107E300020E33CEF91E0309385002093840096BBD3
:107E4000B09BFECF1D9AA8958150A9F7CC24DD24C4
:107E500088248394B5E0AB2EA1E19A2EF3E0BF2EE7
:107E6000A2D0813461F49FD0082FAFD0023811F036
:107E7000013811F484E001C083E08DD089C08234E0
:107E800011F484E103C0853419F485E0A6D080C0E4
:107E9000853579F488D0E82EFF2485D0082F10E0AE
:107EA000102F00270E291F29000F111F8ED06801E7
:107EB0006FC0863521F484E090D080E0DECF843638
:107EC00009F040C070D06FD0082F6DD080E0C81688
:107ED00080E7D80618F4F601B7BEE895C0E0D1E017
:107EE00062D089930C17E1F7F0E0CF16F0E7DF06D8
:107EF00018F0F601B7BEE89568D007B600FCFDCFD4
:107F0000A601A0E0B1E02C9130E011968C91119780
:107F100090E0982F8827822B932B1296FA010C0160
:107F200087BEE89511244E5F5F4FF1E0A038BF0790
:107F300051F7F601A7BEE89507B600FCFDCF97BE46
:107F4000E89526C08437B1F42ED02DD0F82E2BD052
:107F50003CD0F601EF2C8F010F5F1F4F84911BD097
:107F6000EA94F801C1F70894C11CD11CFA94CF0C13
:107F7000D11C0EC0853739F428D08EE10CD085E9AC
:107F80000AD08FE07ACF813511F488E018D01DD067
:107F900080E101D065CF982F8091C00085FFFCCF94
:107FA0009093C60008958091C00087FFFCCF809118
:107FB000C00084FD01C0A8958091C6000895E0E648
:107FC000F0E098E1908380830895EDDF803219F02E
:107FD00088E0F5DFFFCF84E1DECF1F93182FE3DFCA
:107FE0001150E9F7F2DF1F91089580E0E8DFEE27F6
:047FF000FF270994CA
:027FFE00040479
:00000001FF
